{
  "abi": [
    {
      "constant": true,
      "inputs": [],
      "name": "someVar",
      "outputs": [
        {
          "name": "",
          "type": "uint256"
        }
      ],
      "payable": false,
      "stateMutability": "view",
      "type": "function"
    },
    {
      "constant": true,
      "inputs": [],
      "name": "value",
      "outputs": [
        {
          "name": "",
          "type": "uint256"
        }
      ],
      "payable": false,
      "stateMutability": "view",
      "type": "function"
    },
    {
      "constant": true,
      "inputs": [],
      "name": "data",
      "outputs": [
        {
          "name": "",
          "type": "bytes"
        }
      ],
      "payable": false,
      "stateMutability": "view",
      "type": "function"
    },
    {
      "constant": false,
      "inputs": [
        {
          "name": "_from",
          "type": "address"
        },
        {
          "name": "_value",
          "type": "uint256"
        },
        {
          "name": "_data",
          "type": "bytes"
        }
      ],
      "name": "onTokenTransfer",
      "outputs": [
        {
          "name": "",
          "type": "bool"
        }
      ],
      "payable": false,
      "stateMutability": "nonpayable",
      "type": "function"
    },
    {
      "constant": false,
      "inputs": [
        {
          "name": "_value",
          "type": "uint256"
        }
      ],
      "name": "doSomething",
      "outputs": [],
      "payable": false,
      "stateMutability": "nonpayable",
      "type": "function"
    },
    {
      "constant": true,
      "inputs": [],
      "name": "from",
      "outputs": [
        {
          "name": "",
          "type": "address"
        }
      ],
      "payable": false,
      "stateMutability": "view",
      "type": "function"
    }
  ],
  "bytecode": {
    "object": "0x6080604052600060035534801561001557600080fd5b506103de806100256000396000f30060806040526004361061005b5760003560e01c63ffffffff16806321eba2da146100605780633fa4f2451461008757806373d4a13a1461009c578063a4c0ed3614610126578063a6b206bf14610178578063d5ce338914610192575b600080fd5b34801561006c57600080fd5b506100756101d0565b60408051918252519081900360200190f35b34801561009357600080fd5b506100756101d6565b3480156100a857600080fd5b506100b16101dc565b6040805160208082528351818301528351919283929083019185019080838360005b838110156100eb5781810151838201526020016100d3565b50505050905090810190601f1680156101185780820380516001836020036101000a031916815260200191505b509250505060405180910390f35b34801561013257600080fd5b506101646004803573ffffffffffffffffffffffffffffffffffffffff16906024803591604435918201910135610267565b604080519115158252519081900360200190f35b34801561018457600080fd5b506101906004356102f6565b005b34801561019e57600080fd5b506101a76102fb565b6040805173ffffffffffffffffffffffffffffffffffffffff9092168252519081900360200190f35b60035481565b60015481565b6002805460408051602060018416156101000260001901909316849004601f8101849004840282018401909252818152929183018282801561025f5780601f106102345761010080835404028352916020019161025f565b820191906000526020600020905b81548152906001019060200180831161024257829003601f168201915b505050505081565b6000805473ffffffffffffffffffffffffffffffffffffffff191673ffffffffffffffffffffffffffffffffffffffff861617815560018490556102ad60028484610317565b503073ffffffffffffffffffffffffffffffffffffffff168383604051808383808284378201915050925050506000604051808303816000865af1506001979650505050505050565b600355565b60005473ffffffffffffffffffffffffffffffffffffffff1681565b828054600181600116156101000203166002900490600052602060002090601f016020900481019282601f106103585782800160ff19823516178555610385565b82800160010185558215610385579182015b8281111561038557823582559160200191906001019061036a565b50610391929150610395565b5090565b6103af91905b80821115610391576000815560010161039b565b905600a165627a7a723058209406ae0206890c9cf905fbf3e54599391307a327156a2ea1508f7cb67f8f6cae0029",
    "linkReferences": {}
  },
  "methodIdentifiers": {
    "data()": "73d4a13a",
    "doSomething(uint256)": "a6b206bf",
    "from()": "d5ce3389",
    "onTokenTransfer(address,uint256,bytes)": "a4c0ed36",
    "someVar()": "21eba2da",
    "value()": "3fa4f245"
  },
  "id": 47
}