{
  "abi": [
    {
      "constant": false,
      "inputs": [
        {
          "name": "_bridge",
          "type": "address"
        }
      ],
      "name": "removeBridge",
      "outputs": [],
      "payable": false,
      "stateMutability": "nonpayable",
      "type": "function"
    },
    {
      "constant": false,
      "inputs": [
        {
          "name": "_to",
          "type": "address"
        },
        {
          "name": "_amount",
          "type": "uint256"
        }
      ],
      "name": "mint",
      "outputs": [
        {
          "name": "",
          "type": "bool"
        }
      ],
      "payable": false,
      "stateMutability": "nonpayable",
      "type": "function"
    },
    {
      "constant": false,
      "inputs": [],
      "name": "renounceOwnership",
      "outputs": [],
      "payable": false,
      "stateMutability": "nonpayable",
      "type": "function"
    },
    {
      "constant": true,
      "inputs": [
        {
          "name": "",
          "type": "address"
        }
      ],
      "name": "isBridge",
      "outputs": [
        {
          "name": "",
          "type": "bool"
        }
      ],
      "payable": false,
      "stateMutability": "view",
      "type": "function"
    },
    {
      "constant": true,
      "inputs": [],
      "name": "owner",
      "outputs": [
        {
          "name": "",
          "type": "address"
        }
      ],
      "payable": false,
      "stateMutability": "view",
      "type": "function"
    },
    {
      "constant": false,
      "inputs": [
        {
          "name": "_bridge",
          "type": "address"
        }
      ],
      "name": "addBridge",
      "outputs": [],
      "payable": false,
      "stateMutability": "nonpayable",
      "type": "function"
    },
    {
      "constant": false,
      "inputs": [
        {
          "name": "_newOwner",
          "type": "address"
        }
      ],
      "name": "transferOwnership",
      "outputs": [],
      "payable": false,
      "stateMutability": "nonpayable",
      "type": "function"
    },
    {
      "constant": true,
      "inputs": [],
      "name": "token",
      "outputs": [
        {
          "name": "",
          "type": "address"
        }
      ],
      "payable": false,
      "stateMutability": "view",
      "type": "function"
    },
    {
      "inputs": [
        {
          "name": "_token",
          "type": "address"
        }
      ],
      "payable": false,
      "stateMutability": "nonpayable",
      "type": "constructor"
    },
    {
      "anonymous": false,
      "inputs": [
        {
          "indexed": true,
          "name": "previousOwner",
          "type": "address"
        }
      ],
      "name": "OwnershipRenounced",
      "type": "event"
    },
    {
      "anonymous": false,
      "inputs": [
        {
          "indexed": true,
          "name": "previousOwner",
          "type": "address"
        },
        {
          "indexed": true,
          "name": "newOwner",
          "type": "address"
        }
      ],
      "name": "OwnershipTransferred",
      "type": "event"
    }
  ],
  "bytecode": {
    "object": "0x608060405234801561001057600080fd5b5060405160208061048c833981016040525160008054600160a060020a0319908116331790915560018054600160a060020a039093169290911691909117905561042d8061005f6000396000f3006080604052600436106100715760003560e01c63ffffffff16806304df017d1461007657806340c10f1914610099578063715018a6146100d1578063726600ce146100e65780638da5cb5b146101075780639712fdf814610138578063f2fde38b14610159578063fc0c546a1461017a575b600080fd5b34801561008257600080fd5b50610097600160a060020a036004351661018f565b005b3480156100a557600080fd5b506100bd600160a060020a03600435166024356101c7565b604080519115158252519081900360200190f35b3480156100dd57600080fd5b50610097610287565b3480156100f257600080fd5b506100bd600160a060020a03600435166102f3565b34801561011357600080fd5b5061011c610308565b60408051600160a060020a039092168252519081900360200190f35b34801561014457600080fd5b50610097600160a060020a0360043516610317565b34801561016557600080fd5b50610097600160a060020a0360043516610352565b34801561018657600080fd5b5061011c610375565b600054600160a060020a031633146101a657600080fd5b600160a060020a03166000908152600260205260409020805460ff19169055565b3360009081526002602052604081205460ff1615156101e557600080fd5b600154604080517f40c10f19000000000000000000000000000000000000000000000000000000008152600160a060020a03868116600483015260248201869052915191909216916340c10f199160448083019260209291908290030181600087803b15801561025457600080fd5b505af1158015610268573d6000803e3d6000fd5b505050506040513d602081101561027e57600080fd5b50519392505050565b600054600160a060020a0316331461029e57600080fd5b60008054604051600160a060020a03909116917ff8df31144d9c2f0f6b59d69b8b98abd5459d07f2742c4df920b25aae33c6482091a26000805473ffffffffffffffffffffffffffffffffffffffff19169055565b60026020526000908152604090205460ff1681565b600054600160a060020a031681565b600054600160a060020a0316331461032e57600080fd5b600160a060020a03166000908152600260205260409020805460ff19166001179055565b600054600160a060020a0316331461036957600080fd5b61037281610384565b50565b600154600160a060020a031681565b600160a060020a038116151561039957600080fd5b60008054604051600160a060020a03808516939216917f8be0079c531659141344cd1fd0a4f28419497f9722a3daafe3b4186f6b6457e091a36000805473ffffffffffffffffffffffffffffffffffffffff1916600160a060020a03929092169190911790555600a165627a7a72305820cac8e14ed58f87e049cadd693c2ba0b6edfd68f6ba43ac205ef30b79352514170029",
    "linkReferences": {}
  },
  "methodIdentifiers": {
    "addBridge(address)": "9712fdf8",
    "isBridge(address)": "726600ce",
    "mint(address,uint256)": "40c10f19",
    "owner()": "8da5cb5b",
    "removeBridge(address)": "04df017d",
    "renounceOwnership()": "715018a6",
    "token()": "fc0c546a",
    "transferOwnership(address)": "f2fde38b"
  },
  "id": 54
}