{
  "abi": [
    {
      "constant": false,
      "inputs": [
        {
          "name": "_receiver",
          "type": "address"
        },
        {
          "name": "_amount",
          "type": "uint256"
        }
      ],
      "name": "relayTokens",
      "outputs": [],
      "payable": false,
      "stateMutability": "nonpayable",
      "type": "function"
    },
    {
      "constant": true,
      "inputs": [],
      "name": "erc20token",
      "outputs": [
        {
          "name": "",
          "type": "address"
        }
      ],
      "payable": false,
      "stateMutability": "view",
      "type": "function"
    },
    {
      "constant": true,
      "inputs": [
        {
          "name": "_txHash",
          "type": "bytes32"
        }
      ],
      "name": "relayedMessages",
      "outputs": [
        {
          "name": "",
          "type": "bool"
        }
      ],
      "payable": false,
      "stateMutability": "view",
      "type": "function"
    },
    {
      "constant": true,
      "inputs": [
        {
          "name": "_day",
          "type": "uint256"
        }
      ],
      "name": "totalSpentPerDay",
      "outputs": [
        {
          "name": "",
          "type": "uint256"
        }
      ],
      "payable": false,
      "stateMutability": "view",
      "type": "function"
    },
    {
      "constant": true,
      "inputs": [],
      "name": "isInitialized",
      "outputs": [
        {
          "name": "",
          "type": "bool"
        }
      ],
      "payable": false,
      "stateMutability": "view",
      "type": "function"
    },
    {
      "constant": false,
      "inputs": [
        {
          "name": "_dailyLimit",
          "type": "uint256"
        }
      ],
      "name": "setExecutionDailyLimit",
      "outputs": [],
      "payable": false,
      "stateMutability": "nonpayable",
      "type": "function"
    },
    {
      "constant": true,
      "inputs": [],
      "name": "getCurrentDay",
      "outputs": [
        {
          "name": "",
          "type": "uint256"
        }
      ],
      "payable": false,
      "stateMutability": "view",
      "type": "function"
    },
    {
      "constant": true,
      "inputs": [],
      "name": "requiredBlockConfirmations",
      "outputs": [
        {
          "name": "",
          "type": "uint256"
        }
      ],
      "payable": false,
      "stateMutability": "view",
      "type": "function"
    },
    {
      "constant": false,
      "inputs": [
        {
          "name": "message",
          "type": "bytes"
        },
        {
          "name": "signatures",
          "type": "bytes"
        }
      ],
      "name": "executeSignatures",
      "outputs": [],
      "payable": false,
      "stateMutability": "nonpayable",
      "type": "function"
    },
    {
      "constant": true,
      "inputs": [],
      "name": "getBridgeMode",
      "outputs": [
        {
          "name": "_data",
          "type": "bytes4"
        }
      ],
      "payable": false,
      "stateMutability": "pure",
      "type": "function"
    },
    {
      "constant": true,
      "inputs": [],
      "name": "executionDailyLimit",
      "outputs": [
        {
          "name": "",
          "type": "uint256"
        }
      ],
      "payable": false,
      "stateMutability": "view",
      "type": "function"
    },
    {
      "constant": true,
      "inputs": [
        {
          "name": "_day",
          "type": "uint256"
        }
      ],
      "name": "totalExecutedPerDay",
      "outputs": [
        {
          "name": "",
          "type": "uint256"
        }
      ],
      "payable": false,
      "stateMutability": "view",
      "type": "function"
    },
    {
      "constant": true,
      "inputs": [],
      "name": "dailyLimit",
      "outputs": [
        {
          "name": "",
          "type": "uint256"
        }
      ],
      "payable": false,
      "stateMutability": "view",
      "type": "function"
    },
    {
      "constant": false,
      "inputs": [
        {
          "name": "_token",
          "type": "address"
        },
        {
          "name": "_to",
          "type": "address"
        }
      ],
      "name": "claimTokens",
      "outputs": [],
      "payable": false,
      "stateMutability": "nonpayable",
      "type": "function"
    },
    {
      "constant": false,
      "inputs": [
        {
          "name": "_validatorContract",
          "type": "address"
        },
        {
          "name": "_erc20token",
          "type": "address"
        },
        {
          "name": "_requiredBlockConfirmations",
          "type": "uint256"
        },
        {
          "name": "_gasPrice",
          "type": "uint256"
        },
        {
          "name": "_dailyLimitMaxPerTxMinPerTxArray",
          "type": "uint256[3]"
        },
        {
          "name": "_homeDailyLimitHomeMaxPerTxArray",
          "type": "uint256[2]"
        },
        {
          "name": "_owner",
          "type": "address"
        },
        {
          "name": "_decimalShift",
          "type": "int256"
        },
        {
          "name": "_bridgeOnOtherSide",
          "type": "address"
        }
      ],
      "name": "initialize",
      "outputs": [
        {
          "name": "",
          "type": "bool"
        }
      ],
      "payable": false,
      "stateMutability": "nonpayable",
      "type": "function"
    },
    {
      "constant": true,
      "inputs": [
        {
          "name": "_amount",
          "type": "uint256"
        }
      ],
      "name": "withinExecutionLimit",
      "outputs": [
        {
          "name": "",
          "type": "bool"
        }
      ],
      "payable": false,
      "stateMutability": "view",
      "type": "function"
    },
    {
      "constant": true,
      "inputs": [],
      "name": "executionMaxPerTx",
      "outputs": [
        {
          "name": "",
          "type": "uint256"
        }
      ],
      "payable": false,
      "stateMutability": "view",
      "type": "function"
    },
    {
      "constant": true,
      "inputs": [],
      "name": "requiredSignatures",
      "outputs": [
        {
          "name": "",
          "type": "uint256"
        }
      ],
      "payable": false,
      "stateMutability": "view",
      "type": "function"
    },
    {
      "constant": true,
      "inputs": [],
      "name": "owner",
      "outputs": [
        {
          "name": "",
          "type": "address"
        }
      ],
      "payable": false,
      "stateMutability": "view",
      "type": "function"
    },
    {
      "constant": true,
      "inputs": [],
      "name": "maxAvailablePerTx",
      "outputs": [
        {
          "name": "",
          "type": "uint256"
        }
      ],
      "payable": false,
      "stateMutability": "view",
      "type": "function"
    },
    {
      "constant": true,
      "inputs": [],
      "name": "validatorContract",
      "outputs": [
        {
          "name": "",
          "type": "address"
        }
      ],
      "payable": false,
      "stateMutability": "view",
      "type": "function"
    },
    {
      "constant": true,
      "inputs": [],
      "name": "deployedAtBlock",
      "outputs": [
        {
          "name": "",
          "type": "uint256"
        }
      ],
      "payable": false,
      "stateMutability": "view",
      "type": "function"
    },
    {
      "constant": true,
      "inputs": [],
      "name": "getBridgeInterfacesVersion",
      "outputs": [
        {
          "name": "major",
          "type": "uint64"
        },
        {
          "name": "minor",
          "type": "uint64"
        },
        {
          "name": "patch",
          "type": "uint64"
        }
      ],
      "payable": false,
      "stateMutability": "pure",
      "type": "function"
    },
    {
      "constant": false,
      "inputs": [
        {
          "name": "_minPerTx",
          "type": "uint256"
        }
      ],
      "name": "setMinPerTx",
      "outputs": [],
      "payable": false,
      "stateMutability": "nonpayable",
      "type": "function"
    },
    {
      "constant": false,
      "inputs": [
        {
          "name": "_blockConfirmations",
          "type": "uint256"
        }
      ],
      "name": "setRequiredBlockConfirmations",
      "outputs": [],
      "payable": false,
      "stateMutability": "nonpayable",
      "type": "function"
    },
    {
      "constant": false,
      "inputs": [
        {
          "name": "_dailyLimit",
          "type": "uint256"
        }
      ],
      "name": "setDailyLimit",
      "outputs": [],
      "payable": false,
      "stateMutability": "nonpayable",
      "type": "function"
    },
    {
      "constant": false,
      "inputs": [
        {
          "name": "_gasPrice",
          "type": "uint256"
        }
      ],
      "name": "setGasPrice",
      "outputs": [],
      "payable": false,
      "stateMutability": "nonpayable",
      "type": "function"
    },
    {
      "constant": false,
      "inputs": [
        {
          "name": "_maxPerTx",
          "type": "uint256"
        }
      ],
      "name": "setMaxPerTx",
      "outputs": [],
      "payable": false,
      "stateMutability": "nonpayable",
      "type": "function"
    },
    {
      "constant": true,
      "inputs": [],
      "name": "decimalShift",
      "outputs": [
        {
          "name": "",
          "type": "int256"
        }
      ],
      "payable": false,
      "stateMutability": "view",
      "type": "function"
    },
    {
      "constant": true,
      "inputs": [],
      "name": "minPerTx",
      "outputs": [
        {
          "name": "",
          "type": "uint256"
        }
      ],
      "payable": false,
      "stateMutability": "view",
      "type": "function"
    },
    {
      "constant": true,
      "inputs": [
        {
          "name": "_amount",
          "type": "uint256"
        }
      ],
      "name": "withinLimit",
      "outputs": [
        {
          "name": "",
          "type": "bool"
        }
      ],
      "payable": false,
      "stateMutability": "view",
      "type": "function"
    },
    {
      "constant": false,
      "inputs": [
        {
          "name": "_maxPerTx",
          "type": "uint256"
        }
      ],
      "name": "setExecutionMaxPerTx",
      "outputs": [],
      "payable": false,
      "stateMutability": "nonpayable",
      "type": "function"
    },
    {
      "constant": false,
      "inputs": [
        {
          "name": "newOwner",
          "type": "address"
        }
      ],
      "name": "transferOwnership",
      "outputs": [],
      "payable": false,
      "stateMutability": "nonpayable",
      "type": "function"
    },
    {
      "constant": true,
      "inputs": [],
      "name": "maxPerTx",
      "outputs": [
        {
          "name": "",
          "type": "uint256"
        }
      ],
      "payable": false,
      "stateMutability": "view",
      "type": "function"
    },
    {
      "constant": true,
      "inputs": [],
      "name": "gasPrice",
      "outputs": [
        {
          "name": "",
          "type": "uint256"
        }
      ],
      "payable": false,
      "stateMutability": "view",
      "type": "function"
    },
    {
      "anonymous": false,
      "inputs": [
        {
          "indexed": false,
          "name": "recipient",
          "type": "address"
        },
        {
          "indexed": false,
          "name": "value",
          "type": "uint256"
        },
        {
          "indexed": false,
          "name": "transactionHash",
          "type": "bytes32"
        }
      ],
      "name": "RelayedMessage",
      "type": "event"
    },
    {
      "anonymous": false,
      "inputs": [
        {
          "indexed": false,
          "name": "recipient",
          "type": "address"
        },
        {
          "indexed": false,
          "name": "value",
          "type": "uint256"
        }
      ],
      "name": "UserRequestForAffirmation",
      "type": "event"
    },
    {
      "anonymous": false,
      "inputs": [
        {
          "indexed": false,
          "name": "newLimit",
          "type": "uint256"
        }
      ],
      "name": "DailyLimitChanged",
      "type": "event"
    },
    {
      "anonymous": false,
      "inputs": [
        {
          "indexed": false,
          "name": "newLimit",
          "type": "uint256"
        }
      ],
      "name": "ExecutionDailyLimitChanged",
      "type": "event"
    },
    {
      "anonymous": false,
      "inputs": [
        {
          "indexed": false,
          "name": "gasPrice",
          "type": "uint256"
        }
      ],
      "name": "GasPriceChanged",
      "type": "event"
    },
    {
      "anonymous": false,
      "inputs": [
        {
          "indexed": false,
          "name": "requiredBlockConfirmations",
          "type": "uint256"
        }
      ],
      "name": "RequiredBlockConfirmationChanged",
      "type": "event"
    },
    {
      "anonymous": false,
      "inputs": [
        {
          "indexed": false,
          "name": "previousOwner",
          "type": "address"
        },
        {
          "indexed": false,
          "name": "newOwner",
          "type": "address"
        }
      ],
      "name": "OwnershipTransferred",
      "type": "event"
    }
  ],
  "bytecode": {
    "object": "0x608060405234801561001057600080fd5b50612a12806100206000396000f30060806040526004361061019a5760003560e01c63ffffffff16806301e4f53a1461019f5780631dcea427146101c557806321d800ec146101f65780632bd0bb0514610222578063392e53cd1461024c5780633dd95d1b146102615780633e6968b6146102795780633f0a9f651461028e5780633f7658fd146102a3578063437764df146102cf57806343b37dd3146103195780634fb3fef71461032e57806367eeba0c1461034657806369ffa08a1461035b5780636da8b99614610382578063879ce676146103ca5780638aa1949a146103e25780638d068043146103f75780638da5cb5b1461040c57806395e54a171461042157806399439089146104365780639a454b991461044b5780639cb7595a14610460578063a2a6ca27146104a1578063acf5c689146104b9578063b20d30a9146104d1578063bf1fe420146104e9578063c6f6f21614610501578063dae5f0fd14610519578063df25f3f01461052e578063ea9f496814610543578063f20151e11461055b578063f2fde38b14610573578063f968adbe14610594578063fe173b97146105a9575b600080fd5b3480156101ab57600080fd5b506101c3600160a060020a03600435166024356105be565b005b3480156101d157600080fd5b506101da610728565b60408051600160a060020a039092168252519081900360200190f35b34801561020257600080fd5b5061020e60043561077f565b604080519115158252519081900360200190f35b34801561022e57600080fd5b5061023a600435610848565b60408051918252519081900360200190f35b34801561025857600080fd5b5061020e610905565b34801561026d57600080fd5b506101c3600435610956565b34801561028557600080fd5b5061023a610a16565b34801561029a57600080fd5b5061023a610a1f565b3480156102af57600080fd5b506101c36024600480358281019290820135918135918201910135610a6d565b3480156102db57600080fd5b506102e4610be2565b604080517fffffffff000000000000000000000000000000000000000000000000000000009092168252519081900360200190f35b34801561032557600080fd5b5061023a610c06565b34801561033a57600080fd5b5061023a600435610c54565b34801561035257600080fd5b5061023a610ccf565b34801561036757600080fd5b506101c3600160a060020a0360043581169060243516610d1d565b34801561038e57600080fd5b5061020e600160a060020a03600435811690602435811690604435906064359060849060e4906101243581169061014435906101643516610dc6565b3480156103d657600080fd5b5061020e60043561109b565b3480156103ee57600080fd5b5061023a6110e5565b34801561040357600080fd5b5061023a611133565b34801561041857600080fd5b506101da6111a8565b34801561042d57600080fd5b5061023a6111ff565b34801561044257600080fd5b506101da611259565b34801561045757600080fd5b5061023a6112b0565b34801561046c57600080fd5b506104756112fe565b6040805167ffffffffffffffff9485168152928416602084015292168183015290519081900360600190f35b3480156104ad57600080fd5b506101c3600435611309565b3480156104c557600080fd5b506101c36004356113a5565b3480156104dd57600080fd5b506101c36004356113cd565b3480156104f557600080fd5b506101c360043561148d565b34801561050d57600080fd5b506101c36004356114b2565b34801561052557600080fd5b5061023a61154a565b34801561053a57600080fd5b5061023a611598565b34801561054f57600080fd5b5061020e6004356115e6565b34801561056757600080fd5b506101c3600435611631565b34801561057f57600080fd5b506101c3600160a060020a03600435166116ad565b3480156105a057600080fd5b5061023a6116d2565b3480156105b557600080fd5b5061023a611720565b6105c661176e565b600160a060020a03838116911614156105de57600080fd5b600160a060020a03821615156105f357600080fd5b600160a060020a03821630141561060957600080fd5b6000811161061657600080fd5b61061f816115e6565b151561062a57600080fd5b61063b610635610a16565b826117c5565b610643610728565b604080517f23b872dd000000000000000000000000000000000000000000000000000000008152336004820152306024820152604481018490529051600160a060020a0392909216916323b872dd916064808201926020929091908290030181600087803b1580156106b457600080fd5b505af11580156106c8573d6000803e3d6000fd5b505050506040513d60208110156106de57600080fd5b505060408051600160a060020a03841681526020810183905281517f1d491a427d1f8cc0d447496f300fac39f7306122481d8e663451eb268274146b929181900390910190a15050565b7f15d63b18dbc21bf4438b7972d80076747e1d93c4f87552fe498c90cbde51665e60005260026020527f70dfdbaec92bfd068fb9a67f8c22440e995abe75330f5b6b79a478c9bc8ccbd154600160a060020a031690565b6000600460008360405160200180807f72656c617965644d657373616765730000000000000000000000000000000000815250600f0182600019166000191681526020019150506040516020818303038152906040526040518082805190602001908083835b602083106108045780518252601f1990920191602091820191016107e5565b51815160209384036101000a600019018019909216911617905260408051929094018290039091208652850195909552929092016000205460ff1695945050505050565b60008060008360405160200180807f746f74616c5370656e74506572446179000000000000000000000000000000008152506010018281526020019150506040516020818303038152906040526040518082805190602001908083835b602083106108c45780518252601f1990920191602091820191016108a5565b51815160209384036101000a600019018019909216911617905260408051929094018290039091208652850195909552929092016000205495945050505050565b7f0a6f646cd611241d8073675e00d1a1ff700fbf1b53fcf473de56d1e6e4b714ba60005260046020527f078d888f9b66f3f8bfa10909e31f1e16240db73449f0500afdbbe3a70da457cc5460ff1690565b61095e6111a8565b600160a060020a0316331461097257600080fd5b61097a6110e5565b811180610985575080155b151561099057600080fd5b7f21dbcab260e413c20dc13c28b7db95e2b423d1135f42bb8b7d5214a92270d237600090815260209081527fadd938dbd083a16bae12238cd914fca0afc7a30edb55b1cd5c7f1823f1b0e4218290556040805183815290517f9bebf928b90863f24cc31f726a3a7545efd409f1dcf552301b1ee3710da70d3b929181900390910190a150565b62015180420490565b7f916daedf6915000ff68ced2f0b6773fe6f2582237f92c3c95bb4d7940723007160009081526020527fd2ea0feb732edb0ffe32efd33a6b9d24d46b16eb34a4d07ce256537b6f131e425490565b600080600080610ae588888080601f0160208091040260200160405190810160405280939291908181526020018383808284375050604080516020601f8e018190048102820181019092528c815294508c93508b9250829150840183828082843750610ade94506112599350505050565b600061188e565b610b1e88888080601f01602080910402602001604051908101604052809392919081815260200183838082843750611b12945050505050565b92965090945092509050610b318361109b565b15610bcd57600160a060020a0381163014610b4b57600080fd5b610b548261077f565b15610b5e57600080fd5b610b69826001611b4d565b610b74848484611c1f565b1515610b7f57600080fd5b60408051600160a060020a03861681526020810185905280820184905290517f4ab7d581336d92edbea22636a613e8e76c99ac7f91137c1523db38dbfb3bf3299181900360600190a1610bd8565b610bd884848461019a565b5050505050505050565b7f18762d460000000000000000000000000000000000000000000000000000000090565b7f21dbcab260e413c20dc13c28b7db95e2b423d1135f42bb8b7d5214a92270d23760009081526020527fadd938dbd083a16bae12238cd914fca0afc7a30edb55b1cd5c7f1823f1b0e4215490565b60008060008360405160200180807f746f74616c457865637574656450657244617900000000000000000000000000815250601301828152602001915050604051602081830303815290604052604051808280519060200190808383602083106108c45780518252601f1990920191602091820191016108a5565b7f4a6a899679f26b73530d8cf1001e83b6f7702e04b6fdb98f3c62dc7e47e041a560009081526020527f1ab29a5cca988aee50edccdd61c5bcaa7ad4b29a03b7ee50f298ceccfe14cc4e5490565b30600160a060020a0316636fde82026040518163ffffffff1660e01b8152600401602060405180830381600087803b158015610d5857600080fd5b505af1158015610d6c573d6000803e3d6000fd5b505050506040513d6020811015610d8257600080fd5b5051600160a060020a03163314610d9857600080fd5b610da0610728565b600160a060020a0383811691161415610db857600080fd5b610dc28282611cd5565b5050565b60408051600481526024810182526020810180517bffffffffffffffffffffffffffffffffffffffffffffffffffffffff167f6fde8202000000000000000000000000000000000000000000000000000000001781529151815160009330939291829190808383895b83811015610e47578181015183820152602001610e2f565b50505050905090810190601f168015610e745780820380516001836020036101000a031916815260200191505b509150506000604051808303816000865af19150501580610f03575030600160a060020a0316636fde82026040518163ffffffff1660e01b8152600401602060405180830381600087803b158015610ecb57600080fd5b505af1158015610edf573d6000803e3d6000fd5b505050506040513d6020811015610ef557600080fd5b5051600160a060020a031633145b80610f0d57503330145b1515610f1857600080fd5b610f20610905565b15610f2a57600080fd5b610f338a611d18565b1515610f3e57600080fd5b7f5a74bb7e202fb8e4bf311841c7d64ec19df195fee77d7e7ae749b27921b6ddfe60005260026020527fab54f3fbbe62c59b7876a9bf9bd5e0c22dbae93f4d8ee0438f7ce62b198eb0e0805473ffffffffffffffffffffffffffffffffffffffff1916600160a060020a038c16179055610fb789611d20565b7fb120ceec05576ad0c710bc6e85f1768535e27554458f05dcbb5c65b8c7a749b06000908152602052437fe66bef0282a446f9848e2903380099bb6e431483ee78778868f33b4a154c818b5561100c88611dab565b61101587611e3e565b60408051606081810190925261103d918890600390839083908082843750611e549350505050565b604080518082018252611062918790600290839083908082843750611fb19350505050565b61106b83612086565b611074846120ef565b61107d826121c6565b611085612252565b61108d610905565b9a9950505050505050505050565b6000806110be836110b26110ad610a16565b610c54565b9063ffffffff6122a916565b9050806110c9610c06565b101580156110de57506110da6110e5565b8311155b9392505050565b7fc0ed44c192c86d1cc1ba51340b032c2766b4a2b0041031de13c46dd7104888d560009081526020527ff8e983ee86e5e377e9e34c9131b266382c3f04113d20de077f9e12663c7a646b5490565b600061113d611259565b600160a060020a0316638d0680436040518163ffffffff1660e01b8152600401602060405180830381600087803b15801561117757600080fd5b505af115801561118b573d6000803e3d6000fd5b505050506040513d60208110156111a157600080fd5b5051905090565b7f02016836a56b71f0d02689e69e326f4f4c1b9057164ef592671cf0d37c8040c060005260026020527fb7802e97e87ef2842a6cce7da7ffaeaedaa2f61a6a7870b23d9d01fc9b73712e54600160a060020a031690565b600080600080600061120f6116d2565b9350611219610ccf565b925061122b611226610a16565b610848565b915081831161123b57600061123f565b8183035b905080841061124e5780611250565b835b94505050505090565b7f5a74bb7e202fb8e4bf311841c7d64ec19df195fee77d7e7ae749b27921b6ddfe60005260026020527fab54f3fbbe62c59b7876a9bf9bd5e0c22dbae93f4d8ee0438f7ce62b198eb0e054600160a060020a031690565b7fb120ceec05576ad0c710bc6e85f1768535e27554458f05dcbb5c65b8c7a749b060009081526020527fe66bef0282a446f9848e2903380099bb6e431483ee78778868f33b4a154c818b5490565b600660016000909192565b6113116111a8565b600160a060020a0316331461132557600080fd5b60008111801561133b5750611338610ccf565b81105b801561134d575061134a6116d2565b81105b151561135857600080fd5b7fbbb088c505d18e049d114c7c91f11724e69c55ad6c5397e2b929e68b41fa05d160009081526020527f8df5c48c6b6e11d97548adc824ba0c99103ec09830fa5d53a179984085e6eaa055565b6113ad6111a8565b600160a060020a031633146113c157600080fd5b6113ca81611dab565b50565b6113d56111a8565b600160a060020a031633146113e957600080fd5b6113f16116d2565b8111806113fc575080155b151561140757600080fd5b7f4a6a899679f26b73530d8cf1001e83b6f7702e04b6fdb98f3c62dc7e47e041a5600090815260209081527f1ab29a5cca988aee50edccdd61c5bcaa7ad4b29a03b7ee50f298ceccfe14cc4e8290556040805183815290517fad4123ae17c414d9c6d2fec478b402e6b01856cc250fd01fbfd252fda0089d3c929181900390910190a150565b6114956111a8565b600160a060020a031633146114a957600080fd5b6113ca81611e3e565b6114ba6111a8565b600160a060020a031633146114ce57600080fd5b8015806114f257506114de611598565b811180156114f257506114ef610ccf565b81105b15156114fd57600080fd5b7f0f8803acad17c63ee38bf2de71e1888bc7a079a6f73658e274b08018bea4e29c60009081526020527f9de0f81379b4d8e60fe509315d071b56e7b732abaf193e74e0d15808b0951d0955565b7f1e8ecaafaddea96ed9ac6d2642dcdfe1bebe58a930b1085842d8fc122b371ee560009081526020527fd5c78dd9468716ca9bb96be25d56436811b20aab3523a9904b12deef1cab239d5490565b7fbbb088c505d18e049d114c7c91f11724e69c55ad6c5397e2b929e68b41fa05d160009081526020527f8df5c48c6b6e11d97548adc824ba0c99103ec09830fa5d53a179984085e6eaa05490565b6000806115f8836110b2611226610a16565b905080611603610ccf565b1015801561161857506116146116d2565b8311155b80156110de5750611627611598565b9092101592915050565b6116396111a8565b600160a060020a0316331461164d57600080fd5b611655610c06565b811061166057600080fd5b7fc0ed44c192c86d1cc1ba51340b032c2766b4a2b0041031de13c46dd7104888d560009081526020527ff8e983ee86e5e377e9e34c9131b266382c3f04113d20de077f9e12663c7a646b55565b6116b56111a8565b600160a060020a031633146116c957600080fd5b6113ca816120ef565b7f0f8803acad17c63ee38bf2de71e1888bc7a079a6f73658e274b08018bea4e29c60009081526020527f9de0f81379b4d8e60fe509315d071b56e7b732abaf193e74e0d15808b0951d095490565b7f55b3774520b5993024893d303890baa4e84b1244a43c60034d1ced2d3cf2b04b60009081526020527ff7d5eefab3776d7f0450bd0193564bcb4f832ce313ff2836c450fc63a4b944195490565b7f71483949fe7a14d16644d63320f24d10cf1d60abecc30cc677a340e82b699dd260005260026020527f21ffdf150a5d180f96d98d16f50e7b4dd63e2a067adc8386cf5af55dcecd8dd954600160a060020a031690565b6117d2816110b284610848565b6000808460405160200180807f746f74616c5370656e74506572446179000000000000000000000000000000008152506010018281526020019150506040516020818303038152906040526040518082805190602001908083835b6020831061184c5780518252601f19909201916020918201910161182d565b51815160209384036101000a60001901801990921691161790526040805192909401829003909120865285019590955292909201600020939093555050505050565b6000806000606060008060008060008060008b806118b057506118b08f6122bc565b15156118bb57600080fd5b8c600160a060020a0316638d0680436040518163ffffffff1660e01b8152600401602060405180830381600087803b1580156118f657600080fd5b505af115801561190a573d6000803e3d6000fd5b505050506040513d602081101561192057600080fd5b505160018f0151909b5060ff1699508a8a101561193c57600080fd5b6119468f8d6122d0565b98508a604051908082528060200260200182016040528015611972578160200160208202803883390190505b509750600096505b8a871015611b0157866020028a6021010192508960200283019150866002018e01519550828e01519450818e01519350600189878787604051600081526020016040526040518085600019166000191681526020018460ff1660ff1681526020018360001916600019168152602001826000191660001916815260200194505050505060206040516020810390808403906000865af1158015611a21573d6000803e3d6000fd5b5050506020604051035190508c600160a060020a031663facd743b826040518263ffffffff1660e01b81526004018082600160a060020a0316600160a060020a03168152602001915050602060405180830381600087803b158015611a8557600080fd5b505af1158015611a99573d6000803e3d6000fd5b505050506040513d6020811015611aaf57600080fd5b50511515611abc57600080fd5b611ac688826124ea565b15611ad057600080fd5b808888815181101515611adf57fe5b600160a060020a0390921660209283029091019091015260019096019561197a565b505050505050505050505050505050565b600080600080611b21856122bc565b1515611b2c57600080fd5b50505050601481015160348201516054830151606890930151919390929190565b80600460008460405160200180807f72656c617965644d657373616765730000000000000000000000000000000000815250600f0182600019166000191681526020019150506040516020818303038152906040526040518082805190602001908083835b60208310611bd15780518252601f199092019160209182019101611bb2565b51815160209384036101000a60001901801990921691161790526040805192909401829003909120865285019590955292909201600020805460ff1916941515949094179093555050505050565b6000611c32611c2c610a16565b84612545565b611c3a610728565b600160a060020a031663a9059cbb85611c52866125cb565b6040518363ffffffff1660e01b81526004018083600160a060020a0316600160a060020a0316815260200182815260200192505050602060405180830381600087803b158015611ca157600080fd5b505af1158015611cb5573d6000803e3d6000fd5b505050506040513d6020811015611ccb57600080fd5b5051949350505050565b80600160a060020a0381161515611ceb57600080fd5b600160a060020a0383161515611d0957611d04826125e1565b611d13565b611d1383836125ed565b505050565b6000903b1190565b611d2981611d18565b1515611d3457600080fd5b7f15d63b18dbc21bf4438b7972d80076747e1d93c4f87552fe498c90cbde51665e60005260026020527f70dfdbaec92bfd068fb9a67f8c22440e995abe75330f5b6b79a478c9bc8ccbd1805473ffffffffffffffffffffffffffffffffffffffff1916600160a060020a0392909216919091179055565b60008111611db857600080fd5b7f916daedf6915000ff68ced2f0b6773fe6f2582237f92c3c95bb4d79407230071600090815260209081527fd2ea0feb732edb0ffe32efd33a6b9d24d46b16eb34a4d07ce256537b6f131e428290556040805183815290517f4fb76205cd57c896b21511d2114137d8e901b4ccd659e1a0f97d6306795264fb929181900390910190a150565b60008111611e4b57600080fd5b6113ca816126a0565b60408101516000108015611e6f575060408101516020820151115b8015611e7f575060208101518151115b1515611e8a57600080fd5b80517f4a6a899679f26b73530d8cf1001e83b6f7702e04b6fdb98f3c62dc7e47e041a5600090815260208181527f1ab29a5cca988aee50edccdd61c5bcaa7ad4b29a03b7ee50f298ceccfe14cc4e92909255908201517f0f8803acad17c63ee38bf2de71e1888bc7a079a6f73658e274b08018bea4e29c82527f9de0f81379b4d8e60fe509315d071b56e7b732abaf193e74e0d15808b0951d095560408201517fbbb088c505d18e049d114c7c91f11724e69c55ad6c5397e2b929e68b41fa05d182527f8df5c48c6b6e11d97548adc824ba0c99103ec09830fa5d53a179984085e6eaa0557fad4123ae17c414d9c6d2fec478b402e6b01856cc250fd01fbfd252fda0089d3c9082905b60200201516040518082815260200191505060405180910390a150565b8051602082015110611fc257600080fd5b80517f21dbcab260e413c20dc13c28b7db95e2b423d1135f42bb8b7d5214a92270d237600090815260208181527fadd938dbd083a16bae12238cd914fca0afc7a30edb55b1cd5c7f1823f1b0e42192909255908201517fc0ed44c192c86d1cc1ba51340b032c2766b4a2b0041031de13c46dd7104888d582527ff8e983ee86e5e377e9e34c9131b266382c3f04113d20de077f9e12663c7a646b557f9bebf928b90863f24cc31f726a3a7545efd409f1dcf552301b1ee3710da70d3b908290611f94565b604c19811380156120975750604d81125b15156120a257600080fd5b7f1e8ecaafaddea96ed9ac6d2642dcdfe1bebe58a930b1085842d8fc122b371ee560009081526020527fd5c78dd9468716ca9bb96be25d56436811b20aab3523a9904b12deef1cab239d55565b600160a060020a038116151561210457600080fd5b7f8be0079c531659141344cd1fd0a4f28419497f9722a3daafe3b4186f6b6457e061212d6111a8565b60408051600160a060020a03928316815291841660208301528051918290030190a17f02016836a56b71f0d02689e69e326f4f4c1b9057164ef592671cf0d37c8040c060005260026020527fb7802e97e87ef2842a6cce7da7ffaeaedaa2f61a6a7870b23d9d01fc9b73712e805473ffffffffffffffffffffffffffffffffffffffff1916600160a060020a0392909216919091179055565b600160a060020a03811615156121db57600080fd5b7f71483949fe7a14d16644d63320f24d10cf1d60abecc30cc677a340e82b699dd260005260026020527f21ffdf150a5d180f96d98d16f50e7b4dd63e2a067adc8386cf5af55dcecd8dd9805473ffffffffffffffffffffffffffffffffffffffff1916600160a060020a0392909216919091179055565b7f0a6f646cd611241d8073675e00d1a1ff700fbf1b53fcf473de56d1e6e4b714ba60005260046020527f078d888f9b66f3f8bfa10909e31f1e16240db73449f0500afdbbe3a70da457cc805460ff19166001179055565b818101828110156122b657fe5b92915050565b60006122c6612726565b8251149050919050565b60408051808201909152601a81527f19457468657265756d205369676e6564204d6573736167653a0a000000000000602082015260009060608315612476578161231a865161272b565b866040516020018084805190602001908083835b6020831061234d5780518252601f19909201916020918201910161232e565b51815160209384036101000a600019018019909216911617905286519190930192860191508083835b602083106123955780518252601f199092019160209182019101612376565b51815160209384036101000a600019018019909216911617905285519190930192850191508083835b602083106123dd5780518252601f1990920191602091820191016123be565b6001836020036101000a03801982511681845116808217855250505050505090500193505050506040516020818303038152906040526040518082805190602001908083835b602083106124425780518252601f199092019160209182019101612423565b6001836020036101000a038019825116818451168082178552505050505050905001915050604051809103902092506124e2565b6040805190810160405280600381526020017f313034000000000000000000000000000000000000000000000000000000000081525090508181866040516020018084805190602001908083836020831061234d5780518252601f19909201916020918201910161232e565b505092915050565b6000805b83518110156125395782600160a060020a0316848281518110151561250f57fe5b90602001906020020151600160a060020a03161415612531576001915061253e565b6001016124ee565b600091505b5092915050565b612552816110b284610c54565b6000808460405160200180807f746f74616c4578656375746564506572446179000000000000000000000000008152506013018281526020019150506040516020818303038152906040526040518082805190602001908083836020831061184c5780518252601f19909201916020918201910161182d565b60006122b6826125d961154a565b600003612833565b3031610dc2828261287e565b604080517f70a0823100000000000000000000000000000000000000000000000000000000815230600482015290518391600091600160a060020a038416916370a0823191602480830192602092919082900301818787803b15801561265257600080fd5b505af1158015612666573d6000803e3d6000fd5b505050506040513d602081101561267c57600080fd5b5051905061269a600160a060020a038516848363ffffffff6128e616565b50505050565b7f55b3774520b5993024893d303890baa4e84b1244a43c60034d1ced2d3cf2b04b600090815260209081527ff7d5eefab3776d7f0450bd0193564bcb4f832ce313ff2836c450fc63a4b944198290556040805183815290517f52264b89e0fceafb26e79fd49ef8a366eb6297483bf4035b027f0c99a7ad512e929181900390910190a150565b606890565b606060008082818515156127745760408051808201909152600181527f30000000000000000000000000000000000000000000000000000000000000006020820152945061282a565b8593505b831561278f57600190920191600a84049350612778565b826040519080825280601f01601f1916602001820160405280156127bd578160200160208202803883390190505b5091505060001982015b85156128265781516000198201916030600a89060160f81b9184919081106127eb57fe5b9060200101907effffffffffffffffffffffffffffffffffffffffffffffffffffffffffffff1916908160001a905350600a860495506127c7565b8194505b50505050919050565b60008115156128435750816122b6565b60008213156128675761286083600a84900a63ffffffff61297816565b90506122b6565b6110de836000849003600a0a63ffffffff6129a116565b604051600160a060020a0383169082156108fc029083906000818181858888f193505050501515610dc25780826128b36129b6565b600160a060020a039091168152604051908190036020019082f0801580156128df573d6000803e3d6000fd5b5050505050565b82600160a060020a031663a9059cbb83836040518363ffffffff1660e01b81526004018083600160a060020a0316600160a060020a0316815260200182815260200192505050600060405180830381600087803b15801561294657600080fd5b505af115801561295a573d6000803e3d6000fd5b505050503d15611d135760206000803e6000511515611d1357600080fd5b6000821515612989575060006122b6565b5081810281838281151561299957fe5b04146122b657fe5b600081838115156129ae57fe5b049392505050565b6040516021806129c6833901905600608060405260405160208060218339810160405251600160a060020a038116ff00a165627a7a72305820aeb318828b953b21368b2e4fc881b2d5424a551df93c8753cb294c570da44b230029",
    "linkReferences": {}
  },
  "methodIdentifiers": {
    "claimTokens(address,address)": "69ffa08a",
    "dailyLimit()": "67eeba0c",
    "decimalShift()": "dae5f0fd",
    "deployedAtBlock()": "9a454b99",
    "erc20token()": "1dcea427",
    "executeSignatures(bytes,bytes)": "3f7658fd",
    "executionDailyLimit()": "43b37dd3",
    "executionMaxPerTx()": "8aa1949a",
    "gasPrice()": "fe173b97",
    "getBridgeInterfacesVersion()": "9cb7595a",
    "getBridgeMode()": "437764df",
    "getCurrentDay()": "3e6968b6",
    "initialize(address,address,uint256,uint256,uint256[3],uint256[2],address,int256,address)": "6da8b996",
    "isInitialized()": "392e53cd",
    "maxAvailablePerTx()": "95e54a17",
    "maxPerTx()": "f968adbe",
    "minPerTx()": "df25f3f0",
    "owner()": "8da5cb5b",
    "relayTokens(address,uint256)": "01e4f53a",
    "relayedMessages(bytes32)": "21d800ec",
    "requiredBlockConfirmations()": "3f0a9f65",
    "requiredSignatures()": "8d068043",
    "setDailyLimit(uint256)": "b20d30a9",
    "setExecutionDailyLimit(uint256)": "3dd95d1b",
    "setExecutionMaxPerTx(uint256)": "f20151e1",
    "setGasPrice(uint256)": "bf1fe420",
    "setMaxPerTx(uint256)": "c6f6f216",
    "setMinPerTx(uint256)": "a2a6ca27",
    "setRequiredBlockConfirmations(uint256)": "acf5c689",
    "totalExecutedPerDay(uint256)": "4fb3fef7",
    "totalSpentPerDay(uint256)": "2bd0bb05",
    "transferOwnership(address)": "f2fde38b",
    "validatorContract()": "99439089",
    "withinExecutionLimit(uint256)": "879ce676",
    "withinLimit(uint256)": "ea9f4968"
  },
  "id": 29
}