{
  "abi": [
    {
      "constant": true,
      "inputs": [],
      "name": "mintingFinished",
      "outputs": [
        {
          "name": "",
          "type": "bool"
        }
      ],
      "payable": false,
      "stateMutability": "view",
      "type": "function"
    },
    {
      "constant": true,
      "inputs": [],
      "name": "name",
      "outputs": [
        {
          "name": "",
          "type": "string"
        }
      ],
      "payable": false,
      "stateMutability": "view",
      "type": "function"
    },
    {
      "constant": false,
      "inputs": [
        {
          "name": "_spender",
          "type": "address"
        },
        {
          "name": "_value",
          "type": "uint256"
        }
      ],
      "name": "approve",
      "outputs": [
        {
          "name": "",
          "type": "bool"
        }
      ],
      "payable": false,
      "stateMutability": "nonpayable",
      "type": "function"
    },
    {
      "constant": true,
      "inputs": [],
      "name": "totalSupply",
      "outputs": [
        {
          "name": "",
          "type": "uint256"
        }
      ],
      "payable": false,
      "stateMutability": "view",
      "type": "function"
    },
    {
      "constant": false,
      "inputs": [
        {
          "name": "_from",
          "type": "address"
        },
        {
          "name": "_to",
          "type": "address"
        },
        {
          "name": "_value",
          "type": "uint256"
        }
      ],
      "name": "transferFrom",
      "outputs": [
        {
          "name": "",
          "type": "bool"
        }
      ],
      "payable": false,
      "stateMutability": "nonpayable",
      "type": "function"
    },
    {
      "constant": true,
      "inputs": [],
      "name": "decimals",
      "outputs": [
        {
          "name": "",
          "type": "uint8"
        }
      ],
      "payable": false,
      "stateMutability": "view",
      "type": "function"
    },
    {
      "constant": false,
      "inputs": [
        {
          "name": "_to",
          "type": "address"
        },
        {
          "name": "_amount",
          "type": "uint256"
        }
      ],
      "name": "mint",
      "outputs": [
        {
          "name": "",
          "type": "bool"
        }
      ],
      "payable": false,
      "stateMutability": "nonpayable",
      "type": "function"
    },
    {
      "constant": false,
      "inputs": [
        {
          "name": "_value",
          "type": "uint256"
        }
      ],
      "name": "burn",
      "outputs": [],
      "payable": false,
      "stateMutability": "nonpayable",
      "type": "function"
    },
    {
      "constant": false,
      "inputs": [
        {
          "name": "_spender",
          "type": "address"
        },
        {
          "name": "_subtractedValue",
          "type": "uint256"
        }
      ],
      "name": "decreaseApproval",
      "outputs": [
        {
          "name": "",
          "type": "bool"
        }
      ],
      "payable": false,
      "stateMutability": "nonpayable",
      "type": "function"
    },
    {
      "constant": true,
      "inputs": [
        {
          "name": "_owner",
          "type": "address"
        }
      ],
      "name": "balanceOf",
      "outputs": [
        {
          "name": "",
          "type": "uint256"
        }
      ],
      "payable": false,
      "stateMutability": "view",
      "type": "function"
    },
    {
      "constant": false,
      "inputs": [],
      "name": "renounceOwnership",
      "outputs": [],
      "payable": false,
      "stateMutability": "nonpayable",
      "type": "function"
    },
    {
      "constant": false,
      "inputs": [],
      "name": "finishMinting",
      "outputs": [
        {
          "name": "",
          "type": "bool"
        }
      ],
      "payable": false,
      "stateMutability": "nonpayable",
      "type": "function"
    },
    {
      "constant": true,
      "inputs": [],
      "name": "owner",
      "outputs": [
        {
          "name": "",
          "type": "address"
        }
      ],
      "payable": false,
      "stateMutability": "view",
      "type": "function"
    },
    {
      "constant": true,
      "inputs": [],
      "name": "symbol",
      "outputs": [
        {
          "name": "",
          "type": "string"
        }
      ],
      "payable": false,
      "stateMutability": "view",
      "type": "function"
    },
    {
      "constant": false,
      "inputs": [
        {
          "name": "_to",
          "type": "address"
        },
        {
          "name": "_value",
          "type": "uint256"
        }
      ],
      "name": "transfer",
      "outputs": [
        {
          "name": "",
          "type": "bool"
        }
      ],
      "payable": false,
      "stateMutability": "nonpayable",
      "type": "function"
    },
    {
      "constant": false,
      "inputs": [
        {
          "name": "_spender",
          "type": "address"
        },
        {
          "name": "_addedValue",
          "type": "uint256"
        }
      ],
      "name": "increaseApproval",
      "outputs": [
        {
          "name": "",
          "type": "bool"
        }
      ],
      "payable": false,
      "stateMutability": "nonpayable",
      "type": "function"
    },
    {
      "constant": true,
      "inputs": [
        {
          "name": "_owner",
          "type": "address"
        },
        {
          "name": "_spender",
          "type": "address"
        }
      ],
      "name": "allowance",
      "outputs": [
        {
          "name": "",
          "type": "uint256"
        }
      ],
      "payable": false,
      "stateMutability": "view",
      "type": "function"
    },
    {
      "constant": false,
      "inputs": [
        {
          "name": "_newOwner",
          "type": "address"
        }
      ],
      "name": "transferOwnership",
      "outputs": [],
      "payable": false,
      "stateMutability": "nonpayable",
      "type": "function"
    },
    {
      "inputs": [
        {
          "name": "_name",
          "type": "string"
        },
        {
          "name": "_symbol",
          "type": "string"
        },
        {
          "name": "_decimals",
          "type": "uint8"
        }
      ],
      "payable": false,
      "stateMutability": "nonpayable",
      "type": "constructor"
    },
    {
      "anonymous": false,
      "inputs": [
        {
          "indexed": true,
          "name": "to",
          "type": "address"
        },
        {
          "indexed": false,
          "name": "amount",
          "type": "uint256"
        }
      ],
      "name": "Mint",
      "type": "event"
    },
    {
      "anonymous": false,
      "inputs": [],
      "name": "MintFinished",
      "type": "event"
    },
    {
      "anonymous": false,
      "inputs": [
        {
          "indexed": true,
          "name": "previousOwner",
          "type": "address"
        }
      ],
      "name": "OwnershipRenounced",
      "type": "event"
    },
    {
      "anonymous": false,
      "inputs": [
        {
          "indexed": true,
          "name": "previousOwner",
          "type": "address"
        },
        {
          "indexed": true,
          "name": "newOwner",
          "type": "address"
        }
      ],
      "name": "OwnershipTransferred",
      "type": "event"
    },
    {
      "anonymous": false,
      "inputs": [
        {
          "indexed": true,
          "name": "burner",
          "type": "address"
        },
        {
          "indexed": false,
          "name": "value",
          "type": "uint256"
        }
      ],
      "name": "Burn",
      "type": "event"
    },
    {
      "anonymous": false,
      "inputs": [
        {
          "indexed": true,
          "name": "owner",
          "type": "address"
        },
        {
          "indexed": true,
          "name": "spender",
          "type": "address"
        },
        {
          "indexed": false,
          "name": "value",
          "type": "uint256"
        }
      ],
      "name": "Approval",
      "type": "event"
    },
    {
      "anonymous": false,
      "inputs": [
        {
          "indexed": true,
          "name": "from",
          "type": "address"
        },
        {
          "indexed": true,
          "name": "to",
          "type": "address"
        },
        {
          "indexed": false,
          "name": "value",
          "type": "uint256"
        }
      ],
      "name": "Transfer",
      "type": "event"
    }
  ],
  "bytecode": {
    "object": "0x60806040526006805460a060020a60ff021916905534801561002057600080fd5b50604051610ee7380380610ee7833981016040908152815160208084015192840151918401805190949390930192849184918491610063916000918601906100aa565b5081516100779060019060208501906100aa565b506002805460ff90921660ff19909216919091179055505060068054600160a060020a0319163317905550610145915050565b828054600181600116156101000203166002900490600052602060002090601f016020900481019282601f106100eb57805160ff1916838001178555610118565b82800160010185558215610118579182015b828111156101185782518255916020019190600101906100fd565b50610124929150610128565b5090565b61014291905b80821115610124576000815560010161012e565b90565b610d93806101546000396000f3006080604052600436106100df5760003560e01c63ffffffff16806305d2035b146100e457806306fdde031461010d578063095ea7b31461019757806318160ddd146101bb57806323b872dd146101e2578063313ce5671461020c57806340c10f191461023757806342966c681461025b578063661884631461027557806370a0823114610299578063715018a6146102ba5780637d64bcb4146102cf5780638da5cb5b146102e457806395d89b4114610315578063a9059cbb1461032a578063d73dd6231461034e578063dd62ed3e14610372578063f2fde38b14610399575b600080fd5b3480156100f057600080fd5b506100f96103ba565b604080519115158252519081900360200190f35b34801561011957600080fd5b506101226103db565b6040805160208082528351818301528351919283929083019185019080838360005b8381101561015c578181015183820152602001610144565b50505050905090810190601f1680156101895780820380516001836020036101000a031916815260200191505b509250505060405180910390f35b3480156101a357600080fd5b506100f9600160a060020a0360043516602435610469565b3480156101c757600080fd5b506101d06104cf565b60408051918252519081900360200190f35b3480156101ee57600080fd5b506100f9600160a060020a03600435811690602435166044356104d5565b34801561021857600080fd5b5061022161063a565b6040805160ff9092168252519081900360200190f35b34801561024357600080fd5b506100f9600160a060020a0360043516602435610643565b34801561026757600080fd5b5061027360043561076e565b005b34801561028157600080fd5b506100f9600160a060020a036004351660243561077b565b3480156102a557600080fd5b506101d0600160a060020a036004351661086a565b3480156102c657600080fd5b50610273610885565b3480156102db57600080fd5b506100f96108f3565b3480156102f057600080fd5b506102f9610999565b60408051600160a060020a039092168252519081900360200190f35b34801561032157600080fd5b506101226109a8565b34801561033657600080fd5b506100f9600160a060020a0360043516602435610a02565b34801561035a57600080fd5b506100f9600160a060020a0360043516602435610ad1565b34801561037e57600080fd5b506101d0600160a060020a0360043581169060243516610b6a565b3480156103a557600080fd5b50610273600160a060020a0360043516610b95565b60065474010000000000000000000000000000000000000000900460ff1681565b6000805460408051602060026001851615610100026000190190941693909304601f810184900484028201840190925281815292918301828280156104615780601f1061043657610100808354040283529160200191610461565b820191906000526020600020905b81548152906001019060200180831161044457829003601f168201915b505050505081565b336000818152600560209081526040808320600160a060020a038716808552908352818420869055815186815291519394909390927f8c5be1e5ebec7d5bd14f71427d1e84f3dd0314c0f7b2291e5b200ac8c7c3b925928290030190a350600192915050565b60045490565b600160a060020a0383166000908152600360205260408120548211156104fa57600080fd5b600160a060020a038416600090815260056020908152604080832033845290915290205482111561052a57600080fd5b600160a060020a038316151561053f57600080fd5b600160a060020a038416600090815260036020526040902054610568908363ffffffff610bb516565b600160a060020a03808616600090815260036020526040808220939093559085168152205461059d908363ffffffff610bc716565b600160a060020a0380851660009081526003602090815260408083209490945591871681526005825282812033825290915220546105e1908363ffffffff610bb516565b600160a060020a0380861660008181526005602090815260408083203384528252918290209490945580518681529051928716939192600080516020610d48833981519152929181900390910190a35060019392505050565b60025460ff1681565b600654600090600160a060020a031633148061067257507306af07097c9eeb7fd685c692751d5c66db49c21533145b151561067d57600080fd5b60065474010000000000000000000000000000000000000000900460ff16156106a557600080fd5b6004546106b8908363ffffffff610bc716565b600455600160a060020a0383166000908152600360205260409020546106e4908363ffffffff610bc716565b600160a060020a038416600081815260036020908152604091829020939093558051858152905191927f0f6798a560793a54c3bcfe86a93cde1e73087d944c0ea20544137d412139688592918290030190a2604080518381529051600160a060020a03851691600091600080516020610d488339815191529181900360200190a350600192915050565b6107783382610bda565b50565b336000908152600560209081526040808320600160a060020a03861684529091528120548083106107cf57336000908152600560209081526040808320600160a060020a0388168452909152812055610804565b6107df818463ffffffff610bb516565b336000908152600560209081526040808320600160a060020a03891684529091529020555b336000818152600560209081526040808320600160a060020a0389168085529083529281902054815190815290519293927f8c5be1e5ebec7d5bd14f71427d1e84f3dd0314c0f7b2291e5b200ac8c7c3b925929181900390910190a35060019392505050565b600160a060020a031660009081526003602052604090205490565b600654600160a060020a0316331461089c57600080fd5b600654604051600160a060020a03909116907ff8df31144d9c2f0f6b59d69b8b98abd5459d07f2742c4df920b25aae33c6482090600090a26006805473ffffffffffffffffffffffffffffffffffffffff19169055565b600654600090600160a060020a0316331461090d57600080fd5b60065474010000000000000000000000000000000000000000900460ff161561093557600080fd5b6006805474ff00000000000000000000000000000000000000001916740100000000000000000000000000000000000000001790556040517fae5184fba832cb2b1f702aca6117b8d265eaf03ad33eb133f19dde0f5920fa0890600090a150600190565b600654600160a060020a031681565b60018054604080516020600284861615610100026000190190941693909304601f810184900484028201840190925281815292918301828280156104615780601f1061043657610100808354040283529160200191610461565b33600090815260036020526040812054821115610a1e57600080fd5b600160a060020a0383161515610a3357600080fd5b33600090815260036020526040902054610a53908363ffffffff610bb516565b3360009081526003602052604080822092909255600160a060020a03851681522054610a85908363ffffffff610bc716565b600160a060020a038416600081815260036020908152604091829020939093558051858152905191923392600080516020610d488339815191529281900390910190a350600192915050565b336000908152600560209081526040808320600160a060020a0386168452909152812054610b05908363ffffffff610bc716565b336000818152600560209081526040808320600160a060020a0389168085529083529281902085905580519485525191937f8c5be1e5ebec7d5bd14f71427d1e84f3dd0314c0f7b2291e5b200ac8c7c3b925929081900390910190a350600192915050565b600160a060020a03918216600090815260056020908152604080832093909416825291909152205490565b600654600160a060020a03163314610bac57600080fd5b61077881610cc9565b600082821115610bc157fe5b50900390565b81810182811015610bd457fe5b92915050565b600160a060020a038216600090815260036020526040902054811115610bff57600080fd5b600160a060020a038216600090815260036020526040902054610c28908263ffffffff610bb516565b600160a060020a038316600090815260036020526040902055600454610c54908263ffffffff610bb516565b600455604080518281529051600160a060020a038416917fcc16f5dbb4873280815c1ee09dbd06736cffcc184412cf7a71a0fdb75d397ca5919081900360200190a2604080518281529051600091600160a060020a03851691600080516020610d488339815191529181900360200190a35050565b600160a060020a0381161515610cde57600080fd5b600654604051600160a060020a038084169216907f8be0079c531659141344cd1fd0a4f28419497f9722a3daafe3b4186f6b6457e090600090a36006805473ffffffffffffffffffffffffffffffffffffffff1916600160a060020a03929092169190911790555600ddf252ad1be2c89b69c2b068fc378daa952ba7f163c4a11628f55a4df523b3efa165627a7a72305820bd66130f7a4bdd75c65d2da958b4098d7abdf99c1443ca783be965be83d7db8b0029",
    "linkReferences": {}
  },
  "methodIdentifiers": {
    "allowance(address,address)": "dd62ed3e",
    "approve(address,uint256)": "095ea7b3",
    "balanceOf(address)": "70a08231",
    "burn(uint256)": "42966c68",
    "decimals()": "313ce567",
    "decreaseApproval(address,uint256)": "66188463",
    "finishMinting()": "7d64bcb4",
    "increaseApproval(address,uint256)": "d73dd623",
    "mint(address,uint256)": "40c10f19",
    "mintingFinished()": "05d2035b",
    "name()": "06fdde03",
    "owner()": "8da5cb5b",
    "renounceOwnership()": "715018a6",
    "symbol()": "95d89b41",
    "totalSupply()": "18160ddd",
    "transfer(address,uint256)": "a9059cbb",
    "transferFrom(address,address,uint256)": "23b872dd",
    "transferOwnership(address)": "f2fde38b"
  },
  "id": 45
}