{
  "abi": [
    {
      "constant": true,
      "inputs": [],
      "name": "mintingFinished",
      "outputs": [
        {
          "name": "",
          "type": "bool"
        }
      ],
      "payable": false,
      "stateMutability": "view",
      "type": "function"
    },
    {
      "constant": true,
      "inputs": [],
      "name": "name",
      "outputs": [
        {
          "name": "",
          "type": "string"
        }
      ],
      "payable": false,
      "stateMutability": "view",
      "type": "function"
    },
    {
      "constant": false,
      "inputs": [
        {
          "name": "_to",
          "type": "address"
        },
        {
          "name": "_value",
          "type": "uint256"
        }
      ],
      "name": "approve",
      "outputs": [
        {
          "name": "result",
          "type": "bool"
        }
      ],
      "payable": false,
      "stateMutability": "nonpayable",
      "type": "function"
    },
    {
      "constant": false,
      "inputs": [
        {
          "name": "_bridgeContract",
          "type": "address"
        }
      ],
      "name": "setBridgeContract",
      "outputs": [],
      "payable": false,
      "stateMutability": "nonpayable",
      "type": "function"
    },
    {
      "constant": true,
      "inputs": [],
      "name": "totalSupply",
      "outputs": [
        {
          "name": "",
          "type": "uint256"
        }
      ],
      "payable": false,
      "stateMutability": "view",
      "type": "function"
    },
    {
      "constant": false,
      "inputs": [
        {
          "name": "_sender",
          "type": "address"
        },
        {
          "name": "_recipient",
          "type": "address"
        },
        {
          "name": "_amount",
          "type": "uint256"
        }
      ],
      "name": "transferFrom",
      "outputs": [
        {
          "name": "",
          "type": "bool"
        }
      ],
      "payable": false,
      "stateMutability": "nonpayable",
      "type": "function"
    },
    {
      "constant": true,
      "inputs": [],
      "name": "PERMIT_TYPEHASH",
      "outputs": [
        {
          "name": "",
          "type": "bytes32"
        }
      ],
      "payable": false,
      "stateMutability": "view",
      "type": "function"
    },
    {
      "constant": true,
      "inputs": [],
      "name": "decimals",
      "outputs": [
        {
          "name": "",
          "type": "uint8"
        }
      ],
      "payable": false,
      "stateMutability": "view",
      "type": "function"
    },
    {
      "constant": true,
      "inputs": [],
      "name": "DOMAIN_SEPARATOR",
      "outputs": [
        {
          "name": "",
          "type": "bytes32"
        }
      ],
      "payable": false,
      "stateMutability": "view",
      "type": "function"
    },
    {
      "constant": false,
      "inputs": [
        {
          "name": "_to",
          "type": "address"
        },
        {
          "name": "_addedValue",
          "type": "uint256"
        }
      ],
      "name": "increaseAllowance",
      "outputs": [
        {
          "name": "result",
          "type": "bool"
        }
      ],
      "payable": false,
      "stateMutability": "nonpayable",
      "type": "function"
    },
    {
      "constant": false,
      "inputs": [
        {
          "name": "_to",
          "type": "address"
        },
        {
          "name": "_value",
          "type": "uint256"
        },
        {
          "name": "_data",
          "type": "bytes"
        }
      ],
      "name": "transferAndCall",
      "outputs": [
        {
          "name": "",
          "type": "bool"
        }
      ],
      "payable": false,
      "stateMutability": "nonpayable",
      "type": "function"
    },
    {
      "constant": false,
      "inputs": [
        {
          "name": "_to",
          "type": "address"
        },
        {
          "name": "_amount",
          "type": "uint256"
        }
      ],
      "name": "mint",
      "outputs": [
        {
          "name": "",
          "type": "bool"
        }
      ],
      "payable": false,
      "stateMutability": "nonpayable",
      "type": "function"
    },
    {
      "constant": false,
      "inputs": [
        {
          "name": "_value",
          "type": "uint256"
        }
      ],
      "name": "burn",
      "outputs": [],
      "payable": false,
      "stateMutability": "nonpayable",
      "type": "function"
    },
    {
      "constant": true,
      "inputs": [],
      "name": "version",
      "outputs": [
        {
          "name": "",
          "type": "string"
        }
      ],
      "payable": false,
      "stateMutability": "view",
      "type": "function"
    },
    {
      "constant": false,
      "inputs": [
        {
          "name": "_spender",
          "type": "address"
        },
        {
          "name": "_subtractedValue",
          "type": "uint256"
        }
      ],
      "name": "decreaseApproval",
      "outputs": [
        {
          "name": "",
          "type": "bool"
        }
      ],
      "payable": false,
      "stateMutability": "nonpayable",
      "type": "function"
    },
    {
      "constant": false,
      "inputs": [
        {
          "name": "_token",
          "type": "address"
        },
        {
          "name": "_to",
          "type": "address"
        }
      ],
      "name": "claimTokens",
      "outputs": [],
      "payable": false,
      "stateMutability": "nonpayable",
      "type": "function"
    },
    {
      "constant": true,
      "inputs": [
        {
          "name": "_owner",
          "type": "address"
        }
      ],
      "name": "balanceOf",
      "outputs": [
        {
          "name": "",
          "type": "uint256"
        }
      ],
      "payable": false,
      "stateMutability": "view",
      "type": "function"
    },
    {
      "constant": false,
      "inputs": [],
      "name": "renounceOwnership",
      "outputs": [],
      "payable": false,
      "stateMutability": "nonpayable",
      "type": "function"
    },
    {
      "constant": true,
      "inputs": [
        {
          "name": "_address",
          "type": "address"
        }
      ],
      "name": "isBridge",
      "outputs": [
        {
          "name": "",
          "type": "bool"
        }
      ],
      "payable": false,
      "stateMutability": "view",
      "type": "function"
    },
    {
      "constant": false,
      "inputs": [],
      "name": "finishMinting",
      "outputs": [
        {
          "name": "",
          "type": "bool"
        }
      ],
      "payable": false,
      "stateMutability": "nonpayable",
      "type": "function"
    },
    {
      "constant": true,
      "inputs": [
        {
          "name": "",
          "type": "address"
        }
      ],
      "name": "nonces",
      "outputs": [
        {
          "name": "",
          "type": "uint256"
        }
      ],
      "payable": false,
      "stateMutability": "view",
      "type": "function"
    },
    {
      "constant": true,
      "inputs": [],
      "name": "getTokenInterfacesVersion",
      "outputs": [
        {
          "name": "major",
          "type": "uint64"
        },
        {
          "name": "minor",
          "type": "uint64"
        },
        {
          "name": "patch",
          "type": "uint64"
        }
      ],
      "payable": false,
      "stateMutability": "pure",
      "type": "function"
    },
    {
      "constant": true,
      "inputs": [],
      "name": "owner",
      "outputs": [
        {
          "name": "",
          "type": "address"
        }
      ],
      "payable": false,
      "stateMutability": "view",
      "type": "function"
    },
    {
      "constant": false,
      "inputs": [
        {
          "name": "_holder",
          "type": "address"
        },
        {
          "name": "_spender",
          "type": "address"
        },
        {
          "name": "_nonce",
          "type": "uint256"
        },
        {
          "name": "_expiry",
          "type": "uint256"
        },
        {
          "name": "_allowed",
          "type": "bool"
        },
        {
          "name": "_v",
          "type": "uint8"
        },
        {
          "name": "_r",
          "type": "bytes32"
        },
        {
          "name": "_s",
          "type": "bytes32"
        }
      ],
      "name": "permit",
      "outputs": [],
      "payable": false,
      "stateMutability": "nonpayable",
      "type": "function"
    },
    {
      "constant": true,
      "inputs": [],
      "name": "symbol",
      "outputs": [
        {
          "name": "",
          "type": "string"
        }
      ],
      "payable": false,
      "stateMutability": "view",
      "type": "function"
    },
    {
      "constant": false,
      "inputs": [
        {
          "name": "spender",
          "type": "address"
        },
        {
          "name": "subtractedValue",
          "type": "uint256"
        }
      ],
      "name": "decreaseAllowance",
      "outputs": [
        {
          "name": "",
          "type": "bool"
        }
      ],
      "payable": false,
      "stateMutability": "nonpayable",
      "type": "function"
    },
    {
      "constant": false,
      "inputs": [
        {
          "name": "_to",
          "type": "address"
        },
        {
          "name": "_value",
          "type": "uint256"
        }
      ],
      "name": "transfer",
      "outputs": [
        {
          "name": "",
          "type": "bool"
        }
      ],
      "payable": false,
      "stateMutability": "nonpayable",
      "type": "function"
    },
    {
      "constant": false,
      "inputs": [
        {
          "name": "_to",
          "type": "address"
        },
        {
          "name": "_amount",
          "type": "uint256"
        }
      ],
      "name": "push",
      "outputs": [],
      "payable": false,
      "stateMutability": "nonpayable",
      "type": "function"
    },
    {
      "constant": false,
      "inputs": [
        {
          "name": "_from",
          "type": "address"
        },
        {
          "name": "_to",
          "type": "address"
        },
        {
          "name": "_amount",
          "type": "uint256"
        }
      ],
      "name": "move",
      "outputs": [],
      "payable": false,
      "stateMutability": "nonpayable",
      "type": "function"
    },
    {
      "constant": true,
      "inputs": [],
      "name": "PERMIT_TYPEHASH_LEGACY",
      "outputs": [
        {
          "name": "",
          "type": "bytes32"
        }
      ],
      "payable": false,
      "stateMutability": "view",
      "type": "function"
    },
    {
      "constant": true,
      "inputs": [],
      "name": "bridgeContract",
      "outputs": [
        {
          "name": "",
          "type": "address"
        }
      ],
      "payable": false,
      "stateMutability": "view",
      "type": "function"
    },
    {
      "constant": false,
      "inputs": [
        {
          "name": "_holder",
          "type": "address"
        },
        {
          "name": "_spender",
          "type": "address"
        },
        {
          "name": "_value",
          "type": "uint256"
        },
        {
          "name": "_deadline",
          "type": "uint256"
        },
        {
          "name": "_v",
          "type": "uint8"
        },
        {
          "name": "_r",
          "type": "bytes32"
        },
        {
          "name": "_s",
          "type": "bytes32"
        }
      ],
      "name": "permit",
      "outputs": [],
      "payable": false,
      "stateMutability": "nonpayable",
      "type": "function"
    },
    {
      "constant": false,
      "inputs": [
        {
          "name": "_spender",
          "type": "address"
        },
        {
          "name": "_addedValue",
          "type": "uint256"
        }
      ],
      "name": "increaseApproval",
      "outputs": [
        {
          "name": "",
          "type": "bool"
        }
      ],
      "payable": false,
      "stateMutability": "nonpayable",
      "type": "function"
    },
    {
      "constant": true,
      "inputs": [
        {
          "name": "_owner",
          "type": "address"
        },
        {
          "name": "_spender",
          "type": "address"
        }
      ],
      "name": "allowance",
      "outputs": [
        {
          "name": "",
          "type": "uint256"
        }
      ],
      "payable": false,
      "stateMutability": "view",
      "type": "function"
    },
    {
      "constant": false,
      "inputs": [
        {
          "name": "_from",
          "type": "address"
        },
        {
          "name": "_amount",
          "type": "uint256"
        }
      ],
      "name": "pull",
      "outputs": [],
      "payable": false,
      "stateMutability": "nonpayable",
      "type": "function"
    },
    {
      "constant": false,
      "inputs": [
        {
          "name": "_newOwner",
          "type": "address"
        }
      ],
      "name": "transferOwnership",
      "outputs": [],
      "payable": false,
      "stateMutability": "nonpayable",
      "type": "function"
    },
    {
      "constant": true,
      "inputs": [
        {
          "name": "",
          "type": "address"
        },
        {
          "name": "",
          "type": "address"
        }
      ],
      "name": "expirations",
      "outputs": [
        {
          "name": "",
          "type": "uint256"
        }
      ],
      "payable": false,
      "stateMutability": "view",
      "type": "function"
    },
    {
      "inputs": [
        {
          "name": "_name",
          "type": "string"
        },
        {
          "name": "_symbol",
          "type": "string"
        },
        {
          "name": "_decimals",
          "type": "uint8"
        },
        {
          "name": "_chainId",
          "type": "uint256"
        }
      ],
      "payable": false,
      "stateMutability": "nonpayable",
      "type": "constructor"
    },
    {
      "anonymous": false,
      "inputs": [
        {
          "indexed": true,
          "name": "to",
          "type": "address"
        },
        {
          "indexed": false,
          "name": "amount",
          "type": "uint256"
        }
      ],
      "name": "Mint",
      "type": "event"
    },
    {
      "anonymous": false,
      "inputs": [],
      "name": "MintFinished",
      "type": "event"
    },
    {
      "anonymous": false,
      "inputs": [
        {
          "indexed": true,
          "name": "previousOwner",
          "type": "address"
        }
      ],
      "name": "OwnershipRenounced",
      "type": "event"
    },
    {
      "anonymous": false,
      "inputs": [
        {
          "indexed": true,
          "name": "previousOwner",
          "type": "address"
        },
        {
          "indexed": true,
          "name": "newOwner",
          "type": "address"
        }
      ],
      "name": "OwnershipTransferred",
      "type": "event"
    },
    {
      "anonymous": false,
      "inputs": [
        {
          "indexed": true,
          "name": "burner",
          "type": "address"
        },
        {
          "indexed": false,
          "name": "value",
          "type": "uint256"
        }
      ],
      "name": "Burn",
      "type": "event"
    },
    {
      "anonymous": false,
      "inputs": [
        {
          "indexed": true,
          "name": "from",
          "type": "address"
        },
        {
          "indexed": true,
          "name": "to",
          "type": "address"
        },
        {
          "indexed": false,
          "name": "value",
          "type": "uint256"
        },
        {
          "indexed": false,
          "name": "data",
          "type": "bytes"
        }
      ],
      "name": "Transfer",
      "type": "event"
    },
    {
      "anonymous": false,
      "inputs": [
        {
          "indexed": true,
          "name": "owner",
          "type": "address"
        },
        {
          "indexed": true,
          "name": "spender",
          "type": "address"
        },
        {
          "indexed": false,
          "name": "value",
          "type": "uint256"
        }
      ],
      "name": "Approval",
      "type": "event"
    },
    {
      "anonymous": false,
      "inputs": [
        {
          "indexed": true,
          "name": "from",
          "type": "address"
        },
        {
          "indexed": true,
          "name": "to",
          "type": "address"
        },
        {
          "indexed": false,
          "name": "value",
          "type": "uint256"
        }
      ],
      "name": "Transfer",
      "type": "event"
    }
  ],
  "bytecode": {
    "object": "0x60806040526006805460a060020a60ff02191690553480156200002157600080fd5b506040516200215d3803806200215d83398101604090815281516020808401519284015160608501519285018051909594909401939092918591859185918491849184916200007691600091860190620002d0565b5081516200008c906001906020850190620002d0565b506002805460ff90921660ff19909216919091179055505060068054600160a060020a03191633179055505050801515620000c657600080fd5b60405180807f454950373132446f6d61696e28737472696e67206e616d652c737472696e672081526020017f76657273696f6e2c75696e7432353620636861696e49642c616464726573732081526020017f766572696679696e67436f6e747261637429000000000000000000000000000081525060520190506040518091039020846040518082805190602001908083835b602083106200017a5780518252601f19909201916020918201910162000159565b51815160209384036101000a600019018019909216911617905260408051929094018290038220828501855260018084527f3100000000000000000000000000000000000000000000000000000000000000928401928352945190965091945090928392508083835b60208310620002045780518252601f199092019160209182019101620001e3565b51815160209384036101000a6000190180199092169116179052604080519290940182900382208282019890985281840196909652606081019690965250608085018690523060a0808701919091528151808703909101815260c09095019081905284519093849350850191508083835b60208310620002965780518252601f19909201916020918201910162000275565b5181516020939093036101000a60001901801990911692169190911790526040519201829003909120600855506200037595505050505050565b828054600181600116156101000203166002900490600052602060002090601f016020900481019282601f106200031357805160ff191683800117855562000343565b8280016001018555821562000343579182015b828111156200034357825182559160200191906001019062000326565b506200035192915062000355565b5090565b6200037291905b808211156200035157600081556001016200035c565b90565b611dd880620003856000396000f3006080604052600436106101b05760003560e01c63ffffffff16806305d2035b146101b557806306fdde03146101de578063095ea7b3146102685780630b26cf661461028c57806318160ddd146102af57806323b872dd146102d657806330adf81f14610300578063313ce567146103155780633644e5151461034057806339509351146103555780634000aea01461037957806340c10f19146103aa57806342966c68146103ce57806354fd4d50146103e657806366188463146103fb57806369ffa08a1461041f57806370a0823114610446578063715018a614610467578063726600ce1461047c5780637d64bcb41461049d5780637ecebe00146104b2578063859ba28c146104d35780638da5cb5b146105145780638fcbaf0c1461054557806395d89b4114610583578063a457c2d714610598578063a9059cbb146105bc578063b753a98c146105e0578063bb35783b14610604578063c6a1dedf1461062e578063cd59658314610643578063d505accf14610658578063d73dd62314610691578063dd62ed3e146106b5578063f2d5d56b146106dc578063f2fde38b14610700578063ff9e884d14610721575b600080fd5b3480156101c157600080fd5b506101ca610748565b604080519115158252519081900360200190f35b3480156101ea57600080fd5b506101f3610769565b6040805160208082528351818301528351919283929083019185019080838360005b8381101561022d578181015183820152602001610215565b50505050905090810190601f16801561025a5780820380516001836020036101000a031916815260200191505b509250505060405180910390f35b34801561027457600080fd5b506101ca600160a060020a03600435166024356107f7565b34801561029857600080fd5b506102ad600160a060020a036004351661080d565b005b3480156102bb57600080fd5b506102c4610867565b60408051918252519081900360200190f35b3480156102e257600080fd5b506101ca600160a060020a036004358116906024351660443561086d565b34801561030c57600080fd5b506102c4610a35565b34801561032157600080fd5b5061032a610a59565b6040805160ff9092168252519081900360200190f35b34801561034c57600080fd5b506102c4610a62565b34801561036157600080fd5b506101ca600160a060020a0360043516602435610a68565b34801561038557600080fd5b506101ca60048035600160a060020a0316906024803591604435918201910135610aa9565b3480156103b657600080fd5b506101ca600160a060020a0360043516602435610bba565b3480156103da57600080fd5b506102ad600435610cc5565b3480156103f257600080fd5b506101f3610cd2565b34801561040757600080fd5b506101ca600160a060020a0360043516602435610d09565b34801561042b57600080fd5b506102ad600160a060020a0360043581169060243516610de6565b34801561045257600080fd5b506102c4600160a060020a0360043516610e0b565b34801561047357600080fd5b506102ad610e26565b34801561048857600080fd5b506101ca600160a060020a0360043516610e3d565b3480156104a957600080fd5b506101ca610e51565b3480156104be57600080fd5b506102c4600160a060020a0360043516610e58565b3480156104df57600080fd5b506104e8610e6a565b6040805167ffffffffffffffff9485168152928416602084015292168183015290519081900360600190f35b34801561052057600080fd5b50610529610e75565b60408051600160a060020a039092168252519081900360200190f35b34801561055157600080fd5b506102ad600160a060020a0360043581169060243516604435606435608435151560ff60a4351660c43560e435610e84565b34801561058f57600080fd5b506101f3610fc2565b3480156105a457600080fd5b506101ca600160a060020a036004351660243561101c565b3480156105c857600080fd5b506101ca600160a060020a036004351660243561102f565b3480156105ec57600080fd5b506102ad600160a060020a0360043516602435611051565b34801561061057600080fd5b506102ad600160a060020a0360043581169060243516604435611061565b34801561063a57600080fd5b506102c4611072565b34801561064f57600080fd5b50610529611096565b34801561066457600080fd5b506102ad600160a060020a036004358116906024351660443560643560ff6084351660a43560c4356110a5565b34801561069d57600080fd5b506101ca600160a060020a0360043516602435611181565b3480156106c157600080fd5b506102c4600160a060020a0360043581169060243516611208565b3480156106e857600080fd5b506102ad600160a060020a0360043516602435611233565b34801561070c57600080fd5b506102ad600160a060020a036004351661123e565b34801561072d57600080fd5b506102c4600160a060020a036004358116906024351661125e565b60065474010000000000000000000000000000000000000000900460ff1681565b6000805460408051602060026001851615610100026000190190941693909304601f810184900484028201840190925281815292918301828280156107ef5780601f106107c4576101008083540402835291602001916107ef565b820191906000526020600020905b8154815290600101906020018083116107d257829003601f168201915b505050505081565b600061080433848461127b565b50600192915050565b600654600160a060020a0316331461082457600080fd5b61082d816112bd565b151561083857600080fd5b6007805473ffffffffffffffffffffffffffffffffffffffff1916600160a060020a0392909216919091179055565b60045490565b600080600160a060020a038516151561088557600080fd5b600160a060020a038416151561089a57600080fd5b600160a060020a0385166000908152600360205260409020546108c3908463ffffffff6112c516565b600160a060020a0380871660009081526003602052604080822093909355908616815220546108f8908463ffffffff6112d716565b600160a060020a038086166000818152600360209081526040918290209490945580518781529051919392891692600080516020611d6d83398151915292918290030190a3600160a060020a0385163314610a1f576109578533611208565b905060001981146109c157610972818463ffffffff6112c516565b600160a060020a038616600081815260056020908152604080832033808552908352928190208590558051948552519193600080516020611d8d833981519152929081900390910190a3610a1f565b600160a060020a0385166000908152600a602090815260408083203384529091529020541580610a145750600160a060020a0385166000908152600a602090815260408083203384529091529020544211155b1515610a1f57600080fd5b610a2a8585856112ea565b506001949350505050565b7f6e71edae12b1b97f4d1f60370fef10105fa2faae0126114a169c64845d6126c981565b60025460ff1681565b60085481565b336000818152600560209081526040808320600160a060020a03871684529091528120549091610804918590610aa4908663ffffffff6112d716565b61127b565b600084600160a060020a03811615801590610acd5750600160a060020a0381163014155b1515610ad857600080fd5b610ae28686611321565b1515610aed57600080fd5b85600160a060020a031633600160a060020a03167fe19260aff97b920c7df27010903aeb9c8d2be5d310a2c67824cf3f15396e4c16878787604051808481526020018060200182810382528484828181526020019250808284376040519201829003965090945050505050a3610b62866112bd565b15610bae57610ba333878787878080601f0160208091040260200160405190810160405280939291908181526020018383808284375061132d945050505050565b1515610bae57600080fd5b50600195945050505050565b600654600090600160a060020a03163314610bd457600080fd5b60065474010000000000000000000000000000000000000000900460ff1615610bfc57600080fd5b600454610c0f908363ffffffff6112d716565b600455600160a060020a038316600090815260036020526040902054610c3b908363ffffffff6112d716565b600160a060020a038416600081815260036020908152604091829020939093558051858152905191927f0f6798a560793a54c3bcfe86a93cde1e73087d944c0ea20544137d412139688592918290030190a2604080518381529051600160a060020a03851691600091600080516020611d6d8339815191529181900360200190a350600192915050565b610ccf33826114a7565b50565b60408051808201909152600181527f3100000000000000000000000000000000000000000000000000000000000000602082015281565b336000908152600560209081526040808320600160a060020a0386168452909152812054808310610d5d57336000908152600560209081526040808320600160a060020a0388168452909152812055610d92565b610d6d818463ffffffff6112c516565b336000908152600560209081526040808320600160a060020a03891684529091529020555b336000818152600560209081526040808320600160a060020a038916808552908352928190205481519081529051929392600080516020611d8d833981519152929181900390910190a35060019392505050565b600654600160a060020a03163314610dfd57600080fd5b610e078282611596565b5050565b600160a060020a031660009081526003602052604090205490565b600654600160a060020a031633146101b057600080fd5b600754600160a060020a0390811691161490565b6000806000fd5b60096020526000908152604090205481565b600260056000909192565b600654600160a060020a031681565b600080861580610e945750864211155b1515610e9f57600080fd5b604080517fea2aa0a1be11a07ed86d755c93467f4f82362b452371d1ba94d1715123511acb6020820152600160a060020a03808d16828401528b166060820152608081018a905260a0810189905287151560c0808301919091528251808303909101815260e0909101909152610f14906115d4565b9150610f22828686866116db565b600160a060020a038b8116911614610f3957600080fd5b600160a060020a038a1660009081526009602052604090208054600181019091558814610f6557600080fd5b85610f71576000610f75565b6000195b905085610f83576000610f85565b865b600160a060020a03808c166000908152600a60209081526040808320938e1683529290522055610fb68a8a836118e1565b50505050505050505050565b60018054604080516020600284861615610100026000190190941693909304601f810184900484028201840190925281815292918301828280156107ef5780601f106107c4576101008083540402835291602001916107ef565b60006110288383610d09565b9392505050565b600061103b8383611321565b151561104657600080fd5b6108043384846112ea565b61105c33838361086d565b505050565b61106c83838361086d565b50505050565b7fea2aa0a1be11a07ed86d755c93467f4f82362b452371d1ba94d1715123511acb81565b600754600160a060020a031690565b600080428610156110b557600080fd5b600160a060020a03808a1660008181526009602090815260409182902080546001810190915582517f6e71edae12b1b97f4d1f60370fef10105fa2faae0126114a169c64845d6126c99281019290925281830193909352928b166060840152608083018a905260a0830182905260c08084018a90528151808503909101815260e090930190529250611146906115d4565b9050611154818686866116db565b600160a060020a038a811691161461116b57600080fd5b61117689898961127b565b505050505050505050565b336000908152600560209081526040808320600160a060020a03861684529091528120546111b5908363ffffffff6112d716565b336000818152600560209081526040808320600160a060020a038916808552908352928190208590558051948552519193600080516020611d8d833981519152929081900390910190a350600192915050565b600160a060020a03918216600090815260056020908152604080832093909416825291909152205490565b61105c82338361086d565b600654600160a060020a0316331461125557600080fd5b610ccf81611a3c565b600a60209081526000928352604080842090915290825290205481565b6112868383836118e1565b60001981141561105c57600160a060020a038084166000908152600a60209081526040808320938616835292905290812055505050565b6000903b1190565b6000828211156112d157fe5b50900390565b818101828110156112e457fe5b92915050565b6112f382610e3d565b1561105c576040805160008152602081019091526113169084908490849061132d565b151561105c57600080fd5b60006110288383611aba565b600083600160a060020a031663a4c0ed3660e01b8685856040516024018084600160a060020a0316600160a060020a0316815260200183815260200180602001828103825283818151815260200191508051906020019080838360005b838110156113a257818101518382015260200161138a565b50505050905090810190601f1680156113cf5780820380516001836020036101000a031916815260200191505b5060408051601f198184030181529181526020820180517bffffffffffffffffffffffffffffffffffffffffffffffffffffffff167fffffffff00000000000000000000000000000000000000000000000000000000909916989098178852518151919790965086955093509150819050838360005b8381101561145d578181015183820152602001611445565b50505050905090810190601f16801561148a5780820380516001836020036101000a031916815260200191505b509150506000604051808303816000865af1979650505050505050565b600160a060020a0382166000908152600360205260409020548111156114cc57600080fd5b600160a060020a0382166000908152600360205260409020546114f5908263ffffffff6112c516565b600160a060020a038316600090815260036020526040902055600454611521908263ffffffff6112c516565b600455604080518281529051600160a060020a038416917fcc16f5dbb4873280815c1ee09dbd06736cffcc184412cf7a71a0fdb75d397ca5919081900360200190a2604080518281529051600091600160a060020a03851691600080516020611d6d8339815191529181900360200190a35050565b80600160a060020a03811615156115ac57600080fd5b600160a060020a03831615156115ca576115c582611b89565b61105c565b61105c8383611b95565b6000600854826040518082805190602001908083835b602083106116095780518252601f1990920191602091820191016115ea565b51815160209384036101000a6000190180199092169116179052604080519290940182900382207f190100000000000000000000000000000000000000000000000000000000000083830152602283019790975260428083019790975283518083039097018752606290910192839052855192945084935085019190508083835b602083106116a95780518252601f19909201916020918201910161168a565b5181516020939093036101000a6000190180199091169216919091179052604051920182900390912095945050505050565b6000808460ff16601b14806116f357508460ff16601c145b151561176f576040805160e560020a62461bcd02815260206004820152602260248201527f45434453413a20696e76616c6964207369676e6174757265202776272076616c60448201527f7565000000000000000000000000000000000000000000000000000000000000606482015290519081900360840190fd5b7f7fffffffffffffffffffffffffffffff5d576e7357a4501ddfe92f46681b20a0600084901c1115611811576040805160e560020a62461bcd02815260206004820152602260248201527f45434453413a20696e76616c6964207369676e6174757265202773272076616c60448201527f7565000000000000000000000000000000000000000000000000000000000000606482015290519081900360840190fd5b60408051600080825260208083018085528a905260ff8916838501526060830188905260808301879052925160019360a0808501949193601f19840193928390039091019190865af115801561186b573d6000803e3d6000fd5b5050604051601f190151915050600160a060020a03811615156118d8576040805160e560020a62461bcd02815260206004820152601860248201527f45434453413a20696e76616c6964207369676e61747572650000000000000000604482015290519081900360640190fd5b95945050505050565b600160a060020a0383161515611966576040805160e560020a62461bcd028152602060048201526024808201527f45524332303a20617070726f76652066726f6d20746865207a65726f2061646460448201527f7265737300000000000000000000000000000000000000000000000000000000606482015290519081900360840190fd5b600160a060020a03821615156119ec576040805160e560020a62461bcd02815260206004820152602260248201527f45524332303a20617070726f766520746f20746865207a65726f20616464726560448201527f7373000000000000000000000000000000000000000000000000000000000000606482015290519081900360840190fd5b600160a060020a0380841660008181526005602090815260408083209487168084529482529182902085905581518581529151600080516020611d8d8339815191529281900390910190a3505050565b600160a060020a0381161515611a5157600080fd5b600654604051600160a060020a038084169216907f8be0079c531659141344cd1fd0a4f28419497f9722a3daafe3b4186f6b6457e090600090a36006805473ffffffffffffffffffffffffffffffffffffffff1916600160a060020a0392909216919091179055565b33600090815260036020526040812054821115611ad657600080fd5b600160a060020a0383161515611aeb57600080fd5b33600090815260036020526040902054611b0b908363ffffffff6112c516565b3360009081526003602052604080822092909255600160a060020a03851681522054611b3d908363ffffffff6112d716565b600160a060020a038416600081815260036020908152604091829020939093558051858152905191923392600080516020611d6d8339815191529281900390910190a350600192915050565b3031610e078282611c42565b604080517f70a0823100000000000000000000000000000000000000000000000000000000815230600482015290518391600091600160a060020a038416916370a0823191602480830192602092919082900301818787803b158015611bfa57600080fd5b505af1158015611c0e573d6000803e3d6000fd5b505050506040513d6020811015611c2457600080fd5b5051905061106c600160a060020a038516848363ffffffff611caa16565b604051600160a060020a0383169082156108fc029083906000818181858888f193505050501515610e07578082611c77611d3c565b600160a060020a039091168152604051908190036020019082f080158015611ca3573d6000803e3d6000fd5b5050505050565b82600160a060020a031663a9059cbb83836040518363ffffffff1660e01b81526004018083600160a060020a0316600160a060020a0316815260200182815260200192505050600060405180830381600087803b158015611d0a57600080fd5b505af1158015611d1e573d6000803e3d6000fd5b505050503d1561105c5760206000803e600051151561105c57600080fd5b604051602180611d4c833901905600608060405260405160208060218339810160405251600160a060020a038116ff00ddf252ad1be2c89b69c2b068fc378daa952ba7f163c4a11628f55a4df523b3ef8c5be1e5ebec7d5bd14f71427d1e84f3dd0314c0f7b2291e5b200ac8c7c3b925a165627a7a723058205ce0ff0773bc1df87d475cb2d6bc82d5e939b7adc5bc213c192d4adda1274eb90029",
    "linkReferences": {}
  },
  "methodIdentifiers": {
    "DOMAIN_SEPARATOR()": "3644e515",
    "PERMIT_TYPEHASH()": "30adf81f",
    "PERMIT_TYPEHASH_LEGACY()": "c6a1dedf",
    "allowance(address,address)": "dd62ed3e",
    "approve(address,uint256)": "095ea7b3",
    "balanceOf(address)": "70a08231",
    "bridgeContract()": "cd596583",
    "burn(uint256)": "42966c68",
    "claimTokens(address,address)": "69ffa08a",
    "decimals()": "313ce567",
    "decreaseAllowance(address,uint256)": "a457c2d7",
    "decreaseApproval(address,uint256)": "66188463",
    "expirations(address,address)": "ff9e884d",
    "finishMinting()": "7d64bcb4",
    "getTokenInterfacesVersion()": "859ba28c",
    "increaseAllowance(address,uint256)": "39509351",
    "increaseApproval(address,uint256)": "d73dd623",
    "isBridge(address)": "726600ce",
    "mint(address,uint256)": "40c10f19",
    "mintingFinished()": "05d2035b",
    "move(address,address,uint256)": "bb35783b",
    "name()": "06fdde03",
    "nonces(address)": "7ecebe00",
    "owner()": "8da5cb5b",
    "permit(address,address,uint256,uint256,bool,uint8,bytes32,bytes32)": "8fcbaf0c",
    "permit(address,address,uint256,uint256,uint8,bytes32,bytes32)": "d505accf",
    "pull(address,uint256)": "f2d5d56b",
    "push(address,uint256)": "b753a98c",
    "renounceOwnership()": "715018a6",
    "setBridgeContract(address)": "0b26cf66",
    "symbol()": "95d89b41",
    "totalSupply()": "18160ddd",
    "transfer(address,uint256)": "a9059cbb",
    "transferAndCall(address,uint256,bytes)": "4000aea0",
    "transferFrom(address,address,uint256)": "23b872dd",
    "transferOwnership(address)": "f2fde38b",
    "version()": "54fd4d50"
  },
  "id": 4
}