{
  "abi": [
    {
      "constant": true,
      "inputs": [],
      "name": "isInitialized",
      "outputs": [
        {
          "name": "",
          "type": "bool"
        }
      ],
      "payable": false,
      "stateMutability": "view",
      "type": "function"
    }
  ],
  "bytecode": {
    "object": "0x6080604052348015600f57600080fd5b5060ca8061001e6000396000f30060806040526004361060225760003560e01c63ffffffff168063392e53cd146027575b600080fd5b348015603257600080fd5b506039604d565b604080519115158252519081900360200190f35b7f0a6f646cd611241d8073675e00d1a1ff700fbf1b53fcf473de56d1e6e4b714ba60005260046020527f078d888f9b66f3f8bfa10909e31f1e16240db73449f0500afdbbe3a70da457cc5460ff16905600a165627a7a7230582024d453314e46e3414befc24d4eb24c5721013869e0d9b192930ab27d50b9ae5f0029",
    "linkReferences": {}
  },
  "methodIdentifiers": {
    "isInitialized()": "392e53cd"
  },
  "id": 19
}