{
  "abi": [
    {
      "constant": true,
      "inputs": [],
      "name": "mediatorBalance",
      "outputs": [
        {
          "name": "",
          "type": "uint256"
        }
      ],
      "payable": false,
      "stateMutability": "view",
      "type": "function"
    }
  ],
  "bytecode": {
    "object": "0x6080604052348015600f57600080fd5b5060c48061001e6000396000f30060806040526004361060225760003560e01c63ffffffff1680634b94f815146027575b600080fd5b348015603257600080fd5b506039604b565b60408051918252519081900360200190f35b7f3db340e280667ee926fa8c51e8f9fcf88a0ff221a66d84d63b4778127d97d13960009081526020527ef98556deae64bbaa11436ee534ae029e85ed112aff9b71330af4c2d320eac954905600a165627a7a723058202a43ff6b4827600c19e19814b172123ae01aca1fd2e21832a38d98989a06c5470029",
    "linkReferences": {}
  },
  "methodIdentifiers": {
    "mediatorBalance()": "4b94f815"
  },
  "id": 94
}