{
  "abi": [
    {
      "constant": false,
      "inputs": [
        {
          "name": "_i",
          "type": "uint256"
        },
        {
          "name": "_bridge",
          "type": "address"
        },
        {
          "name": "_executor",
          "type": "address"
        }
      ],
      "name": "setValueOnOtherNetworkUsingManualLane",
      "outputs": [],
      "payable": false,
      "stateMutability": "nonpayable",
      "type": "function"
    },
    {
      "constant": true,
      "inputs": [],
      "name": "status",
      "outputs": [
        {
          "name": "",
          "type": "bool"
        }
      ],
      "payable": false,
      "stateMutability": "view",
      "type": "function"
    },
    {
      "constant": true,
      "inputs": [],
      "name": "lastSender",
      "outputs": [
        {
          "name": "",
          "type": "address"
        }
      ],
      "payable": false,
      "stateMutability": "view",
      "type": "function"
    },
    {
      "constant": false,
      "inputs": [
        {
          "name": "_bridge",
          "type": "address"
        },
        {
          "name": "_selector",
          "type": "bytes32"
        },
        {
          "name": "_data",
          "type": "bytes"
        }
      ],
      "name": "makeAsyncCall",
      "outputs": [],
      "payable": false,
      "stateMutability": "nonpayable",
      "type": "function"
    },
    {
      "constant": false,
      "inputs": [],
      "name": "methodWillFail",
      "outputs": [],
      "payable": false,
      "stateMutability": "nonpayable",
      "type": "function"
    },
    {
      "constant": true,
      "inputs": [],
      "name": "value",
      "outputs": [
        {
          "name": "",
          "type": "uint256"
        }
      ],
      "payable": false,
      "stateMutability": "view",
      "type": "function"
    },
    {
      "constant": false,
      "inputs": [
        {
          "name": "_value",
          "type": "uint256"
        }
      ],
      "name": "setValue",
      "outputs": [],
      "payable": false,
      "stateMutability": "nonpayable",
      "type": "function"
    },
    {
      "constant": true,
      "inputs": [],
      "name": "messageId",
      "outputs": [
        {
          "name": "",
          "type": "bytes32"
        }
      ],
      "payable": false,
      "stateMutability": "view",
      "type": "function"
    },
    {
      "constant": false,
      "inputs": [
        {
          "name": "_i",
          "type": "uint256"
        },
        {
          "name": "_bridge",
          "type": "address"
        },
        {
          "name": "_executor",
          "type": "address"
        }
      ],
      "name": "setValueOnOtherNetwork",
      "outputs": [],
      "payable": false,
      "stateMutability": "nonpayable",
      "type": "function"
    },
    {
      "constant": true,
      "inputs": [],
      "name": "data",
      "outputs": [
        {
          "name": "",
          "type": "bytes"
        }
      ],
      "payable": false,
      "stateMutability": "view",
      "type": "function"
    },
    {
      "constant": true,
      "inputs": [],
      "name": "messageSourceChainId",
      "outputs": [
        {
          "name": "",
          "type": "uint256"
        }
      ],
      "payable": false,
      "stateMutability": "view",
      "type": "function"
    },
    {
      "constant": false,
      "inputs": [
        {
          "name": "_bridge",
          "type": "address"
        },
        {
          "name": "_executor",
          "type": "address"
        }
      ],
      "name": "methodOutOfGasOnOtherNetwork",
      "outputs": [],
      "payable": false,
      "stateMutability": "nonpayable",
      "type": "function"
    },
    {
      "constant": false,
      "inputs": [],
      "name": "methodOutOfGas",
      "outputs": [],
      "payable": false,
      "stateMutability": "nonpayable",
      "type": "function"
    },
    {
      "constant": false,
      "inputs": [
        {
          "name": "_bridge",
          "type": "address"
        },
        {
          "name": "_executor",
          "type": "address"
        }
      ],
      "name": "methodWillFailOnOtherNetwork",
      "outputs": [],
      "payable": false,
      "stateMutability": "nonpayable",
      "type": "function"
    },
    {
      "constant": true,
      "inputs": [],
      "name": "txHash",
      "outputs": [
        {
          "name": "",
          "type": "bytes32"
        }
      ],
      "payable": false,
      "stateMutability": "view",
      "type": "function"
    },
    {
      "constant": false,
      "inputs": [
        {
          "name": "_messageId",
          "type": "bytes32"
        },
        {
          "name": "_status",
          "type": "bool"
        },
        {
          "name": "_data",
          "type": "bytes"
        }
      ],
      "name": "onInformationReceived",
      "outputs": [],
      "payable": false,
      "stateMutability": "nonpayable",
      "type": "function"
    }
  ],
  "bytecode": {
    "object": "0x608060405234801561001057600080fd5b50610c0f806100206000396000f3006080604052600436106100c95760003560e01c63ffffffff1680631ec60216146100ce578063200d2ed2146100fa578063256fec881461012357806337c1adc5146101545780633b171858146101855780633fa4f2451461019a57806355241077146101c1578063669f618b146101d95780636b75f02b146101ee57806373d4a13a146102185780639e307dff146102a2578063b2333210146102b7578063b2d28688146102de578063e6d00319146102f3578063eb2c89a31461031a578063f534de5b1461032f575b600080fd5b3480156100da57600080fd5b506100f8600435600160a060020a0360243581169060443516610359565b005b34801561010657600080fd5b5061010f6104af565b604080519115158252519081900360200190f35b34801561012f57600080fd5b506101386104b8565b60408051600160a060020a039092168252519081900360200190f35b34801561016057600080fd5b506100f860048035600160a060020a03169060248035916044359182019101356104c7565b34801561019157600080fd5b506100f86100c9565b3480156101a657600080fd5b506101af61057a565b60408051918252519081900360200190f35b3480156101cd57600080fd5b506100f8600435610580565b3480156101e557600080fd5b506101af6107a3565b3480156101fa57600080fd5b506100f8600435600160a060020a03602435811690604435166107a9565b34801561022457600080fd5b5061022d61087d565b6040805160208082528351818301528351919283929083019185019080838360005b8381101561026757818101518382015260200161024f565b50505050905090810190601f1680156102945780820380516001836020036101000a031916815260200191505b509250505060405180910390f35b3480156102ae57600080fd5b506101af61090b565b3480156102c357600080fd5b506100f8600160a060020a0360043581169060243516610911565b3480156102ea57600080fd5b506100f8610a2d565b3480156102ff57600080fd5b506100f8600160a060020a0360043581169060243516610a4b565b34801561032657600080fd5b506101af610b19565b34801561033b57600080fd5b506100f8600480359060248035151591604435918201910135610b1f565b60408051602480820186905282518083038201815260449283018452602081018051600160e060020a03167f5524107700000000000000000000000000000000000000000000000000000000908117825294517f94643f71000000000000000000000000000000000000000000000000000000008152600160a060020a03878116600483019081526202294f96830187905260609583019586528451606484015284519496918a16956394643f71958a9589956084019180838360005b8381101561042e578181015183820152602001610416565b50505050905090810190601f16801561045b5780820380516001836020036101000a031916815260200191505b50945050505050602060405180830381600087803b15801561047c57600080fd5b505af1158015610490573d6000803e3d6000fd5b505050506040513d60208110156104a657600080fd5b50505050505050565b60055460ff1681565b600154600160a060020a031681565b604080517f525ea937000000000000000000000000000000000000000000000000000000008152600481018581526024820192835260448201849052600160a060020a0387169263525ea937928792879287926064018484808284378201915050945050505050602060405180830381600087803b15801561054857600080fd5b505af115801561055c573d6000803e3d6000fd5b505050506040513d602081101561057257600080fd5b505050505050565b60005481565b8060008190555033600160a060020a031663d67bdd256040518163ffffffff1660e01b8152600401602060405180830381600087803b1580156105c257600080fd5b505af11580156105d6573d6000803e3d6000fd5b505050506040513d60208110156105ec57600080fd5b50516001805473ffffffffffffffffffffffffffffffffffffffff1916600160a060020a03909216919091179055604080517f669f618b0000000000000000000000000000000000000000000000000000000081529051339163669f618b9160048083019260209291908290030181600087803b15801561066c57600080fd5b505af1158015610680573d6000803e3d6000fd5b505050506040513d602081101561069657600080fd5b5051600255604080517f0ac1c31300000000000000000000000000000000000000000000000000000000815290513391630ac1c3139160048083019260209291908290030181600087803b1580156106ed57600080fd5b505af1158015610701573d6000803e3d6000fd5b505050506040513d602081101561071757600080fd5b5051600355604080517f9e307dff00000000000000000000000000000000000000000000000000000000815290513391639e307dff9160048083019260209291908290030181600087803b15801561076e57600080fd5b505af1158015610782573d6000803e3d6000fd5b505050506040513d602081101561079857600080fd5b505160001c60045550565b60025481565b60408051602480820186905282518083038201815260449283018452602081018051600160e060020a03167f5524107700000000000000000000000000000000000000000000000000000000908117825294517fdc8601b3000000000000000000000000000000000000000000000000000000008152600160a060020a03878116600483019081526202294f96830187905260609583019586528451606484015284519496918a169563dc8601b3958a9589956084019180838360008381101561042e578181015183820152602001610416565b6006805460408051602060026001851615610100026000190190941693909304601f810184900484028201840190925281815292918301828280156109035780601f106108d857610100808354040283529160200191610903565b820191906000526020600020905b8154815290600101906020018083116108e657829003601f168201915b505050505081565b60045481565b60408051600480825260248083018452602083018051600160e060020a03167fb2d2868800000000000000000000000000000000000000000000000000000000908117825294517fdc8601b3000000000000000000000000000000000000000000000000000000008152600160a060020a038781169482019485526103e8604483018190526060948301948552865160648401528651918a169563dc8601b3958a95899593949293919260849092019180838360005b838110156109df5781810151838201526020016109c7565b50505050905090810190601f168015610a0c5780820380516001836020036101000a031916815260200191505b50945050505050602060405180830381600087803b15801561054857600080fd5b6000805b6103e8811015610a475790810190600101610a31565b5050565b60408051600480825260248083018452602083018051600160e060020a03167f3b17185800000000000000000000000000000000000000000000000000000000908117825294517fdc8601b3000000000000000000000000000000000000000000000000000000008152600160a060020a038781169482019485526202294f604483018190526060948301948552865160648401528651918a169563dc8601b3958a9589959394929391926084909201918083836000838110156109df5781810151838201526020016109c7565b60035481565b6002849055610b3060068383610b48565b50506005805460ff1916921515929092179091555050565b828054600181600116156101000203166002900490600052602060002090601f016020900481019282601f10610b895782800160ff19823516178555610bb6565b82800160010185558215610bb6579182015b82811115610bb6578235825591602001919060010190610b9b565b50610bc2929150610bc6565b5090565b610be091905b80821115610bc25760008155600101610bcc565b905600a165627a7a723058209306c40c8d8e841fd64dbc0ddce17d132377b0065a4fd66bcfd7ec942ecebf980029",
    "linkReferences": {}
  },
  "methodIdentifiers": {
    "data()": "73d4a13a",
    "lastSender()": "256fec88",
    "makeAsyncCall(address,bytes32,bytes)": "37c1adc5",
    "messageId()": "669f618b",
    "messageSourceChainId()": "9e307dff",
    "methodOutOfGas()": "b2d28688",
    "methodOutOfGasOnOtherNetwork(address,address)": "b2333210",
    "methodWillFail()": "3b171858",
    "methodWillFailOnOtherNetwork(address,address)": "e6d00319",
    "onInformationReceived(bytes32,bool,bytes)": "f534de5b",
    "setValue(uint256)": "55241077",
    "setValueOnOtherNetwork(uint256,address,address)": "6b75f02b",
    "setValueOnOtherNetworkUsingManualLane(uint256,address,address)": "1ec60216",
    "status()": "200d2ed2",
    "txHash()": "eb2c89a3",
    "value()": "3fa4f245"
  },
  "id": 43
}