{
  "abi": [
    {
      "constant": true,
      "inputs": [],
      "name": "requiredSignatures",
      "outputs": [
        {
          "name": "",
          "type": "uint256"
        }
      ],
      "payable": false,
      "stateMutability": "view",
      "type": "function"
    },
    {
      "constant": true,
      "inputs": [],
      "name": "validatorContract",
      "outputs": [
        {
          "name": "",
          "type": "address"
        }
      ],
      "payable": false,
      "stateMutability": "view",
      "type": "function"
    }
  ],
  "bytecode": {
    "object": "0x608060405234801561001057600080fd5b506101ab806100206000396000f30060806040526004361061002f5760003560e01c63ffffffff1680638d06804314610034578063994390891461005b575b600080fd5b34801561004057600080fd5b50610049610099565b60408051918252519081900360200190f35b34801561006757600080fd5b5061007061011b565b6040805173ffffffffffffffffffffffffffffffffffffffff9092168252519081900360200190f35b60006100a361011b565b73ffffffffffffffffffffffffffffffffffffffff16638d0680436040518163ffffffff1660e01b8152600401602060405180830381600087803b1580156100ea57600080fd5b505af11580156100fe573d6000803e3d6000fd5b505050506040513d602081101561011457600080fd5b5051905090565b7f5a74bb7e202fb8e4bf311841c7d64ec19df195fee77d7e7ae749b27921b6ddfe60005260026020527fab54f3fbbe62c59b7876a9bf9bd5e0c22dbae93f4d8ee0438f7ce62b198eb0e05473ffffffffffffffffffffffffffffffffffffffff16905600a165627a7a7230582066f92f41679259e988e3544221157223a224f25e2e7f2eabe75cde6a380824030029",
    "linkReferences": {}
  },
  "methodIdentifiers": {
    "requiredSignatures()": "8d068043",
    "validatorContract()": "99439089"
  },
  "id": 26
}