{
  "abi": [
    {
      "constant": true,
      "inputs": [],
      "name": "validatorCount",
      "outputs": [
        {
          "name": "",
          "type": "uint256"
        }
      ],
      "payable": false,
      "stateMutability": "view",
      "type": "function"
    },
    {
      "constant": true,
      "inputs": [],
      "name": "getBridgeValidatorsInterfacesVersion",
      "outputs": [
        {
          "name": "major",
          "type": "uint64"
        },
        {
          "name": "minor",
          "type": "uint64"
        },
        {
          "name": "patch",
          "type": "uint64"
        }
      ],
      "payable": false,
      "stateMutability": "pure",
      "type": "function"
    },
    {
      "constant": true,
      "inputs": [],
      "name": "isInitialized",
      "outputs": [
        {
          "name": "",
          "type": "bool"
        }
      ],
      "payable": false,
      "stateMutability": "view",
      "type": "function"
    },
    {
      "constant": true,
      "inputs": [],
      "name": "validatorList",
      "outputs": [
        {
          "name": "",
          "type": "address[]"
        }
      ],
      "payable": false,
      "stateMutability": "view",
      "type": "function"
    },
    {
      "constant": false,
      "inputs": [
        {
          "name": "_requiredSignatures",
          "type": "uint256"
        }
      ],
      "name": "setRequiredSignatures",
      "outputs": [],
      "payable": false,
      "stateMutability": "nonpayable",
      "type": "function"
    },
    {
      "constant": true,
      "inputs": [],
      "name": "requiredSignatures",
      "outputs": [
        {
          "name": "",
          "type": "uint256"
        }
      ],
      "payable": false,
      "stateMutability": "view",
      "type": "function"
    },
    {
      "constant": true,
      "inputs": [
        {
          "name": "_address",
          "type": "address"
        }
      ],
      "name": "getNextValidator",
      "outputs": [
        {
          "name": "",
          "type": "address"
        }
      ],
      "payable": false,
      "stateMutability": "view",
      "type": "function"
    },
    {
      "constant": true,
      "inputs": [],
      "name": "owner",
      "outputs": [
        {
          "name": "",
          "type": "address"
        }
      ],
      "payable": false,
      "stateMutability": "view",
      "type": "function"
    },
    {
      "constant": true,
      "inputs": [
        {
          "name": "_validator",
          "type": "address"
        }
      ],
      "name": "isValidatorDuty",
      "outputs": [
        {
          "name": "",
          "type": "bool"
        }
      ],
      "payable": false,
      "stateMutability": "view",
      "type": "function"
    },
    {
      "constant": true,
      "inputs": [],
      "name": "deployedAtBlock",
      "outputs": [
        {
          "name": "",
          "type": "uint256"
        }
      ],
      "payable": false,
      "stateMutability": "view",
      "type": "function"
    },
    {
      "constant": true,
      "inputs": [],
      "name": "F_ADDR",
      "outputs": [
        {
          "name": "",
          "type": "address"
        }
      ],
      "payable": false,
      "stateMutability": "view",
      "type": "function"
    },
    {
      "constant": false,
      "inputs": [
        {
          "name": "newOwner",
          "type": "address"
        }
      ],
      "name": "transferOwnership",
      "outputs": [],
      "payable": false,
      "stateMutability": "nonpayable",
      "type": "function"
    },
    {
      "constant": true,
      "inputs": [
        {
          "name": "_validator",
          "type": "address"
        }
      ],
      "name": "isValidator",
      "outputs": [
        {
          "name": "",
          "type": "bool"
        }
      ],
      "payable": false,
      "stateMutability": "view",
      "type": "function"
    },
    {
      "anonymous": false,
      "inputs": [
        {
          "indexed": true,
          "name": "validator",
          "type": "address"
        }
      ],
      "name": "ValidatorAdded",
      "type": "event"
    },
    {
      "anonymous": false,
      "inputs": [
        {
          "indexed": true,
          "name": "validator",
          "type": "address"
        }
      ],
      "name": "ValidatorRemoved",
      "type": "event"
    },
    {
      "anonymous": false,
      "inputs": [
        {
          "indexed": false,
          "name": "requiredSignatures",
          "type": "uint256"
        }
      ],
      "name": "RequiredSignaturesChanged",
      "type": "event"
    },
    {
      "anonymous": false,
      "inputs": [
        {
          "indexed": false,
          "name": "previousOwner",
          "type": "address"
        },
        {
          "indexed": false,
          "name": "newOwner",
          "type": "address"
        }
      ],
      "name": "OwnershipTransferred",
      "type": "event"
    }
  ],
  "bytecode": {
    "object": "0x608060405234801561001057600080fd5b506108cb806100206000396000f3006080604052600436106100a85760003560e01c63ffffffff1680630f43a677146100ad5780632bda4eee146100d4578063392e53cd146101155780635890ef791461013e5780637d2b9cc0146101a35780638d068043146101bd5780638d37052c146101d25780638da5cb5b1461020f5780638e4ec60a146102245780639a454b9914610245578063c794c7691461025a578063f2fde38b1461026f578063facd743b14610290575b600080fd5b3480156100b957600080fd5b506100c26102b1565b60408051918252519081900360200190f35b3480156100e057600080fd5b506100e96102ff565b6040805167ffffffffffffffff9485168152928416602084015292168183015290519081900360600190f35b34801561012157600080fd5b5061012a61030a565b604080519115158252519081900360200190f35b34801561014a57600080fd5b5061015361035b565b60408051602080825283518183015283519192839290830191858101910280838360005b8381101561018f578181015183820152602001610177565b505050509050019250505060405180910390f35b3480156101af57600080fd5b506101bb600435610429565b005b3480156101c957600080fd5b506100c26104eb565b3480156101de57600080fd5b506101f3600160a060020a0360043516610539565b60408051600160a060020a039092168252519081900360200190f35b34801561021b57600080fd5b506101f3610615565b34801561023057600080fd5b5061012a600160a060020a036004351661066c565b34801561025157600080fd5b506100c2610714565b34801561026657600080fd5b506101f3610762565b34801561027b57600080fd5b506101bb600160a060020a036004351661076d565b34801561029c57600080fd5b5061012a600160a060020a0360043516610795565b7f8656d603d9f985c3483946a92789d52202f49736384ba131cb92f62c4c1aa08260009081526020527f95d17efd9f452ee83a125e41a6180e225f2e2ff7d47d2c1f6cd9b2e14a207ba15490565b600260036000909192565b7f0a6f646cd611241d8073675e00d1a1ff700fbf1b53fcf473de56d1e6e4b714ba60005260046020527f078d888f9b66f3f8bfa10909e31f1e16240db73449f0500afdbbe3a70da457cc5460ff1690565b6060806000806103696102b1565b604051908082528060200260200182016040528015610392578160200160208202803883390190505b509250600091506103a9600160a060020a03610539565b9050600160a060020a03811615156103c057600080fd5b600160a060020a0381811614610421578083838151811015156103df57fe5b600160a060020a039092166020928302909101909101526103ff81610539565b6001909201919050600160a060020a038116151561041c57600080fd5b6103c0565b509092915050565b610431610615565b600160a060020a0316331461044557600080fd5b8061044e6102b1565b101561045957600080fd5b80151561046557600080fd5b7fd18ea17c351d6834a0e568067fb71804d2a588d5e26d60f792b1c724b1bd53b1600090815260209081527f8a247e09a5673bd4d93a4e76d8fb9553523aa0d77f51f3d576e7421f5295b9bc8290556040805183815290517f10dbc913050d3180c3b99f7da91fd514af7cbc9c1bb59a0da5d2bc38f0cf395a929181900390910190a150565b7fd18ea17c351d6834a0e568067fb71804d2a588d5e26d60f792b1c724b1bd53b160009081526020527f8a247e09a5673bd4d93a4e76d8fb9553523aa0d77f51f3d576e7421f5295b9bc5490565b6000600260008360405160200180807f76616c696461746f72734c697374000000000000000000000000000000000000815250600e0182600160a060020a0316600160a060020a031660601b81526014019150506040516020818303038152906040526040518082805190602001908083835b602083106105cb5780518252601f1990920191602091820191016105ac565b51815160209384036101000a6000190180199092169116179052604080519290940182900390912086528501959095529290920160002054600160a060020a031695945050505050565b7f02016836a56b71f0d02689e69e326f4f4c1b9057164ef592671cf0d37c8040c060005260026020527fb7802e97e87ef2842a6cce7da7ffaeaedaa2f61a6a7870b23d9d01fc9b73712e54600160a060020a031690565b60008080610680600160a060020a03610539565b9050600160a060020a038116151561069757600080fd5b600160a060020a03818116146107085783600160a060020a031681600160a060020a031614156106dd57816106ca6102b1565b438115156106d457fe5b0614925061070d565b6106e681610539565b6001909201919050600160a060020a038116151561070357600080fd5b610697565b600092505b5050919050565b7fb120ceec05576ad0c710bc6e85f1768535e27554458f05dcbb5c65b8c7a749b060009081526020527fe66bef0282a446f9848e2903380099bb6e431483ee78778868f33b4a154c818b5490565b600160a060020a0381565b610775610615565b600160a060020a0316331461078957600080fd5b610792816107c8565b50565b6000600160a060020a03828116148015906107c2575060006107b683610539565b600160a060020a031614155b92915050565b600160a060020a03811615156107dd57600080fd5b7f8be0079c531659141344cd1fd0a4f28419497f9722a3daafe3b4186f6b6457e0610806610615565b60408051600160a060020a03928316815291841660208301528051918290030190a17f02016836a56b71f0d02689e69e326f4f4c1b9057164ef592671cf0d37c8040c060005260026020527fb7802e97e87ef2842a6cce7da7ffaeaedaa2f61a6a7870b23d9d01fc9b73712e805473ffffffffffffffffffffffffffffffffffffffff1916600160a060020a03929092169190911790555600a165627a7a723058204d43a5460096f7dfb716e8a3904e0fe89382d168f561ac48b247fd7531f0f6540029",
    "linkReferences": {}
  },
  "methodIdentifiers": {
    "F_ADDR()": "c794c769",
    "deployedAtBlock()": "9a454b99",
    "getBridgeValidatorsInterfacesVersion()": "2bda4eee",
    "getNextValidator(address)": "8d37052c",
    "isInitialized()": "392e53cd",
    "isValidator(address)": "facd743b",
    "isValidatorDuty(address)": "8e4ec60a",
    "owner()": "8da5cb5b",
    "requiredSignatures()": "8d068043",
    "setRequiredSignatures(uint256)": "7d2b9cc0",
    "transferOwnership(address)": "f2fde38b",
    "validatorCount()": "0f43a677",
    "validatorList()": "5890ef79"
  },
  "id": 68
}