{
  "abi": [
    {
      "constant": true,
      "inputs": [
        {
          "name": "_message",
          "type": "bytes32"
        }
      ],
      "name": "numMessagesSigned",
      "outputs": [
        {
          "name": "",
          "type": "uint256"
        }
      ],
      "payable": false,
      "stateMutability": "view",
      "type": "function"
    },
    {
      "constant": true,
      "inputs": [],
      "name": "totalBurntCoins",
      "outputs": [
        {
          "name": "",
          "type": "uint256"
        }
      ],
      "payable": false,
      "stateMutability": "view",
      "type": "function"
    },
    {
      "constant": true,
      "inputs": [
        {
          "name": "_hash",
          "type": "bytes32"
        },
        {
          "name": "_index",
          "type": "uint256"
        }
      ],
      "name": "signature",
      "outputs": [
        {
          "name": "",
          "type": "bytes"
        }
      ],
      "payable": false,
      "stateMutability": "view",
      "type": "function"
    },
    {
      "constant": false,
      "inputs": [
        {
          "name": "_blockReward",
          "type": "address"
        }
      ],
      "name": "setBlockRewardContract",
      "outputs": [],
      "payable": false,
      "stateMutability": "nonpayable",
      "type": "function"
    },
    {
      "constant": false,
      "inputs": [
        {
          "name": "_fee",
          "type": "uint256"
        }
      ],
      "name": "setForeignFee",
      "outputs": [],
      "payable": false,
      "stateMutability": "nonpayable",
      "type": "function"
    },
    {
      "constant": true,
      "inputs": [
        {
          "name": "_day",
          "type": "uint256"
        }
      ],
      "name": "totalSpentPerDay",
      "outputs": [
        {
          "name": "",
          "type": "uint256"
        }
      ],
      "payable": false,
      "stateMutability": "view",
      "type": "function"
    },
    {
      "constant": false,
      "inputs": [
        {
          "name": "_fee",
          "type": "uint256"
        }
      ],
      "name": "setHomeFee",
      "outputs": [],
      "payable": false,
      "stateMutability": "nonpayable",
      "type": "function"
    },
    {
      "constant": true,
      "inputs": [],
      "name": "isInitialized",
      "outputs": [
        {
          "name": "",
          "type": "bool"
        }
      ],
      "payable": false,
      "stateMutability": "view",
      "type": "function"
    },
    {
      "constant": false,
      "inputs": [
        {
          "name": "_dailyLimit",
          "type": "uint256"
        }
      ],
      "name": "setExecutionDailyLimit",
      "outputs": [],
      "payable": false,
      "stateMutability": "nonpayable",
      "type": "function"
    },
    {
      "constant": true,
      "inputs": [],
      "name": "getCurrentDay",
      "outputs": [
        {
          "name": "",
          "type": "uint256"
        }
      ],
      "payable": false,
      "stateMutability": "view",
      "type": "function"
    },
    {
      "constant": true,
      "inputs": [],
      "name": "requiredBlockConfirmations",
      "outputs": [
        {
          "name": "",
          "type": "uint256"
        }
      ],
      "payable": false,
      "stateMutability": "view",
      "type": "function"
    },
    {
      "constant": true,
      "inputs": [],
      "name": "requiredMessageLength",
      "outputs": [
        {
          "name": "",
          "type": "uint256"
        }
      ],
      "payable": false,
      "stateMutability": "pure",
      "type": "function"
    },
    {
      "constant": true,
      "inputs": [],
      "name": "getBridgeMode",
      "outputs": [
        {
          "name": "_data",
          "type": "bytes4"
        }
      ],
      "payable": false,
      "stateMutability": "pure",
      "type": "function"
    },
    {
      "constant": true,
      "inputs": [],
      "name": "executionDailyLimit",
      "outputs": [
        {
          "name": "",
          "type": "uint256"
        }
      ],
      "payable": false,
      "stateMutability": "view",
      "type": "function"
    },
    {
      "constant": true,
      "inputs": [
        {
          "name": "_hash",
          "type": "bytes32"
        }
      ],
      "name": "message",
      "outputs": [
        {
          "name": "",
          "type": "bytes"
        }
      ],
      "payable": false,
      "stateMutability": "view",
      "type": "function"
    },
    {
      "constant": true,
      "inputs": [
        {
          "name": "_day",
          "type": "uint256"
        }
      ],
      "name": "totalExecutedPerDay",
      "outputs": [
        {
          "name": "",
          "type": "uint256"
        }
      ],
      "payable": false,
      "stateMutability": "view",
      "type": "function"
    },
    {
      "constant": true,
      "inputs": [],
      "name": "blockRewardContract",
      "outputs": [
        {
          "name": "",
          "type": "address"
        }
      ],
      "payable": false,
      "stateMutability": "view",
      "type": "function"
    },
    {
      "constant": false,
      "inputs": [
        {
          "name": "_receiver",
          "type": "address"
        }
      ],
      "name": "relayTokens",
      "outputs": [],
      "payable": true,
      "stateMutability": "payable",
      "type": "function"
    },
    {
      "constant": false,
      "inputs": [
        {
          "name": "_feeManager",
          "type": "address"
        }
      ],
      "name": "setFeeManagerContract",
      "outputs": [],
      "payable": false,
      "stateMutability": "nonpayable",
      "type": "function"
    },
    {
      "constant": false,
      "inputs": [
        {
          "name": "signature",
          "type": "bytes"
        },
        {
          "name": "message",
          "type": "bytes"
        }
      ],
      "name": "submitSignature",
      "outputs": [],
      "payable": false,
      "stateMutability": "nonpayable",
      "type": "function"
    },
    {
      "constant": true,
      "inputs": [],
      "name": "dailyLimit",
      "outputs": [
        {
          "name": "",
          "type": "uint256"
        }
      ],
      "payable": false,
      "stateMutability": "view",
      "type": "function"
    },
    {
      "constant": false,
      "inputs": [
        {
          "name": "_token",
          "type": "address"
        },
        {
          "name": "_to",
          "type": "address"
        }
      ],
      "name": "claimTokens",
      "outputs": [],
      "payable": false,
      "stateMutability": "nonpayable",
      "type": "function"
    },
    {
      "constant": true,
      "inputs": [
        {
          "name": "_withdrawal",
          "type": "bytes32"
        }
      ],
      "name": "numAffirmationsSigned",
      "outputs": [
        {
          "name": "",
          "type": "uint256"
        }
      ],
      "payable": false,
      "stateMutability": "view",
      "type": "function"
    },
    {
      "constant": true,
      "inputs": [
        {
          "name": "_withdrawal",
          "type": "bytes32"
        }
      ],
      "name": "affirmationsSigned",
      "outputs": [
        {
          "name": "",
          "type": "bool"
        }
      ],
      "payable": false,
      "stateMutability": "view",
      "type": "function"
    },
    {
      "constant": false,
      "inputs": [
        {
          "name": "_validatorContract",
          "type": "address"
        },
        {
          "name": "_dailyLimitMaxPerTxMinPerTxArray",
          "type": "uint256[3]"
        },
        {
          "name": "_homeGasPrice",
          "type": "uint256"
        },
        {
          "name": "_requiredBlockConfirmations",
          "type": "uint256"
        },
        {
          "name": "_blockReward",
          "type": "address"
        },
        {
          "name": "_foreignDailyLimitForeignMaxPerTxArray",
          "type": "uint256[2]"
        },
        {
          "name": "_owner",
          "type": "address"
        },
        {
          "name": "_decimalShift",
          "type": "int256"
        }
      ],
      "name": "initialize",
      "outputs": [
        {
          "name": "",
          "type": "bool"
        }
      ],
      "payable": false,
      "stateMutability": "nonpayable",
      "type": "function"
    },
    {
      "constant": true,
      "inputs": [
        {
          "name": "_amount",
          "type": "uint256"
        }
      ],
      "name": "withinExecutionLimit",
      "outputs": [
        {
          "name": "",
          "type": "bool"
        }
      ],
      "payable": false,
      "stateMutability": "view",
      "type": "function"
    },
    {
      "constant": true,
      "inputs": [],
      "name": "executionMaxPerTx",
      "outputs": [
        {
          "name": "",
          "type": "uint256"
        }
      ],
      "payable": false,
      "stateMutability": "view",
      "type": "function"
    },
    {
      "constant": true,
      "inputs": [],
      "name": "requiredSignatures",
      "outputs": [
        {
          "name": "",
          "type": "uint256"
        }
      ],
      "payable": false,
      "stateMutability": "view",
      "type": "function"
    },
    {
      "constant": true,
      "inputs": [],
      "name": "owner",
      "outputs": [
        {
          "name": "",
          "type": "address"
        }
      ],
      "payable": false,
      "stateMutability": "view",
      "type": "function"
    },
    {
      "constant": true,
      "inputs": [
        {
          "name": "_message",
          "type": "bytes32"
        }
      ],
      "name": "messagesSigned",
      "outputs": [
        {
          "name": "",
          "type": "bool"
        }
      ],
      "payable": false,
      "stateMutability": "view",
      "type": "function"
    },
    {
      "constant": true,
      "inputs": [
        {
          "name": "_value",
          "type": "uint256"
        }
      ],
      "name": "getAmountToBurn",
      "outputs": [
        {
          "name": "amount",
          "type": "uint256"
        }
      ],
      "payable": false,
      "stateMutability": "view",
      "type": "function"
    },
    {
      "constant": true,
      "inputs": [],
      "name": "getHomeFee",
      "outputs": [
        {
          "name": "",
          "type": "uint256"
        }
      ],
      "payable": false,
      "stateMutability": "view",
      "type": "function"
    },
    {
      "constant": true,
      "inputs": [],
      "name": "maxAvailablePerTx",
      "outputs": [
        {
          "name": "",
          "type": "uint256"
        }
      ],
      "payable": false,
      "stateMutability": "view",
      "type": "function"
    },
    {
      "constant": true,
      "inputs": [],
      "name": "validatorContract",
      "outputs": [
        {
          "name": "",
          "type": "address"
        }
      ],
      "payable": false,
      "stateMutability": "view",
      "type": "function"
    },
    {
      "constant": false,
      "inputs": [
        {
          "name": "recipient",
          "type": "address"
        },
        {
          "name": "value",
          "type": "uint256"
        },
        {
          "name": "transactionHash",
          "type": "bytes32"
        }
      ],
      "name": "executeAffirmation",
      "outputs": [],
      "payable": false,
      "stateMutability": "nonpayable",
      "type": "function"
    },
    {
      "constant": true,
      "inputs": [],
      "name": "deployedAtBlock",
      "outputs": [
        {
          "name": "",
          "type": "uint256"
        }
      ],
      "payable": false,
      "stateMutability": "view",
      "type": "function"
    },
    {
      "constant": true,
      "inputs": [],
      "name": "getBridgeInterfacesVersion",
      "outputs": [
        {
          "name": "major",
          "type": "uint64"
        },
        {
          "name": "minor",
          "type": "uint64"
        },
        {
          "name": "patch",
          "type": "uint64"
        }
      ],
      "payable": false,
      "stateMutability": "pure",
      "type": "function"
    },
    {
      "constant": true,
      "inputs": [],
      "name": "outOfLimitAmount",
      "outputs": [
        {
          "name": "",
          "type": "uint256"
        }
      ],
      "payable": false,
      "stateMutability": "view",
      "type": "function"
    },
    {
      "constant": false,
      "inputs": [
        {
          "name": "_minPerTx",
          "type": "uint256"
        }
      ],
      "name": "setMinPerTx",
      "outputs": [],
      "payable": false,
      "stateMutability": "nonpayable",
      "type": "function"
    },
    {
      "constant": false,
      "inputs": [
        {
          "name": "hashMsg",
          "type": "bytes32"
        },
        {
          "name": "unlockOnForeign",
          "type": "bool"
        },
        {
          "name": "valueToUnlock",
          "type": "uint256"
        }
      ],
      "name": "fixAssetsAboveLimits",
      "outputs": [],
      "payable": false,
      "stateMutability": "nonpayable",
      "type": "function"
    },
    {
      "constant": false,
      "inputs": [
        {
          "name": "_blockConfirmations",
          "type": "uint256"
        }
      ],
      "name": "setRequiredBlockConfirmations",
      "outputs": [],
      "payable": false,
      "stateMutability": "nonpayable",
      "type": "function"
    },
    {
      "constant": false,
      "inputs": [
        {
          "name": "_dailyLimit",
          "type": "uint256"
        }
      ],
      "name": "setDailyLimit",
      "outputs": [],
      "payable": false,
      "stateMutability": "nonpayable",
      "type": "function"
    },
    {
      "constant": false,
      "inputs": [
        {
          "name": "_gasPrice",
          "type": "uint256"
        }
      ],
      "name": "setGasPrice",
      "outputs": [],
      "payable": false,
      "stateMutability": "nonpayable",
      "type": "function"
    },
    {
      "constant": false,
      "inputs": [
        {
          "name": "_maxPerTx",
          "type": "uint256"
        }
      ],
      "name": "setMaxPerTx",
      "outputs": [],
      "payable": false,
      "stateMutability": "nonpayable",
      "type": "function"
    },
    {
      "constant": true,
      "inputs": [],
      "name": "decimalShift",
      "outputs": [
        {
          "name": "",
          "type": "int256"
        }
      ],
      "payable": false,
      "stateMutability": "view",
      "type": "function"
    },
    {
      "constant": true,
      "inputs": [],
      "name": "feeManagerContract",
      "outputs": [
        {
          "name": "",
          "type": "address"
        }
      ],
      "payable": false,
      "stateMutability": "view",
      "type": "function"
    },
    {
      "constant": true,
      "inputs": [],
      "name": "minPerTx",
      "outputs": [
        {
          "name": "",
          "type": "uint256"
        }
      ],
      "payable": false,
      "stateMutability": "view",
      "type": "function"
    },
    {
      "constant": false,
      "inputs": [
        {
          "name": "_validatorContract",
          "type": "address"
        },
        {
          "name": "_dailyLimitMaxPerTxMinPerTxArray",
          "type": "uint256[3]"
        },
        {
          "name": "_homeGasPrice",
          "type": "uint256"
        },
        {
          "name": "_requiredBlockConfirmations",
          "type": "uint256"
        },
        {
          "name": "_blockReward",
          "type": "address"
        },
        {
          "name": "_foreignDailyLimitForeignMaxPerTxArray",
          "type": "uint256[2]"
        },
        {
          "name": "_owner",
          "type": "address"
        },
        {
          "name": "_feeManager",
          "type": "address"
        },
        {
          "name": "_homeFeeForeignFeeArray",
          "type": "uint256[2]"
        },
        {
          "name": "_decimalShift",
          "type": "int256"
        }
      ],
      "name": "rewardableInitialize",
      "outputs": [
        {
          "name": "",
          "type": "bool"
        }
      ],
      "payable": false,
      "stateMutability": "nonpayable",
      "type": "function"
    },
    {
      "constant": true,
      "inputs": [
        {
          "name": "_amount",
          "type": "uint256"
        }
      ],
      "name": "withinLimit",
      "outputs": [
        {
          "name": "",
          "type": "bool"
        }
      ],
      "payable": false,
      "stateMutability": "view",
      "type": "function"
    },
    {
      "constant": false,
      "inputs": [
        {
          "name": "_maxPerTx",
          "type": "uint256"
        }
      ],
      "name": "setExecutionMaxPerTx",
      "outputs": [],
      "payable": false,
      "stateMutability": "nonpayable",
      "type": "function"
    },
    {
      "constant": true,
      "inputs": [],
      "name": "getFeeManagerMode",
      "outputs": [
        {
          "name": "mode",
          "type": "bytes4"
        }
      ],
      "payable": false,
      "stateMutability": "view",
      "type": "function"
    },
    {
      "constant": false,
      "inputs": [
        {
          "name": "newOwner",
          "type": "address"
        }
      ],
      "name": "transferOwnership",
      "outputs": [],
      "payable": false,
      "stateMutability": "nonpayable",
      "type": "function"
    },
    {
      "constant": true,
      "inputs": [],
      "name": "maxPerTx",
      "outputs": [
        {
          "name": "",
          "type": "uint256"
        }
      ],
      "payable": false,
      "stateMutability": "view",
      "type": "function"
    },
    {
      "constant": true,
      "inputs": [],
      "name": "gasPrice",
      "outputs": [
        {
          "name": "",
          "type": "uint256"
        }
      ],
      "payable": false,
      "stateMutability": "view",
      "type": "function"
    },
    {
      "constant": true,
      "inputs": [
        {
          "name": "_number",
          "type": "uint256"
        }
      ],
      "name": "isAlreadyProcessed",
      "outputs": [
        {
          "name": "",
          "type": "bool"
        }
      ],
      "payable": false,
      "stateMutability": "pure",
      "type": "function"
    },
    {
      "constant": true,
      "inputs": [],
      "name": "getForeignFee",
      "outputs": [
        {
          "name": "",
          "type": "uint256"
        }
      ],
      "payable": false,
      "stateMutability": "view",
      "type": "function"
    },
    {
      "payable": true,
      "stateMutability": "payable",
      "type": "fallback"
    },
    {
      "anonymous": false,
      "inputs": [
        {
          "indexed": false,
          "name": "recipient",
          "type": "address"
        },
        {
          "indexed": false,
          "name": "value",
          "type": "uint256"
        }
      ],
      "name": "UserRequestForSignature",
      "type": "event"
    },
    {
      "anonymous": false,
      "inputs": [
        {
          "indexed": false,
          "name": "recipient",
          "type": "address"
        },
        {
          "indexed": false,
          "name": "value",
          "type": "uint256"
        },
        {
          "indexed": false,
          "name": "transactionHash",
          "type": "bytes32"
        }
      ],
      "name": "AffirmationCompleted",
      "type": "event"
    },
    {
      "anonymous": false,
      "inputs": [
        {
          "indexed": true,
          "name": "signer",
          "type": "address"
        },
        {
          "indexed": false,
          "name": "messageHash",
          "type": "bytes32"
        }
      ],
      "name": "SignedForUserRequest",
      "type": "event"
    },
    {
      "anonymous": false,
      "inputs": [
        {
          "indexed": true,
          "name": "signer",
          "type": "address"
        },
        {
          "indexed": false,
          "name": "transactionHash",
          "type": "bytes32"
        }
      ],
      "name": "SignedForAffirmation",
      "type": "event"
    },
    {
      "anonymous": false,
      "inputs": [
        {
          "indexed": false,
          "name": "authorityResponsibleForRelay",
          "type": "address"
        },
        {
          "indexed": false,
          "name": "messageHash",
          "type": "bytes32"
        },
        {
          "indexed": false,
          "name": "NumberOfCollectedSignatures",
          "type": "uint256"
        }
      ],
      "name": "CollectedSignatures",
      "type": "event"
    },
    {
      "anonymous": false,
      "inputs": [
        {
          "indexed": false,
          "name": "newLimit",
          "type": "uint256"
        }
      ],
      "name": "DailyLimitChanged",
      "type": "event"
    },
    {
      "anonymous": false,
      "inputs": [
        {
          "indexed": false,
          "name": "newLimit",
          "type": "uint256"
        }
      ],
      "name": "ExecutionDailyLimitChanged",
      "type": "event"
    },
    {
      "anonymous": false,
      "inputs": [
        {
          "indexed": false,
          "name": "gasPrice",
          "type": "uint256"
        }
      ],
      "name": "GasPriceChanged",
      "type": "event"
    },
    {
      "anonymous": false,
      "inputs": [
        {
          "indexed": false,
          "name": "requiredBlockConfirmations",
          "type": "uint256"
        }
      ],
      "name": "RequiredBlockConfirmationChanged",
      "type": "event"
    },
    {
      "anonymous": false,
      "inputs": [
        {
          "indexed": false,
          "name": "feeAmount",
          "type": "uint256"
        },
        {
          "indexed": true,
          "name": "transactionHash",
          "type": "bytes32"
        }
      ],
      "name": "FeeDistributedFromAffirmation",
      "type": "event"
    },
    {
      "anonymous": false,
      "inputs": [
        {
          "indexed": false,
          "name": "feeAmount",
          "type": "uint256"
        },
        {
          "indexed": true,
          "name": "transactionHash",
          "type": "bytes32"
        }
      ],
      "name": "FeeDistributedFromSignatures",
      "type": "event"
    },
    {
      "anonymous": false,
      "inputs": [
        {
          "indexed": false,
          "name": "previousOwner",
          "type": "address"
        },
        {
          "indexed": false,
          "name": "newOwner",
          "type": "address"
        }
      ],
      "name": "OwnershipTransferred",
      "type": "event"
    },
    {
      "anonymous": false,
      "inputs": [
        {
          "indexed": false,
          "name": "recipient",
          "type": "address"
        },
        {
          "indexed": false,
          "name": "value",
          "type": "uint256"
        },
        {
          "indexed": true,
          "name": "messageId",
          "type": "bytes32"
        }
      ],
      "name": "MediatorAmountLimitExceeded",
      "type": "event"
    },
    {
      "anonymous": false,
      "inputs": [
        {
          "indexed": false,
          "name": "recipient",
          "type": "address"
        },
        {
          "indexed": false,
          "name": "value",
          "type": "uint256"
        },
        {
          "indexed": true,
          "name": "transactionHash",
          "type": "bytes32"
        },
        {
          "indexed": false,
          "name": "messageId",
          "type": "bytes32"
        }
      ],
      "name": "AmountLimitExceeded",
      "type": "event"
    },
    {
      "anonymous": false,
      "inputs": [
        {
          "indexed": true,
          "name": "messageId",
          "type": "bytes32"
        },
        {
          "indexed": false,
          "name": "value",
          "type": "uint256"
        },
        {
          "indexed": false,
          "name": "remaining",
          "type": "uint256"
        }
      ],
      "name": "AssetAboveLimitsFixed",
      "type": "event"
    }
  ],
  "bytecode": {
    "object": "0x608060405234801561001057600080fd5b50614e09806100206000396000f3006080604052600436106102815760003560e01c63ffffffff1680630cbf0601146102975780630e8162ba146102c15780631812d996146102d657806327a3e16b14610366578063286c4066146103875780632bd0bb051461039f57806334a9e148146103b7578063392e53cd146103cf5780633dd95d1b146103f85780633e6968b6146104105780633f0a9f6514610425578063408fef2e1461043a578063437764df1461044f57806343b37dd314610481578063490a32c6146104965780634fb3fef7146104ae57806356b54bae146104c65780635d1e9307146104f757806360756f7c1461050b578063630cea8e1461052c57806367eeba0c1461055857806369ffa08a1461056d5780636ae1a976146105945780637698da24146105ac578063865c8028146105c4578063879ce676146106045780638aa1949a1461061c5780638d068043146106315780638da5cb5b146106465780638f4b4b981461065b578063916850e91461067357806394da17cd1461068b57806395e54a17146106a057806399439089146106b5578063995b2cff146106ca5780639a454b99146106f15780639cb7595a14610706578063a018934514610747578063a2a6ca271461075c578063a7444c0d14610774578063acf5c68914610794578063b20d30a9146107ac578063bf1fe420146107c4578063c6f6f216146107dc578063dae5f0fd146107f4578063dbe03a8b14610809578063df25f3f01461081e578063e13d3c7914610833578063ea9f49681461087d578063f20151e114610895578063f2ba9561146108ad578063f2fde38b146108c2578063f968adbe146108e3578063fe173b97146108f8578063ffd19e8c1461090d578063ffd6619614610925575b361561028c57600080fd5b6102953361093a565b005b3480156102a357600080fd5b506102af600435610b22565b60408051918252519081900360200190f35b3480156102cd57600080fd5b506102af610be7565b3480156102e257600080fd5b506102f1600435602435610c36565b6040805160208082528351818301528351919283929083019185019080838360005b8381101561032b578181015183820152602001610313565b50505050905090810190601f1680156103585780820380516001836020036101000a031916815260200191505b509250505060405180910390f35b34801561037257600080fd5b50610295600160a060020a0360043516610e13565b34801561039357600080fd5b50610295600435610e3b565b3480156103ab57600080fd5b506102af600435610e77565b3480156103c357600080fd5b50610295600435610ef2565b3480156103db57600080fd5b506103e4610f2e565b604080519115158252519081900360200190f35b34801561040457600080fd5b50610295600435610f7f565b34801561041c57600080fd5b506102af61103f565b34801561043157600080fd5b506102af611048565b34801561044657600080fd5b506102af611096565b34801561045b57600080fd5b506104646110a5565b60408051600160e060020a03199092168252519081900360200190f35b34801561048d57600080fd5b506102af6110c9565b3480156104a257600080fd5b506102f1600435611117565b3480156104ba57600080fd5b506102af60043561127f565b3480156104d257600080fd5b506104db6112fa565b60408051600160a060020a039092168252519081900360200190f35b610295600160a060020a0360043516611304565b34801561051757600080fd5b50610295600160a060020a036004351661130d565b34801561053857600080fd5b5061029560246004803582810192908201359181359182019101356113b8565b34801561056457600080fd5b506102af61183f565b34801561057957600080fd5b50610295600160a060020a036004358116906024351661188d565b3480156105a057600080fd5b506102af600435611916565b3480156105b857600080fd5b506103e4600435611999565b3480156105d057600080fd5b506103e4600160a060020a036004358116906024906084359060a4359060c43581169060e490610124351661014435611a62565b34801561061057600080fd5b506103e4600435611c0f565b34801561062857600080fd5b506102af611c59565b34801561063d57600080fd5b506102af611ca7565b34801561065257600080fd5b506104db611d1c565b34801561066757600080fd5b506103e4600435611d73565b34801561067f57600080fd5b506102af600435611df7565b34801561069757600080fd5b506102af611e87565b3480156106ac57600080fd5b506102af611ea0565b3480156106c157600080fd5b506104db611efa565b3480156106d657600080fd5b50610295600160a060020a0360043516602435604435611f51565b3480156106fd57600080fd5b506102af61223c565b34801561071257600080fd5b5061071b61228a565b6040805167ffffffffffffffff9485168152928416602084015292168183015290519081900360600190f35b34801561075357600080fd5b506102af612295565b34801561076857600080fd5b506102956004356122e3565b34801561078057600080fd5b50610295600435602435151560443561237f565b3480156107a057600080fd5b5061029560043561258d565b3480156107b857600080fd5b506102956004356125b2565b3480156107d057600080fd5b50610295600435612672565b3480156107e857600080fd5b50610295600435612697565b34801561080057600080fd5b506102af61272f565b34801561081557600080fd5b506104db61277d565b34801561082a57600080fd5b506102af6127d4565b34801561083f57600080fd5b506103e4600160a060020a036004358116906024906084359060a4359060c43581169060e4906101243581169061014435166101646101a435612822565b34801561088957600080fd5b506103e4600435612a86565b3480156108a157600080fd5b50610295600435612ad1565b3480156108b957600080fd5b50610464612b4d565b3480156108ce57600080fd5b50610295600160a060020a0360043516612bc3565b3480156108ef57600080fd5b506102af612be8565b34801561090457600080fd5b506102af612c36565b34801561091957600080fd5b506103e4600435612c84565b34801561093157600080fd5b506102af612cac565b600080808080808034811061094e57600080fd5b61095734612a86565b151561096257600080fd5b61096a6112fa565b604080517fb4a523e80000000000000000000000000000000000000000000000000000000081523060048201529051919850600160a060020a0389169163b4a523e8916024808201926020929091908290030181600087803b1580156109cf57600080fd5b505af11580156109e3573d6000803e3d6000fd5b505050506040513d60208110156109f957600080fd5b50519550610a05610be7565b9450610a17868663ffffffff612cc516565b341115610a2357600080fd5b610a34610a2e61103f565b34612cdc565b349350610a3f61277d565b9250349150600160a060020a03831615610a8e57610a6e84600085600080516020614dbe833981519152612da5565b9050610a80848263ffffffff612cc516565b9350610a8b82611df7565b91505b610aa6610aa1868463ffffffff612e3616565b612e43565b60405160009083156108fc0290849083818181858288f19350505050158015610ad3573d6000803e3d6000fd5b5060408051600160a060020a038a1681526020810186905281517f127650bcfb0ba017401abe4931453a405140a8fd36fece67bae2db174d3fdd63929181900390910190a15050505050505050565b60008060008360405160200180807f6e756d4d657373616765735369676e656400000000000000000000000000000081525060110182600019166000191681526020019150506040516020818303038152906040526040518082805190602001908083835b60208310610ba65780518252601f199092019160209182019101610b87565b51815160209384036101000a600019018019909216911617905260408051929094018290039091208652850195909552929092016000205495945050505050565b7f17f187b2e5d1f8770602b32c1159b85c9600859277fae1eaa9982e9bcf63384c60009081526020527fdb09a09557fcb6a80beaaeeb5e8935e3bc5b43e4685b36cbc7f7f31d3b0a9763545b90565b604080516020808201859052818301849052825180830384018152606092830193849052805192936000939192909182918401908083835b60208310610c8d5780518252601f199092019160209182019101610c6e565b51815160209384036101000a6000190180199092169116179052604080519290940182900382207f7369676e6174757265730000000000000000000000000000000000000000000083830152602a80840182905285518085039091018152604a9093019485905282519097506003965060009550919392508291908401908083835b60208310610d2e5780518252601f199092019160209182019101610d0f565b6001836020036101000a0380198251168184511680821785525050505050509050019150506040518091039020600019166000191681526020019081526020016000208054600181600116156101000203166002900480601f016020809104026020016040519081016040528092919081815260200182805460018160011615610100020316600290048015610e055780601f10610dda57610100808354040283529160200191610e05565b820191906000526020600020905b815481529060010190602001808311610de857829003601f168201915b505050505091505092915050565b610e1b611d1c565b600160a060020a03163314610e2f57600080fd5b610e3881612e90565b50565b610e43611d1c565b600160a060020a03163314610e5757600080fd5b610e38610e6261277d565b82600080516020614d9e8339815191526130c2565b60008060008360405160200180807f746f74616c5370656e745065724461790000000000000000000000000000000081525060100182815260200191505060405160208183030381529060405260405180828051906020019080838360208310610ba65780518252601f199092019160209182019101610b87565b610efa611d1c565b600160a060020a03163314610f0e57600080fd5b610e38610f1961277d565b82600080516020614dbe8339815191526130c2565b7f0a6f646cd611241d8073675e00d1a1ff700fbf1b53fcf473de56d1e6e4b714ba60005260046020527f078d888f9b66f3f8bfa10909e31f1e16240db73449f0500afdbbe3a70da457cc5460ff1690565b610f87611d1c565b600160a060020a03163314610f9b57600080fd5b610fa3611c59565b811180610fae575080155b1515610fb957600080fd5b7f21dbcab260e413c20dc13c28b7db95e2b423d1135f42bb8b7d5214a92270d237600090815260209081527fadd938dbd083a16bae12238cd914fca0afc7a30edb55b1cd5c7f1823f1b0e4218290556040805183815290517f9bebf928b90863f24cc31f726a3a7545efd409f1dcf552301b1ee3710da70d3b929181900390910190a150565b62015180420490565b7f916daedf6915000ff68ced2f0b6773fe6f2582237f92c3c95bb4d7940723007160009081526020527fd2ea0feb732edb0ffe32efd33a6b9d24d46b16eb34a4d07ce256537b6f131e425490565b60006110a0613219565b905090565b7f18762d460000000000000000000000000000000000000000000000000000000090565b7f21dbcab260e413c20dc13c28b7db95e2b423d1135f42bb8b7d5214a92270d23760009081526020527fadd938dbd083a16bae12238cd914fca0afc7a30edb55b1cd5c7f1823f1b0e4215490565b6060600360008360405160200180807f6d6573736167657300000000000000000000000000000000000000000000000081525060080182600019166000191681526020019150506040516020818303038152906040526040518082805190602001908083835b6020831061119c5780518252601f19909201916020918201910161117d565b6001836020036101000a0380198251168184511680821785525050505050509050019150506040518091039020600019166000191681526020019081526020016000208054600181600116156101000203166002900480601f0160208091040260200160405190810160405280929190818152602001828054600181600116156101000203166002900480156112735780601f1061124857610100808354040283529160200191611273565b820191906000526020600020905b81548152906001019060200180831161125657829003601f168201915b50505050509050919050565b60008060008360405160200180807f746f74616c45786563757465645065724461790000000000000000000000000081525060130182815260200191505060405160208183030381529060405260405180828051906020019080838360208310610ba65780518252601f199092019160209182019101610b87565b60006110a061321e565b610e388161093a565b611315611d1c565b600160a060020a0316331461132957600080fd5b600160a060020a0381161580611343575061134381613275565b151561134e57600080fd5b7f779a349c5bee7817f04c960f525ee3e2f2516078c38c68a3149787976ee837e560005260026020527fc155b21a14c4592b97825e495fbe0d2705fb46420018cac5bfa7a09c43fae5178054600160a060020a031916600160a060020a0392909216919091179055565b60008060008060006113c8611efa565b600160a060020a031663facd743b336040518263ffffffff1660e01b81526004018082600160a060020a0316600160a060020a03168152602001915050602060405180830381600087803b15801561141f57600080fd5b505af1158015611433573d6000803e3d6000fd5b505050506040513d602081101561144957600080fd5b5051151561145657600080fd5b61148f87878080601f0160208091040260200160405190810160405280939291908181526020018383808284375061327d945050505050565b151561149a57600080fd5b61150489898080601f0160208091040260200160405190810160405280939291908181526020018383808284375050604080516020601f8f018190048102820181019092528d815294508d93508c9250829150840183828082843750600094506132919350505050565b600160a060020a0316331461151857600080fd5b8686604051602001808383808284378201915050925050506040516020818303038152906040526040518082805190602001908083835b6020831061156e5780518252601f19909201916020918201910161154f565b51815160209384036101000a6000190180199092169116179052604080519290940182900382203360601b838301526034808401829052855180850390910181526054909301948590528251909b509195509293508392850191508083835b602083106115ec5780518252601f1990920191602091820191016115cd565b6001836020036101000a0380198251168184511680821785525050505050509050019150506040518091039020935061162485610b22565b925061162f83612c84565b1561163957600080fd5b60019283019283111561165e5761164f84611d73565b1561165957600080fd5b611698565b6116988588888080601f0160208091040260200160405190810160405280939291908181526020018383808284375061338d945050505050565b6116a3846001613464565b604080516020808201889052600019860182840152825180830384018152606090920192839052815191929182918401908083835b602083106116f75780518252601f1990920191602091820191016116d8565b51815160209384036101000a600019018019909216911617905260408051929094018290038220601f8f018290048202830182019094528d82529296506117589450869350918d91508c908190840183828082843750613536945050505050565b61176285846135b9565b60408051868152905133917fbf06885f40778f5ccfb64497d3f92ce568ddaedb7e2fb4487f72690418cf8e4c919081900360200190a26117a0611ca7565b9050808310611834576117bb856117b68561363b565b6135b9565b604080513381526020810187905280820183905290517f415557404d88a0c0b8e3b16967cafffc511213fd9c465c16832ee17ed57d72379181900360600190a161183487878080601f01602080910402602001604051908101604052809392919081815260200183838082843750613660945050505050565b505050505050505050565b7f4a6a899679f26b73530d8cf1001e83b6f7702e04b6fdb98f3c62dc7e47e041a560009081526020527f1ab29a5cca988aee50edccdd61c5bcaa7ad4b29a03b7ee50f298ceccfe14cc4e5490565b30600160a060020a0316636fde82026040518163ffffffff1660e01b8152600401602060405180830381600087803b1580156118c857600080fd5b505af11580156118dc573d6000803e3d6000fd5b505050506040513d60208110156118f257600080fd5b5051600160a060020a0316331461190857600080fd5b61191282826136b9565b5050565b60008060008360405160200180807f6e756d41666669726d6174696f6e735369676e65640000000000000000000000815250601501826000191660001916815260200191505060405160208183030381529060405260405180828051906020019080838360208310610ba65780518252601f199092019160209182019101610b87565b6000600460008360405160200180807f61666669726d6174696f6e735369676e6564000000000000000000000000000081525060120182600019166000191681526020019150506040516020818303038152906040526040518082805190602001908083835b60208310611a1e5780518252601f1990920191602091820191016119ff565b51815160209384036101000a600019018019909216911617905260408051929094018290039091208652850195909552929092016000205460ff1695945050505050565b6040805160048152602481018252602081018051600160e060020a03167f6fde8202000000000000000000000000000000000000000000000000000000001781529151815160009330939291829190808383895b83811015611ace578181015183820152602001611ab6565b50505050905090810190601f168015611afb5780820380516001836020036101000a031916815260200191505b509150506000604051808303816000865af19150501580611b8a575030600160a060020a0316636fde82026040518163ffffffff1660e01b8152600401602060405180830381600087803b158015611b5257600080fd5b505af1158015611b66573d6000803e3d6000fd5b505050506040513d6020811015611b7c57600080fd5b5051600160a060020a031633145b80611b9457503330145b1515611b9f57600080fd5b611bf28989600380602002604051908101604052809291908260036020028082843750506040805180820182528e94508d93508c9250908b906002908390839080828437820191505050505089896136f7565b611bfa61386b565b611c02610f2e565b9998505050505050505050565b600080611c3283611c26611c2161103f565b61127f565b9063ffffffff612e3616565b905080611c3d6110c9565b10158015611c525750611c4e611c59565b8311155b9392505050565b7fc0ed44c192c86d1cc1ba51340b032c2766b4a2b0041031de13c46dd7104888d560009081526020527ff8e983ee86e5e377e9e34c9131b266382c3f04113d20de077f9e12663c7a646b5490565b6000611cb1611efa565b600160a060020a0316638d0680436040518163ffffffff1660e01b8152600401602060405180830381600087803b158015611ceb57600080fd5b505af1158015611cff573d6000803e3d6000fd5b505050506040513d6020811015611d1557600080fd5b5051905090565b7f02016836a56b71f0d02689e69e326f4f4c1b9057164ef592671cf0d37c8040c060005260026020527fb7802e97e87ef2842a6cce7da7ffaeaedaa2f61a6a7870b23d9d01fc9b73712e54600160a060020a031690565b6000600460008360405160200180807f6d657373616765735369676e6564000000000000000000000000000000000000815250600e01826000191660001916815260200191505060405160208183030381529060405260405180828051906020019080838360208310611a1e5780518252601f1990920191602091820191016119ff565b604080516024808201849052825180830390910181526044909101909152602081018051600160e060020a03167f916850e90000000000000000000000000000000000000000000000000000000017905260009081611e5461277d565b9050602060008351602085016000855af28060203d141660018114611e7857600080fd5b60005194505b50505050919050565b60006110a0600080516020614dbe8339815191526138c2565b6000806000806000611eb0612be8565b9350611eba61183f565b9250611ecc611ec761103f565b610e77565b9150818311611edc576000611ee0565b8183035b9050808410611eef5780611ef1565b835b94505050505090565b7f5a74bb7e202fb8e4bf311841c7d64ec19df195fee77d7e7ae749b27921b6ddfe60005260026020527fab54f3fbbe62c59b7876a9bf9bd5e0c22dbae93f4d8ee0438f7ce62b198eb0e054600160a060020a031690565b6000806000611f5e611efa565b600160a060020a031663facd743b336040518263ffffffff1660e01b81526004018082600160a060020a0316600160a060020a03168152602001915050602060405180830381600087803b158015611fb557600080fd5b505af1158015611fc9573d6000803e3d6000fd5b505050506040513d6020811015611fdf57600080fd5b50511515611fec57600080fd5b60408051600160a060020a03881660601b60208083019190915260348201889052605480830188905283518084039091018152607490920192839052815191929182918401908083835b602083106120555780518252601f199092019160209182019101612036565b6001836020036101000a0380198251168184511680821785525050505050509050019150506040518091039020925061208d85611c0f565b1561222857604080513360601b602080830191909152603480830187905283518084039091018152605490920192839052815191929182918401908083835b602083106120eb5780518252601f1990920191602091820191016120cc565b6001836020036101000a0380198251168184511680821785525050505050509050019150506040518091039020915061212382611999565b1561212d57600080fd5b6121388260016139bc565b61214183611916565b905061214c81612c84565b1561215657600080fd5b6001016121638382613a3f565b60408051858152905133917f5df9cc3eb93d8a9a481857a3b70a8ca966e6b80b25cf0ee2cce180ec5afa80a1919081900360200190a26121a1611ca7565b8110612223576121b9836121b48361363b565b613a3f565b60008511156121d9576121ce86868686613ac1565b15156121d957600080fd5b60408051600160a060020a03881681526020810187905280820186905290517f6fc115a803b8703117d9a3956c5a15401cb42401f91630f015eb6b043fa762539181900360600190a15b612234565b61223486868686613be9565b505050505050565b7fb120ceec05576ad0c710bc6e85f1768535e27554458f05dcbb5c65b8c7a749b060009081526020527fe66bef0282a446f9848e2903380099bb6e431483ee78778868f33b4a154c818b5490565b600660016000909192565b7f145286dc85799b6fb9fe322391ba2d95683077b2adf34dd576dedc437e537ba760009081526020527fba10c7a68bf463c41368d64adcf7df23c0de931ea3b09f061e2dfec302fef95f5490565b6122eb611d1c565b600160a060020a031633146122ff57600080fd5b600081118015612315575061231261183f565b81105b80156123275750612324612be8565b81105b151561233257600080fd5b7fbbb088c505d18e049d114c7c91f11724e69c55ad6c5397e2b929e68b41fa05d160009081526020527f8df5c48c6b6e11d97548adc824ba0c99103ec09830fa5d53a179984085e6eaa055565b600080600080600080600030600160a060020a0316636fde82026040518163ffffffff1660e01b8152600401602060405180830381600087803b1580156123c557600080fd5b505af11580156123d9573d6000803e3d6000fd5b505050506040513d60208110156123ef57600080fd5b5051600160a060020a0316331461240557600080fd5b61240e8a611916565b965061241987612c84565b1561242357600080fd5b61242c8a613c88565b9096509450600160a060020a038616158015906124495750600085115b80156124555750878510155b151561246057600080fd5b61248061247b8961246f612295565b9063ffffffff612cc516565b613e0f565b612490858963ffffffff612cc516565b935061249c848b613e5c565b604080518981526020810186905281518c927f5bcec6564fe8d2cbb4e4eb8237510ceb6b291a5c2ee2e429948d25e9c924c1fa928290030190a28815612581576124e4612be8565b8811156124f057600080fd5b6124f861277d565b9250879150600160a060020a0383161561253c5761252788600085600080516020614dbe833981519152612da5565b9050612539888263ffffffff612cc516565b91505b60408051600160a060020a03881681526020810184905281517f127650bcfb0ba017401abe4931453a405140a8fd36fece67bae2db174d3fdd63929181900390910190a15b50505050505050505050565b612595611d1c565b600160a060020a031633146125a957600080fd5b610e3881613ede565b6125ba611d1c565b600160a060020a031633146125ce57600080fd5b6125d6612be8565b8111806125e1575080155b15156125ec57600080fd5b7f4a6a899679f26b73530d8cf1001e83b6f7702e04b6fdb98f3c62dc7e47e041a5600090815260209081527f1ab29a5cca988aee50edccdd61c5bcaa7ad4b29a03b7ee50f298ceccfe14cc4e8290556040805183815290517fad4123ae17c414d9c6d2fec478b402e6b01856cc250fd01fbfd252fda0089d3c929181900390910190a150565b61267a611d1c565b600160a060020a0316331461268e57600080fd5b610e3881613f71565b61269f611d1c565b600160a060020a031633146126b357600080fd5b8015806126d757506126c36127d4565b811180156126d757506126d461183f565b81105b15156126e257600080fd5b7f0f8803acad17c63ee38bf2de71e1888bc7a079a6f73658e274b08018bea4e29c60009081526020527f9de0f81379b4d8e60fe509315d071b56e7b732abaf193e74e0d15808b0951d0955565b7f1e8ecaafaddea96ed9ac6d2642dcdfe1bebe58a930b1085842d8fc122b371ee560009081526020527fd5c78dd9468716ca9bb96be25d56436811b20aab3523a9904b12deef1cab239d5490565b7f779a349c5bee7817f04c960f525ee3e2f2516078c38c68a3149787976ee837e560005260026020527fc155b21a14c4592b97825e495fbe0d2705fb46420018cac5bfa7a09c43fae51754600160a060020a031690565b7fbbb088c505d18e049d114c7c91f11724e69c55ad6c5397e2b929e68b41fa05d160009081526020527f8df5c48c6b6e11d97548adc824ba0c99103ec09830fa5d53a179984085e6eaa05490565b6040805160048152602481018252602081018051600160e060020a03167f6fde8202000000000000000000000000000000000000000000000000000000001781529151815160009330939291829190808383895b8381101561288e578181015183820152602001612876565b50505050905090810190601f1680156128bb5780820380516001836020036101000a031916815260200191505b509150506000604051808303816000865af1915050158061294a575030600160a060020a0316636fde82026040518163ffffffff1660e01b8152600401602060405180830381600087803b15801561291257600080fd5b505af1158015612926573d6000803e3d6000fd5b505050506040513d602081101561293c57600080fd5b5051600160a060020a031633145b8061295457503330145b151561295f57600080fd5b6129b98b8b600380602002604051908101604052809291908260036020028082843782019150505050508b8b8b8b600280602002604051908101604052809291908260026020028082843782019150505050508b896136f7565b6129c284613275565b15156129cd57600080fd5b7f779a349c5bee7817f04c960f525ee3e2f2516078c38c68a3149787976ee837e560005260026020527fc155b21a14c4592b97825e495fbe0d2705fb46420018cac5bfa7a09c43fae5178054600160a060020a031916600160a060020a038616179055612a4a848435600080516020614dbe8339815191526130c2565b612a67846020850135600080516020614d9e8339815191526130c2565b612a6f61386b565b612a77610f2e565b9b9a5050505050505050505050565b600080612a9883611c26611ec761103f565b905080612aa361183f565b10158015612ab85750612ab4612be8565b8311155b8015611c525750612ac76127d4565b9092101592915050565b612ad9611d1c565b600160a060020a03163314612aed57600080fd5b612af56110c9565b8110612b0057600080fd5b7fc0ed44c192c86d1cc1ba51340b032c2766b4a2b0041031de13c46dd7104888d560009081526020527ff8e983ee86e5e377e9e34c9131b266382c3f04113d20de077f9e12663c7a646b55565b604080516004815260248101909152602081018051600160e060020a03167ff2ba95610000000000000000000000000000000000000000000000000000000017905260009081612b9b61277d565b9050600460008351602085016000855af28060203d141615612bbd5760005193505b50505090565b612bcb611d1c565b600160a060020a03163314612bdf57600080fd5b610e3881613ff7565b7f0f8803acad17c63ee38bf2de71e1888bc7a079a6f73658e274b08018bea4e29c60009081526020527f9de0f81379b4d8e60fe509315d071b56e7b732abaf193e74e0d15808b0951d095490565b7f55b3774520b5993024893d303890baa4e84b1244a43c60034d1ced2d3cf2b04b60009081526020527ff7d5eefab3776d7f0450bd0193564bcb4f832ce313ff2836c450fc63a4b944195490565b7f80000000000000000000000000000000000000000000000000000000000000009081161490565b60006110a0600080516020614d9e8339815191526138c2565b600082821115612cd157fe5b508082035b92915050565b612ce981611c2684610e77565b6000808460405160200180807f746f74616c5370656e74506572446179000000000000000000000000000000008152506010018281526020019150506040516020818303038152906040526040518082805190602001908083835b60208310612d635780518252601f199092019160209182019101612d44565b51815160209384036101000a60001901801990921691161790526040805192909401829003909120865285019590955292909201600020939093555050505050565b60408051602481018690528415156044820152606480820184905282518083039091018152608490910190915260208181018051600160e060020a03167f9862f26f000000000000000000000000000000000000000000000000000000001781528251600093929184919082885af28060203d141660018114612e2757600080fd5b50506000519695505050505050565b81810182811015612cd657fe5b7f17f187b2e5d1f8770602b32c1159b85c9600859277fae1eaa9982e9bcf63384c60009081526020527fdb09a09557fcb6a80beaaeeb5e8935e3bc5b43e4685b36cbc7f7f31d3b0a976355565b6000612e9b82613275565b1515612ea657600080fd5b6000905081600160a060020a0316632ee57f8d60e01b60e01c6040518163ffffffff1660e01b81526004016000604051808303816000875af19250505015612fa15760405180807f626c6f636b526577617264000000000000000000000000000000000000000000815250600b0190506040518091039020600160e060020a03191682600160a060020a0316632ee57f8d6040518163ffffffff1660e01b8152600401602060405180830381600087803b158015612f6357600080fd5b505af1158015612f77573d6000803e3d6000fd5b505050506040513d6020811015612f8d57600080fd5b5051600160e060020a03191614905061304b565b81600160a060020a03166310f2ee7c60e01b60e01c6040518163ffffffff1660e01b81526004016000604051808303816000875af1925050501561304b5781600160a060020a03166310f2ee7c6040518163ffffffff1660e01b8152600401602060405180830381600087803b15801561301a57600080fd5b505af115801561302e573d6000803e3d6000fd5b505050506040513d602081101561304457600080fd5b5051151590505b80151561305757600080fd5b507f20ae0b8a761b32f3124efb075f427dd6ca669e88ae7747fec9fd1ad688699f3260005260026020527fd76793c705b076d97d490f0c1e5a620caae2c4973213dc37ef69a1be2a5ec0708054600160a060020a031916600160a060020a0392909216919091179055565b600081600080516020614dbe8339815191528114806130ee5750600080516020614d9e83398151915281145b15156130f957600080fd5b600080516020614dbe8339815191528314613134577f286c406600000000000000000000000000000000000000000000000000000000613156565b7f34a9e148000000000000000000000000000000000000000000000000000000005b6040805160248082018890528251808303909101815260449091018252602081018051600160e060020a0316600160e060020a0319851617815291518151939550600160a060020a038916939192909182919080838360005b838110156131c75781810151838201526020016131af565b50505050905090810190601f1680156131f45780820380516001836020036101000a031916815260200191505b50915050600060405180830381855af4915050151561321257600080fd5b5050505050565b606890565b7f20ae0b8a761b32f3124efb075f427dd6ca669e88ae7747fec9fd1ad688699f3260005260026020527fd76793c705b076d97d490f0c1e5a620caae2c4973213dc37ef69a1be2a5ec07054600160a060020a031690565b6000903b1190565b6000613287613219565b8251149050919050565b600080600080865160411415156132a757600080fd5b505050602084015160408501516060860151601b60ff60f883901c1614806132d557508060f81c60ff16601c145b15156132e057600080fd5b7f7fffffffffffffffffffffffffffffff5d576e7357a4501ddfe92f46681b20a0600083901c111561331157600080fd5b600161331d87876140c1565b60408051600080825260208083018085529490945260ff60f887901c16828401526060820188905260808201879052915160a08083019493601f198301938390039091019190865af1158015613377573d6000803e3d6000fd5b5050604051601f19015198975050505050505050565b80600360008460405160200180807f6d6573736167657300000000000000000000000000000000000000000000000081525060080182600019166000191681526020019150506040516020818303038152906040526040518082805190602001908083835b602083106134115780518252601f1990920191602091820191016133f2565b51815160001960209485036101000a0190811690199190911617905260408051949092018490039093208652858301969096525092909301600020845161345f959194509201919050614cd5565b505050565b80600460008460405160200180807f6d657373616765735369676e6564000000000000000000000000000000000000815250600e0182600019166000191681526020019150506040516020818303038152906040526040518082805190602001908083835b602083106134e85780518252601f1990920191602091820191016134c9565b51815160209384036101000a60001901801990921691161790526040805192909401829003909120865285019590955292909201600020805460ff1916941515949094179093555050505050565b80600360008460405160200180807f7369676e61747572657300000000000000000000000000000000000000000000815250600a018260001916600019168152602001915050604051602081830303815290604052604051808280519060200190808383602083106134115780518252601f1990920191602091820191016133f2565b806000808460405160200180807f6e756d4d657373616765735369676e6564000000000000000000000000000000815250601101826000191660001916815260200191505060405160208183030381529060405260405180828051906020019080838360208310612d635780518252601f199092019160209182019101612d44565b7f80000000000000000000000000000000000000000000000000000000000000001790565b60008060008061366e61277d565b9350600160a060020a0384161561321257613688856142db565b5093509350506136ac83600186600080516020614dbe83398151915260001b612da5565b9050613212818584614316565b80600160a060020a03811615156136cf57600080fd5b600160a060020a03831615156136ed576136e882614424565b61345f565b61345f8383614430565b6136ff610f2e565b1561370957600080fd5b61371288613275565b151561371d57600080fd5b600160a060020a0384161580613737575061373784613275565b151561374257600080fd5b7fab54f3fbbe62c59b7876a9bf9bd5e0c22dbae93f4d8ee0438f7ce62b198eb0e08054600160a060020a031916600160a060020a038a161790557fb120ceec05576ad0c710bc6e85f1768535e27554458f05dcbb5c65b8c7a749b06000908152602052437fe66bef0282a446f9848e2903380099bb6e431483ee78778868f33b4a154c818b556137d1876144e3565b6137da86613f71565b6137e385613ede565b7f20ae0b8a761b32f3124efb075f427dd6ca669e88ae7747fec9fd1ad688699f3260005260026020527fd76793c705b076d97d490f0c1e5a620caae2c4973213dc37ef69a1be2a5ec0708054600160a060020a031916600160a060020a03861617905561384f83614640565b61385881614715565b61386182613ff7565b5050505050505050565b7f0a6f646cd611241d8073675e00d1a1ff700fbf1b53fcf473de56d1e6e4b714ba60005260046020527f078d888f9b66f3f8bfa10909e31f1e16240db73449f0500afdbbe3a70da457cc805460ff19166001179055565b60008080606084600080516020614dbe8339815191528114806138f25750600080516020614d9e83398151915281145b15156138fd57600080fd5b61390561277d565b9350600080516020614dbe8339815191528614613942577fffd6619600000000000000000000000000000000000000000000000000000000613964565b7f94da17cd000000000000000000000000000000000000000000000000000000005b60408051600481526024810190915260208082018051600160e060020a0316600160e060020a0319851617815282519396509194509160009182885af28060203d1416156139b25760005195505b5050505050919050565b80600460008460405160200180807f61666669726d6174696f6e735369676e656400000000000000000000000000008152506012018260001916600019168152602001915050604051602081830303815290604052604051808280519060200190808383602083106134e85780518252601f1990920191602091820191016134c9565b806000808460405160200180807f6e756d41666669726d6174696f6e735369676e65640000000000000000000000815250601501826000191660001916815260200191505060405160208183030381529060405260405180828051906020019080838360208310612d635780518252601f199092019160209182019101612d44565b6000806000806000613ad3868961477e565b613ae4613ade61103f565b896147c5565b613aec6112fa565b9350600160a060020a0384161515613b0357600080fd5b613b0c8861484b565b9250613b1661277d565b9150600160a060020a03821615613b6257613b4283600084600080516020614d9e833981519152612da5565b9050613b4f81838961485e565b613b5f838263ffffffff612cc516565b92505b83600160a060020a031663aa9fa274848b6040518363ffffffff1660e01b81526004018083815260200182600160a060020a0316600160a060020a0316815260200192505050600060405180830381600087803b158015613bc257600080fd5b505af1158015613bd6573d6000803e3d6000fd5b5060019c9b505050505050505050505050565b600080613bf583613c88565b9092509050600160a060020a038216158015613c0f575080155b1515613c1a57600080fd5b613c2961247b86611c26612295565b613c3486868561496c565b60408051600160a060020a038816815260208101879052808201859052905185917f26c0a209907d8e06e55b84dfc43d1429e22a3bab2b4f9cfd49d5f7f447a42c4f919081900360600190a2505050505050565b600080600260008460405160200180807f74784f75744f664c696d6974526563697069656e74000000000000000000000081525060150182600019166000191681526020019150506040516020818303038152906040526040518082805190602001908083835b60208310613d0e5780518252601f199092019160209182019101613cef565b51815160209384036101000a600019018019909216911617905260408051929094018290039091208652858101969096525092830160009081205484517f74784f75744f664c696d697456616c75650000000000000000000000000000008188015260318082018b9052865180830390910181526051909101958690528051600160a060020a0390921698509195869592945091925082918401908083835b60208310613dcc5780518252601f199092019160209182019101613dad565b51815160209384036101000a6000190180199092169116179052604080519290940182900390912086528501959095529290920160002054949694955050505050565b7f145286dc85799b6fb9fe322391ba2d95683077b2adf34dd576dedc437e537ba760009081526020527fba10c7a68bf463c41368d64adcf7df23c0de931ea3b09f061e2dfec302fef95f55565b816000808360405160200180807f74784f75744f664c696d697456616c7565000000000000000000000000000000815250601101826000191660001916815260200191505060405160208183030381529060405260405180828051906020019080838360208310612d635780518252601f199092019160209182019101612d44565b60008111613eeb57600080fd5b7f916daedf6915000ff68ced2f0b6773fe6f2582237f92c3c95bb4d79407230071600090815260209081527fd2ea0feb732edb0ffe32efd33a6b9d24d46b16eb34a4d07ce256537b6f131e428290556040805183815290517f4fb76205cd57c896b21511d2114137d8e901b4ccd659e1a0f97d6306795264fb929181900390910190a150565b7f55b3774520b5993024893d303890baa4e84b1244a43c60034d1ced2d3cf2b04b600090815260209081527ff7d5eefab3776d7f0450bd0193564bcb4f832ce313ff2836c450fc63a4b944198290556040805183815290517f52264b89e0fceafb26e79fd49ef8a366eb6297483bf4035b027f0c99a7ad512e929181900390910190a150565b600160a060020a038116151561400c57600080fd5b7f8be0079c531659141344cd1fd0a4f28419497f9722a3daafe3b4186f6b6457e0614035611d1c565b60408051600160a060020a03928316815291841660208301528051918290030190a17f02016836a56b71f0d02689e69e326f4f4c1b9057164ef592671cf0d37c8040c060005260026020527fb7802e97e87ef2842a6cce7da7ffaeaedaa2f61a6a7870b23d9d01fc9b73712e8054600160a060020a031916600160a060020a0392909216919091179055565b60408051808201909152601a81527f19457468657265756d205369676e6564204d6573736167653a0a000000000000602082015260009060608315614267578161410b8651614a55565b866040516020018084805190602001908083835b6020831061413e5780518252601f19909201916020918201910161411f565b51815160209384036101000a600019018019909216911617905286519190930192860191508083835b602083106141865780518252601f199092019160209182019101614167565b51815160209384036101000a600019018019909216911617905285519190930192850191508083835b602083106141ce5780518252601f1990920191602091820191016141af565b6001836020036101000a03801982511681845116808217855250505050505090500193505050506040516020818303038152906040526040518082805190602001908083835b602083106142335780518252601f199092019160209182019101614214565b6001836020036101000a038019825116818451168082178552505050505050905001915050604051809103902092506142d3565b6040805190810160405280600381526020017f313034000000000000000000000000000000000000000000000000000000000081525090508181866040516020018084805190602001908083836020831061413e5780518252601f19909201916020918201910161411f565b505092915050565b6000806000806142ea8561327d565b15156142f557600080fd5b50505050601481015160348201516054830151606890930151919390929190565b600083111561345f576040805160248082018690528251808303909101815260449091018252602081018051600160e060020a03167f59d784640000000000000000000000000000000000000000000000000000000017815291518151600160a060020a03861693829180838360005b8381101561439e578181015183820152602001614386565b50505050905090810190601f1680156143cb5780820380516001836020036101000a031916815260200191505b50915050600060405180830381855af491505015156143e957600080fd5b60408051848152905182917f858abdcd5efcaebb936e8e8516f0cfe9a0ef5157ff99d16cdabb6db625be90d0919081900360200190a2505050565b30316119128282614b59565b604080517f70a0823100000000000000000000000000000000000000000000000000000000815230600482015290518391600091600160a060020a038416916370a0823191602480830192602092919082900301818787803b15801561449557600080fd5b505af11580156144a9573d6000803e3d6000fd5b505050506040513d60208110156144bf57600080fd5b505190506144dd600160a060020a038516848363ffffffff614bba16565b50505050565b604081015160001080156144fe575060408101516020820151115b801561450e575060208101518151115b151561451957600080fd5b80517f4a6a899679f26b73530d8cf1001e83b6f7702e04b6fdb98f3c62dc7e47e041a5600090815260208181527f1ab29a5cca988aee50edccdd61c5bcaa7ad4b29a03b7ee50f298ceccfe14cc4e92909255908201517f0f8803acad17c63ee38bf2de71e1888bc7a079a6f73658e274b08018bea4e29c82527f9de0f81379b4d8e60fe509315d071b56e7b732abaf193e74e0d15808b0951d095560408201517fbbb088c505d18e049d114c7c91f11724e69c55ad6c5397e2b929e68b41fa05d182527f8df5c48c6b6e11d97548adc824ba0c99103ec09830fa5d53a179984085e6eaa0557fad4123ae17c414d9c6d2fec478b402e6b01856cc250fd01fbfd252fda0089d3c9082905b60200201516040518082815260200191505060405180910390a150565b805160208201511061465157600080fd5b80517f21dbcab260e413c20dc13c28b7db95e2b423d1135f42bb8b7d5214a92270d237600090815260208181527fadd938dbd083a16bae12238cd914fca0afc7a30edb55b1cd5c7f1823f1b0e42192909255908201517fc0ed44c192c86d1cc1ba51340b032c2766b4a2b0041031de13c46dd7104888d582527ff8e983ee86e5e377e9e34c9131b266382c3f04113d20de077f9e12663c7a646b557f9bebf928b90863f24cc31f726a3a7545efd409f1dcf552301b1ee3710da70d3b908290614623565b604c19811380156147265750604d81125b151561473157600080fd5b7f1e8ecaafaddea96ed9ac6d2642dcdfe1bebe58a930b1085842d8fc122b371ee560009081526020527fd5c78dd9468716ca9bb96be25d56436811b20aab3523a9904b12deef1cab239d55565b60008061478a84613c88565b9092509050600160a060020a038216156144dd578083146147aa57600080fd5b6147b66000808661496c565b6144dd61247b8461246f612295565b6147d281611c268461127f565b6000808460405160200180807f746f74616c45786563757465645065724461790000000000000000000000000081525060130182815260200191505060405160208183030381529060405260405180828051906020019080838360208310612d635780518252601f199092019160209182019101612d44565b6000612cd68261485961272f565b614c4c565b600083111561345f576040805160248082018690528251808303909101815260449091018252602081018051600160e060020a03167f054d46ec0000000000000000000000000000000000000000000000000000000017815291518151600160a060020a03861693829180838360005b838110156148e65781810151838201526020016148ce565b50505050905090810190601f1680156149135780820380516001836020036101000a031916815260200191505b50915050600060405180830381855af4915050151561493157600080fd5b60408051848152905182917fa52d3c9cbc541772e4edd92e2e4e2a3865ab73630f25deed8a6c8de41ff0f65c919081900360200190a2505050565b82600260008360405160200180807f74784f75744f664c696d6974526563697069656e74000000000000000000000081525060150182600019166000191681526020019150506040516020818303038152906040526040518082805190602001908083835b602083106149f05780518252601f1990920191602091820191016149d1565b51815160209384036101000a600019018019909216911617905260408051929094018290039091208652850195909552929092016000208054600160a060020a031916600160a060020a0395909516949094179093555061345f915083905082613e5c565b60606000808281851515614a9e5760408051808201909152600181527f300000000000000000000000000000000000000000000000000000000000000060208201529450611e7e565b8593505b8315614ab957600190920191600a84049350614aa2565b826040519080825280601f01601f191660200182016040528015614ae7578160200160208202803883390190505b5091505060001982015b8515614b505781516000198201916030600a89060160f81b918491908110614b1557fe5b9060200101907effffffffffffffffffffffffffffffffffffffffffffffffffffffffffffff1916908160001a905350600a86049550614af1565b50949350505050565b604051600160a060020a0383169082156108fc029083906000818181858888f193505050501515611912578082614b8e614d53565b600160a060020a039091168152604051908190036020019082f080158015613212573d6000803e3d6000fd5b82600160a060020a031663a9059cbb83836040518363ffffffff1660e01b81526004018083600160a060020a0316600160a060020a0316815260200182815260200192505050600060405180830381600087803b158015614c1a57600080fd5b505af1158015614c2e573d6000803e3d6000fd5b505050503d1561345f5760206000803e600051151561345f57600080fd5b6000811515614c5c575081612cd6565b6000821315614c8057614c7983600a84900a63ffffffff614c9716565b9050612cd6565b611c52836000849003600a0a63ffffffff614cc016565b6000821515614ca857506000612cd6565b50818102818382811515614cb857fe5b0414612cd657fe5b60008183811515614ccd57fe5b049392505050565b828054600181600116156101000203166002900490600052602060002090601f016020900481019282601f10614d1657805160ff1916838001178555614d43565b82800160010185558215614d43579182015b82811115614d43578251825591602001919060010190614d28565b50614d4f929150614d62565b5090565b604051602180614d7d83390190565b610c3391905b80821115614d4f5760008155600101614d685600608060405260405160208060218339810160405251600160a060020a038116ff00deb7f3adca07d6d1f708c1774389db532a2b2f18fd05a62b957e4089f4696ed589d93e5e92f7e37e490c25f0e50f7f4aad7cc94b308a566553280967be38bcf1a165627a7a72305820cdd87c70b93f474fe8142dd367685f6c18db24197b87761c6e1feac40e57c25b0029",
    "linkReferences": {}
  },
  "methodIdentifiers": {
    "affirmationsSigned(bytes32)": "7698da24",
    "blockRewardContract()": "56b54bae",
    "claimTokens(address,address)": "69ffa08a",
    "dailyLimit()": "67eeba0c",
    "decimalShift()": "dae5f0fd",
    "deployedAtBlock()": "9a454b99",
    "executeAffirmation(address,uint256,bytes32)": "995b2cff",
    "executionDailyLimit()": "43b37dd3",
    "executionMaxPerTx()": "8aa1949a",
    "feeManagerContract()": "dbe03a8b",
    "fixAssetsAboveLimits(bytes32,bool,uint256)": "a7444c0d",
    "gasPrice()": "fe173b97",
    "getAmountToBurn(uint256)": "916850e9",
    "getBridgeInterfacesVersion()": "9cb7595a",
    "getBridgeMode()": "437764df",
    "getCurrentDay()": "3e6968b6",
    "getFeeManagerMode()": "f2ba9561",
    "getForeignFee()": "ffd66196",
    "getHomeFee()": "94da17cd",
    "initialize(address,uint256[3],uint256,uint256,address,uint256[2],address,int256)": "865c8028",
    "isAlreadyProcessed(uint256)": "ffd19e8c",
    "isInitialized()": "392e53cd",
    "maxAvailablePerTx()": "95e54a17",
    "maxPerTx()": "f968adbe",
    "message(bytes32)": "490a32c6",
    "messagesSigned(bytes32)": "8f4b4b98",
    "minPerTx()": "df25f3f0",
    "numAffirmationsSigned(bytes32)": "6ae1a976",
    "numMessagesSigned(bytes32)": "0cbf0601",
    "outOfLimitAmount()": "a0189345",
    "owner()": "8da5cb5b",
    "relayTokens(address)": "5d1e9307",
    "requiredBlockConfirmations()": "3f0a9f65",
    "requiredMessageLength()": "408fef2e",
    "requiredSignatures()": "8d068043",
    "rewardableInitialize(address,uint256[3],uint256,uint256,address,uint256[2],address,address,uint256[2],int256)": "e13d3c79",
    "setBlockRewardContract(address)": "27a3e16b",
    "setDailyLimit(uint256)": "b20d30a9",
    "setExecutionDailyLimit(uint256)": "3dd95d1b",
    "setExecutionMaxPerTx(uint256)": "f20151e1",
    "setFeeManagerContract(address)": "60756f7c",
    "setForeignFee(uint256)": "286c4066",
    "setGasPrice(uint256)": "bf1fe420",
    "setHomeFee(uint256)": "34a9e148",
    "setMaxPerTx(uint256)": "c6f6f216",
    "setMinPerTx(uint256)": "a2a6ca27",
    "setRequiredBlockConfirmations(uint256)": "acf5c689",
    "signature(bytes32,uint256)": "1812d996",
    "submitSignature(bytes,bytes)": "630cea8e",
    "totalBurntCoins()": "0e8162ba",
    "totalExecutedPerDay(uint256)": "4fb3fef7",
    "totalSpentPerDay(uint256)": "2bd0bb05",
    "transferOwnership(address)": "f2fde38b",
    "validatorContract()": "99439089",
    "withinExecutionLimit(uint256)": "879ce676",
    "withinLimit(uint256)": "ea9f4968"
  },
  "id": 126
}