{
  "abi": [
    {
      "constant": true,
      "inputs": [
        {
          "name": "_msgHash",
          "type": "bytes32"
        }
      ],
      "name": "getMessage",
      "outputs": [
        {
          "name": "result",
          "type": "bytes"
        }
      ],
      "payable": false,
      "stateMutability": "view",
      "type": "function"
    },
    {
      "constant": true,
      "inputs": [
        {
          "name": "_recipient",
          "type": "address"
        },
        {
          "name": "_value",
          "type": "uint256"
        },
        {
          "name": "_origTxHash",
          "type": "bytes32"
        }
      ],
      "name": "getMessageHash",
      "outputs": [
        {
          "name": "",
          "type": "bytes32"
        }
      ],
      "payable": false,
      "stateMutability": "view",
      "type": "function"
    },
    {
      "constant": true,
      "inputs": [],
      "name": "foreignBridge",
      "outputs": [
        {
          "name": "",
          "type": "address"
        }
      ],
      "payable": false,
      "stateMutability": "view",
      "type": "function"
    },
    {
      "constant": true,
      "inputs": [],
      "name": "owner",
      "outputs": [
        {
          "name": "",
          "type": "address"
        }
      ],
      "payable": false,
      "stateMutability": "view",
      "type": "function"
    },
    {
      "constant": true,
      "inputs": [
        {
          "name": "_msgHash",
          "type": "bytes32"
        }
      ],
      "name": "getSignatures",
      "outputs": [
        {
          "name": "",
          "type": "bytes"
        }
      ],
      "payable": false,
      "stateMutability": "view",
      "type": "function"
    },
    {
      "constant": true,
      "inputs": [],
      "name": "bridge",
      "outputs": [
        {
          "name": "",
          "type": "address"
        }
      ],
      "payable": false,
      "stateMutability": "view",
      "type": "function"
    },
    {
      "constant": false,
      "inputs": [],
      "name": "clean",
      "outputs": [],
      "payable": false,
      "stateMutability": "nonpayable",
      "type": "function"
    },
    {
      "inputs": [
        {
          "name": "_homeBridge",
          "type": "address"
        },
        {
          "name": "_foreignBridge",
          "type": "address"
        }
      ],
      "payable": false,
      "stateMutability": "nonpayable",
      "type": "constructor"
    }
  ],
  "bytecode": {
    "object": "0x608060405234801561001057600080fd5b5060405160408061083883398101604052805160209091015160008054600160a060020a0319908116331790915560018054600160a060020a03948516908316179055600280549390921692169190911790556107c6806100726000396000f3006080604052600436106100665760003560e01c63ffffffff1680630139a2211461006b57806330322ce7146100f85780637445d659146101315780638da5cb5b146101625780639bc5106814610177578063e78cea921461018f578063fc4333cd146101a4575b600080fd5b34801561007757600080fd5b506100836004356101bb565b6040805160208082528351818301528351919283929083019185019080838360005b838110156100bd5781810151838201526020016100a5565b50505050905090810190601f1680156100ea5780820380516001836020036101000a031916815260200191505b509250505060405180910390f35b34801561010457600080fd5b5061011f600160a060020a03600435166024356044356102af565b60408051918252519081900360200190f35b34801561013d57600080fd5b50610146610361565b60408051600160a060020a039092168252519081900360200190f35b34801561016e57600080fd5b50610146610370565b34801561018357600080fd5b5061008360043561037f565b34801561019b57600080fd5b506101466106d8565b3480156101b057600080fd5b506101b96106e7565b005b600154604080517f490a32c6000000000000000000000000000000000000000000000000000000008152600481018490529051606092600160a060020a03169163490a32c691602480830192600092919082900301818387803b15801561022157600080fd5b505af1158015610235573d6000803e3d6000fd5b505050506040513d6000823e601f3d908101601f19168201604052602081101561025e57600080fd5b81019080805164010000000081111561027657600080fd5b8201602081018481111561028957600080fd5b81516401000000008111828201871017156102a357600080fd5b50909695505050505050565b60025460408051600160a060020a03808716606090811b60208085019190915260348401889052605484018790529190941690931b607482015281516068818303018152608890910191829052805160009384939182918401908083835b6020831061032c5780518252601f19909201916020918201910161030d565b5181516020939093036101000a6000190180199091169216919091179052604051920182900390912098975050505050505050565b600254600160a060020a031681565b600054600160a060020a031681565b600154604080517f0cbf0601000000000000000000000000000000000000000000000000000000008152600481018490529051606092600092849284928492849283928392600160a060020a0390911691630cbf06019160248082019260209290919082900301818787803b1580156103f757600080fd5b505af115801561040b573d6000803e3d6000fd5b505050506040513d602081101561042157600080fd5b5051600154604080517fffd19e8c000000000000000000000000000000000000000000000000000000008152600481018490529051929950600160a060020a039091169163ffd19e8c916024808201926020929091908290030181600087803b15801561048d57600080fd5b505af11580156104a1573d6000803e3d6000fd5b505050506040513d60208110156104b757600080fd5b5051151561052657604080517f08c379a000000000000000000000000000000000000000000000000000000000815260206004820152601d60248201527f6d657373616765206861736e2774206265656e20636f6e6669726d6564000000604482015290519081900360640190fd5b758fffffffffffffffffffffffffffffffffffffffffff90961695610100871061054f57600080fd5b866041026001016040519080825280601f01601f191660200182016040528015610583578160200160208202803883390190505b509550866020870153600094505b868510156106cb57600154604080517f1812d996000000000000000000000000000000000000000000000000000000008152600481018c9052602481018890529051600160a060020a0390921691631812d9969160448082019260009290919082900301818387803b15801561060657600080fd5b505af115801561061a573d6000803e3d6000fd5b505050506040513d6000823e601f3d908101601f19168201604052602081101561064357600080fd5b81019080805164010000000081111561065b57600080fd5b8201602081018481111561066e57600080fd5b815164010000000081118282018710171561068857600080fd5b5050929190505050935061069b8461076e565b92509250925060218601818682015360208681029189018281018690529089020101829052600190940193610591565b5093979650505050505050565b600154600160a060020a031681565b600054600160a060020a0316331461076057604080517f08c379a000000000000000000000000000000000000000000000000000000000815260206004820152600c60248201527f6e6f7420616e206f776e65720000000000000000000000000000000000000000604482015290519081900360640190fd5b600054600160a060020a0316ff5b60008060008351604114151561078357600080fd5b5050506020810151604082015160419092015190925600a165627a7a72305820ba2aeb75527ec8ddff314d978183d51f06747f14ec24cdf4b44448f27818ed5b0029",
    "linkReferences": {}
  },
  "methodIdentifiers": {
    "bridge()": "e78cea92",
    "clean()": "fc4333cd",
    "foreignBridge()": "7445d659",
    "getMessage(bytes32)": "0139a221",
    "getMessageHash(address,uint256,bytes32)": "30322ce7",
    "getSignatures(bytes32)": "9bc51068",
    "owner()": "8da5cb5b"
  },
  "id": 18
}