{
  "abi": [
    {
      "constant": false,
      "inputs": [
        {
          "name": "_receiver",
          "type": "address"
        },
        {
          "name": "_value",
          "type": "uint256"
        }
      ],
      "name": "safeSendEth",
      "outputs": [],
      "payable": false,
      "stateMutability": "nonpayable",
      "type": "function"
    },
    {
      "constant": false,
      "inputs": [],
      "name": "receiveEth",
      "outputs": [],
      "payable": true,
      "stateMutability": "payable",
      "type": "function"
    },
    {
      "constant": false,
      "inputs": [
        {
          "name": "_receiver",
          "type": "address"
        },
        {
          "name": "_value",
          "type": "uint256"
        }
      ],
      "name": "sendEth",
      "outputs": [],
      "payable": false,
      "stateMutability": "nonpayable",
      "type": "function"
    },
    {
      "payable": true,
      "stateMutability": "payable",
      "type": "fallback"
    }
  ],
  "bytecode": {
    "object": "0x608060405234801561001057600080fd5b506101d6806100206000396000f30060806040526004361061003a5760003560e01c63ffffffff1680631874fa031461003f5780634185f8eb1461007257806349dcbc5e1461007a575b600080fd5b34801561004b57600080fd5b5061007073ffffffffffffffffffffffffffffffffffffffff600435166024356100ab565b005b6100706100b9565b34801561008657600080fd5b5061007073ffffffffffffffffffffffffffffffffffffffff600435166024356100bb565b6100b582826100f8565b5050565b565b60405173ffffffffffffffffffffffffffffffffffffffff83169082156108fc029083906000818181858888f1935050505015156100b557600080fd5b60405173ffffffffffffffffffffffffffffffffffffffff83169082156108fc029083906000818181858888f1935050505015156100b557808261013a61017a565b73ffffffffffffffffffffffffffffffffffffffff9091168152604051908190036020019082f080158015610173573d6000803e3d6000fd5b5050505050565b60405160218061018a833901905600608060405260405160208060218339810160405251600160a060020a038116ff00a165627a7a723058207dcb2dc6602b70ecd399aa7e5af2ec26192a530d706128ec229e62b701c468340029",
    "linkReferences": {}
  },
  "methodIdentifiers": {
    "receiveEth()": "4185f8eb",
    "safeSendEth(address,uint256)": "1874fa03",
    "sendEth(address,uint256)": "49dcbc5e"
  },
  "id": 57
}