{
  "abi": [
    {
      "constant": false,
      "inputs": [
        {
          "name": "_bridge",
          "type": "address"
        }
      ],
      "name": "removeBridge",
      "outputs": [],
      "payable": false,
      "stateMutability": "nonpayable",
      "type": "function"
    },
    {
      "constant": true,
      "inputs": [],
      "name": "mintingFinished",
      "outputs": [
        {
          "name": "",
          "type": "bool"
        }
      ],
      "payable": false,
      "stateMutability": "view",
      "type": "function"
    },
    {
      "constant": true,
      "inputs": [],
      "name": "name",
      "outputs": [
        {
          "name": "",
          "type": "string"
        }
      ],
      "payable": false,
      "stateMutability": "view",
      "type": "function"
    },
    {
      "constant": false,
      "inputs": [
        {
          "name": "_to",
          "type": "address"
        },
        {
          "name": "_value",
          "type": "uint256"
        }
      ],
      "name": "approve",
      "outputs": [
        {
          "name": "result",
          "type": "bool"
        }
      ],
      "payable": false,
      "stateMutability": "nonpayable",
      "type": "function"
    },
    {
      "constant": false,
      "inputs": [
        {
          "name": "",
          "type": "address"
        }
      ],
      "name": "setBridgeContract",
      "outputs": [],
      "payable": false,
      "stateMutability": "nonpayable",
      "type": "function"
    },
    {
      "constant": true,
      "inputs": [],
      "name": "totalSupply",
      "outputs": [
        {
          "name": "",
          "type": "uint256"
        }
      ],
      "payable": false,
      "stateMutability": "view",
      "type": "function"
    },
    {
      "constant": false,
      "inputs": [
        {
          "name": "_from",
          "type": "address"
        },
        {
          "name": "_to",
          "type": "address"
        },
        {
          "name": "_value",
          "type": "uint256"
        }
      ],
      "name": "transferFrom",
      "outputs": [
        {
          "name": "",
          "type": "bool"
        }
      ],
      "payable": false,
      "stateMutability": "nonpayable",
      "type": "function"
    },
    {
      "constant": false,
      "inputs": [
        {
          "name": "_blockRewardContract",
          "type": "address"
        }
      ],
      "name": "setBlockRewardContract",
      "outputs": [],
      "payable": false,
      "stateMutability": "nonpayable",
      "type": "function"
    },
    {
      "constant": true,
      "inputs": [],
      "name": "PERMIT_TYPEHASH",
      "outputs": [
        {
          "name": "",
          "type": "bytes32"
        }
      ],
      "payable": false,
      "stateMutability": "view",
      "type": "function"
    },
    {
      "constant": true,
      "inputs": [],
      "name": "decimals",
      "outputs": [
        {
          "name": "",
          "type": "uint8"
        }
      ],
      "payable": false,
      "stateMutability": "view",
      "type": "function"
    },
    {
      "constant": true,
      "inputs": [],
      "name": "DOMAIN_SEPARATOR",
      "outputs": [
        {
          "name": "",
          "type": "bytes32"
        }
      ],
      "payable": false,
      "stateMutability": "view",
      "type": "function"
    },
    {
      "constant": false,
      "inputs": [
        {
          "name": "_to",
          "type": "address"
        },
        {
          "name": "_addedValue",
          "type": "uint256"
        }
      ],
      "name": "increaseAllowance",
      "outputs": [
        {
          "name": "result",
          "type": "bool"
        }
      ],
      "payable": false,
      "stateMutability": "nonpayable",
      "type": "function"
    },
    {
      "constant": false,
      "inputs": [
        {
          "name": "_to",
          "type": "address"
        },
        {
          "name": "_value",
          "type": "uint256"
        },
        {
          "name": "_data",
          "type": "bytes"
        }
      ],
      "name": "transferAndCall",
      "outputs": [
        {
          "name": "",
          "type": "bool"
        }
      ],
      "payable": false,
      "stateMutability": "nonpayable",
      "type": "function"
    },
    {
      "constant": false,
      "inputs": [
        {
          "name": "_to",
          "type": "address"
        },
        {
          "name": "_amount",
          "type": "uint256"
        }
      ],
      "name": "mint",
      "outputs": [
        {
          "name": "",
          "type": "bool"
        }
      ],
      "payable": false,
      "stateMutability": "nonpayable",
      "type": "function"
    },
    {
      "constant": false,
      "inputs": [
        {
          "name": "_value",
          "type": "uint256"
        }
      ],
      "name": "burn",
      "outputs": [],
      "payable": false,
      "stateMutability": "nonpayable",
      "type": "function"
    },
    {
      "constant": true,
      "inputs": [
        {
          "name": "",
          "type": "address"
        }
      ],
      "name": "bridgePointers",
      "outputs": [
        {
          "name": "",
          "type": "address"
        }
      ],
      "payable": false,
      "stateMutability": "view",
      "type": "function"
    },
    {
      "constant": true,
      "inputs": [],
      "name": "version",
      "outputs": [
        {
          "name": "",
          "type": "string"
        }
      ],
      "payable": false,
      "stateMutability": "view",
      "type": "function"
    },
    {
      "constant": true,
      "inputs": [],
      "name": "blockRewardContract",
      "outputs": [
        {
          "name": "",
          "type": "address"
        }
      ],
      "payable": false,
      "stateMutability": "view",
      "type": "function"
    },
    {
      "constant": false,
      "inputs": [
        {
          "name": "_spender",
          "type": "address"
        },
        {
          "name": "_subtractedValue",
          "type": "uint256"
        }
      ],
      "name": "decreaseApproval",
      "outputs": [
        {
          "name": "",
          "type": "bool"
        }
      ],
      "payable": false,
      "stateMutability": "nonpayable",
      "type": "function"
    },
    {
      "constant": false,
      "inputs": [
        {
          "name": "_token",
          "type": "address"
        },
        {
          "name": "_to",
          "type": "address"
        }
      ],
      "name": "claimTokens",
      "outputs": [],
      "payable": false,
      "stateMutability": "nonpayable",
      "type": "function"
    },
    {
      "constant": true,
      "inputs": [
        {
          "name": "_owner",
          "type": "address"
        }
      ],
      "name": "balanceOf",
      "outputs": [
        {
          "name": "",
          "type": "uint256"
        }
      ],
      "payable": false,
      "stateMutability": "view",
      "type": "function"
    },
    {
      "constant": false,
      "inputs": [],
      "name": "renounceOwnership",
      "outputs": [],
      "payable": false,
      "stateMutability": "nonpayable",
      "type": "function"
    },
    {
      "constant": true,
      "inputs": [
        {
          "name": "_address",
          "type": "address"
        }
      ],
      "name": "isBridge",
      "outputs": [
        {
          "name": "",
          "type": "bool"
        }
      ],
      "payable": false,
      "stateMutability": "view",
      "type": "function"
    },
    {
      "constant": false,
      "inputs": [],
      "name": "finishMinting",
      "outputs": [
        {
          "name": "",
          "type": "bool"
        }
      ],
      "payable": false,
      "stateMutability": "nonpayable",
      "type": "function"
    },
    {
      "constant": true,
      "inputs": [
        {
          "name": "",
          "type": "address"
        }
      ],
      "name": "nonces",
      "outputs": [
        {
          "name": "",
          "type": "uint256"
        }
      ],
      "payable": false,
      "stateMutability": "view",
      "type": "function"
    },
    {
      "constant": true,
      "inputs": [],
      "name": "getTokenInterfacesVersion",
      "outputs": [
        {
          "name": "major",
          "type": "uint64"
        },
        {
          "name": "minor",
          "type": "uint64"
        },
        {
          "name": "patch",
          "type": "uint64"
        }
      ],
      "payable": false,
      "stateMutability": "pure",
      "type": "function"
    },
    {
      "constant": true,
      "inputs": [],
      "name": "owner",
      "outputs": [
        {
          "name": "",
          "type": "address"
        }
      ],
      "payable": false,
      "stateMutability": "view",
      "type": "function"
    },
    {
      "constant": false,
      "inputs": [
        {
          "name": "_holder",
          "type": "address"
        },
        {
          "name": "_spender",
          "type": "address"
        },
        {
          "name": "_nonce",
          "type": "uint256"
        },
        {
          "name": "_expiry",
          "type": "uint256"
        },
        {
          "name": "_allowed",
          "type": "bool"
        },
        {
          "name": "_v",
          "type": "uint8"
        },
        {
          "name": "_r",
          "type": "bytes32"
        },
        {
          "name": "_s",
          "type": "bytes32"
        }
      ],
      "name": "permit",
      "outputs": [],
      "payable": false,
      "stateMutability": "nonpayable",
      "type": "function"
    },
    {
      "constant": false,
      "inputs": [
        {
          "name": "_amount",
          "type": "uint256"
        }
      ],
      "name": "mintReward",
      "outputs": [],
      "payable": false,
      "stateMutability": "nonpayable",
      "type": "function"
    },
    {
      "constant": true,
      "inputs": [],
      "name": "symbol",
      "outputs": [
        {
          "name": "",
          "type": "string"
        }
      ],
      "payable": false,
      "stateMutability": "view",
      "type": "function"
    },
    {
      "constant": false,
      "inputs": [
        {
          "name": "_bridge",
          "type": "address"
        }
      ],
      "name": "addBridge",
      "outputs": [],
      "payable": false,
      "stateMutability": "nonpayable",
      "type": "function"
    },
    {
      "constant": false,
      "inputs": [
        {
          "name": "_blockRewardContract",
          "type": "address"
        }
      ],
      "name": "setBlockRewardContractMock",
      "outputs": [],
      "payable": false,
      "stateMutability": "nonpayable",
      "type": "function"
    },
    {
      "constant": true,
      "inputs": [],
      "name": "bridgeList",
      "outputs": [
        {
          "name": "",
          "type": "address[]"
        }
      ],
      "payable": false,
      "stateMutability": "view",
      "type": "function"
    },
    {
      "constant": false,
      "inputs": [
        {
          "name": "_stakingContract",
          "type": "address"
        }
      ],
      "name": "setStakingContract",
      "outputs": [],
      "payable": false,
      "stateMutability": "nonpayable",
      "type": "function"
    },
    {
      "constant": false,
      "inputs": [
        {
          "name": "spender",
          "type": "address"
        },
        {
          "name": "subtractedValue",
          "type": "uint256"
        }
      ],
      "name": "decreaseAllowance",
      "outputs": [
        {
          "name": "",
          "type": "bool"
        }
      ],
      "payable": false,
      "stateMutability": "nonpayable",
      "type": "function"
    },
    {
      "constant": false,
      "inputs": [
        {
          "name": "_stakingContract",
          "type": "address"
        }
      ],
      "name": "setStakingContractMock",
      "outputs": [],
      "payable": false,
      "stateMutability": "nonpayable",
      "type": "function"
    },
    {
      "constant": false,
      "inputs": [
        {
          "name": "_to",
          "type": "address"
        },
        {
          "name": "_value",
          "type": "uint256"
        }
      ],
      "name": "transfer",
      "outputs": [
        {
          "name": "",
          "type": "bool"
        }
      ],
      "payable": false,
      "stateMutability": "nonpayable",
      "type": "function"
    },
    {
      "constant": false,
      "inputs": [
        {
          "name": "_staker",
          "type": "address"
        },
        {
          "name": "_amount",
          "type": "uint256"
        }
      ],
      "name": "stake",
      "outputs": [],
      "payable": false,
      "stateMutability": "nonpayable",
      "type": "function"
    },
    {
      "constant": false,
      "inputs": [
        {
          "name": "_to",
          "type": "address"
        },
        {
          "name": "_amount",
          "type": "uint256"
        }
      ],
      "name": "push",
      "outputs": [],
      "payable": false,
      "stateMutability": "nonpayable",
      "type": "function"
    },
    {
      "constant": false,
      "inputs": [
        {
          "name": "_from",
          "type": "address"
        },
        {
          "name": "_to",
          "type": "address"
        },
        {
          "name": "_amount",
          "type": "uint256"
        }
      ],
      "name": "move",
      "outputs": [],
      "payable": false,
      "stateMutability": "nonpayable",
      "type": "function"
    },
    {
      "constant": true,
      "inputs": [],
      "name": "PERMIT_TYPEHASH_LEGACY",
      "outputs": [
        {
          "name": "",
          "type": "bytes32"
        }
      ],
      "payable": false,
      "stateMutability": "view",
      "type": "function"
    },
    {
      "constant": true,
      "inputs": [],
      "name": "F_ADDR",
      "outputs": [
        {
          "name": "",
          "type": "address"
        }
      ],
      "payable": false,
      "stateMutability": "view",
      "type": "function"
    },
    {
      "constant": true,
      "inputs": [],
      "name": "bridgeContract",
      "outputs": [
        {
          "name": "",
          "type": "address"
        }
      ],
      "payable": false,
      "stateMutability": "view",
      "type": "function"
    },
    {
      "constant": false,
      "inputs": [
        {
          "name": "_holder",
          "type": "address"
        },
        {
          "name": "_spender",
          "type": "address"
        },
        {
          "name": "_value",
          "type": "uint256"
        },
        {
          "name": "_deadline",
          "type": "uint256"
        },
        {
          "name": "_v",
          "type": "uint8"
        },
        {
          "name": "_r",
          "type": "bytes32"
        },
        {
          "name": "_s",
          "type": "bytes32"
        }
      ],
      "name": "permit",
      "outputs": [],
      "payable": false,
      "stateMutability": "nonpayable",
      "type": "function"
    },
    {
      "constant": false,
      "inputs": [
        {
          "name": "_spender",
          "type": "address"
        },
        {
          "name": "_addedValue",
          "type": "uint256"
        }
      ],
      "name": "increaseApproval",
      "outputs": [
        {
          "name": "",
          "type": "bool"
        }
      ],
      "payable": false,
      "stateMutability": "nonpayable",
      "type": "function"
    },
    {
      "constant": true,
      "inputs": [
        {
          "name": "_owner",
          "type": "address"
        },
        {
          "name": "_spender",
          "type": "address"
        }
      ],
      "name": "allowance",
      "outputs": [
        {
          "name": "",
          "type": "uint256"
        }
      ],
      "payable": false,
      "stateMutability": "view",
      "type": "function"
    },
    {
      "constant": true,
      "inputs": [],
      "name": "stakingContract",
      "outputs": [
        {
          "name": "",
          "type": "address"
        }
      ],
      "payable": false,
      "stateMutability": "view",
      "type": "function"
    },
    {
      "constant": false,
      "inputs": [
        {
          "name": "_from",
          "type": "address"
        },
        {
          "name": "_amount",
          "type": "uint256"
        }
      ],
      "name": "pull",
      "outputs": [],
      "payable": false,
      "stateMutability": "nonpayable",
      "type": "function"
    },
    {
      "constant": false,
      "inputs": [
        {
          "name": "_newOwner",
          "type": "address"
        }
      ],
      "name": "transferOwnership",
      "outputs": [],
      "payable": false,
      "stateMutability": "nonpayable",
      "type": "function"
    },
    {
      "constant": true,
      "inputs": [],
      "name": "bridgeCount",
      "outputs": [
        {
          "name": "",
          "type": "uint256"
        }
      ],
      "payable": false,
      "stateMutability": "view",
      "type": "function"
    },
    {
      "constant": true,
      "inputs": [
        {
          "name": "",
          "type": "address"
        },
        {
          "name": "",
          "type": "address"
        }
      ],
      "name": "expirations",
      "outputs": [
        {
          "name": "",
          "type": "uint256"
        }
      ],
      "payable": false,
      "stateMutability": "view",
      "type": "function"
    },
    {
      "inputs": [
        {
          "name": "_name",
          "type": "string"
        },
        {
          "name": "_symbol",
          "type": "string"
        },
        {
          "name": "_decimals",
          "type": "uint8"
        },
        {
          "name": "_chainId",
          "type": "uint256"
        }
      ],
      "payable": false,
      "stateMutability": "nonpayable",
      "type": "constructor"
    },
    {
      "anonymous": false,
      "inputs": [
        {
          "indexed": true,
          "name": "bridge",
          "type": "address"
        }
      ],
      "name": "BridgeAdded",
      "type": "event"
    },
    {
      "anonymous": false,
      "inputs": [
        {
          "indexed": true,
          "name": "bridge",
          "type": "address"
        }
      ],
      "name": "BridgeRemoved",
      "type": "event"
    },
    {
      "anonymous": false,
      "inputs": [
        {
          "indexed": true,
          "name": "to",
          "type": "address"
        },
        {
          "indexed": false,
          "name": "amount",
          "type": "uint256"
        }
      ],
      "name": "Mint",
      "type": "event"
    },
    {
      "anonymous": false,
      "inputs": [],
      "name": "MintFinished",
      "type": "event"
    },
    {
      "anonymous": false,
      "inputs": [
        {
          "indexed": true,
          "name": "previousOwner",
          "type": "address"
        }
      ],
      "name": "OwnershipRenounced",
      "type": "event"
    },
    {
      "anonymous": false,
      "inputs": [
        {
          "indexed": true,
          "name": "previousOwner",
          "type": "address"
        },
        {
          "indexed": true,
          "name": "newOwner",
          "type": "address"
        }
      ],
      "name": "OwnershipTransferred",
      "type": "event"
    },
    {
      "anonymous": false,
      "inputs": [
        {
          "indexed": true,
          "name": "burner",
          "type": "address"
        },
        {
          "indexed": false,
          "name": "value",
          "type": "uint256"
        }
      ],
      "name": "Burn",
      "type": "event"
    },
    {
      "anonymous": false,
      "inputs": [
        {
          "indexed": true,
          "name": "from",
          "type": "address"
        },
        {
          "indexed": true,
          "name": "to",
          "type": "address"
        },
        {
          "indexed": false,
          "name": "value",
          "type": "uint256"
        },
        {
          "indexed": false,
          "name": "data",
          "type": "bytes"
        }
      ],
      "name": "Transfer",
      "type": "event"
    },
    {
      "anonymous": false,
      "inputs": [
        {
          "indexed": true,
          "name": "owner",
          "type": "address"
        },
        {
          "indexed": true,
          "name": "spender",
          "type": "address"
        },
        {
          "indexed": false,
          "name": "value",
          "type": "uint256"
        }
      ],
      "name": "Approval",
      "type": "event"
    },
    {
      "anonymous": false,
      "inputs": [
        {
          "indexed": true,
          "name": "from",
          "type": "address"
        },
        {
          "indexed": true,
          "name": "to",
          "type": "address"
        },
        {
          "indexed": false,
          "name": "value",
          "type": "uint256"
        }
      ],
      "name": "Transfer",
      "type": "event"
    }
  ],
  "bytecode": {
    "object": "0x60806040526006805460a060020a60ff02191690553480156200002157600080fd5b5060405162002aed38038062002aed833981018060405281019080805182019291906020018051820192919060200180519060200190929190805190602001909291905050508383838383838383838383838383838282828260009080519060200190620000919291906200034f565b508151620000a79060019060208501906200034f565b506002805460ff90921660ff19909216919091179055505060068054600160a060020a03191633179055505050801515620000e157600080fd5b60405180807f454950373132446f6d61696e28737472696e67206e616d652c737472696e672081526020017f76657273696f6e2c75696e7432353620636861696e49642c616464726573732081526020017f766572696679696e67436f6e747261637429000000000000000000000000000081525060520190506040518091039020846040518082805190602001908083835b60208310620001955780518252601f19909201916020918201910162000174565b51815160209384036101000a600019018019909216911617905260408051929094018290038220828501855260018084527f3100000000000000000000000000000000000000000000000000000000000000928401928352945190965091945090928392508083835b602083106200021f5780518252601f199092019160209182019101620001fe565b51815160209384036101000a6000190180199092169116179052604080519290940182900382208282019890985281840196909652606081019690965250608085018690523060a0808701919091528151808703909101815260c09095019081905284519093849350850191508083835b60208310620002b15780518252601f19909201916020918201910162000290565b6001836020036101000a03801982511681845116808217855250505050505090500191505060405180910390206008816000191690555050505050600160a060020a03600b6000600160a060020a038016600160a060020a0316815260200190815260200160002060006101000a815481600160a060020a030219169083600160a060020a03160217905550505050505050505050505050620003f4565b828054600181600116156101000203166002900490600052602060002090601f016020900481019282601f106200039257805160ff1916838001178555620003c2565b82800160010185558215620003c2579182015b82811115620003c2578251825591602001919060010190620003a5565b50620003d0929150620003d4565b5090565b620003f191905b80821115620003d05760008155600101620003db565b90565b6126e980620004046000396000f30060806040526004361061024a5760003560e01c63ffffffff16806304df017d1461024f57806305d2035b1461027257806306fdde031461029b578063095ea7b3146103255780630b26cf661461034957806318160ddd1461036a57806323b872dd1461039157806327a3e16b146103bb57806330adf81f146103dc578063313ce567146103f15780633644e5151461041c57806339509351146104315780634000aea01461045557806340c10f191461048657806342966c68146104aa5780634bcb88bc146104c257806354fd4d50146104ff57806356b54bae14610514578063661884631461052957806369ffa08a1461054d57806370a0823114610574578063715018a614610595578063726600ce146105aa5780637d64bcb4146105cb5780637ecebe00146105e0578063859ba28c146106015780638da5cb5b146106425780638fcbaf0c1461065757806391c0aabf1461069557806395d89b41146106ad5780639712fdf8146106c25780639c55af4c146106e35780639da38e2f146107045780639dd373b914610769578063a457c2d71461078a578063a6085128146107ae578063a9059cbb146107cf578063adc9772e146107f3578063b753a98c14610817578063bb35783b1461083b578063c6a1dedf14610865578063c794c7691461087a578063cd5965831461088f578063d505accf146108a4578063d73dd623146108dd578063dd62ed3e14610901578063ee99205c14610928578063f2d5d56b1461093d578063f2fde38b14610961578063fbb2a53f14610982578063ff9e884d14610997575b600080fd5b34801561025b57600080fd5b50610270600160a060020a03600435166109be565b005b34801561027e57600080fd5b50610287610b2a565b604080519115158252519081900360200190f35b3480156102a757600080fd5b506102b0610b4b565b6040805160208082528351818301528351919283929083019185019080838360005b838110156102ea5781810151838201526020016102d2565b50505050905090810190601f1680156103175780820380516001836020036101000a031916815260200191505b509250505060405180910390f35b34801561033157600080fd5b50610287600160a060020a0360043516602435610bd9565b34801561035557600080fd5b50610270600160a060020a036004351661024a565b34801561037657600080fd5b5061037f610bef565b60408051918252519081900360200190f35b34801561039d57600080fd5b50610287600160a060020a0360043581169060243516604435610bf5565b3480156103c757600080fd5b50610270600160a060020a0360043516610c41565b3480156103e857600080fd5b5061037f610c9b565b3480156103fd57600080fd5b50610406610cbf565b6040805160ff9092168252519081900360200190f35b34801561042857600080fd5b5061037f610cc8565b34801561043d57600080fd5b50610287600160a060020a0360043516602435610cce565b34801561046157600080fd5b5061028760048035600160a060020a0316906024803591604435918201910135610d0f565b34801561049257600080fd5b50610287600160a060020a0360043516602435610e20565b3480156104b657600080fd5b50610270600435610f2b565b3480156104ce57600080fd5b506104e3600160a060020a0360043516610f38565b60408051600160a060020a039092168252519081900360200190f35b34801561050b57600080fd5b506102b0610f53565b34801561052057600080fd5b506104e3610f8a565b34801561053557600080fd5b50610287600160a060020a0360043516602435610f99565b34801561055957600080fd5b50610270600160a060020a0360043581169060243516611076565b34801561058057600080fd5b5061037f600160a060020a036004351661109b565b3480156105a157600080fd5b506102706110b6565b3480156105b657600080fd5b50610287600160a060020a03600435166110cd565b3480156105d757600080fd5b50610287611107565b3480156105ec57600080fd5b5061037f600160a060020a036004351661110e565b34801561060d57600080fd5b50610616611120565b6040805167ffffffffffffffff9485168152928416602084015292168183015290519081900360600190f35b34801561064e57600080fd5b506104e361112b565b34801561066357600080fd5b50610270600160a060020a0360043581169060243516604435606435608435151560ff60a4351660c43560e43561113a565b3480156106a157600080fd5b50610270600435611278565b3480156106b957600080fd5b506102b0611372565b3480156106ce57600080fd5b50610270600160a060020a03600435166113cc565b3480156106ef57600080fd5b50610270600160a060020a0360043516610c6c565b34801561071057600080fd5b506107196114ec565b60408051602080825283518183015283519192839290830191858101910280838360005b8381101561075557818101518382015260200161073d565b505050509050019250505060405180910390f35b34801561077557600080fd5b50610270600160a060020a03600435166115c1565b34801561079657600080fd5b50610287600160a060020a036004351660243561162e565b3480156107ba57600080fd5b50610270600160a060020a03600435166115ff565b3480156107db57600080fd5b50610287600160a060020a0360043516602435611641565b3480156107ff57600080fd5b50610270600160a060020a0360043516602435611684565b34801561082357600080fd5b50610270600160a060020a036004351660243561174d565b34801561084757600080fd5b50610270600160a060020a036004358116906024351660443561175d565b34801561087157600080fd5b5061037f61176e565b34801561088657600080fd5b506104e3611792565b34801561089b57600080fd5b506104e3611107565b3480156108b057600080fd5b50610270600160a060020a036004358116906024351660443560643560ff6084351660a43560c43561179d565b3480156108e957600080fd5b50610287600160a060020a0360043516602435611879565b34801561090d57600080fd5b5061037f600160a060020a0360043581169060243516611900565b34801561093457600080fd5b506104e361192b565b34801561094957600080fd5b50610270600160a060020a036004351660243561193a565b34801561096d57600080fd5b50610270600160a060020a0360043516611945565b34801561098e57600080fd5b5061037f611965565b3480156109a357600080fd5b5061037f600160a060020a036004358116906024351661196b565b60065460009081908190600160a060020a031633146109dc57600080fd5b6109e5846110cd565b15156109f057600080fd5b505050600160a060020a038082166000908152600b60205260408120549082905260008051602061265e8339815191525490821691908116801515610a3457600080fd5b600160a060020a0381811690851614610a8f57600160a060020a038082166000908152600b6020526040902054919250908116908114801590610a7f5750600160a060020a03811615155b1515610a8a57600080fd5b610a34565b600160a060020a038083166000908152600b6020526040808220805484881673ffffffffffffffffffffffffffffffffffffffff19918216179091559287168252902080549091169055600c54610aed90600163ffffffff61198816565b600c55604051600160a060020a038516907f5d9d5034656cb3ebfb0655057cd7f9b4077a9b42ff42ce223cbac5bc586d212690600090a250505050565b60065474010000000000000000000000000000000000000000900460ff1681565b6000805460408051602060026001851615610100026000190190941693909304601f81018490048402820184019092528181529291830182828015610bd15780601f10610ba657610100808354040283529160200191610bd1565b820191906000526020600020905b815481529060010190602001808311610bb457829003601f168201915b505050505081565b6000610be633848461199a565b50600192915050565b60045490565b600d54600090600160a060020a0384811691161415610c1357600080fd5b600e54600160a060020a0384811691161415610c2e57600080fd5b610c398484846119dc565b949350505050565b600654600160a060020a03163314610c5857600080fd5b610c6181611ba4565b1515610c6c57600080fd5b600d805473ffffffffffffffffffffffffffffffffffffffff1916600160a060020a0392909216919091179055565b7f6e71edae12b1b97f4d1f60370fef10105fa2faae0126114a169c64845d6126c981565b60025460ff1681565b60085481565b336000818152600560209081526040808320600160a060020a03871684529091528120549091610be6918590610d0a908663ffffffff611bac16565b61199a565b600084600160a060020a03811615801590610d335750600160a060020a0381163014155b1515610d3e57600080fd5b610d488686611bb9565b1515610d5357600080fd5b85600160a060020a031633600160a060020a03167fe19260aff97b920c7df27010903aeb9c8d2be5d310a2c67824cf3f15396e4c16878787604051808481526020018060200182810382528484828181526020019250808284376040519201829003965090945050505050a3610dc886611ba4565b15610e1457610e0933878787878080601f01602080910402602001604051908101604052809392919081815260200183838082843750611bc5945050505050565b1515610e1457600080fd5b50600195945050505050565b600654600090600160a060020a03163314610e3a57600080fd5b60065474010000000000000000000000000000000000000000900460ff1615610e6257600080fd5b600454610e75908363ffffffff611bac16565b600455600160a060020a038316600090815260036020526040902054610ea1908363ffffffff611bac16565b600160a060020a038416600081815260036020908152604091829020939093558051858152905191927f0f6798a560793a54c3bcfe86a93cde1e73087d944c0ea20544137d412139688592918290030190a2604080518381529051600160a060020a0385169160009160008051602061267e8339815191529181900360200190a350600192915050565b610f353382611d3f565b50565b600b60205260009081526040902054600160a060020a031681565b60408051808201909152600181527f3100000000000000000000000000000000000000000000000000000000000000602082015281565b600d54600160a060020a031681565b336000908152600560209081526040808320600160a060020a0386168452909152812054808310610fed57336000908152600560209081526040808320600160a060020a0388168452909152812055611022565b610ffd818463ffffffff61198816565b336000908152600560209081526040808320600160a060020a03891684529091529020555b336000818152600560209081526040808320600160a060020a03891680855290835292819020548151908152905192939260008051602061269e833981519152929181900390910190a35060019392505050565b600654600160a060020a0316331461108d57600080fd5b6110978282611e2e565b5050565b600160a060020a031660009081526003602052604090205490565b600654600160a060020a0316331461024a57600080fd5b6000600160a060020a03828116148015906111015750600160a060020a038281166000908152600b60205260409020541615155b92915050565b6000806000fd5b60096020526000908152604090205481565b600260056000909192565b600654600160a060020a031681565b60008086158061114a5750864211155b151561115557600080fd5b604080517fea2aa0a1be11a07ed86d755c93467f4f82362b452371d1ba94d1715123511acb6020820152600160a060020a03808d16828401528b166060820152608081018a905260a0810189905287151560c0808301919091528251808303909101815260e09091019091526111ca90611e6c565b91506111d882868686611f73565b600160a060020a038b81169116146111ef57600080fd5b600160a060020a038a166000908152600960205260409020805460018101909155881461121b57600080fd5b8561122757600061122b565b6000195b90508561123957600061123b565b865b600160a060020a03808c166000908152600a60209081526040808320938e168352929052205561126c8a8a83612179565b50505050505050505050565b600d54600090600160a060020a0316331461129257600080fd5b81151561129e57611097565b50600d54600454600160a060020a03909116906112c1908363ffffffff611bac16565b600455600160a060020a0381166000908152600360205260409020546112ed908363ffffffff611bac16565b600160a060020a038216600081815260036020908152604091829020939093558051858152905191927f0f6798a560793a54c3bcfe86a93cde1e73087d944c0ea20544137d412139688592918290030190a2604080518381529051600160a060020a0383169160009160008051602061267e8339815191529181900360200190a35050565b60018054604080516020600284861615610100026000190190941693909304601f81018490048402820184019092528181529291830182828015610bd15780601f10610ba657610100808354040283529160200191610bd1565b600654600090600160a060020a031633146113e657600080fd5b600c546032116113f557600080fd5b6113fe82611ba4565b151561140957600080fd5b611412826110cd565b1561141c57600080fd5b50600160a060020a036000819052600b60205260008051602061265e833981519152541680151561144c57600080fd5b600b60205260008051602061265e833981519152805473ffffffffffffffffffffffffffffffffffffffff19908116600160a060020a038581169182179093556000908152604090208054909116918316919091179055600c546114b1906001611bac565b600c55604051600160a060020a038316907f3cda433c5679ae4c6a5dea50840e222a42cba3695e4663de4366be899348422190600090a25050565b606080600080600c5460405190808252806020026020018201604052801561151e578160200160208202803883390190505b50600160a060020a036000818152600b60205260008051602061265e83398151915254929550935016905080151561155557600080fd5b600160a060020a03818116146115b95780838381518110151561157457fe5b600160a060020a0392831660209182029092018101919091529181166000908152600b90925260409091205460019290920191168015156115b457600080fd5b611555565b509092915050565b600654600160a060020a031633146115d857600080fd5b6115e181611ba4565b15156115ec57600080fd5b6115f58161109b565b156115ff57600080fd5b600e805473ffffffffffffffffffffffffffffffffffffffff1916600160a060020a0392909216919091179055565b600061163a8383610f99565b9392505050565b600d54600090600160a060020a038481169116141561165f57600080fd5b600e54600160a060020a038481169116141561167a57600080fd5b61163a83836122d4565b600e54600160a060020a0316331461169b57600080fd5b600160a060020a0382166000908152600360205260409020546116c4908263ffffffff61198816565b600160a060020a0380841660009081526003602052604080822093909355600e54909116815220546116fc908263ffffffff611bac16565b600e8054600160a060020a0390811660009081526003602090815260409182902094909455915482518581529251908216939186169260008051602061267e83398151915292908290030190a35050565b611758338383610bf5565b505050565b611768838383610bf5565b50505050565b7fea2aa0a1be11a07ed86d755c93467f4f82362b452371d1ba94d1715123511acb81565b600160a060020a0381565b600080428610156117ad57600080fd5b600160a060020a03808a1660008181526009602090815260409182902080546001810190915582517f6e71edae12b1b97f4d1f60370fef10105fa2faae0126114a169c64845d6126c99281019290925281830193909352928b166060840152608083018a905260a0830182905260c08084018a90528151808503909101815260e09093019052925061183e90611e6c565b905061184c81868686611f73565b600160a060020a038a811691161461186357600080fd5b61186e89898961199a565b505050505050505050565b336000908152600560209081526040808320600160a060020a03861684529091528120546118ad908363ffffffff611bac16565b336000818152600560209081526040808320600160a060020a03891680855290835292819020859055805194855251919360008051602061269e833981519152929081900390910190a350600192915050565b600160a060020a03918216600090815260056020908152604080832093909416825291909152205490565b600e54600160a060020a031681565b611758823383610bf5565b600654600160a060020a0316331461195c57600080fd5b610f35816122f6565b600c5481565b600a60209081526000928352604080842090915290825290205481565b60008282111561199457fe5b50900390565b6119a5838383612179565b60001981141561175857600160a060020a038084166000908152600a60209081526040808320938616835292905290812055505050565b600080600160a060020a03851615156119f457600080fd5b600160a060020a0384161515611a0957600080fd5b600160a060020a038516600090815260036020526040902054611a32908463ffffffff61198816565b600160a060020a038087166000908152600360205260408082209390935590861681522054611a67908463ffffffff611bac16565b600160a060020a03808616600081815260036020908152604091829020949094558051878152905191939289169260008051602061267e83398151915292918290030190a3600160a060020a0385163314611b8e57611ac68533611900565b90506000198114611b3057611ae1818463ffffffff61198816565b600160a060020a03861660008181526005602090815260408083203380855290835292819020859055805194855251919360008051602061269e833981519152929081900390910190a3611b8e565b600160a060020a0385166000908152600a602090815260408083203384529091529020541580611b835750600160a060020a0385166000908152600a602090815260408083203384529091529020544211155b1515611b8e57600080fd5b611b99858585612374565b506001949350505050565b6000903b1190565b8181018281101561110157fe5b600061163a83836123ab565b600083600160a060020a031663a4c0ed3660e01b8685856040516024018084600160a060020a0316600160a060020a0316815260200183815260200180602001828103825283818151815260200191508051906020019080838360005b83811015611c3a578181015183820152602001611c22565b50505050905090810190601f168015611c675780820380516001836020036101000a031916815260200191505b5060408051601f198184030181529181526020820180517bffffffffffffffffffffffffffffffffffffffffffffffffffffffff167fffffffff00000000000000000000000000000000000000000000000000000000909916989098178852518151919790965086955093509150819050838360005b83811015611cf5578181015183820152602001611cdd565b50505050905090810190601f168015611d225780820380516001836020036101000a031916815260200191505b509150506000604051808303816000865af1979650505050505050565b600160a060020a038216600090815260036020526040902054811115611d6457600080fd5b600160a060020a038216600090815260036020526040902054611d8d908263ffffffff61198816565b600160a060020a038316600090815260036020526040902055600454611db9908263ffffffff61198816565b600455604080518281529051600160a060020a038416917fcc16f5dbb4873280815c1ee09dbd06736cffcc184412cf7a71a0fdb75d397ca5919081900360200190a2604080518281529051600091600160a060020a0385169160008051602061267e8339815191529181900360200190a35050565b80600160a060020a0381161515611e4457600080fd5b600160a060020a0383161515611e6257611e5d8261247a565b611758565b6117588383612486565b6000600854826040518082805190602001908083835b60208310611ea15780518252601f199092019160209182019101611e82565b51815160209384036101000a6000190180199092169116179052604080519290940182900382207f190100000000000000000000000000000000000000000000000000000000000083830152602283019790975260428083019790975283518083039097018752606290910192839052855192945084935085019190508083835b60208310611f415780518252601f199092019160209182019101611f22565b5181516020939093036101000a6000190180199091169216919091179052604051920182900390912095945050505050565b6000808460ff16601b1480611f8b57508460ff16601c145b1515612007576040805160e560020a62461bcd02815260206004820152602260248201527f45434453413a20696e76616c6964207369676e6174757265202776272076616c60448201527f7565000000000000000000000000000000000000000000000000000000000000606482015290519081900360840190fd5b7f7fffffffffffffffffffffffffffffff5d576e7357a4501ddfe92f46681b20a0600084901c11156120a9576040805160e560020a62461bcd02815260206004820152602260248201527f45434453413a20696e76616c6964207369676e6174757265202773272076616c60448201527f7565000000000000000000000000000000000000000000000000000000000000606482015290519081900360840190fd5b60408051600080825260208083018085528a905260ff8916838501526060830188905260808301879052925160019360a0808501949193601f19840193928390039091019190865af1158015612103573d6000803e3d6000fd5b5050604051601f190151915050600160a060020a0381161515612170576040805160e560020a62461bcd02815260206004820152601860248201527f45434453413a20696e76616c6964207369676e61747572650000000000000000604482015290519081900360640190fd5b95945050505050565b600160a060020a03831615156121fe576040805160e560020a62461bcd028152602060048201526024808201527f45524332303a20617070726f76652066726f6d20746865207a65726f2061646460448201527f7265737300000000000000000000000000000000000000000000000000000000606482015290519081900360840190fd5b600160a060020a0382161515612284576040805160e560020a62461bcd02815260206004820152602260248201527f45524332303a20617070726f766520746f20746865207a65726f20616464726560448201527f7373000000000000000000000000000000000000000000000000000000000000606482015290519081900360840190fd5b600160a060020a038084166000818152600560209081526040808320948716808452948252918290208590558151858152915160008051602061269e8339815191529281900390910190a3505050565b60006122e08383611bb9565b15156122eb57600080fd5b610be6338484612374565b600160a060020a038116151561230b57600080fd5b600654604051600160a060020a038084169216907f8be0079c531659141344cd1fd0a4f28419497f9722a3daafe3b4186f6b6457e090600090a36006805473ffffffffffffffffffffffffffffffffffffffff1916600160a060020a0392909216919091179055565b61237d826110cd565b15611758576040805160008152602081019091526123a090849084908490611bc5565b151561175857600080fd5b336000908152600360205260408120548211156123c757600080fd5b600160a060020a03831615156123dc57600080fd5b336000908152600360205260409020546123fc908363ffffffff61198816565b3360009081526003602052604080822092909255600160a060020a0385168152205461242e908363ffffffff611bac16565b600160a060020a03841660008181526003602090815260409182902093909355805185815290519192339260008051602061267e8339815191529281900390910190a350600192915050565b30316110978282612533565b604080517f70a0823100000000000000000000000000000000000000000000000000000000815230600482015290518391600091600160a060020a038416916370a0823191602480830192602092919082900301818787803b1580156124eb57600080fd5b505af11580156124ff573d6000803e3d6000fd5b505050506040513d602081101561251557600080fd5b50519050611768600160a060020a038516848363ffffffff61259b16565b604051600160a060020a0383169082156108fc029083906000818181858888f19350505050151561109757808261256861262d565b600160a060020a039091168152604051908190036020019082f080158015612594573d6000803e3d6000fd5b5050505050565b82600160a060020a031663a9059cbb83836040518363ffffffff1660e01b81526004018083600160a060020a0316600160a060020a0316815260200182815260200192505050600060405180830381600087803b1580156125fb57600080fd5b505af115801561260f573d6000803e3d6000fd5b505050503d156117585760206000803e600051151561175857600080fd5b60405160218061263d833901905600608060405260405160208060218339810160405251600160a060020a038116ff00bd0a91c9f9d084bad1a56f4df6c4c08bf6a3c9ff457e1c2f0ccbc02ffda9d3b1ddf252ad1be2c89b69c2b068fc378daa952ba7f163c4a11628f55a4df523b3ef8c5be1e5ebec7d5bd14f71427d1e84f3dd0314c0f7b2291e5b200ac8c7c3b925a165627a7a723058205136372cb64b319cecd80bc72c4a8c967f8fa462898a1d0c1c81e8533f0c225d0029",
    "linkReferences": {}
  },
  "methodIdentifiers": {
    "DOMAIN_SEPARATOR()": "3644e515",
    "F_ADDR()": "c794c769",
    "PERMIT_TYPEHASH()": "30adf81f",
    "PERMIT_TYPEHASH_LEGACY()": "c6a1dedf",
    "addBridge(address)": "9712fdf8",
    "allowance(address,address)": "dd62ed3e",
    "approve(address,uint256)": "095ea7b3",
    "balanceOf(address)": "70a08231",
    "blockRewardContract()": "56b54bae",
    "bridgeContract()": "cd596583",
    "bridgeCount()": "fbb2a53f",
    "bridgeList()": "9da38e2f",
    "bridgePointers(address)": "4bcb88bc",
    "burn(uint256)": "42966c68",
    "claimTokens(address,address)": "69ffa08a",
    "decimals()": "313ce567",
    "decreaseAllowance(address,uint256)": "a457c2d7",
    "decreaseApproval(address,uint256)": "66188463",
    "expirations(address,address)": "ff9e884d",
    "finishMinting()": "7d64bcb4",
    "getTokenInterfacesVersion()": "859ba28c",
    "increaseAllowance(address,uint256)": "39509351",
    "increaseApproval(address,uint256)": "d73dd623",
    "isBridge(address)": "726600ce",
    "mint(address,uint256)": "40c10f19",
    "mintReward(uint256)": "91c0aabf",
    "mintingFinished()": "05d2035b",
    "move(address,address,uint256)": "bb35783b",
    "name()": "06fdde03",
    "nonces(address)": "7ecebe00",
    "owner()": "8da5cb5b",
    "permit(address,address,uint256,uint256,bool,uint8,bytes32,bytes32)": "8fcbaf0c",
    "permit(address,address,uint256,uint256,uint8,bytes32,bytes32)": "d505accf",
    "pull(address,uint256)": "f2d5d56b",
    "push(address,uint256)": "b753a98c",
    "removeBridge(address)": "04df017d",
    "renounceOwnership()": "715018a6",
    "setBlockRewardContract(address)": "27a3e16b",
    "setBlockRewardContractMock(address)": "9c55af4c",
    "setBridgeContract(address)": "0b26cf66",
    "setStakingContract(address)": "9dd373b9",
    "setStakingContractMock(address)": "a6085128",
    "stake(address,uint256)": "adc9772e",
    "stakingContract()": "ee99205c",
    "symbol()": "95d89b41",
    "totalSupply()": "18160ddd",
    "transfer(address,uint256)": "a9059cbb",
    "transferAndCall(address,uint256,bytes)": "4000aea0",
    "transferFrom(address,address,uint256)": "23b872dd",
    "transferOwnership(address)": "f2fde38b",
    "version()": "54fd4d50"
  },
  "id": 46
}