{
  "abi": [
    {
      "constant": false,
      "inputs": [
        {
          "name": "_fee",
          "type": "uint256"
        }
      ],
      "name": "distributeFeeFromAffirmation",
      "outputs": [],
      "payable": false,
      "stateMutability": "nonpayable",
      "type": "function"
    },
    {
      "constant": false,
      "inputs": [
        {
          "name": "_fee",
          "type": "uint256"
        }
      ],
      "name": "setForeignFee",
      "outputs": [],
      "payable": false,
      "stateMutability": "nonpayable",
      "type": "function"
    },
    {
      "constant": false,
      "inputs": [
        {
          "name": "_fee",
          "type": "uint256"
        }
      ],
      "name": "setHomeFee",
      "outputs": [],
      "payable": false,
      "stateMutability": "nonpayable",
      "type": "function"
    },
    {
      "constant": false,
      "inputs": [
        {
          "name": "_fee",
          "type": "uint256"
        }
      ],
      "name": "distributeFeeFromSignatures",
      "outputs": [],
      "payable": false,
      "stateMutability": "nonpayable",
      "type": "function"
    },
    {
      "constant": true,
      "inputs": [
        {
          "name": "_count",
          "type": "uint256"
        }
      ],
      "name": "randomTest",
      "outputs": [
        {
          "name": "",
          "type": "uint256"
        }
      ],
      "payable": false,
      "stateMutability": "view",
      "type": "function"
    },
    {
      "constant": true,
      "inputs": [],
      "name": "getHomeFee",
      "outputs": [
        {
          "name": "",
          "type": "uint256"
        }
      ],
      "payable": false,
      "stateMutability": "view",
      "type": "function"
    },
    {
      "constant": true,
      "inputs": [
        {
          "name": "_value",
          "type": "uint256"
        },
        {
          "name": "_recover",
          "type": "bool"
        },
        {
          "name": "_feeType",
          "type": "bytes32"
        }
      ],
      "name": "calculateFee",
      "outputs": [
        {
          "name": "",
          "type": "uint256"
        }
      ],
      "payable": false,
      "stateMutability": "view",
      "type": "function"
    },
    {
      "constant": true,
      "inputs": [],
      "name": "getFeeManagerMode",
      "outputs": [
        {
          "name": "",
          "type": "bytes4"
        }
      ],
      "payable": false,
      "stateMutability": "pure",
      "type": "function"
    },
    {
      "constant": true,
      "inputs": [],
      "name": "getForeignFee",
      "outputs": [
        {
          "name": "",
          "type": "uint256"
        }
      ],
      "payable": false,
      "stateMutability": "view",
      "type": "function"
    },
    {
      "anonymous": false,
      "inputs": [
        {
          "indexed": false,
          "name": "fee",
          "type": "uint256"
        }
      ],
      "name": "HomeFeeUpdated",
      "type": "event"
    },
    {
      "anonymous": false,
      "inputs": [
        {
          "indexed": false,
          "name": "fee",
          "type": "uint256"
        }
      ],
      "name": "ForeignFeeUpdated",
      "type": "event"
    }
  ],
  "bytecode": {
    "object": "0x608060405234801561001057600080fd5b50610540806100206000396000f30060806040526004361061007c5760003560e01c63ffffffff168063054d46ec14610081578063286c40661461009b57806334a9e148146100b357806359d78464146100815780636dd0a998146100cb57806394da17cd146100f55780639862f26f1461010a578063f2ba95611461012a578063ffd6619614610174575b600080fd5b34801561008d57600080fd5b50610099600435610189565b005b3480156100a757600080fd5b5061009960043561018c565b3480156100bf57600080fd5b50610099600435610228565b3480156100d757600080fd5b506100e36004356102c4565b60408051918252519081900360200190f35b34801561010157600080fd5b506100e36102d5565b34801561011657600080fd5b506100e36004356024351515604435610323565b34801561013657600080fd5b5061013f61042a565b604080517fffffffff000000000000000000000000000000000000000000000000000000009092168252519081900360200190f35b34801561018057600080fd5b506100e361044e565b50565b80670de0b6b3a764000081106101a157600080fd5b7f68c305f6c823f4d2fa4140f9cf28d32a1faccf9b8081ff1c2de11cf32c733efc600090815260209081527ffc8184861980b909b08b1c0a3bc8f07d63e2a591b0ee38baf91ff70732f793a48390556040805184815290517fa1bb1f345e2d0374ec182de8bb6e574798f6b4b3e89046d75c479d7d5620c216929181900390910190a15050565b80670de0b6b3a7640000811061023d57600080fd5b7fc3781f3cec62d28f56efe98358f59c2105504b194242dbcb2cc0806850c306e7600090815260209081527f1d18a249ebed58dc38c0390af3a90c7c1c247e1be783f19d84a8f7c82cd2a4ba8390556040805184815290517f64afb51b44460415972849f8c01723cf624c005cbadf1024a2d8568694b73ac1929181900390910190a15050565b60006102cf8261049c565b92915050565b7fc3781f3cec62d28f56efe98358f59c2105504b194242dbcb2cc0806850c306e760009081526020527f1d18a249ebed58dc38c0390af3a90c7c1c247e1be783f19d84a8f7c82cd2a4ba5490565b600080827f89d93e5e92f7e37e490c25f0e50f7f4aad7cc94b308a566553280967be38bcf181148061037457507fdeb7f3adca07d6d1f708c1774389db532a2b2f18fd05a62b957e4089f4696ed581145b151561037f57600080fd5b7f89d93e5e92f7e37e490c25f0e50f7f4aad7cc94b308a566553280967be38bcf184146103b3576103ae61044e565b6103bb565b6103bb6102d5565b91508415156103f3576103ec670de0b6b3a76400006103e0888563ffffffff6104c416565b9063ffffffff6104ed16565b9250610421565b61041e61040e670de0b6b3a76400008463ffffffff61050216565b6103e0888563ffffffff6104c416565b92505b50509392505050565b7ff2aed8f70000000000000000000000000000000000000000000000000000000090565b7f68c305f6c823f4d2fa4140f9cf28d32a1faccf9b8081ff1c2de11cf32c733efc60009081526020527ffc8184861980b909b08b1c0a3bc8f07d63e2a591b0ee38baf91ff70732f793a45490565b6000816104b043600163ffffffff61050216565b4060001c8115156104bd57fe5b0692915050565b60008215156104d5575060006102cf565b508181028183828115156104e557fe5b04146102cf57fe5b600081838115156104fa57fe5b049392505050565b60008282111561050e57fe5b509003905600a165627a7a72305820ffe01c6d2a93d0894f884bec9219b40900918a64c5573c6bc82d91e30b5ab0bd0029",
    "linkReferences": {}
  },
  "methodIdentifiers": {
    "calculateFee(uint256,bool,bytes32)": "9862f26f",
    "distributeFeeFromAffirmation(uint256)": "054d46ec",
    "distributeFeeFromSignatures(uint256)": "59d78464",
    "getFeeManagerMode()": "f2ba9561",
    "getForeignFee()": "ffd66196",
    "getHomeFee()": "94da17cd",
    "randomTest(uint256)": "6dd0a998",
    "setForeignFee(uint256)": "286c4066",
    "setHomeFee(uint256)": "34a9e148"
  },
  "id": 48
}