{
  "abi": [
    {
      "constant": true,
      "inputs": [],
      "name": "isInitialized",
      "outputs": [
        {
          "name": "",
          "type": "bool"
        }
      ],
      "payable": false,
      "stateMutability": "view",
      "type": "function"
    },
    {
      "constant": true,
      "inputs": [],
      "name": "deployedAtBlock",
      "outputs": [
        {
          "name": "",
          "type": "uint256"
        }
      ],
      "payable": false,
      "stateMutability": "view",
      "type": "function"
    }
  ],
  "bytecode": {
    "object": "0x608060405234801561001057600080fd5b5061014f806100206000396000f30060806040526004361061002f5760003560e01c63ffffffff168063392e53cd146100345780639a454b991461005d575b600080fd5b34801561004057600080fd5b50610049610084565b604080519115158252519081900360200190f35b34801561006957600080fd5b506100726100d5565b60408051918252519081900360200190f35b7f0a6f646cd611241d8073675e00d1a1ff700fbf1b53fcf473de56d1e6e4b714ba60005260046020527f078d888f9b66f3f8bfa10909e31f1e16240db73449f0500afdbbe3a70da457cc5460ff1690565b7fb120ceec05576ad0c710bc6e85f1768535e27554458f05dcbb5c65b8c7a749b060009081526020527fe66bef0282a446f9848e2903380099bb6e431483ee78778868f33b4a154c818b54905600a165627a7a723058209318edc932d079e5d513507c7aed16087fc6bcccaf96da7c4fe230a73ca480b80029",
    "linkReferences": {}
  },
  "methodIdentifiers": {
    "deployedAtBlock()": "9a454b99",
    "isInitialized()": "392e53cd"
  },
  "id": 20
}