{
  "abi": [
    {
      "constant": false,
      "inputs": [
        {
          "name": "version",
          "type": "uint256"
        },
        {
          "name": "implementation",
          "type": "address"
        }
      ],
      "name": "upgradeTo",
      "outputs": [],
      "payable": false,
      "stateMutability": "nonpayable",
      "type": "function"
    },
    {
      "constant": true,
      "inputs": [],
      "name": "version",
      "outputs": [
        {
          "name": "",
          "type": "uint256"
        }
      ],
      "payable": false,
      "stateMutability": "view",
      "type": "function"
    },
    {
      "constant": true,
      "inputs": [],
      "name": "implementation",
      "outputs": [
        {
          "name": "",
          "type": "address"
        }
      ],
      "payable": false,
      "stateMutability": "view",
      "type": "function"
    },
    {
      "constant": true,
      "inputs": [],
      "name": "upgradeabilityOwner",
      "outputs": [
        {
          "name": "",
          "type": "address"
        }
      ],
      "payable": false,
      "stateMutability": "view",
      "type": "function"
    },
    {
      "constant": false,
      "inputs": [
        {
          "name": "version",
          "type": "uint256"
        },
        {
          "name": "implementation",
          "type": "address"
        },
        {
          "name": "data",
          "type": "bytes"
        }
      ],
      "name": "upgradeToAndCall",
      "outputs": [],
      "payable": true,
      "stateMutability": "payable",
      "type": "function"
    },
    {
      "constant": false,
      "inputs": [
        {
          "name": "newOwner",
          "type": "address"
        }
      ],
      "name": "transferProxyOwnership",
      "outputs": [],
      "payable": false,
      "stateMutability": "nonpayable",
      "type": "function"
    },
    {
      "inputs": [],
      "payable": false,
      "stateMutability": "nonpayable",
      "type": "constructor"
    },
    {
      "payable": true,
      "stateMutability": "payable",
      "type": "fallback"
    },
    {
      "anonymous": false,
      "inputs": [
        {
          "indexed": false,
          "name": "previousOwner",
          "type": "address"
        },
        {
          "indexed": false,
          "name": "newOwner",
          "type": "address"
        }
      ],
      "name": "ProxyOwnershipTransferred",
      "type": "event"
    },
    {
      "anonymous": false,
      "inputs": [
        {
          "indexed": false,
          "name": "version",
          "type": "uint256"
        },
        {
          "indexed": true,
          "name": "implementation",
          "type": "address"
        }
      ],
      "name": "Upgraded",
      "type": "event"
    }
  ],
  "bytecode": {
    "object": "0x608060405234801561001057600080fd5b506100203361002560201b60201c565b610047565b60008054600160a060020a031916600160a060020a0392909216919091179055565b6103c4806100566000396000f30060806040526004361061005b5760003560e01c63ffffffff1680633ad06d16146100a657806354fd4d50146100cc5780635c60da1b146100f35780636fde820214610124578063a9c45fcb14610139578063f1739cae1461015d575b600061006561017e565b9050600160a060020a038116151561007c57600080fd5b60405136600082376000803683855af43d82016040523d6000833e8080156100a2573d83f35b3d83fd5b3480156100b257600080fd5b506100ca600435600160a060020a036024351661018d565b005b3480156100d857600080fd5b506100e16101b7565b60408051918252519081900360200190f35b3480156100ff57600080fd5b5061010861017e565b60408051600160a060020a039092168252519081900360200190f35b34801561013057600080fd5b506101086101bd565b6100ca600480359060248035600160a060020a0316916044359182019101356101cc565b34801561016957600080fd5b506100ca600160a060020a0360043516610234565b600254600160a060020a031690565b6101956101bd565b600160a060020a031633146101a957600080fd5b6101b382826102bc565b5050565b60015490565b600054600160a060020a031690565b6101d46101bd565b600160a060020a031633146101e857600080fd5b6101f2848461018d565b30600160a060020a03163483836040518083838082843782019150509250505060006040518083038185875af192505050151561022e57600080fd5b50505050565b61023c6101bd565b600160a060020a0316331461025057600080fd5b600160a060020a038116151561026557600080fd5b7f5a3e66efaa1e445ebd894728a69d6959842ea1e97bd79b892797106e270efcd961028e6101bd565b60408051600160a060020a03928316815291841660208301528051918290030190a16102b981610361565b50565b600254600160a060020a03828116911614156102d757600080fd5b6102e081610390565b15156102eb57600080fd5b60015482116102f957600080fd5b600182905560028054600160a060020a03831673ffffffffffffffffffffffffffffffffffffffff1990911681179091556040805184815290517f4289d6195cf3c2d2174adf98d0e19d4d2d08887995b99cb7b100e7ffe795820e9181900360200190a25050565b6000805473ffffffffffffffffffffffffffffffffffffffff1916600160a060020a0392909216919091179055565b6000903b11905600a165627a7a7230582043435b85159c11c5e6e73d20df17e211b664332269a37d293eb31b6f66d11dac0029",
    "linkReferences": {}
  },
  "methodIdentifiers": {
    "implementation()": "5c60da1b",
    "transferProxyOwnership(address)": "f1739cae",
    "upgradeTo(uint256,address)": "3ad06d16",
    "upgradeToAndCall(uint256,address,bytes)": "a9c45fcb",
    "upgradeabilityOwner()": "6fde8202",
    "version()": "54fd4d50"
  },
  "id": 63
}