{
  "abi": [
    {
      "constant": true,
      "inputs": [],
      "name": "transactionHash",
      "outputs": [
        {
          "name": "",
          "type": "bytes32"
        }
      ],
      "payable": false,
      "stateMutability": "view",
      "type": "function"
    },
    {
      "constant": true,
      "inputs": [],
      "name": "sourceChainId",
      "outputs": [
        {
          "name": "",
          "type": "uint256"
        }
      ],
      "payable": false,
      "stateMutability": "pure",
      "type": "function"
    },
    {
      "constant": true,
      "inputs": [
        {
          "name": "",
          "type": "bytes32"
        }
      ],
      "name": "failedMessageReceiver",
      "outputs": [
        {
          "name": "",
          "type": "address"
        }
      ],
      "payable": false,
      "stateMutability": "view",
      "type": "function"
    },
    {
      "constant": true,
      "inputs": [
        {
          "name": "",
          "type": "bytes32"
        }
      ],
      "name": "failedMessageSender",
      "outputs": [
        {
          "name": "",
          "type": "address"
        }
      ],
      "payable": false,
      "stateMutability": "view",
      "type": "function"
    },
    {
      "constant": true,
      "inputs": [],
      "name": "messageId",
      "outputs": [
        {
          "name": "",
          "type": "bytes32"
        }
      ],
      "payable": false,
      "stateMutability": "view",
      "type": "function"
    },
    {
      "constant": false,
      "inputs": [
        {
          "name": "_value",
          "type": "uint256"
        }
      ],
      "name": "setMaxGasPerTx",
      "outputs": [],
      "payable": false,
      "stateMutability": "nonpayable",
      "type": "function"
    },
    {
      "constant": false,
      "inputs": [
        {
          "name": "_contract",
          "type": "address"
        },
        {
          "name": "_sender",
          "type": "address"
        },
        {
          "name": "_data",
          "type": "bytes"
        },
        {
          "name": "_messageId",
          "type": "bytes32"
        },
        {
          "name": "_gas",
          "type": "uint256"
        }
      ],
      "name": "executeMessageCall",
      "outputs": [],
      "payable": false,
      "stateMutability": "nonpayable",
      "type": "function"
    },
    {
      "constant": false,
      "inputs": [
        {
          "name": "_contract",
          "type": "address"
        },
        {
          "name": "_data",
          "type": "bytes"
        },
        {
          "name": "_gas",
          "type": "uint256"
        }
      ],
      "name": "requireToConfirmMessage",
      "outputs": [
        {
          "name": "",
          "type": "bytes32"
        }
      ],
      "payable": false,
      "stateMutability": "nonpayable",
      "type": "function"
    },
    {
      "constant": true,
      "inputs": [],
      "name": "messageSourceChainId",
      "outputs": [
        {
          "name": "",
          "type": "uint256"
        }
      ],
      "payable": false,
      "stateMutability": "view",
      "type": "function"
    },
    {
      "constant": true,
      "inputs": [],
      "name": "nonce",
      "outputs": [
        {
          "name": "",
          "type": "uint64"
        }
      ],
      "payable": false,
      "stateMutability": "view",
      "type": "function"
    },
    {
      "constant": true,
      "inputs": [
        {
          "name": "",
          "type": "bytes32"
        }
      ],
      "name": "messageCallStatus",
      "outputs": [
        {
          "name": "",
          "type": "bool"
        }
      ],
      "payable": false,
      "stateMutability": "view",
      "type": "function"
    },
    {
      "constant": true,
      "inputs": [],
      "name": "messageSender",
      "outputs": [
        {
          "name": "",
          "type": "address"
        }
      ],
      "payable": false,
      "stateMutability": "view",
      "type": "function"
    },
    {
      "constant": false,
      "inputs": [
        {
          "name": "_contract",
          "type": "address"
        },
        {
          "name": "_data",
          "type": "bytes"
        },
        {
          "name": "_gas",
          "type": "uint256"
        }
      ],
      "name": "requireToPassMessage",
      "outputs": [
        {
          "name": "",
          "type": "bytes32"
        }
      ],
      "payable": false,
      "stateMutability": "nonpayable",
      "type": "function"
    },
    {
      "constant": true,
      "inputs": [
        {
          "name": "",
          "type": "bytes32"
        }
      ],
      "name": "failedMessageDataHash",
      "outputs": [
        {
          "name": "",
          "type": "bytes32"
        }
      ],
      "payable": false,
      "stateMutability": "view",
      "type": "function"
    },
    {
      "constant": true,
      "inputs": [],
      "name": "maxGasPerTx",
      "outputs": [
        {
          "name": "",
          "type": "uint256"
        }
      ],
      "payable": false,
      "stateMutability": "view",
      "type": "function"
    },
    {
      "anonymous": false,
      "inputs": [
        {
          "indexed": true,
          "name": "messageId",
          "type": "bytes32"
        },
        {
          "indexed": false,
          "name": "encodedData",
          "type": "bytes"
        }
      ],
      "name": "MockedEvent",
      "type": "event"
    }
  ],
  "bytecode": {
    "object": "0x608060405234801561001057600080fd5b50610957806100206000396000f3006080604052600436106100be5760003560e01c63ffffffff1680630ac1c313146100c35780631544298e146100ea5780633f9a8e7e146100ff5780634a610b0414610133578063669f618b1461014b5780637bac29c714610160578063942759631461017a57806394643f71146101f25780639e307dff14610222578063affed0e014610237578063cb08a10c14610269578063d67bdd2514610295578063dc8601b3146102aa578063e37c3289146102da578063e5789d03146102f2575b600080fd5b3480156100cf57600080fd5b506100d8610307565b60408051918252519081900360200190f35b3480156100f657600080fd5b506100d861030d565b34801561010b57600080fd5b50610117600435610313565b60408051600160a060020a039092168252519081900360200190f35b34801561013f57600080fd5b5061011760043561032e565b34801561015757600080fd5b506100d8610349565b34801561016c57600080fd5b5061017860043561034f565b005b34801561018657600080fd5b50604080516020600460443581810135601f8101849004840285018401909552848452610178948235600160a060020a03908116956024803590921695369594606494929301919081908401838280828437509497505084359550505060209092013591506103549050565b3480156101fe57600080fd5b506100d860048035600160a060020a0316906024803590810191013560443561050f565b34801561022e57600080fd5b506100d8610559565b34801561024357600080fd5b5061024c61055f565b6040805167ffffffffffffffff9092168252519081900360200190f35b34801561027557600080fd5b5061028160043561056f565b604080519115158252519081900360200190f35b3480156102a157600080fd5b50610117610584565b3480156102b657600080fd5b506100d860048035600160a060020a03169060248035908101910135604435610593565b3480156102e657600080fd5b506100d86004356105d4565b3480156102fe57600080fd5b506100d86105e6565b60025481565b61053990565b600860205260009081526040902054600160a060020a031681565b600760205260009081526040902054600160a060020a031681565b60035481565b600155565b6000805473ffffffffffffffffffffffffffffffffffffffff1916600160a060020a038681169190911782556003849055600284905561053960055560405185519188169184918791819060208401908083838a5b838110156103c15781810151838201526020016103a9565b50505050905090810190601f1680156103ee5780820380516001836020036101000a031916815260200191505b5091505060006040518083038160008787f16000805473ffffffffffffffffffffffffffffffffffffffff19168155600381905560028190556005819055878152600660205260409020805460ff1916821515908117909155909450925061050791505057836040518082805190602001908083835b602083106104835780518252601f199092019160209182019101610464565b51815160001960209485036101000a01908116901991909116179052604080519490920184900390932060008981526009855282812091909155600884528181208054600160a060020a03808f1673ffffffffffffffffffffffffffffffffffffffff199283161790925560079095529190208054918b1691909316179091555050505b505050505050565b60006105508585858080601f0160208091040260200160405190810160405280939291908181526020018383808284378201915050505050508460806105ec565b95945050505050565b60055481565b60045467ffffffffffffffff1681565b60066020526000908152604090205460ff1681565b600054600160a060020a031681565b60006105508585858080601f0160208091040260200160405190810160405280939291908181526020018383808284378201915050505050508460006105ec565b60096020526000908152604090205481565b60015481565b600354600090819081906060901561060357600080fd5b604080517f05390000000000000000000000000000000000000000000000000000000000006020808301919091523060601b602283015282516016818403018152603690920192839052815191929182918401908083835b6020831061067a5780518252601f19909201916020918201910161065b565b6001836020036101000a03801982511681845116808217855250505050505090500191505060405180910390207bffffffffffffffffffffffffffffffffffffffff000000000000000060001b169250600460009054906101000a900467ffffffffffffffff1667ffffffffffffffff1660001b837f112233440000000000000000000000000000000000000000000000000000000060001b171791506001600460008282829054906101000a900467ffffffffffffffff160192506101000a81548167ffffffffffffffff021916908367ffffffffffffffff160217905550813389886002808a61053961053a8f604051602001808b600019166000191681526020018a600160a060020a0316600160a060020a031660601b815260140189600160a060020a0316600160a060020a031660601b81526014018863ffffffff1663ffffffff1660e01b81526004018760ff1660ff1660f81b81526001018660ff1660ff1660f81b81526001018560ff1660ff1660f81b81526001018461ffff1661ffff1660f01b81526002018361ffff1661ffff1660f01b815260020182805190602001908083835b602083106108435780518252601f199092019160209182019101610824565b6001836020036101000a0380198251168184511680821785525050505050509050019a5050505050505050505050604051602081830303815290604052905081600019167ffba1d61c8783fe6430101e1c17b86283d23c953c4be9abb813603b4744d4851e826040518080602001828103825283818151815260200191508051906020019080838360005b838110156108e65781810151838201526020016108ce565b50505050905090810190601f1680156109135780820380516001836020036101000a031916815260200191505b509250505060405180910390a25096955050505050505600a165627a7a7230582090417524175d9bcf80ef936c3a495a99e574370272523ad943ca0334a090d8970029",
    "linkReferences": {}
  },
  "methodIdentifiers": {
    "executeMessageCall(address,address,bytes,bytes32,uint256)": "94275963",
    "failedMessageDataHash(bytes32)": "e37c3289",
    "failedMessageReceiver(bytes32)": "3f9a8e7e",
    "failedMessageSender(bytes32)": "4a610b04",
    "maxGasPerTx()": "e5789d03",
    "messageCallStatus(bytes32)": "cb08a10c",
    "messageId()": "669f618b",
    "messageSender()": "d67bdd25",
    "messageSourceChainId()": "9e307dff",
    "nonce()": "affed0e0",
    "requireToConfirmMessage(address,bytes,uint256)": "94643f71",
    "requireToPassMessage(address,bytes,uint256)": "dc8601b3",
    "setMaxGasPerTx(uint256)": "7bac29c7",
    "sourceChainId()": "1544298e",
    "transactionHash()": "0ac1c313"
  },
  "id": 41
}