{
  "abi": [
    {
      "constant": true,
      "inputs": [],
      "name": "validatorCount",
      "outputs": [
        {
          "name": "",
          "type": "uint256"
        }
      ],
      "payable": false,
      "stateMutability": "view",
      "type": "function"
    },
    {
      "constant": true,
      "inputs": [],
      "name": "getBridgeValidatorsInterfacesVersion",
      "outputs": [
        {
          "name": "major",
          "type": "uint64"
        },
        {
          "name": "minor",
          "type": "uint64"
        },
        {
          "name": "patch",
          "type": "uint64"
        }
      ],
      "payable": false,
      "stateMutability": "pure",
      "type": "function"
    },
    {
      "constant": true,
      "inputs": [],
      "name": "isInitialized",
      "outputs": [
        {
          "name": "",
          "type": "bool"
        }
      ],
      "payable": false,
      "stateMutability": "view",
      "type": "function"
    },
    {
      "constant": false,
      "inputs": [
        {
          "name": "_validator",
          "type": "address"
        }
      ],
      "name": "removeValidator",
      "outputs": [],
      "payable": false,
      "stateMutability": "nonpayable",
      "type": "function"
    },
    {
      "constant": false,
      "inputs": [
        {
          "name": "_validator",
          "type": "address"
        }
      ],
      "name": "addValidator",
      "outputs": [],
      "payable": false,
      "stateMutability": "nonpayable",
      "type": "function"
    },
    {
      "constant": false,
      "inputs": [
        {
          "name": "_requiredSignatures",
          "type": "uint256"
        },
        {
          "name": "_initialValidators",
          "type": "address[]"
        },
        {
          "name": "_owner",
          "type": "address"
        }
      ],
      "name": "initialize",
      "outputs": [
        {
          "name": "",
          "type": "bool"
        }
      ],
      "payable": false,
      "stateMutability": "nonpayable",
      "type": "function"
    },
    {
      "constant": true,
      "inputs": [],
      "name": "validatorList",
      "outputs": [
        {
          "name": "",
          "type": "address[]"
        }
      ],
      "payable": false,
      "stateMutability": "view",
      "type": "function"
    },
    {
      "constant": false,
      "inputs": [
        {
          "name": "_requiredSignatures",
          "type": "uint256"
        }
      ],
      "name": "setRequiredSignatures",
      "outputs": [],
      "payable": false,
      "stateMutability": "nonpayable",
      "type": "function"
    },
    {
      "constant": true,
      "inputs": [],
      "name": "requiredSignatures",
      "outputs": [
        {
          "name": "",
          "type": "uint256"
        }
      ],
      "payable": false,
      "stateMutability": "view",
      "type": "function"
    },
    {
      "constant": true,
      "inputs": [
        {
          "name": "_address",
          "type": "address"
        }
      ],
      "name": "getNextValidator",
      "outputs": [
        {
          "name": "",
          "type": "address"
        }
      ],
      "payable": false,
      "stateMutability": "view",
      "type": "function"
    },
    {
      "constant": true,
      "inputs": [],
      "name": "owner",
      "outputs": [
        {
          "name": "",
          "type": "address"
        }
      ],
      "payable": false,
      "stateMutability": "view",
      "type": "function"
    },
    {
      "constant": true,
      "inputs": [
        {
          "name": "_validator",
          "type": "address"
        }
      ],
      "name": "isValidatorDuty",
      "outputs": [
        {
          "name": "",
          "type": "bool"
        }
      ],
      "payable": false,
      "stateMutability": "view",
      "type": "function"
    },
    {
      "constant": true,
      "inputs": [],
      "name": "deployedAtBlock",
      "outputs": [
        {
          "name": "",
          "type": "uint256"
        }
      ],
      "payable": false,
      "stateMutability": "view",
      "type": "function"
    },
    {
      "constant": true,
      "inputs": [],
      "name": "F_ADDR",
      "outputs": [
        {
          "name": "",
          "type": "address"
        }
      ],
      "payable": false,
      "stateMutability": "view",
      "type": "function"
    },
    {
      "constant": false,
      "inputs": [
        {
          "name": "newOwner",
          "type": "address"
        }
      ],
      "name": "transferOwnership",
      "outputs": [],
      "payable": false,
      "stateMutability": "nonpayable",
      "type": "function"
    },
    {
      "constant": true,
      "inputs": [
        {
          "name": "_validator",
          "type": "address"
        }
      ],
      "name": "isValidator",
      "outputs": [
        {
          "name": "",
          "type": "bool"
        }
      ],
      "payable": false,
      "stateMutability": "view",
      "type": "function"
    },
    {
      "anonymous": false,
      "inputs": [
        {
          "indexed": true,
          "name": "validator",
          "type": "address"
        }
      ],
      "name": "ValidatorAdded",
      "type": "event"
    },
    {
      "anonymous": false,
      "inputs": [
        {
          "indexed": true,
          "name": "validator",
          "type": "address"
        }
      ],
      "name": "ValidatorRemoved",
      "type": "event"
    },
    {
      "anonymous": false,
      "inputs": [
        {
          "indexed": false,
          "name": "requiredSignatures",
          "type": "uint256"
        }
      ],
      "name": "RequiredSignaturesChanged",
      "type": "event"
    },
    {
      "anonymous": false,
      "inputs": [
        {
          "indexed": false,
          "name": "previousOwner",
          "type": "address"
        },
        {
          "indexed": false,
          "name": "newOwner",
          "type": "address"
        }
      ],
      "name": "OwnershipTransferred",
      "type": "event"
    }
  ],
  "bytecode": {
    "object": "0x608060405234801561001057600080fd5b5061126d806100206000396000f3006080604052600436106100c95760003560e01c63ffffffff1680630f43a677146100ce5780632bda4eee146100f5578063392e53cd1461013657806340a141ff1461015f5780634d238c8e1461018257806352af719f146101a35780635890ef79146101d35780637d2b9cc0146102385780638d068043146102505780638d37052c146102655780638da5cb5b146102a25780638e4ec60a146102b75780639a454b99146102d8578063c794c769146102ed578063f2fde38b14610302578063facd743b14610323575b600080fd5b3480156100da57600080fd5b506100e3610344565b60408051918252519081900360200190f35b34801561010157600080fd5b5061010a610392565b6040805167ffffffffffffffff9485168152928416602084015292168183015290519081900360600190f35b34801561014257600080fd5b5061014b61039d565b604080519115158252519081900360200190f35b34801561016b57600080fd5b50610180600160a060020a03600435166103ee565b005b34801561018e57600080fd5b50610180600160a060020a036004351661044a565b3480156101af57600080fd5b5061014b600480359060248035908101910135600160a060020a03604435166104a6565b3480156101df57600080fd5b506101e86108c0565b60408051602080825283518183015283519192839290830191858101910280838360005b8381101561022457818101518382015260200161020c565b505050509050019250505060405180910390f35b34801561024457600080fd5b5061018060043561098e565b34801561025c57600080fd5b506100e3610a50565b34801561027157600080fd5b50610286600160a060020a0360043516610a9e565b60408051600160a060020a039092168252519081900360200190f35b3480156102ae57600080fd5b50610286610b7a565b3480156102c357600080fd5b5061014b600160a060020a0360043516610bd1565b3480156102e457600080fd5b506100e3610c18565b3480156102f957600080fd5b50610286610c66565b34801561030e57600080fd5b50610180600160a060020a0360043516610c71565b34801561032f57600080fd5b5061014b600160a060020a0360043516610c99565b7f8656d603d9f985c3483946a92789d52202f49736384ba131cb92f62c4c1aa08260009081526020527f95d17efd9f452ee83a125e41a6180e225f2e2ff7d47d2c1f6cd9b2e14a207ba15490565b600260036000909192565b7f0a6f646cd611241d8073675e00d1a1ff700fbf1b53fcf473de56d1e6e4b714ba60005260046020527f078d888f9b66f3f8bfa10909e31f1e16240db73449f0500afdbbe3a70da457cc5460ff1690565b6103f6610b7a565b600160a060020a0316331461040a57600080fd5b61041381610ccc565b604051600160a060020a038216907fe1434e25d6611e0db941968fdc97811c982ac1602e951637d206f5fdda9dd8f190600090a250565b610452610b7a565b600160a060020a0316331461046657600080fd5b61046f81610df6565b604051600160a060020a038216907fe366c1c0452ed8eec96861e9e54141ebff23c9ec89fe27b996b45f5ec388498790600090a250565b60408051600481526024810182526020810180517bffffffffffffffffffffffffffffffffffffffffffffffffffffffff167f6fde8202000000000000000000000000000000000000000000000000000000001781529151815160009384933093909290918291808383895b8381101561052a578181015183820152602001610512565b50505050905090810190601f1680156105575780820380516001836020036101000a031916815260200191505b509150506000604051808303816000865af191505015806105e6575030600160a060020a0316636fde82026040518163ffffffff1660e01b8152600401602060405180830381600087803b1580156105ae57600080fd5b505af11580156105c2573d6000803e3d6000fd5b505050506040513d60208110156105d857600080fd5b5051600160a060020a031633145b806105f057503330145b15156105fb57600080fd5b61060361039d565b1561060d57600080fd5b61061683610e99565b85151561062257600080fd5b8584101561062f57600080fd5b5060005b838110156107f957600085858381811061064957fe5b90506020020135600160a060020a0316600160a060020a03161415801561069b5750600160a060020a0385858381811061067f57fe5b90506020020135600160a060020a0316600160a060020a031614155b15156106a657600080fd5b6106ca8585838181106106b557fe5b90506020020135600160a060020a0316610c99565b156106d457600080fd5b80151561074157610707600160a060020a038686848181106106f257fe5b90506020020135600160a060020a0316610f70565b600184141561073c5761073c85858381811061071f57fe5b90506020020135600160a060020a0316600160a060020a03610f70565b6107a0565b600019840181141561078d5761077e8585600019840181811061076057fe5b90506020020135600160a060020a031686868481811015156106f257fe5b61073c85858381811061071f57fe5b6107a08585600019840181811061076057fe5b8484828181106107ac57fe5b90506020020135600160a060020a0316600160a060020a03167fe366c1c0452ed8eec96861e9e54141ebff23c9ec89fe27b996b45f5ec388498760405160405180910390a2600101610633565b6108028461106b565b600060208190527f8a247e09a5673bd4d93a4e76d8fb9553523aa0d77f51f3d576e7421f5295b9bc8790557fb120ceec05576ad0c710bc6e85f1768535e27554458f05dcbb5c65b8c7a749b09052437fe66bef0282a446f9848e2903380099bb6e431483ee78778868f33b4a154c818b5561087b6110c6565b6040805187815290517f10dbc913050d3180c3b99f7da91fd514af7cbc9c1bb59a0da5d2bc38f0cf395a9181900360200190a16108b661039d565b9695505050505050565b6060806000806108ce610344565b6040519080825280602002602001820160405280156108f7578160200160208202803883390190505b5092506000915061090e600160a060020a03610a9e565b9050600160a060020a038116151561092557600080fd5b600160a060020a03818116146109865780838381518110151561094457fe5b600160a060020a0390921660209283029091019091015261096481610a9e565b6001909201919050600160a060020a038116151561098157600080fd5b610925565b509092915050565b610996610b7a565b600160a060020a031633146109aa57600080fd5b806109b3610344565b10156109be57600080fd5b8015156109ca57600080fd5b7fd18ea17c351d6834a0e568067fb71804d2a588d5e26d60f792b1c724b1bd53b1600090815260209081527f8a247e09a5673bd4d93a4e76d8fb9553523aa0d77f51f3d576e7421f5295b9bc8290556040805183815290517f10dbc913050d3180c3b99f7da91fd514af7cbc9c1bb59a0da5d2bc38f0cf395a929181900390910190a150565b7fd18ea17c351d6834a0e568067fb71804d2a588d5e26d60f792b1c724b1bd53b160009081526020527f8a247e09a5673bd4d93a4e76d8fb9553523aa0d77f51f3d576e7421f5295b9bc5490565b6000600260008360405160200180807f76616c696461746f72734c697374000000000000000000000000000000000000815250600e0182600160a060020a0316600160a060020a031660601b81526014019150506040516020818303038152906040526040518082805190602001908083835b60208310610b305780518252601f199092019160209182019101610b11565b51815160209384036101000a6000190180199092169116179052604080519290940182900390912086528501959095529290920160002054600160a060020a031695945050505050565b7f02016836a56b71f0d02689e69e326f4f4c1b9057164ef592671cf0d37c8040c060005260026020527fb7802e97e87ef2842a6cce7da7ffaeaedaa2f61a6a7870b23d9d01fc9b73712e54600160a060020a031690565b600080610be4600160a060020a03610a9e565b9050600160a060020a0381161515610bfb57600080fd5b80600160a060020a031683600160a060020a031614915050919050565b7fb120ceec05576ad0c710bc6e85f1768535e27554458f05dcbb5c65b8c7a749b060009081526020527fe66bef0282a446f9848e2903380099bb6e431483ee78778868f33b4a154c818b5490565b600160a060020a0381565b610c79610b7a565b600160a060020a03163314610c8d57600080fd5b610c9681610e99565b50565b6000600160a060020a0382811614801590610cc657506000610cba83610a9e565b600160a060020a031614155b92915050565b6000806000610cd9610a50565b610ce1610344565b11610ceb57600080fd5b610cf484610c99565b1515610cff57600080fd5b610d0884610a9e565b9250600160a060020a039150610d1d82610a9e565b9050600160a060020a0381161515610d3457600080fd5b600160a060020a0381811690851614610d8657809150610d5382610a9e565b9050600160a060020a0380821614801590610d765750600160a060020a03811615155b1515610d8157600080fd5b610d34565b610d908284610f70565b610dcf6040805190810160405280600e81526020017f76616c696461746f72734c6973740000000000000000000000000000000000008152508561111d565b610df0610deb6001610ddf610344565b9063ffffffff61122216565b61106b565b50505050565b6000600160a060020a03821615801590610e195750600160a060020a0382811614155b1515610e2457600080fd5b610e2d82610c99565b15610e3757600080fd5b610e47600160a060020a03610a9e565b9050600160a060020a0381161515610e5e57600080fd5b610e688282610f70565b610e79600160a060020a0383610f70565b610e95610deb6001610e89610344565b9063ffffffff61123416565b5050565b600160a060020a0381161515610eae57600080fd5b7f8be0079c531659141344cd1fd0a4f28419497f9722a3daafe3b4186f6b6457e0610ed7610b7a565b60408051600160a060020a03928316815291841660208301528051918290030190a17f02016836a56b71f0d02689e69e326f4f4c1b9057164ef592671cf0d37c8040c060005260026020527fb7802e97e87ef2842a6cce7da7ffaeaedaa2f61a6a7870b23d9d01fc9b73712e805473ffffffffffffffffffffffffffffffffffffffff1916600160a060020a0392909216919091179055565b80600260008460405160200180807f76616c696461746f72734c697374000000000000000000000000000000000000815250600e0182600160a060020a0316600160a060020a031660601b81526014019150506040516020818303038152906040526040518082805190602001908083835b602083106110015780518252601f199092019160209182019101610fe2565b51815160209384036101000a60001901801990921691161790526040805192909401829003909120865285019590955292909201600020805473ffffffffffffffffffffffffffffffffffffffff1916600160a060020a0395909516949094179093555050505050565b603281111561107957600080fd5b7f8656d603d9f985c3483946a92789d52202f49736384ba131cb92f62c4c1aa08260009081526020527f95d17efd9f452ee83a125e41a6180e225f2e2ff7d47d2c1f6cd9b2e14a207ba155565b7f0a6f646cd611241d8073675e00d1a1ff700fbf1b53fcf473de56d1e6e4b714ba60005260046020527f078d888f9b66f3f8bfa10909e31f1e16240db73449f0500afdbbe3a70da457cc805460ff19166001179055565b6002600083836040516020018083805190602001908083835b602083106111555780518252601f199092019160209182019101611136565b51815160209384036101000a6000190180199092169116179052600160a060020a039590951660601b92019182525060408051808303600b190181526014909201908190528151919450928392508401908083835b602083106111c95780518252601f1990920191602091820191016111aa565b51815160209384036101000a60001901801990921691161790526040805192909401829003909120865285019590955292909201600020805473ffffffffffffffffffffffffffffffffffffffff191690555050505050565b60008282111561122e57fe5b50900390565b81810182811015610cc657fe00a165627a7a72305820dd74b679b455914236ed118d2b97f5ac5d7955a3bf2f562c8ca28ee0167dc3fb0029",
    "linkReferences": {}
  },
  "methodIdentifiers": {
    "F_ADDR()": "c794c769",
    "addValidator(address)": "4d238c8e",
    "deployedAtBlock()": "9a454b99",
    "getBridgeValidatorsInterfacesVersion()": "2bda4eee",
    "getNextValidator(address)": "8d37052c",
    "initialize(uint256,address[],address)": "52af719f",
    "isInitialized()": "392e53cd",
    "isValidator(address)": "facd743b",
    "isValidatorDuty(address)": "8e4ec60a",
    "owner()": "8da5cb5b",
    "removeValidator(address)": "40a141ff",
    "requiredSignatures()": "8d068043",
    "setRequiredSignatures(uint256)": "7d2b9cc0",
    "transferOwnership(address)": "f2fde38b",
    "validatorCount()": "0f43a677",
    "validatorList()": "5890ef79"
  },
  "id": 44
}