{
  "abi": [
    {
      "constant": false,
      "inputs": [
        {
          "name": "_token",
          "type": "address"
        }
      ],
      "name": "setToken",
      "outputs": [],
      "payable": false,
      "stateMutability": "nonpayable",
      "type": "function"
    },
    {
      "constant": true,
      "inputs": [],
      "name": "mintedCoins",
      "outputs": [
        {
          "name": "",
          "type": "uint256"
        }
      ],
      "payable": false,
      "stateMutability": "view",
      "type": "function"
    },
    {
      "constant": false,
      "inputs": [
        {
          "name": "_amount",
          "type": "uint256"
        }
      ],
      "name": "addBridgeNativeRewardReceivers",
      "outputs": [],
      "payable": false,
      "stateMutability": "nonpayable",
      "type": "function"
    },
    {
      "constant": true,
      "inputs": [
        {
          "name": "",
          "type": "uint256"
        }
      ],
      "name": "validatorRewardList",
      "outputs": [
        {
          "name": "",
          "type": "uint256"
        }
      ],
      "payable": false,
      "stateMutability": "view",
      "type": "function"
    },
    {
      "constant": true,
      "inputs": [],
      "name": "blockRewardContractId",
      "outputs": [
        {
          "name": "",
          "type": "bytes4"
        }
      ],
      "payable": false,
      "stateMutability": "pure",
      "type": "function"
    },
    {
      "constant": false,
      "inputs": [
        {
          "name": "_initialValidators",
          "type": "address[]"
        }
      ],
      "name": "setValidatorsRewards",
      "outputs": [],
      "payable": false,
      "stateMutability": "nonpayable",
      "type": "function"
    },
    {
      "constant": true,
      "inputs": [],
      "name": "mintedTotally",
      "outputs": [
        {
          "name": "",
          "type": "uint256"
        }
      ],
      "payable": false,
      "stateMutability": "view",
      "type": "function"
    },
    {
      "constant": false,
      "inputs": [
        {
          "name": "_amount",
          "type": "uint256"
        }
      ],
      "name": "addBridgeTokenRewardReceivers",
      "outputs": [],
      "payable": false,
      "stateMutability": "nonpayable",
      "type": "function"
    },
    {
      "constant": true,
      "inputs": [],
      "name": "feeAmount",
      "outputs": [
        {
          "name": "",
          "type": "uint256"
        }
      ],
      "payable": false,
      "stateMutability": "view",
      "type": "function"
    },
    {
      "constant": false,
      "inputs": [
        {
          "name": "_amount",
          "type": "uint256"
        },
        {
          "name": "_receiver",
          "type": "address"
        }
      ],
      "name": "addExtraReceiver",
      "outputs": [],
      "payable": false,
      "stateMutability": "nonpayable",
      "type": "function"
    },
    {
      "constant": true,
      "inputs": [
        {
          "name": "",
          "type": "uint256"
        }
      ],
      "name": "validatorList",
      "outputs": [
        {
          "name": "",
          "type": "address"
        }
      ],
      "payable": false,
      "stateMutability": "view",
      "type": "function"
    },
    {
      "constant": true,
      "inputs": [
        {
          "name": "_bridge",
          "type": "address"
        }
      ],
      "name": "mintedTotallyByBridge",
      "outputs": [
        {
          "name": "",
          "type": "uint256"
        }
      ],
      "payable": false,
      "stateMutability": "view",
      "type": "function"
    },
    {
      "constant": true,
      "inputs": [
        {
          "name": "_count",
          "type": "uint256"
        }
      ],
      "name": "random",
      "outputs": [
        {
          "name": "",
          "type": "uint256"
        }
      ],
      "payable": false,
      "stateMutability": "view",
      "type": "function"
    },
    {
      "constant": false,
      "inputs": [
        {
          "name": "_amount",
          "type": "uint256"
        },
        {
          "name": "_bridge",
          "type": "address"
        }
      ],
      "name": "addMintedTotallyByBridge",
      "outputs": [],
      "payable": false,
      "stateMutability": "nonpayable",
      "type": "function"
    },
    {
      "constant": true,
      "inputs": [],
      "name": "bridgeTokenReward",
      "outputs": [
        {
          "name": "",
          "type": "uint256"
        }
      ],
      "payable": false,
      "stateMutability": "view",
      "type": "function"
    },
    {
      "constant": true,
      "inputs": [],
      "name": "token",
      "outputs": [
        {
          "name": "",
          "type": "address"
        }
      ],
      "payable": false,
      "stateMutability": "view",
      "type": "function"
    },
    {
      "payable": true,
      "stateMutability": "payable",
      "type": "fallback"
    },
    {
      "anonymous": false,
      "inputs": [
        {
          "indexed": false,
          "name": "amount",
          "type": "uint256"
        },
        {
          "indexed": false,
          "name": "cumulativeAmount",
          "type": "uint256"
        },
        {
          "indexed": true,
          "name": "bridge",
          "type": "address"
        }
      ],
      "name": "BridgeTokenRewardAdded",
      "type": "event"
    }
  ],
  "bytecode": {
    "object": "0x608060405260006002556000600355600060065534801561001f57600080fd5b50610b5d8061002f6000396000f3006080604052600436106100c95760003560e01c63ffffffff168063144fa6d7146100cb5780631db021c0146100ec578063222fafb21461011357806328214f7d1461012b5780632ee57f8d1461014357806345c651ed1461018d578063553a5c85146101ad57806362178478146101c257806369e15404146101da578063aa9fa274146101ef578063b048e05614610213578063b4a523e814610247578063b863bd3714610268578063d2f240a814610280578063faaf3aff146102a4578063fc0c546a146102b9575b005b3480156100d757600080fd5b506100c9600160a060020a03600435166102ce565b3480156100f857600080fd5b506101016102fd565b60408051918252519081900360200190f35b34801561011f57600080fd5b506100c9600435610303565b34801561013757600080fd5b50610101600435610439565b34801561014f57600080fd5b50610158610458565b604080517fffffffff000000000000000000000000000000000000000000000000000000009092168252519081900360200190f35b34801561019957600080fd5b506100c9600480356024810191013561048e565b3480156101b957600080fd5b5061010161049f565b3480156101ce57600080fd5b506100c96004356104a5565b3480156101e657600080fd5b506101016106e4565b3480156101fb57600080fd5b506100c9600435600160a060020a03602435166106ea565b34801561021f57600080fd5b5061022b6004356107ce565b60408051600160a060020a039092168252519081900360200190f35b34801561025357600080fd5b50610101600160a060020a03600435166107f6565b34801561027457600080fd5b506101016004356108b9565b34801561028c57600080fd5b506100c9600435600160a060020a03602435166108e1565b3480156102b057600080fd5b506101016109bb565b3480156102c557600080fd5b5061022b6109c1565b6005805473ffffffffffffffffffffffffffffffffffffffff1916600160a060020a0392909216919091179055565b60025481565b600381905560008054819081908190819061032590879063ffffffff6109d016565b60005490955061034d9061034090879063ffffffff6109e716565b879063ffffffff610a1016565b9250600083111561036757600054610364906108b9565b93505b600091505b60005482101561043157508360008311801561038757508184145b1561039f5761039c818463ffffffff610a2216565b90505b30600160a060020a031663aa9fa274826000858154811015156103be57fe5b60009182526020822001546040805163ffffffff861660e01b81526004810194909452600160a060020a0390911660248401525160448084019382900301818387803b15801561040d57600080fd5b505af1158015610421573d6000803e3d6000fd5b50506001909301925061036c9050565b505050505050565b600180548290811061044757fe5b600091825260209091200154905081565b604080517f626c6f636b5265776172640000000000000000000000000000000000000000008152905190819003600b0190205b90565b61049a60008383610a2f565b505050565b60025490565b6000808080808515156104b757600080fd5b6000546040805182815260208084028201019091529080156104e3578160200160208202803883390190505b5080516104f891600191602090910190610a9f565b50600386905560005461051290879063ffffffff6109d016565b60005490955061052d9061034090879063ffffffff6109e716565b9250600083111561054757600054610544906108b9565b93505b600091505b6000548210156105a657508360008311801561056757508184145b1561057f5761057c818463ffffffff610a2216565b90505b8060018381548110151561058f57fe5b60009182526020909120015560019091019061054c565b6006546105b9908763ffffffff610a2216565b6006819055604080518881526020810192909252805133927f412edf02d82089ccd9d6158ca78bb761a19c8f63a840cff791e4ad472bcaa0ac92908290030190a26005546040805160248082018a905282518083039091018152604490910182526020810180517bffffffffffffffffffffffffffffffffffffffffffffffffffffffff167f91c0aabf0000000000000000000000000000000000000000000000000000000017815291518151600160a060020a03909416939192909182919080838360005b8381101561069757818101518382015260200161067f565b50505050905090810190601f1680156106c45780820380516001836020036101000a031916815260200191505b509150506000604051808303816000865af1915050151561043157600080fd5b60035481565b600082116106f757600080fd5b600160a060020a038116151561070c57600080fd5b60025461071f908363ffffffff610a2216565b600255604080517fd2f240a8000000000000000000000000000000000000000000000000000000008152600481018490523360248201529051309163d2f240a891604480830192600092919082900301818387803b15801561078057600080fd5b505af1158015610794573d6000803e3d6000fd5b5050604051600160a060020a038416925084156108fc02915084906000818181858888f1935050505015801561049a573d6000803e3d6000fd5b60008054829081106107dc57fe5b600091825260209091200154600160a060020a0316905081565b604080517f6d696e746564546f74616c6c7942794272696467650000000000000000000000602080830191909152600160a060020a0384168284015282518083038401815260609092019283905281516000936004938593909282918401908083835b602083106108785780518252601f199092019160209182019101610859565b51815160209384036101000a600019018019909216911617905260408051929094018290039091208652850195909552929092016000205495945050505050565b6000816108cd43600163ffffffff610a1016565b4060001c8115156108da57fe5b0692915050565b604080517f6d696e746564546f74616c6c7942794272696467650000000000000000000000602080830191909152600160a060020a038416828401528251808303840181526060909201928390528151600093918291908401908083835b6020831061095e5780518252601f19909201916020918201910161093f565b51815160209384036101000a6000190180199092169116179052604080519290940182900390912060008181526004909252929020549194506109a79350909150859050610a22565b600091825260046020526040909120555050565b60065481565b600554600160a060020a031681565b600081838115156109dd57fe5b0490505b92915050565b60008215156109f8575060006109e1565b50818102818382811515610a0857fe5b04146109e157fe5b600082821115610a1c57fe5b50900390565b818101828110156109e157fe5b828054828255906000526020600020908101928215610a8f579160200282015b82811115610a8f57815473ffffffffffffffffffffffffffffffffffffffff1916600160a060020a03843516178255602090920191600190910190610a4f565b50610a9b929150610ae6565b5090565b828054828255906000526020600020908101928215610ada579160200282015b82811115610ada578251825591602001919060010190610abf565b50610a9b929150610b17565b61048b91905b80821115610a9b57805473ffffffffffffffffffffffffffffffffffffffff19168155600101610aec565b61048b91905b80821115610a9b5760008155600101610b1d5600a165627a7a72305820307db046f40b78bbc0f9dbd6176cc69bc9c073edab2f1e74686ef712cd371cac0029",
    "linkReferences": {}
  },
  "methodIdentifiers": {
    "addBridgeNativeRewardReceivers(uint256)": "222fafb2",
    "addBridgeTokenRewardReceivers(uint256)": "62178478",
    "addExtraReceiver(uint256,address)": "aa9fa274",
    "addMintedTotallyByBridge(uint256,address)": "d2f240a8",
    "blockRewardContractId()": "2ee57f8d",
    "bridgeTokenReward()": "faaf3aff",
    "feeAmount()": "69e15404",
    "mintedCoins()": "1db021c0",
    "mintedTotally()": "553a5c85",
    "mintedTotallyByBridge(address)": "b4a523e8",
    "random(uint256)": "b863bd37",
    "setToken(address)": "144fa6d7",
    "setValidatorsRewards(address[])": "45c651ed",
    "token()": "fc0c546a",
    "validatorList(uint256)": "b048e056",
    "validatorRewardList(uint256)": "28214f7d"
  },
  "id": 42
}