{
  "abi": [
    {
      "constant": true,
      "inputs": [
        {
          "name": "_data",
          "type": "bytes"
        }
      ],
      "name": "unpackData",
      "outputs": [
        {
          "name": "messageId",
          "type": "bytes32"
        },
        {
          "name": "sender",
          "type": "address"
        },
        {
          "name": "executor",
          "type": "address"
        },
        {
          "name": "gasLimit",
          "type": "uint32"
        },
        {
          "name": "dataType",
          "type": "uint8"
        },
        {
          "name": "chainIds",
          "type": "uint256[2]"
        },
        {
          "name": "data",
          "type": "bytes"
        }
      ],
      "payable": false,
      "stateMutability": "pure",
      "type": "function"
    },
    {
      "constant": true,
      "inputs": [
        {
          "name": "_data",
          "type": "bytes"
        },
        {
          "name": "",
          "type": "bytes"
        }
      ],
      "name": "unpackDataWithExtraParams",
      "outputs": [
        {
          "name": "messageId",
          "type": "bytes32"
        },
        {
          "name": "sender",
          "type": "address"
        },
        {
          "name": "executor",
          "type": "address"
        },
        {
          "name": "gasLimit",
          "type": "uint32"
        },
        {
          "name": "dataType",
          "type": "uint8"
        },
        {
          "name": "chainIds",
          "type": "uint256[2]"
        },
        {
          "name": "data",
          "type": "bytes"
        }
      ],
      "payable": false,
      "stateMutability": "pure",
      "type": "function"
    }
  ],
  "bytecode": {
    "object": "0x608060405234801561001057600080fd5b506103a3806100206000396000f30060806040526004361061002f5760003560e01c63ffffffff1680633bc6606f146100345780637651099714610173575b600080fd5b34801561004057600080fd5b506040805160206004803580820135601f810184900484028501840190955284845261008d94369492936024939284019190819084018382808284375094975061020a9650505050505050565b6040805188815273ffffffffffffffffffffffffffffffffffffffff808916602083015287168183015263ffffffff8616606082015260ff851660808201529060a0820190849080838360005b838110156100f25781810151838201526020016100da565b5050505090500180602001828103825283818151815260200191508051906020019080838360005b8381101561013257818101518382015260200161011a565b50505050905090810190601f16801561015f5780820380516001836020036101000a031916815260200191505b509850505050505050505060405180910390f35b34801561017f57600080fd5b506040805160206004803580820135601f810184900484028501840190955284845261008d94369492936024939284019190819084018382808284375050604080516020601f89358b018035918201839004830284018301909452808352979a99988101979196509182019450925082915084018382808284375094975061023c9650505050505050565b600080600080600061021a61035c565b60606102258861026f565b959e949d50929b5090995097509550909350915050565b600080600080600061024c61035c565b60606102578961026f565b959f949e50929c50909a509850965090945092505050565b600080600080600061027f61035c565b6060600080604f915060208a0151985073ffffffffffffffffffffffffffffffffffffffff60348b015116975060548a01518060601c975063ffffffff8160401c16965080601a1a95508060181a6001808260031b1b03818501945080858e01511687528260191a91506001808360031b1b039050818501945080858e0151166020880152848d51039350505050806040519080825280601f01601f19166020018201604052801561033b578160200160208202803883390190505b50925060248201915080826004350160208501375050919395979092949650565b604080518082018252906002908290803883395091929150505600a165627a7a723058206048ec96281bf2536d62688108cf6402e4c88df1762a2fcf1a141f6670f681040029",
    "linkReferences": {}
  },
  "methodIdentifiers": {
    "unpackData(bytes)": "3bc6606f",
    "unpackDataWithExtraParams(bytes,bytes)": "76510997"
  },
  "id": 53
}