{
  "abi": [
    {
      "constant": false,
      "inputs": [
        {
          "name": "_fee",
          "type": "uint256"
        }
      ],
      "name": "setForeignFee",
      "outputs": [],
      "payable": false,
      "stateMutability": "nonpayable",
      "type": "function"
    },
    {
      "constant": false,
      "inputs": [
        {
          "name": "_fee",
          "type": "uint256"
        }
      ],
      "name": "setHomeFee",
      "outputs": [],
      "payable": false,
      "stateMutability": "nonpayable",
      "type": "function"
    },
    {
      "constant": false,
      "inputs": [
        {
          "name": "_feeManager",
          "type": "address"
        }
      ],
      "name": "setFeeManagerContract",
      "outputs": [],
      "payable": false,
      "stateMutability": "nonpayable",
      "type": "function"
    },
    {
      "constant": true,
      "inputs": [],
      "name": "owner",
      "outputs": [
        {
          "name": "",
          "type": "address"
        }
      ],
      "payable": false,
      "stateMutability": "view",
      "type": "function"
    },
    {
      "constant": true,
      "inputs": [
        {
          "name": "_value",
          "type": "uint256"
        }
      ],
      "name": "getAmountToBurn",
      "outputs": [
        {
          "name": "amount",
          "type": "uint256"
        }
      ],
      "payable": false,
      "stateMutability": "view",
      "type": "function"
    },
    {
      "constant": true,
      "inputs": [],
      "name": "getHomeFee",
      "outputs": [
        {
          "name": "",
          "type": "uint256"
        }
      ],
      "payable": false,
      "stateMutability": "view",
      "type": "function"
    },
    {
      "constant": true,
      "inputs": [],
      "name": "feeManagerContract",
      "outputs": [
        {
          "name": "",
          "type": "address"
        }
      ],
      "payable": false,
      "stateMutability": "view",
      "type": "function"
    },
    {
      "constant": true,
      "inputs": [],
      "name": "getFeeManagerMode",
      "outputs": [
        {
          "name": "mode",
          "type": "bytes4"
        }
      ],
      "payable": false,
      "stateMutability": "view",
      "type": "function"
    },
    {
      "constant": false,
      "inputs": [
        {
          "name": "newOwner",
          "type": "address"
        }
      ],
      "name": "transferOwnership",
      "outputs": [],
      "payable": false,
      "stateMutability": "nonpayable",
      "type": "function"
    },
    {
      "constant": true,
      "inputs": [],
      "name": "getForeignFee",
      "outputs": [
        {
          "name": "",
          "type": "uint256"
        }
      ],
      "payable": false,
      "stateMutability": "view",
      "type": "function"
    },
    {
      "anonymous": false,
      "inputs": [
        {
          "indexed": false,
          "name": "feeAmount",
          "type": "uint256"
        },
        {
          "indexed": true,
          "name": "transactionHash",
          "type": "bytes32"
        }
      ],
      "name": "FeeDistributedFromAffirmation",
      "type": "event"
    },
    {
      "anonymous": false,
      "inputs": [
        {
          "indexed": false,
          "name": "feeAmount",
          "type": "uint256"
        },
        {
          "indexed": true,
          "name": "transactionHash",
          "type": "bytes32"
        }
      ],
      "name": "FeeDistributedFromSignatures",
      "type": "event"
    },
    {
      "anonymous": false,
      "inputs": [
        {
          "indexed": false,
          "name": "previousOwner",
          "type": "address"
        },
        {
          "indexed": false,
          "name": "newOwner",
          "type": "address"
        }
      ],
      "name": "OwnershipTransferred",
      "type": "event"
    }
  ],
  "bytecode": {
    "object": "0x608060405234801561001057600080fd5b506108e8806100206000396000f3006080604052600436106100875760003560e01c63ffffffff168063286c40661461008c57806334a9e148146100a657806360756f7c146100be5780638da5cb5b146100df578063916850e91461011057806394da17cd1461013a578063dbe03a8b1461014f578063f2ba956114610164578063f2fde38b146101ab578063ffd66196146101cc575b600080fd5b34801561009857600080fd5b506100a46004356101e1565b005b3480156100b257600080fd5b506100a4600435610220565b3480156100ca57600080fd5b506100a4600160a060020a036004351661025c565b3480156100eb57600080fd5b506100f4610314565b60408051600160a060020a039092168252519081900360200190f35b34801561011c57600080fd5b5061012860043561036b565b60408051918252519081900360200190f35b34801561014657600080fd5b506101286103f9565b34801561015b57600080fd5b506100f4610417565b34801561017057600080fd5b5061017961046e565b604080517bffffffffffffffffffffffffffffffffffffffffffffffffffffffff199092168252519081900360200190f35b3480156101b757600080fd5b506100a4600160a060020a03600435166104e4565b3480156101d857600080fd5b50610128610509565b6101e9610314565b600160a060020a031633146101fd57600080fd5b61021d610208610417565b8260008051602061087d833981519152610522565b50565b610228610314565b600160a060020a0316331461023c57600080fd5b61021d610247610417565b8260008051602061089d833981519152610522565b610264610314565b600160a060020a0316331461027857600080fd5b600160a060020a038116158061029257506102928161068e565b151561029d57600080fd5b7f779a349c5bee7817f04c960f525ee3e2f2516078c38c68a3149787976ee837e560005260026020527fc155b21a14c4592b97825e495fbe0d2705fb46420018cac5bfa7a09c43fae517805473ffffffffffffffffffffffffffffffffffffffff1916600160a060020a0392909216919091179055565b7f02016836a56b71f0d02689e69e326f4f4c1b9057164ef592671cf0d37c8040c060005260026020527fb7802e97e87ef2842a6cce7da7ffaeaedaa2f61a6a7870b23d9d01fc9b73712e54600160a060020a031690565b604080516024808201849052825180830390910181526044909101909152602081018051600160e060020a03167f916850e900000000000000000000000000000000000000000000000000000000179052600090816103c8610417565b9050602060008351602085016000855af28060203d1416600181146103ec57600080fd5b5050600051949350505050565b600061041260008051602061089d833981519152610696565b905090565b7f779a349c5bee7817f04c960f525ee3e2f2516078c38c68a3149787976ee837e560005260026020527fc155b21a14c4592b97825e495fbe0d2705fb46420018cac5bfa7a09c43fae51754600160a060020a031690565b604080516004815260248101909152602081018051600160e060020a03167ff2ba956100000000000000000000000000000000000000000000000000000000179052600090816104bc610417565b9050600460008351602085016000855af28060203d1416156104de5760005193505b50505090565b6104ec610314565b600160a060020a0316331461050057600080fd5b61021d816107a5565b600061041260008051602061087d833981519152610696565b60008160008051602061089d83398151915281148061054e575060008051602061087d83398151915281145b151561055957600080fd5b60008051602061089d8339815191528314610594577f286c4066000000000000000000000000000000000000000000000000000000006105b6565b7f34a9e148000000000000000000000000000000000000000000000000000000005b6040805160248082018890528251808303909101815260449091018252602081018051600160e060020a03167bffffffffffffffffffffffffffffffffffffffffffffffffffffffff19851617815291518151939550600160a060020a038916939192909182919080838360005b8381101561063c578181015183820152602001610624565b50505050905090810190601f1680156106695780820380516001836020036101000a031916815260200191505b50915050600060405180830381855af4915050151561068757600080fd5b5050505050565b6000903b1190565b6000808060608460008051602061089d8339815191528114806106c6575060008051602061087d83398151915281145b15156106d157600080fd5b6106d9610417565b935060008051602061089d8339815191528614610716577fffd6619600000000000000000000000000000000000000000000000000000000610738565b7f94da17cd000000000000000000000000000000000000000000000000000000005b60408051600481526024810190915260208082018051600160e060020a03167bffffffffffffffffffffffffffffffffffffffffffffffffffffffff19851617815282519396509194509160009182885af28060203d14161561079b5760005195505b5050505050919050565b600160a060020a03811615156107ba57600080fd5b7f8be0079c531659141344cd1fd0a4f28419497f9722a3daafe3b4186f6b6457e06107e3610314565b60408051600160a060020a03928316815291841660208301528051918290030190a17f02016836a56b71f0d02689e69e326f4f4c1b9057164ef592671cf0d37c8040c060005260026020527fb7802e97e87ef2842a6cce7da7ffaeaedaa2f61a6a7870b23d9d01fc9b73712e805473ffffffffffffffffffffffffffffffffffffffff1916600160a060020a03929092169190911790555600deb7f3adca07d6d1f708c1774389db532a2b2f18fd05a62b957e4089f4696ed589d93e5e92f7e37e490c25f0e50f7f4aad7cc94b308a566553280967be38bcf1a165627a7a723058203b2ae09674b07464120b91191e3525eefce6a112331a27af3f62b5a9d2a2f4f80029",
    "linkReferences": {}
  },
  "methodIdentifiers": {
    "feeManagerContract()": "dbe03a8b",
    "getAmountToBurn(uint256)": "916850e9",
    "getFeeManagerMode()": "f2ba9561",
    "getForeignFee()": "ffd66196",
    "getHomeFee()": "94da17cd",
    "owner()": "8da5cb5b",
    "setFeeManagerContract(address)": "60756f7c",
    "setForeignFee(uint256)": "286c4066",
    "setHomeFee(uint256)": "34a9e148",
    "transferOwnership(address)": "f2fde38b"
  },
  "id": 128
}