{
  "abi": [
    {
      "constant": false,
      "inputs": [
        {
          "name": "_fee",
          "type": "uint256"
        }
      ],
      "name": "distributeFeeFromAffirmation",
      "outputs": [],
      "payable": false,
      "stateMutability": "nonpayable",
      "type": "function"
    },
    {
      "constant": false,
      "inputs": [
        {
          "name": "_fee",
          "type": "uint256"
        }
      ],
      "name": "setForeignFee",
      "outputs": [],
      "payable": false,
      "stateMutability": "nonpayable",
      "type": "function"
    },
    {
      "constant": false,
      "inputs": [
        {
          "name": "_fee",
          "type": "uint256"
        }
      ],
      "name": "setHomeFee",
      "outputs": [],
      "payable": false,
      "stateMutability": "nonpayable",
      "type": "function"
    },
    {
      "constant": false,
      "inputs": [
        {
          "name": "_fee",
          "type": "uint256"
        }
      ],
      "name": "distributeFeeFromSignatures",
      "outputs": [],
      "payable": false,
      "stateMutability": "nonpayable",
      "type": "function"
    },
    {
      "constant": true,
      "inputs": [
        {
          "name": "_value",
          "type": "uint256"
        }
      ],
      "name": "getAmountToBurn",
      "outputs": [
        {
          "name": "",
          "type": "uint256"
        }
      ],
      "payable": false,
      "stateMutability": "view",
      "type": "function"
    },
    {
      "constant": true,
      "inputs": [],
      "name": "getHomeFee",
      "outputs": [
        {
          "name": "",
          "type": "uint256"
        }
      ],
      "payable": false,
      "stateMutability": "view",
      "type": "function"
    },
    {
      "constant": true,
      "inputs": [
        {
          "name": "_value",
          "type": "uint256"
        },
        {
          "name": "_recover",
          "type": "bool"
        },
        {
          "name": "_feeType",
          "type": "bytes32"
        }
      ],
      "name": "calculateFee",
      "outputs": [
        {
          "name": "",
          "type": "uint256"
        }
      ],
      "payable": false,
      "stateMutability": "view",
      "type": "function"
    },
    {
      "constant": true,
      "inputs": [],
      "name": "getFeeManagerMode",
      "outputs": [
        {
          "name": "",
          "type": "bytes4"
        }
      ],
      "payable": false,
      "stateMutability": "pure",
      "type": "function"
    },
    {
      "constant": true,
      "inputs": [],
      "name": "getForeignFee",
      "outputs": [
        {
          "name": "",
          "type": "uint256"
        }
      ],
      "payable": false,
      "stateMutability": "view",
      "type": "function"
    },
    {
      "anonymous": false,
      "inputs": [
        {
          "indexed": false,
          "name": "fee",
          "type": "uint256"
        }
      ],
      "name": "HomeFeeUpdated",
      "type": "event"
    },
    {
      "anonymous": false,
      "inputs": [
        {
          "indexed": false,
          "name": "fee",
          "type": "uint256"
        }
      ],
      "name": "ForeignFeeUpdated",
      "type": "event"
    }
  ],
  "bytecode": {
    "object": "0x608060405234801561001057600080fd5b506105f8806100206000396000f30060806040526004361061007c5760003560e01c63ffffffff168063054d46ec14610081578063286c40661461009b57806334a9e148146100b357806359d7846414610081578063916850e9146100cb57806394da17cd146100f55780639862f26f1461010a578063f2ba95611461012a578063ffd6619614610174575b600080fd5b34801561008d57600080fd5b50610099600435610189565b005b3480156100a757600080fd5b50610099600435610195565b3480156100bf57600080fd5b50610099600435610231565b3480156100d757600080fd5b506100e36004356102cd565b60408051918252519081900360200190f35b34801561010157600080fd5b506100e36102d0565b34801561011657600080fd5b506100e3600435602435151560443561031e565b34801561013657600080fd5b5061013f610425565b604080517fffffffff000000000000000000000000000000000000000000000000000000009092168252519081900360200190f35b34801561018057600080fd5b506100e3610449565b61019281610497565b50565b80670de0b6b3a764000081106101aa57600080fd5b7f68c305f6c823f4d2fa4140f9cf28d32a1faccf9b8081ff1c2de11cf32c733efc600090815260209081527ffc8184861980b909b08b1c0a3bc8f07d63e2a591b0ee38baf91ff70732f793a48390556040805184815290517fa1bb1f345e2d0374ec182de8bb6e574798f6b4b3e89046d75c479d7d5620c216929181900390910190a15050565b80670de0b6b3a7640000811061024657600080fd5b7fc3781f3cec62d28f56efe98358f59c2105504b194242dbcb2cc0806850c306e7600090815260209081527f1d18a249ebed58dc38c0390af3a90c7c1c247e1be783f19d84a8f7c82cd2a4ba8390556040805184815290517f64afb51b44460415972849f8c01723cf624c005cbadf1024a2d8568694b73ac1929181900390910190a15050565b90565b7fc3781f3cec62d28f56efe98358f59c2105504b194242dbcb2cc0806850c306e760009081526020527f1d18a249ebed58dc38c0390af3a90c7c1c247e1be783f19d84a8f7c82cd2a4ba5490565b600080827f89d93e5e92f7e37e490c25f0e50f7f4aad7cc94b308a566553280967be38bcf181148061036f57507fdeb7f3adca07d6d1f708c1774389db532a2b2f18fd05a62b957e4089f4696ed581145b151561037a57600080fd5b7f89d93e5e92f7e37e490c25f0e50f7f4aad7cc94b308a566553280967be38bcf184146103ae576103a9610449565b6103b6565b6103b66102d0565b91508415156103ee576103e7670de0b6b3a76400006103db888563ffffffff61051216565b9063ffffffff61054116565b925061041c565b610419610409670de0b6b3a76400008463ffffffff61055616565b6103db888563ffffffff61051216565b92505b50509392505050565b7fd7de965f0000000000000000000000000000000000000000000000000000000090565b7f68c305f6c823f4d2fa4140f9cf28d32a1faccf9b8081ff1c2de11cf32c733efc60009081526020527ffc8184861980b909b08b1c0a3bc8f07d63e2a591b0ee38baf91ff70732f793a45490565b60006104a1610568565b90508073ffffffffffffffffffffffffffffffffffffffff1663222fafb2836040518263ffffffff1660e01b815260040180828152602001915050600060405180830381600087803b1580156104f657600080fd5b505af115801561050a573d6000803e3d6000fd5b505050505050565b60008215156105235750600061053b565b5081810281838281151561053357fe5b041461053b57fe5b92915050565b6000818381151561054e57fe5b049392505050565b60008282111561056257fe5b50900390565b7f20ae0b8a761b32f3124efb075f427dd6ca669e88ae7747fec9fd1ad688699f3260005260026020527fd76793c705b076d97d490f0c1e5a620caae2c4973213dc37ef69a1be2a5ec0705473ffffffffffffffffffffffffffffffffffffffff16905600a165627a7a7230582065e04eff5de164a8d4c7157bb6db8da558df38a28a5dbf147e687a68fe5708380029",
    "linkReferences": {}
  },
  "methodIdentifiers": {
    "calculateFee(uint256,bool,bytes32)": "9862f26f",
    "distributeFeeFromAffirmation(uint256)": "054d46ec",
    "distributeFeeFromSignatures(uint256)": "59d78464",
    "getAmountToBurn(uint256)": "916850e9",
    "getFeeManagerMode()": "f2ba9561",
    "getForeignFee()": "ffd66196",
    "getHomeFee()": "94da17cd",
    "setForeignFee(uint256)": "286c4066",
    "setHomeFee(uint256)": "34a9e148"
  },
  "id": 124
}