{
  "abi": [
    {
      "constant": true,
      "inputs": [],
      "name": "ambBridge",
      "outputs": [
        {
          "name": "",
          "type": "address"
        }
      ],
      "payable": false,
      "stateMutability": "view",
      "type": "function"
    },
    {
      "constant": true,
      "inputs": [
        {
          "name": "_message",
          "type": "bytes"
        }
      ],
      "name": "getSignatures",
      "outputs": [
        {
          "name": "",
          "type": "bytes"
        }
      ],
      "payable": false,
      "stateMutability": "view",
      "type": "function"
    },
    {
      "constant": true,
      "inputs": [],
      "name": "owner",
      "outputs": [
        {
          "name": "",
          "type": "address"
        }
      ],
      "payable": false,
      "stateMutability": "view",
      "type": "function"
    },
    {
      "constant": false,
      "inputs": [],
      "name": "clean",
      "outputs": [],
      "payable": false,
      "stateMutability": "nonpayable",
      "type": "function"
    },
    {
      "inputs": [
        {
          "name": "_homeBridge",
          "type": "address"
        }
      ],
      "payable": false,
      "stateMutability": "nonpayable",
      "type": "constructor"
    }
  ],
  "bytecode": {
    "object": "0x608060405234801561001057600080fd5b50604051602080610677833981016040525160008054600160a060020a0319908116331790915560018054600160a060020a03909316929091169190911790556106188061005f6000396000f3006080604052600436106100455760003560e01c63ffffffff1680630ba54df61461004a5780636b45b4e31461007b5780638da5cb5b14610110578063fc4333cd14610125575b600080fd5b34801561005657600080fd5b5061005f61013c565b60408051600160a060020a039092168252519081900360200190f35b34801561008757600080fd5b5061009b600480356024810191013561014b565b6040805160208082528351818301528351919283929083019185019080838360005b838110156100d55781810151838201526020016100bd565b50505050905090810190601f1680156101025780820380516001836020036101000a031916815260200191505b509250505060405180910390f35b34801561011c57600080fd5b5061005f61052a565b34801561013157600080fd5b5061013a610539565b005b600154600160a060020a031681565b606060008060606000606060008060008a8a604051602001808383808284378201915050925050506040516020818303038152906040526040518082805190602001908083835b602083106101b15780518252601f199092019160209182019101610192565b51815160209384036101000a6000190180199092169116179052604080519290940182900382206001547f0cbf0601000000000000000000000000000000000000000000000000000000008452600484018290529451909e50600160a060020a039094169550630cbf0601945060248083019491935090918290030181600087803b15801561023f57600080fd5b505af1158015610253573d6000803e3d6000fd5b505050506040513d602081101561026957600080fd5b5051600154604080517fffd19e8c000000000000000000000000000000000000000000000000000000008152600481018490529051929950600160a060020a039091169163ffd19e8c916024808201926020929091908290030181600087803b1580156102d557600080fd5b505af11580156102e9573d6000803e3d6000fd5b505050506040513d60208110156102ff57600080fd5b5051151561036e57604080517f08c379a000000000000000000000000000000000000000000000000000000000815260206004820152601d60248201527f6d657373616765206861736e2774206265656e20636f6e6669726d6564000000604482015290519081900360640190fd5b758fffffffffffffffffffffffffffffffffffffffffff90961695610100871061039757600080fd5b866041026001016040519080825280601f01601f1916602001820160405280156103cb578160200160208202803883390190505b509550866020870153600094505b8685101561051b57600154604080517f1812d996000000000000000000000000000000000000000000000000000000008152600481018b9052602481018890529051600160a060020a0390921691631812d9969160448082019260009290919082900301818387803b15801561044e57600080fd5b505af1158015610462573d6000803e3d6000fd5b505050506040513d6000823e601f3d908101601f19168201604052602081101561048b57600080fd5b8101908080516401000000008111156104a357600080fd5b820160208101848111156104b657600080fd5b81516401000000008111828201871017156104d057600080fd5b505092919050505093506104e3846105c0565b9250925092508085602188010153826020860288602189010101528160208602602189026021890101015284806001019550506103d9565b50939998505050505050505050565b600054600160a060020a031681565b600054600160a060020a031633146105b257604080517f08c379a000000000000000000000000000000000000000000000000000000000815260206004820152600c60248201527f6e6f7420616e206f776e65720000000000000000000000000000000000000000604482015290519081900360640190fd5b600054600160a060020a0316ff5b6000806000835160411415156105d557600080fd5b5050506020810151604082015160419092015190925600a165627a7a723058202709c74bc46b4d1c5b3cc9b226e75d75d5fdd9f617625750476c335539021db10029",
    "linkReferences": {}
  },
  "methodIdentifiers": {
    "ambBridge()": "0ba54df6",
    "clean()": "fc4333cd",
    "getSignatures(bytes)": "6b45b4e3",
    "owner()": "8da5cb5b"
  },
  "id": 17
}