{
  "abi": [
    {
      "constant": true,
      "inputs": [],
      "name": "totalSupply",
      "outputs": [
        {
          "name": "",
          "type": "uint256"
        }
      ],
      "payable": false,
      "stateMutability": "view",
      "type": "function"
    },
    {
      "constant": false,
      "inputs": [
        {
          "name": "_to",
          "type": "address"
        },
        {
          "name": "_amount",
          "type": "uint256"
        }
      ],
      "name": "mint",
      "outputs": [
        {
          "name": "",
          "type": "bool"
        }
      ],
      "payable": false,
      "stateMutability": "nonpayable",
      "type": "function"
    },
    {
      "constant": true,
      "inputs": [
        {
          "name": "_owner",
          "type": "address"
        }
      ],
      "name": "balanceOf",
      "outputs": [
        {
          "name": "",
          "type": "uint256"
        }
      ],
      "payable": false,
      "stateMutability": "view",
      "type": "function"
    },
    {
      "constant": false,
      "inputs": [
        {
          "name": "_to",
          "type": "address"
        },
        {
          "name": "_value",
          "type": "uint256"
        }
      ],
      "name": "transfer",
      "outputs": [],
      "payable": false,
      "stateMutability": "nonpayable",
      "type": "function"
    },
    {
      "anonymous": false,
      "inputs": [
        {
          "indexed": true,
          "name": "from",
          "type": "address"
        },
        {
          "indexed": true,
          "name": "to",
          "type": "address"
        },
        {
          "indexed": false,
          "name": "value",
          "type": "uint256"
        }
      ],
      "name": "Transfer",
      "type": "event"
    }
  ],
  "bytecode": {
    "object": "0x608060405234801561001057600080fd5b506102d9806100206000396000f3006080604052600436106100455760003560e01c63ffffffff16806318160ddd1461004a57806340c10f191461007157806370a08231146100a9578063a9059cbb146100ca575b600080fd5b34801561005657600080fd5b5061005f6100f0565b60408051918252519081900360200190f35b34801561007d57600080fd5b50610095600160a060020a03600435166024356100f6565b604080519115158252519081900360200190f35b3480156100b557600080fd5b5061005f600160a060020a0360043516610193565b3480156100d657600080fd5b506100ee600160a060020a03600435166024356101ae565b005b60015490565b60015460009061010c908363ffffffff61028816565b600155600160a060020a038316600090815260208190526040902054610138908363ffffffff61028816565b600160a060020a0384166000818152602081815260408083209490945583518681529351929391927fddf252ad1be2c89b69c2b068fc378daa952ba7f163c4a11628f55a4df523b3ef9281900390910190a350600192915050565b600160a060020a031660009081526020819052604090205490565b336000908152602081905260409020548111156101ca57600080fd5b600160a060020a03821615156101df57600080fd5b336000908152602081905260409020546101ff908263ffffffff61029b16565b3360009081526020819052604080822092909255600160a060020a03841681522054610231908263ffffffff61028816565b600160a060020a038316600081815260208181526040918290209390935580518481529051919233927fddf252ad1be2c89b69c2b068fc378daa952ba7f163c4a11628f55a4df523b3ef9281900390910190a35050565b8181018281101561029557fe5b92915050565b6000828211156102a757fe5b509003905600a165627a7a723058205687ff5e5acbeff619e499bc998cbe6d42de3a05183ac929948daec32d3fd93f0029",
    "linkReferences": {}
  },
  "methodIdentifiers": {
    "balanceOf(address)": "70a08231",
    "mint(address,uint256)": "40c10f19",
    "totalSupply()": "18160ddd",
    "transfer(address,uint256)": "a9059cbb"
  },
  "id": 55
}