{
  "abi": [
    {
      "constant": false,
      "inputs": [
        {
          "name": "_receiver",
          "type": "address"
        },
        {
          "name": "_amount",
          "type": "uint256"
        }
      ],
      "name": "relayTokens",
      "outputs": [],
      "payable": false,
      "stateMutability": "nonpayable",
      "type": "function"
    },
    {
      "constant": false,
      "inputs": [
        {
          "name": "_token",
          "type": "address"
        }
      ],
      "name": "invest",
      "outputs": [],
      "payable": false,
      "stateMutability": "nonpayable",
      "type": "function"
    },
    {
      "constant": false,
      "inputs": [],
      "name": "refillBridge",
      "outputs": [],
      "payable": false,
      "stateMutability": "nonpayable",
      "type": "function"
    },
    {
      "constant": true,
      "inputs": [],
      "name": "erc20token",
      "outputs": [
        {
          "name": "",
          "type": "address"
        }
      ],
      "payable": false,
      "stateMutability": "view",
      "type": "function"
    },
    {
      "constant": false,
      "inputs": [
        {
          "name": "message",
          "type": "bytes"
        },
        {
          "name": "signatures",
          "type": "bytes"
        },
        {
          "name": "maxTokensFee",
          "type": "uint256"
        }
      ],
      "name": "executeSignaturesGSN",
      "outputs": [],
      "payable": false,
      "stateMutability": "nonpayable",
      "type": "function"
    },
    {
      "constant": true,
      "inputs": [
        {
          "name": "_txHash",
          "type": "bytes32"
        }
      ],
      "name": "relayedMessages",
      "outputs": [
        {
          "name": "",
          "type": "bool"
        }
      ],
      "payable": false,
      "stateMutability": "view",
      "type": "function"
    },
    {
      "constant": true,
      "inputs": [
        {
          "name": "_day",
          "type": "uint256"
        }
      ],
      "name": "totalSpentPerDay",
      "outputs": [
        {
          "name": "",
          "type": "uint256"
        }
      ],
      "payable": false,
      "stateMutability": "view",
      "type": "function"
    },
    {
      "constant": true,
      "inputs": [],
      "name": "sDaiToken",
      "outputs": [
        {
          "name": "",
          "type": "address"
        }
      ],
      "payable": false,
      "stateMutability": "pure",
      "type": "function"
    },
    {
      "constant": true,
      "inputs": [],
      "name": "isInitialized",
      "outputs": [
        {
          "name": "",
          "type": "bool"
        }
      ],
      "payable": false,
      "stateMutability": "view",
      "type": "function"
    },
    {
      "constant": false,
      "inputs": [
        {
          "name": "_dailyLimit",
          "type": "uint256"
        }
      ],
      "name": "setExecutionDailyLimit",
      "outputs": [],
      "payable": false,
      "stateMutability": "nonpayable",
      "type": "function"
    },
    {
      "constant": true,
      "inputs": [],
      "name": "getCurrentDay",
      "outputs": [
        {
          "name": "",
          "type": "uint256"
        }
      ],
      "payable": false,
      "stateMutability": "view",
      "type": "function"
    },
    {
      "constant": true,
      "inputs": [],
      "name": "requiredBlockConfirmations",
      "outputs": [
        {
          "name": "",
          "type": "uint256"
        }
      ],
      "payable": false,
      "stateMutability": "view",
      "type": "function"
    },
    {
      "constant": false,
      "inputs": [
        {
          "name": "message",
          "type": "bytes"
        },
        {
          "name": "signatures",
          "type": "bytes"
        }
      ],
      "name": "executeSignatures",
      "outputs": [],
      "payable": false,
      "stateMutability": "nonpayable",
      "type": "function"
    },
    {
      "constant": true,
      "inputs": [],
      "name": "getBridgeMode",
      "outputs": [
        {
          "name": "_data",
          "type": "bytes4"
        }
      ],
      "payable": false,
      "stateMutability": "pure",
      "type": "function"
    },
    {
      "constant": true,
      "inputs": [],
      "name": "executionDailyLimit",
      "outputs": [
        {
          "name": "",
          "type": "uint256"
        }
      ],
      "payable": false,
      "stateMutability": "view",
      "type": "function"
    },
    {
      "constant": true,
      "inputs": [
        {
          "name": "_token",
          "type": "address"
        }
      ],
      "name": "minInterestPaid",
      "outputs": [
        {
          "name": "",
          "type": "uint256"
        }
      ],
      "payable": false,
      "stateMutability": "view",
      "type": "function"
    },
    {
      "constant": true,
      "inputs": [],
      "name": "versionRecipient",
      "outputs": [
        {
          "name": "",
          "type": "string"
        }
      ],
      "payable": false,
      "stateMutability": "view",
      "type": "function"
    },
    {
      "constant": true,
      "inputs": [
        {
          "name": "_day",
          "type": "uint256"
        }
      ],
      "name": "totalExecutedPerDay",
      "outputs": [
        {
          "name": "",
          "type": "uint256"
        }
      ],
      "payable": false,
      "stateMutability": "view",
      "type": "function"
    },
    {
      "constant": true,
      "inputs": [
        {
          "name": "_token",
          "type": "address"
        }
      ],
      "name": "minCashThreshold",
      "outputs": [
        {
          "name": "",
          "type": "uint256"
        }
      ],
      "payable": false,
      "stateMutability": "view",
      "type": "function"
    },
    {
      "constant": true,
      "inputs": [
        {
          "name": "forwarder",
          "type": "address"
        }
      ],
      "name": "isTrustedForwarder",
      "outputs": [
        {
          "name": "",
          "type": "bool"
        }
      ],
      "payable": false,
      "stateMutability": "view",
      "type": "function"
    },
    {
      "constant": true,
      "inputs": [],
      "name": "dailyLimit",
      "outputs": [
        {
          "name": "",
          "type": "uint256"
        }
      ],
      "payable": false,
      "stateMutability": "view",
      "type": "function"
    },
    {
      "constant": false,
      "inputs": [
        {
          "name": "_token",
          "type": "address"
        },
        {
          "name": "_to",
          "type": "address"
        }
      ],
      "name": "claimTokens",
      "outputs": [],
      "payable": false,
      "stateMutability": "nonpayable",
      "type": "function"
    },
    {
      "constant": false,
      "inputs": [
        {
          "name": "_validatorContract",
          "type": "address"
        },
        {
          "name": "_erc20token",
          "type": "address"
        },
        {
          "name": "_requiredBlockConfirmations",
          "type": "uint256"
        },
        {
          "name": "_gasPrice",
          "type": "uint256"
        },
        {
          "name": "_dailyLimitMaxPerTxMinPerTxArray",
          "type": "uint256[3]"
        },
        {
          "name": "_homeDailyLimitHomeMaxPerTxArray",
          "type": "uint256[2]"
        },
        {
          "name": "_owner",
          "type": "address"
        },
        {
          "name": "_decimalShift",
          "type": "int256"
        },
        {
          "name": "_bridgeOnOtherSide",
          "type": "address"
        }
      ],
      "name": "initialize",
      "outputs": [
        {
          "name": "",
          "type": "bool"
        }
      ],
      "payable": false,
      "stateMutability": "nonpayable",
      "type": "function"
    },
    {
      "constant": false,
      "inputs": [],
      "name": "investDai",
      "outputs": [],
      "payable": false,
      "stateMutability": "nonpayable",
      "type": "function"
    },
    {
      "constant": false,
      "inputs": [
        {
          "name": "_paymaster",
          "type": "address"
        }
      ],
      "name": "setPayMaster",
      "outputs": [],
      "payable": false,
      "stateMutability": "nonpayable",
      "type": "function"
    },
    {
      "constant": true,
      "inputs": [
        {
          "name": "_amount",
          "type": "uint256"
        }
      ],
      "name": "withinExecutionLimit",
      "outputs": [
        {
          "name": "",
          "type": "bool"
        }
      ],
      "payable": false,
      "stateMutability": "view",
      "type": "function"
    },
    {
      "constant": true,
      "inputs": [],
      "name": "executionMaxPerTx",
      "outputs": [
        {
          "name": "",
          "type": "uint256"
        }
      ],
      "payable": false,
      "stateMutability": "view",
      "type": "function"
    },
    {
      "constant": true,
      "inputs": [],
      "name": "requiredSignatures",
      "outputs": [
        {
          "name": "",
          "type": "uint256"
        }
      ],
      "payable": false,
      "stateMutability": "view",
      "type": "function"
    },
    {
      "constant": true,
      "inputs": [],
      "name": "owner",
      "outputs": [
        {
          "name": "",
          "type": "address"
        }
      ],
      "payable": false,
      "stateMutability": "view",
      "type": "function"
    },
    {
      "constant": false,
      "inputs": [
        {
          "name": "_token",
          "type": "address"
        },
        {
          "name": "_receiver",
          "type": "address"
        }
      ],
      "name": "setInterestReceiver",
      "outputs": [],
      "payable": false,
      "stateMutability": "nonpayable",
      "type": "function"
    },
    {
      "constant": true,
      "inputs": [],
      "name": "maxAvailablePerTx",
      "outputs": [
        {
          "name": "",
          "type": "uint256"
        }
      ],
      "payable": false,
      "stateMutability": "view",
      "type": "function"
    },
    {
      "constant": true,
      "inputs": [],
      "name": "validatorContract",
      "outputs": [
        {
          "name": "",
          "type": "address"
        }
      ],
      "payable": false,
      "stateMutability": "view",
      "type": "function"
    },
    {
      "constant": true,
      "inputs": [],
      "name": "deployedAtBlock",
      "outputs": [
        {
          "name": "",
          "type": "uint256"
        }
      ],
      "payable": false,
      "stateMutability": "view",
      "type": "function"
    },
    {
      "constant": true,
      "inputs": [],
      "name": "getBridgeInterfacesVersion",
      "outputs": [
        {
          "name": "major",
          "type": "uint64"
        },
        {
          "name": "minor",
          "type": "uint64"
        },
        {
          "name": "patch",
          "type": "uint64"
        }
      ],
      "payable": false,
      "stateMutability": "pure",
      "type": "function"
    },
    {
      "constant": false,
      "inputs": [
        {
          "name": "_minPerTx",
          "type": "uint256"
        }
      ],
      "name": "setMinPerTx",
      "outputs": [],
      "payable": false,
      "stateMutability": "nonpayable",
      "type": "function"
    },
    {
      "constant": false,
      "inputs": [
        {
          "name": "_token",
          "type": "address"
        },
        {
          "name": "_minInterestPaid",
          "type": "uint256"
        }
      ],
      "name": "setMinInterestPaid",
      "outputs": [],
      "payable": false,
      "stateMutability": "nonpayable",
      "type": "function"
    },
    {
      "constant": false,
      "inputs": [
        {
          "name": "_token",
          "type": "address"
        },
        {
          "name": "_minCashThreshold",
          "type": "uint256"
        }
      ],
      "name": "setMinCashThreshold",
      "outputs": [],
      "payable": false,
      "stateMutability": "nonpayable",
      "type": "function"
    },
    {
      "constant": true,
      "inputs": [
        {
          "name": "_token",
          "type": "address"
        }
      ],
      "name": "interestReceiver",
      "outputs": [
        {
          "name": "",
          "type": "address"
        }
      ],
      "payable": false,
      "stateMutability": "view",
      "type": "function"
    },
    {
      "constant": false,
      "inputs": [
        {
          "name": "_blockConfirmations",
          "type": "uint256"
        }
      ],
      "name": "setRequiredBlockConfirmations",
      "outputs": [],
      "payable": false,
      "stateMutability": "nonpayable",
      "type": "function"
    },
    {
      "constant": false,
      "inputs": [
        {
          "name": "_dailyLimit",
          "type": "uint256"
        }
      ],
      "name": "setDailyLimit",
      "outputs": [],
      "payable": false,
      "stateMutability": "nonpayable",
      "type": "function"
    },
    {
      "constant": true,
      "inputs": [],
      "name": "daiToken",
      "outputs": [
        {
          "name": "",
          "type": "address"
        }
      ],
      "payable": false,
      "stateMutability": "pure",
      "type": "function"
    },
    {
      "constant": false,
      "inputs": [
        {
          "name": "_gasPrice",
          "type": "uint256"
        }
      ],
      "name": "setGasPrice",
      "outputs": [],
      "payable": false,
      "stateMutability": "nonpayable",
      "type": "function"
    },
    {
      "constant": false,
      "inputs": [
        {
          "name": "_maxPerTx",
          "type": "uint256"
        }
      ],
      "name": "setMaxPerTx",
      "outputs": [],
      "payable": false,
      "stateMutability": "nonpayable",
      "type": "function"
    },
    {
      "constant": true,
      "inputs": [
        {
          "name": "_token",
          "type": "address"
        }
      ],
      "name": "interestAmount",
      "outputs": [
        {
          "name": "",
          "type": "uint256"
        }
      ],
      "payable": false,
      "stateMutability": "view",
      "type": "function"
    },
    {
      "constant": false,
      "inputs": [
        {
          "name": "_token",
          "type": "address"
        },
        {
          "name": "_minCashThreshold",
          "type": "uint256"
        },
        {
          "name": "_minInterestPaid",
          "type": "uint256"
        },
        {
          "name": "_interestReceiver",
          "type": "address"
        }
      ],
      "name": "initializeInterest",
      "outputs": [],
      "payable": false,
      "stateMutability": "nonpayable",
      "type": "function"
    },
    {
      "constant": true,
      "inputs": [],
      "name": "getTrustedForwarder",
      "outputs": [
        {
          "name": "",
          "type": "address"
        }
      ],
      "payable": false,
      "stateMutability": "view",
      "type": "function"
    },
    {
      "constant": true,
      "inputs": [
        {
          "name": "_token",
          "type": "address"
        }
      ],
      "name": "investedAmount",
      "outputs": [
        {
          "name": "",
          "type": "uint256"
        }
      ],
      "payable": false,
      "stateMutability": "view",
      "type": "function"
    },
    {
      "constant": false,
      "inputs": [
        {
          "name": "_token",
          "type": "address"
        }
      ],
      "name": "payInterest",
      "outputs": [],
      "payable": false,
      "stateMutability": "nonpayable",
      "type": "function"
    },
    {
      "constant": true,
      "inputs": [
        {
          "name": "_token",
          "type": "address"
        }
      ],
      "name": "isInterestEnabled",
      "outputs": [
        {
          "name": "",
          "type": "bool"
        }
      ],
      "payable": false,
      "stateMutability": "view",
      "type": "function"
    },
    {
      "constant": false,
      "inputs": [
        {
          "name": "_trustedForwarder",
          "type": "address"
        }
      ],
      "name": "setTrustedForwarder",
      "outputs": [],
      "payable": false,
      "stateMutability": "nonpayable",
      "type": "function"
    },
    {
      "constant": true,
      "inputs": [],
      "name": "decimalShift",
      "outputs": [
        {
          "name": "",
          "type": "int256"
        }
      ],
      "payable": false,
      "stateMutability": "view",
      "type": "function"
    },
    {
      "constant": true,
      "inputs": [],
      "name": "minPerTx",
      "outputs": [
        {
          "name": "",
          "type": "uint256"
        }
      ],
      "payable": false,
      "stateMutability": "view",
      "type": "function"
    },
    {
      "constant": true,
      "inputs": [
        {
          "name": "_amount",
          "type": "uint256"
        }
      ],
      "name": "withinLimit",
      "outputs": [
        {
          "name": "",
          "type": "bool"
        }
      ],
      "payable": false,
      "stateMutability": "view",
      "type": "function"
    },
    {
      "constant": false,
      "inputs": [
        {
          "name": "_maxPerTx",
          "type": "uint256"
        }
      ],
      "name": "setExecutionMaxPerTx",
      "outputs": [],
      "payable": false,
      "stateMutability": "nonpayable",
      "type": "function"
    },
    {
      "constant": false,
      "inputs": [
        {
          "name": "newOwner",
          "type": "address"
        }
      ],
      "name": "transferOwnership",
      "outputs": [],
      "payable": false,
      "stateMutability": "nonpayable",
      "type": "function"
    },
    {
      "constant": false,
      "inputs": [
        {
          "name": "_token",
          "type": "address"
        }
      ],
      "name": "disableInterest",
      "outputs": [],
      "payable": false,
      "stateMutability": "nonpayable",
      "type": "function"
    },
    {
      "constant": true,
      "inputs": [],
      "name": "maxPerTx",
      "outputs": [
        {
          "name": "",
          "type": "uint256"
        }
      ],
      "payable": false,
      "stateMutability": "view",
      "type": "function"
    },
    {
      "constant": true,
      "inputs": [],
      "name": "gasPrice",
      "outputs": [
        {
          "name": "",
          "type": "uint256"
        }
      ],
      "payable": false,
      "stateMutability": "view",
      "type": "function"
    },
    {
      "anonymous": false,
      "inputs": [
        {
          "indexed": true,
          "name": "token",
          "type": "address"
        },
        {
          "indexed": false,
          "name": "to",
          "type": "address"
        },
        {
          "indexed": false,
          "name": "value",
          "type": "uint256"
        }
      ],
      "name": "PaidInterest",
      "type": "event"
    },
    {
      "anonymous": false,
      "inputs": [
        {
          "indexed": false,
          "name": "recipient",
          "type": "address"
        },
        {
          "indexed": false,
          "name": "value",
          "type": "uint256"
        },
        {
          "indexed": false,
          "name": "transactionHash",
          "type": "bytes32"
        }
      ],
      "name": "RelayedMessage",
      "type": "event"
    },
    {
      "anonymous": false,
      "inputs": [
        {
          "indexed": false,
          "name": "recipient",
          "type": "address"
        },
        {
          "indexed": false,
          "name": "value",
          "type": "uint256"
        }
      ],
      "name": "UserRequestForAffirmation",
      "type": "event"
    },
    {
      "anonymous": false,
      "inputs": [
        {
          "indexed": false,
          "name": "newLimit",
          "type": "uint256"
        }
      ],
      "name": "DailyLimitChanged",
      "type": "event"
    },
    {
      "anonymous": false,
      "inputs": [
        {
          "indexed": false,
          "name": "newLimit",
          "type": "uint256"
        }
      ],
      "name": "ExecutionDailyLimitChanged",
      "type": "event"
    },
    {
      "anonymous": false,
      "inputs": [
        {
          "indexed": false,
          "name": "gasPrice",
          "type": "uint256"
        }
      ],
      "name": "GasPriceChanged",
      "type": "event"
    },
    {
      "anonymous": false,
      "inputs": [
        {
          "indexed": false,
          "name": "requiredBlockConfirmations",
          "type": "uint256"
        }
      ],
      "name": "RequiredBlockConfirmationChanged",
      "type": "event"
    },
    {
      "anonymous": false,
      "inputs": [
        {
          "indexed": false,
          "name": "previousOwner",
          "type": "address"
        },
        {
          "indexed": false,
          "name": "newOwner",
          "type": "address"
        }
      ],
      "name": "OwnershipTransferred",
      "type": "event"
    }
  ],
  "bytecode": {
    "object": "0x608060405234801561001057600080fd5b5061429d806100206000396000f3006080604052600436106102975760003560e01c63ffffffff16806301e4f53a1461029c57806303f9c793146102c25780630fd6d528146102e35780631dcea427146102f85780631e86b2911461032957806321d800ec146103585780632bd0bb05146103845780633853b7a1146103ae578063392e53cd146103c35780633dd95d1b146103d85780633e6968b6146103f05780633f0a9f65146104055780633f7658fd1461041a578063437764df1461044657806343b37dd3146104905780634774f563146104a5578063486ff0cd146104c65780634fb3fef7146105505780635726ff3014610568578063572b6c051461058957806367eeba0c146105aa57806369ffa08a146105bf5780636da8b996146105e657806374948c521461062e57806384fe8ab214610643578063879ce676146106645780638aa1949a1461067c5780638d068043146106915780638da5cb5b146106a6578063904377ec146106bb57806395e54a17146106e257806399439089146106f75780639a454b991461070c5780639cb7595a14610721578063a2a6ca2714610762578063a36b85fd1461077a578063a4b4b2331461079e578063a83bb236146107c2578063acf5c689146107e3578063b20d30a9146107fb578063be22f54614610813578063bf1fe42014610828578063c6f6f21614610840578063c779c1c314610858578063cd0fc03314610879578063ce1b815f146108a8578063cff77444146108bd578063d007c644146108de578063d2ef8660146108ff578063da74222814610920578063dae5f0fd14610941578063df25f3f014610956578063ea9f49681461096b578063f20151e114610983578063f2fde38b1461099b578063f50dace6146109bc578063f968adbe146109dd578063fe173b97146109f2575b600080fd5b3480156102a857600080fd5b506102c0600160a060020a0360043516602435610a07565b005b3480156102ce57600080fd5b506102c0600160a060020a0360043516610b71565b3480156102ef57600080fd5b506102c0610be5565b34801561030457600080fd5b5061030d610cff565b60408051600160a060020a039092168252519081900360200190f35b34801561033557600080fd5b506102c06024600480358281019290820135918135918201910135604435610d0e565b34801561036457600080fd5b50610370600435610ef0565b604080519115158252519081900360200190f35b34801561039057600080fd5b5061039c600435610fb9565b60408051918252519081900360200190f35b3480156103ba57600080fd5b5061030d611076565b3480156103cf57600080fd5b5061037061108e565b3480156103e457600080fd5b506102c06004356110df565b3480156103fc57600080fd5b5061039c61119f565b34801561041157600080fd5b5061039c6111a8565b34801561042657600080fd5b506102c060246004803582810192908201359181359182019101356111f6565b34801561045257600080fd5b5061045b611364565b604080517fffffffff000000000000000000000000000000000000000000000000000000009092168252519081900360200190f35b34801561049c57600080fd5b5061039c611388565b3480156104b157600080fd5b5061039c600160a060020a03600435166113d6565b3480156104d257600080fd5b506104db611466565b6040805160208082528351818301528351919283929083019185019080838360005b838110156105155781810151838201526020016104fd565b50505050905090810190601f1680156105425780820380516001836020036101000a031916815260200191505b509250505060405180910390f35b34801561055c57600080fd5b5061039c60043561149d565b34801561057457600080fd5b5061039c600160a060020a0360043516611518565b34801561059557600080fd5b50610370600160a060020a03600435166115a8565b3480156105b657600080fd5b5061039c611604565b3480156105cb57600080fd5b506102c0600160a060020a0360043581169060243516611652565b3480156105f257600080fd5b50610370600160a060020a03600435811690602435811690604435906064359060849060e490610124358116906101443590610164351661173a565b34801561063a57600080fd5b506102c06119fe565b34801561064f57600080fd5b506102c0600160a060020a0360043516611a10565b34801561067057600080fd5b50610370600435611aa3565b34801561068857600080fd5b5061039c611ae1565b34801561069d57600080fd5b5061039c611b2f565b3480156106b257600080fd5b5061030d611ba4565b3480156106c757600080fd5b506102c0600160a060020a0360043581169060243516611bfb565b3480156106ee57600080fd5b5061039c611c21565b34801561070357600080fd5b5061030d611c7b565b34801561071857600080fd5b5061039c611cd2565b34801561072d57600080fd5b50610736611d20565b6040805167ffffffffffffffff9485168152928416602084015292168183015290519081900360600190f35b34801561076e57600080fd5b506102c0600435611d2b565b34801561078657600080fd5b506102c0600160a060020a0360043516602435611dc7565b3480156107aa57600080fd5b506102c0600160a060020a0360043516602435611ded565b3480156107ce57600080fd5b5061030d600160a060020a0360043516611e13565b3480156107ef57600080fd5b506102c0600435611eef565b34801561080757600080fd5b506102c0600435611f17565b34801561081f57600080fd5b5061030d611fd7565b34801561083457600080fd5b506102c0600435611fef565b34801561084c57600080fd5b506102c0600435612014565b34801561086457600080fd5b5061039c600160a060020a03600435166120ac565b34801561088557600080fd5b506102c0600160a060020a0360043581169060243590604435906064351661216d565b3480156108b457600080fd5b5061030d6121df565b3480156108c957600080fd5b5061039c600160a060020a0360043516612236565b3480156108ea57600080fd5b506102c0600160a060020a03600435166122c6565b34801561090b57600080fd5b50610370600160a060020a0360043516612470565b34801561092c57600080fd5b506102c0600160a060020a0360043516612501565b34801561094d57600080fd5b5061039c612594565b34801561096257600080fd5b5061039c6125e2565b34801561097757600080fd5b50610370600435612630565b34801561098f57600080fd5b506102c060043561267b565b3480156109a757600080fd5b506102c0600160a060020a03600435166126f7565b3480156109c857600080fd5b506102c0600160a060020a036004351661271c565b3480156109e957600080fd5b5061039c61274f565b3480156109fe57600080fd5b5061039c61279d565b610a0f6127eb565b600160a060020a0383811691161415610a2757600080fd5b600160a060020a0382161515610a3c57600080fd5b600160a060020a038216301415610a5257600080fd5b60008111610a5f57600080fd5b610a6881612630565b1515610a7357600080fd5b610a84610a7e61119f565b82612842565b610a8c610cff565b604080517f23b872dd000000000000000000000000000000000000000000000000000000008152336004820152306024820152604481018490529051600160a060020a0392909216916323b872dd916064808201926020929091908290030181600087803b158015610afd57600080fd5b505af1158015610b11573d6000803e3d6000fd5b505050506040513d6020811015610b2757600080fd5b505060408051600160a060020a03841681526020810183905281517f1d491a427d1f8cc0d447496f300fac39f7306122481d8e663451eb268274146b929181900390910190a15050565b600080600083610b8081612470565b1515610b8b57600080fd5b610b948561290b565b9350610b9f85611518565b9250828411610bad57600080fd5b8284039150610bd485610bcf84610bc389612236565b9063ffffffff6129a116565b6129b4565b610bde8583612a43565b5050505050565b600080610bf0611fd7565b600160a060020a03166370a08231306040518263ffffffff1660e01b81526004018082600160a060020a0316600160a060020a03168152602001915050602060405180830381600087803b158015610c4757600080fd5b505af1158015610c5b573d6000803e3d6000fd5b505050506040513d6020811015610c7157600080fd5b50519150610c85610c80611fd7565b611518565b8210610cdb576040805160e560020a62461bcd02815260206004820152601060248201527f4272696467652069732046696c6c656400000000000000000000000000000000604482015290519081900360640190fd5b81610ce7610c80611fd7565b039050610cfb610cf5611fd7565b82612bc8565b5050565b6000610d09611fd7565b905090565b600080600080610d1d336115a8565b1515610d73576040805160e560020a62461bcd02815260206004820152601160248201527f696e76616c696420666f72776172646572000000000000000000000000000000604482015290519081900360640190fd5b610de589898080601f0160208091040260200160405190810160405280939291908181526020018383808284375050604080516020601f8f018190048102820181019092528d815294508d93508c9250829150840183828082843750610dde9450611c7b9350505050565b6000612c1a565b610e1e89898080601f01602080910402602001604051908101604052809392919081815260200183838082843750612e9e945050505050565b92965090945092509050610e3183611aa3565b15610eda5782851115610e4357600080fd5b600160a060020a0381163014610e5857600080fd5b610e6182610ef0565b15610e6b57600080fd5b610e76826001612ed9565b610e81848487612fab565b1515610e8c57600080fd5b60408051600160a060020a03861681526020810185905280820184905290517f4ab7d581336d92edbea22636a613e8e76c99ac7f91137c1523db38dbfb3bf3299181900360600190a1610ee5565b610ee5848484610297565b505050505050505050565b6000600460008360405160200180807f72656c617965644d657373616765730000000000000000000000000000000000815250600f0182600019166000191681526020019150506040516020818303038152906040526040518082805190602001908083835b60208310610f755780518252601f199092019160209182019101610f56565b51815160209384036101000a600019018019909216911617905260408051929094018290039091208652850195909552929092016000205460ff1695945050505050565b60008060008360405160200180807f746f74616c5370656e74506572446179000000000000000000000000000000008152506010018281526020019150506040516020818303038152906040526040518082805190602001908083835b602083106110355780518252601f199092019160209182019101611016565b51815160209384036101000a600019018019909216911617905260408051929094018290039091208652850195909552929092016000205495945050505050565b7383f20f44975d03b1b09e64809b757c47f942beea90565b7f0a6f646cd611241d8073675e00d1a1ff700fbf1b53fcf473de56d1e6e4b714ba60005260046020527f078d888f9b66f3f8bfa10909e31f1e16240db73449f0500afdbbe3a70da457cc5460ff1690565b6110e7611ba4565b600160a060020a031633146110fb57600080fd5b611103611ae1565b81118061110e575080155b151561111957600080fd5b7f21dbcab260e413c20dc13c28b7db95e2b423d1135f42bb8b7d5214a92270d237600090815260209081527fadd938dbd083a16bae12238cd914fca0afc7a30edb55b1cd5c7f1823f1b0e4218290556040805183815290517f9bebf928b90863f24cc31f726a3a7545efd409f1dcf552301b1ee3710da70d3b929181900390910190a150565b62015180420490565b7f916daedf6915000ff68ced2f0b6773fe6f2582237f92c3c95bb4d7940723007160009081526020527fd2ea0feb732edb0ffe32efd33a6b9d24d46b16eb34a4d07ce256537b6f131e425490565b60008060008061126788888080601f0160208091040260200160405190810160405280939291908181526020018383808284375050604080516020601f8e018190048102820181019092528c815294508c93508b9250829150840183828082843750610dde9450611c7b9350505050565b6112a088888080601f01602080910402602001604051908101604052809392919081815260200183838082843750612e9e945050505050565b929650909450925090506112b383611aa3565b1561134f57600160a060020a03811630146112cd57600080fd5b6112d682610ef0565b156112e057600080fd5b6112eb826001612ed9565b6112f6848484612fc9565b151561130157600080fd5b60408051600160a060020a03861681526020810185905280820184905290517f4ab7d581336d92edbea22636a613e8e76c99ac7f91137c1523db38dbfb3bf3299181900360600190a161135a565b61135a848484610297565b5050505050505050565b7f18762d460000000000000000000000000000000000000000000000000000000090565b7f21dbcab260e413c20dc13c28b7db95e2b423d1135f42bb8b7d5214a92270d23760009081526020527fadd938dbd083a16bae12238cd914fca0afc7a30edb55b1cd5c7f1823f1b0e4215490565b60008060008360405160200180807f6d696e496e746572657374506169640000000000000000000000000000000000815250600f0182600160a060020a0316600160a060020a031660601b8152601401915050604051602081830303815290604052604051808280519060200190808383602083106110355780518252601f199092019160209182019101611016565b60408051808201909152600581527f312e302e31000000000000000000000000000000000000000000000000000000602082015290565b60008060008360405160200180807f746f74616c457865637574656450657244617900000000000000000000000000815250601301828152602001915050604051602081830303815290604052604051808280519060200190808383602083106110355780518252601f199092019160209182019101611016565b60008060008360405160200180807f6d696e436173685468726573686f6c640000000000000000000000000000000081525060100182600160a060020a0316600160a060020a031660601b8152601401915050604051602081830303815290604052604051808280519060200190808383602083106110355780518252601f199092019160209182019101611016565b7f222cb212229f0f9bcd249029717af6845ea3d3a84f22b54e5744ac25ef224c9260005260026020527fb3492a958ebdd65bd9a0b8ebca07c67a2ad3af56a28fc2944e214aa69ec9581b54600160a060020a0390811691161490565b7f4a6a899679f26b73530d8cf1001e83b6f7702e04b6fdb98f3c62dc7e47e041a560009081526020527f1ab29a5cca988aee50edccdd61c5bcaa7ad4b29a03b7ee50f298ceccfe14cc4e5490565b600030600160a060020a0316636fde82026040518163ffffffff1660e01b8152600401602060405180830381600087803b15801561168f57600080fd5b505af11580156116a3573d6000803e3d6000fd5b505050506040513d60208110156116b957600080fd5b5051600160a060020a031633146116cf57600080fd5b6116d7611fd7565b9050600160a060020a0383811690821614156116f257600080fd5b6116fa611076565b600160a060020a031683600160a060020a0316141580611720575061171e81612470565b155b151561172b57600080fd5b6117358383613086565b505050565b60408051600481526024810182526020810180517bffffffffffffffffffffffffffffffffffffffffffffffffffffffff167f6fde8202000000000000000000000000000000000000000000000000000000001781529151815160009330939291829190808383895b838110156117bb5781810151838201526020016117a3565b50505050905090810190601f1680156117e85780820380516001836020036101000a031916815260200191505b509150506000604051808303816000865af19150501580611877575030600160a060020a0316636fde82026040518163ffffffff1660e01b8152600401602060405180830381600087803b15801561183f57600080fd5b505af1158015611853573d6000803e3d6000fd5b505050506040513d602081101561186957600080fd5b5051600160a060020a031633145b8061188157503330145b151561188c57600080fd5b61189461108e565b1561189e57600080fd5b6118a78a6130c4565b15156118b257600080fd5b6118ba611fd7565b600160a060020a038a81169116146118d157600080fd5b82156118dc57600080fd5b7fab54f3fbbe62c59b7876a9bf9bd5e0c22dbae93f4d8ee0438f7ce62b198eb0e0805473ffffffffffffffffffffffffffffffffffffffff1916600160a060020a038c161790557fb120ceec05576ad0c710bc6e85f1768535e27554458f05dcbb5c65b8c7a749b06000908152602052437fe66bef0282a446f9848e2903380099bb6e431483ee78778868f33b4a154c818b55611978886130cc565b6119818761315f565b6040805160608181019092526119a99188906003908390839080828437506131759350505050565b6040805180820182526119ce9187906002908390839080828437506132d29350505050565b6119d7846133a7565b6119e08261347e565b6119e861350a565b6119f061108e565b9a9950505050505050505050565b611a0e611a09611fd7565b610b71565b565b611a18611ba4565b600160a060020a03163314611a2c57600080fd5b7ffefcc139ed357999ed60c6a013947328d52e7d9751e93fd0274a2bfae5cbcb1260005260026020527ff215aff72f0a1a7d74fcd807336e100b80bbb56cdfb43843ade07ecf211a979f805473ffffffffffffffffffffffffffffffffffffffff1916600160a060020a0392909216919091179055565b600080611aba83610bc3611ab561119f565b61149d565b905080611ac5611388565b10158015611ada5750611ad6611ae1565b8311155b9392505050565b7fc0ed44c192c86d1cc1ba51340b032c2766b4a2b0041031de13c46dd7104888d560009081526020527ff8e983ee86e5e377e9e34c9131b266382c3f04113d20de077f9e12663c7a646b5490565b6000611b39611c7b565b600160a060020a0316638d0680436040518163ffffffff1660e01b8152600401602060405180830381600087803b158015611b7357600080fd5b505af1158015611b87573d6000803e3d6000fd5b505050506040513d6020811015611b9d57600080fd5b5051905090565b7f02016836a56b71f0d02689e69e326f4f4c1b9057164ef592671cf0d37c8040c060005260026020527fb7802e97e87ef2842a6cce7da7ffaeaedaa2f61a6a7870b23d9d01fc9b73712e54600160a060020a031690565b611c03611ba4565b600160a060020a03163314611c1757600080fd5b610cfb8282613561565b6000806000806000611c3161274f565b9350611c3b611604565b9250611c4d611c4861119f565b610fb9565b9150818311611c5d576000611c61565b8183035b9050808410611c705780611c72565b835b94505050505090565b7f5a74bb7e202fb8e4bf311841c7d64ec19df195fee77d7e7ae749b27921b6ddfe60005260026020527fab54f3fbbe62c59b7876a9bf9bd5e0c22dbae93f4d8ee0438f7ce62b198eb0e054600160a060020a031690565b7fb120ceec05576ad0c710bc6e85f1768535e27554458f05dcbb5c65b8c7a749b060009081526020527fe66bef0282a446f9848e2903380099bb6e431483ee78778868f33b4a154c818b5490565b600660016000909192565b611d33611ba4565b600160a060020a03163314611d4757600080fd5b600081118015611d5d5750611d5a611604565b81105b8015611d6f5750611d6c61274f565b81105b1515611d7a57600080fd5b7fbbb088c505d18e049d114c7c91f11724e69c55ad6c5397e2b929e68b41fa05d160009081526020527f8df5c48c6b6e11d97548adc824ba0c99103ec09830fa5d53a179984085e6eaa055565b611dcf611ba4565b600160a060020a03163314611de357600080fd5b610cfb8282613672565b611df5611ba4565b600160a060020a03163314611e0957600080fd5b610cfb8282613701565b6000600260008360405160200180807f696e74657265737452656365697665720000000000000000000000000000000081525060100182600160a060020a0316600160a060020a031660601b81526014019150506040516020818303038152906040526040518082805190602001908083835b60208310611ea55780518252601f199092019160209182019101611e86565b51815160209384036101000a6000190180199092169116179052604080519290940182900390912086528501959095529290920160002054600160a060020a031695945050505050565b611ef7611ba4565b600160a060020a03163314611f0b57600080fd5b611f14816130cc565b50565b611f1f611ba4565b600160a060020a03163314611f3357600080fd5b611f3b61274f565b811180611f46575080155b1515611f5157600080fd5b7f4a6a899679f26b73530d8cf1001e83b6f7702e04b6fdb98f3c62dc7e47e041a5600090815260209081527f1ab29a5cca988aee50edccdd61c5bcaa7ad4b29a03b7ee50f298ceccfe14cc4e8290556040805183815290517fad4123ae17c414d9c6d2fec478b402e6b01856cc250fd01fbfd252fda0089d3c929181900390910190a150565b730a4dbaf9656fd88a32d087101ee8bf399f4bd55f90565b611ff7611ba4565b600160a060020a0316331461200b57600080fd5b611f148161315f565b61201c611ba4565b600160a060020a0316331461203057600080fd5b80158061205457506120406125e2565b811180156120545750612051611604565b81105b151561205f57600080fd5b7f0f8803acad17c63ee38bf2de71e1888bc7a079a6f73658e274b08018bea4e29c60009081526020527f9de0f81379b4d8e60fe509315d071b56e7b732abaf193e74e0d15808b0951d0955565b60008060006120b9611076565b600160a060020a031663ce96cb77306040518263ffffffff1660e01b81526004018082600160a060020a0316600160a060020a03168152602001915050602060405180830381600087803b15801561211057600080fd5b505af1158015612124573d6000803e3d6000fd5b505050506040513d602081101561213a57600080fd5b5051915061214784612236565b670de0b6b3a7640000019050808211612161576000612165565b8082035b949350505050565b612175611ba4565b600160a060020a0316331461218957600080fd5b61219284613790565b151561219d57600080fd5b6121a684612470565b156121b057600080fd5b6121bb8460016137b5565b6121c58484613701565b6121cf8483613672565b6121d98482613561565b50505050565b7f222cb212229f0f9bcd249029717af6845ea3d3a84f22b54e5744ac25ef224c9260005260026020527fb3492a958ebdd65bd9a0b8ebca07c67a2ad3af56a28fc2944e214aa69ec9581b54600160a060020a031690565b60008060008360405160200180807f696e766573746564416d6f756e74000000000000000000000000000000000000815250600e0182600160a060020a0316600160a060020a031660601b8152601401915050604051602081830303815290604052604051808280519060200190808383602083106110355780518252601f199092019160209182019101611016565b600080803332146122d657600080fd5b836122e081612470565b15156122eb57600080fd5b6122f485611e13565b9350600160a060020a038416151561230b57600080fd5b612314856120ac565b925061231f856113d6565b831015612376576040805160e560020a62461bcd02815260206004820152601c60248201527f436f6c6c65637461626c6520696e74657265737420746f6f206c6f7700000000604482015290519081900360640190fd5b6123808584613845565b604080517f095ea7b3000000000000000000000000000000000000000000000000000000008152306004820152602481018390529051919350600160a060020a0387169163095ea7b3916044808201926020929091908290030181600087803b1580156123ec57600080fd5b505af1158015612400573d6000803e3d6000fd5b505050506040513d602081101561241657600080fd5b5061242390508483610a07565b60408051600160a060020a038681168252602082018590528251908816927f222348fe8b30f078a8a4da2f55f16d24d70bc40d3ec49d295d7ad1d11e666887928290030190a25050505050565b6000600460008360405160200180807f696e746572657374456e61626c65640000000000000000000000000000000000815250600f0182600160a060020a0316600160a060020a031660601b815260140191505060405160208183030381529060405260405180828051906020019080838360208310610f755780518252601f199092019160209182019101610f56565b612509611ba4565b600160a060020a0316331461251d57600080fd5b7f222cb212229f0f9bcd249029717af6845ea3d3a84f22b54e5744ac25ef224c9260005260026020527fb3492a958ebdd65bd9a0b8ebca07c67a2ad3af56a28fc2944e214aa69ec9581b805473ffffffffffffffffffffffffffffffffffffffff1916600160a060020a0392909216919091179055565b7f1e8ecaafaddea96ed9ac6d2642dcdfe1bebe58a930b1085842d8fc122b371ee560009081526020527fd5c78dd9468716ca9bb96be25d56436811b20aab3523a9904b12deef1cab239d5490565b7fbbb088c505d18e049d114c7c91f11724e69c55ad6c5397e2b929e68b41fa05d160009081526020527f8df5c48c6b6e11d97548adc824ba0c99103ec09830fa5d53a179984085e6eaa05490565b60008061264283610bc3611c4861119f565b90508061264d611604565b10158015612662575061265e61274f565b8311155b8015611ada57506126716125e2565b9092101592915050565b612683611ba4565b600160a060020a0316331461269757600080fd5b61269f611388565b81106126aa57600080fd5b7fc0ed44c192c86d1cc1ba51340b032c2766b4a2b0041031de13c46dd7104888d560009081526020527ff8e983ee86e5e377e9e34c9131b266382c3f04113d20de077f9e12663c7a646b55565b6126ff611ba4565b600160a060020a0316331461271357600080fd5b611f14816133a7565b612724611ba4565b600160a060020a0316331461273857600080fd5b61274481600019612bc8565b611f148160006137b5565b7f0f8803acad17c63ee38bf2de71e1888bc7a079a6f73658e274b08018bea4e29c60009081526020527f9de0f81379b4d8e60fe509315d071b56e7b732abaf193e74e0d15808b0951d095490565b7f55b3774520b5993024893d303890baa4e84b1244a43c60034d1ced2d3cf2b04b60009081526020527ff7d5eefab3776d7f0450bd0193564bcb4f832ce313ff2836c450fc63a4b944195490565b7f71483949fe7a14d16644d63320f24d10cf1d60abecc30cc677a340e82b699dd260005260026020527f21ffdf150a5d180f96d98d16f50e7b4dd63e2a067adc8386cf5af55dcecd8dd954600160a060020a031690565b61284f81610bc384610fb9565b6000808460405160200180807f746f74616c5370656e74506572446179000000000000000000000000000000008152506010018281526020019150506040516020818303038152906040526040518082805190602001908083835b602083106128c95780518252601f1990920191602091820191016128aa565b51815160209384036101000a60001901801990921691161790526040805192909401829003909120865285019590955292909201600020939093555050505050565b604080517f70a082310000000000000000000000000000000000000000000000000000000081523060048201529051600091600160a060020a038416916370a082319160248082019260209290919082900301818787803b15801561296f57600080fd5b505af1158015612983573d6000803e3d6000fd5b505050506040513d602081101561299957600080fd5b505192915050565b818101828110156129ae57fe5b92915050565b806000808460405160200180807f696e766573746564416d6f756e74000000000000000000000000000000000000815250600e0182600160a060020a0316600160a060020a031660601b8152601401915050604051602081830303815290604052604051808280519060200190808383602083106128c95780518252601f1990920191602091820191016128aa565b612a4b611fd7565b600160a060020a031663095ea7b3612a61611076565b836040518363ffffffff1660e01b81526004018083600160a060020a0316600160a060020a0316815260200182815260200192505050602060405180830381600087803b158015612ab157600080fd5b505af1158015612ac5573d6000803e3d6000fd5b505050506040513d6020811015612adb57600080fd5b5060009050612ae8611076565b600160a060020a0316636e553f6583306040518363ffffffff1660e01b81526004018083815260200182600160a060020a0316600160a060020a0316815260200192505050602060405180830381600087803b158015612b4757600080fd5b505af1158015612b5b573d6000803e3d6000fd5b505050506040513d6020811015612b7157600080fd5b505114610cfb576040805160e560020a62461bcd02815260206004820152601160248201527f4661696c656420746f206465706f736974000000000000000000000000000000604482015290519081900360640190fd5b60008080831515612bd857610bde565b612be185612236565b9250828411612bf05783612bf2565b825b9150612bfe8583613845565b9050610bde85828511612c12576000610bcf565b8285036129b4565b6000806000606060008060008060008060008b80612c3c5750612c3c8f613885565b1515612c4757600080fd5b8c600160a060020a0316638d0680436040518163ffffffff1660e01b8152600401602060405180830381600087803b158015612c8257600080fd5b505af1158015612c96573d6000803e3d6000fd5b505050506040513d6020811015612cac57600080fd5b505160018f0151909b5060ff1699508a8a1015612cc857600080fd5b612cd28f8d613899565b98508a604051908082528060200260200182016040528015612cfe578160200160208202803883390190505b509750600096505b8a871015612e8d57866020028a6021010192508960200283019150866002018e01519550828e01519450818e01519350600189878787604051600081526020016040526040518085600019166000191681526020018460ff1660ff1681526020018360001916600019168152602001826000191660001916815260200194505050505060206040516020810390808403906000865af1158015612dad573d6000803e3d6000fd5b5050506020604051035190508c600160a060020a031663facd743b826040518263ffffffff1660e01b81526004018082600160a060020a0316600160a060020a03168152602001915050602060405180830381600087803b158015612e1157600080fd5b505af1158015612e25573d6000803e3d6000fd5b505050506040513d6020811015612e3b57600080fd5b50511515612e4857600080fd5b612e528882613aab565b15612e5c57600080fd5b808888815181101515612e6b57fe5b600160a060020a03909216602092830290910190910152600190960195612d06565b505050505050505050505050505050565b600080600080612ead85613885565b1515612eb857600080fd5b50505050601481015160348201516054830151606890930151919390929190565b80600460008460405160200180807f72656c617965644d657373616765730000000000000000000000000000000000815250600f0182600019166000191681526020019150506040516020818303038152906040526040518082805190602001908083835b60208310612f5d5780518252601f199092019160209182019101612f3e565b51815160209384036101000a60001901801990921691161790526040805192909401829003909120865285019590955292909201600020805460ff1916941515949094179093555050505050565b6000612fbe612fb8611fd7565b84613b06565b612165848484613bc8565b600080612fdd612fd761119f565b85613d7f565b612fe5611fd7565b9050612ff18185613b06565b80600160a060020a031663a9059cbb86866040518363ffffffff1660e01b81526004018083600160a060020a0316600160a060020a0316815260200182815260200192505050602060405180830381600087803b15801561305157600080fd5b505af1158015613065573d6000803e3d6000fd5b505050506040513d602081101561307b57600080fd5b505195945050505050565b80600160a060020a038116151561309c57600080fd5b600160a060020a03831615156130ba576130b582613e05565b611735565b6117358383613e11565b6000903b1190565b600081116130d957600080fd5b7f916daedf6915000ff68ced2f0b6773fe6f2582237f92c3c95bb4d79407230071600090815260209081527fd2ea0feb732edb0ffe32efd33a6b9d24d46b16eb34a4d07ce256537b6f131e428290556040805183815290517f4fb76205cd57c896b21511d2114137d8e901b4ccd659e1a0f97d6306795264fb929181900390910190a150565b6000811161316c57600080fd5b611f1481613ebe565b60408101516000108015613190575060408101516020820151115b80156131a0575060208101518151115b15156131ab57600080fd5b80517f4a6a899679f26b73530d8cf1001e83b6f7702e04b6fdb98f3c62dc7e47e041a5600090815260208181527f1ab29a5cca988aee50edccdd61c5bcaa7ad4b29a03b7ee50f298ceccfe14cc4e92909255908201517f0f8803acad17c63ee38bf2de71e1888bc7a079a6f73658e274b08018bea4e29c82527f9de0f81379b4d8e60fe509315d071b56e7b732abaf193e74e0d15808b0951d095560408201517fbbb088c505d18e049d114c7c91f11724e69c55ad6c5397e2b929e68b41fa05d182527f8df5c48c6b6e11d97548adc824ba0c99103ec09830fa5d53a179984085e6eaa0557fad4123ae17c414d9c6d2fec478b402e6b01856cc250fd01fbfd252fda0089d3c9082905b60200201516040518082815260200191505060405180910390a150565b80516020820151106132e357600080fd5b80517f21dbcab260e413c20dc13c28b7db95e2b423d1135f42bb8b7d5214a92270d237600090815260208181527fadd938dbd083a16bae12238cd914fca0afc7a30edb55b1cd5c7f1823f1b0e42192909255908201517fc0ed44c192c86d1cc1ba51340b032c2766b4a2b0041031de13c46dd7104888d582527ff8e983ee86e5e377e9e34c9131b266382c3f04113d20de077f9e12663c7a646b557f9bebf928b90863f24cc31f726a3a7545efd409f1dcf552301b1ee3710da70d3b9082906132b5565b600160a060020a03811615156133bc57600080fd5b7f8be0079c531659141344cd1fd0a4f28419497f9722a3daafe3b4186f6b6457e06133e5611ba4565b60408051600160a060020a03928316815291841660208301528051918290030190a17f02016836a56b71f0d02689e69e326f4f4c1b9057164ef592671cf0d37c8040c060005260026020527fb7802e97e87ef2842a6cce7da7ffaeaedaa2f61a6a7870b23d9d01fc9b73712e805473ffffffffffffffffffffffffffffffffffffffff1916600160a060020a0392909216919091179055565b600160a060020a038116151561349357600080fd5b7f71483949fe7a14d16644d63320f24d10cf1d60abecc30cc677a340e82b699dd260005260026020527f21ffdf150a5d180f96d98d16f50e7b4dd63e2a067adc8386cf5af55dcecd8dd9805473ffffffffffffffffffffffffffffffffffffffff1916600160a060020a0392909216919091179055565b7f0a6f646cd611241d8073675e00d1a1ff700fbf1b53fcf473de56d1e6e4b714ba60005260046020527f078d888f9b66f3f8bfa10909e31f1e16240db73449f0500afdbbe3a70da457cc805460ff19166001179055565b600160a060020a03811630141561357757600080fd5b80600260008460405160200180807f696e74657265737452656365697665720000000000000000000000000000000081525060100182600160a060020a0316600160a060020a031660601b81526014019150506040516020818303038152906040526040518082805190602001908083835b602083106136085780518252601f1990920191602091820191016135e9565b51815160209384036101000a60001901801990921691161790526040805192909401829003909120865285019590955292909201600020805473ffffffffffffffffffffffffffffffffffffffff1916600160a060020a0395909516949094179093555050505050565b806000808460405160200180807f6d696e496e746572657374506169640000000000000000000000000000000000815250600f0182600160a060020a0316600160a060020a031660601b8152601401915050604051602081830303815290604052604051808280519060200190808383602083106128c95780518252601f1990920191602091820191016128aa565b806000808460405160200180807f6d696e436173685468726573686f6c640000000000000000000000000000000081525060100182600160a060020a0316600160a060020a031660601b8152601401915050604051602081830303815290604052604051808280519060200190808383602083106128c95780518252601f1990920191602091820191016128aa565b600061379a611fd7565b600160a060020a031682600160a060020a0316149050919050565b80600460008460405160200180807f696e746572657374456e61626c65640000000000000000000000000000000000815250600f0182600160a060020a0316600160a060020a031660601b815260140191505060405160208183030381529060405260405180828051906020019080838360208310612f5d5780518252601f199092019160209182019101612f3e565b60008060006138538561290b565b915061385f8585613f44565b816138698661290b565b0390508381101561387957600080fd5b8092505b505092915050565b600061388f614041565b8251149050919050565b60408051808201909152601a81527f19457468657265756d205369676e6564204d6573736167653a0a000000000000602082015260009060608315613a3f57816138e38651614046565b866040516020018084805190602001908083835b602083106139165780518252601f1990920191602091820191016138f7565b51815160209384036101000a600019018019909216911617905286519190930192860191508083835b6020831061395e5780518252601f19909201916020918201910161393f565b51815160209384036101000a600019018019909216911617905285519190930192850191508083835b602083106139a65780518252601f199092019160209182019101613987565b6001836020036101000a03801982511681845116808217855250505050505090500193505050506040516020818303038152906040526040518082805190602001908083835b60208310613a0b5780518252601f1990920191602091820191016139ec565b6001836020036101000a0380198251168184511680821785525050505050509050019150506040518091039020925061387d565b6040805190810160405280600381526020017f31303400000000000000000000000000000000000000000000000000000000008152509050818186604051602001808480519060200190808383602083106139165780518252601f1990920191602091820191016138f7565b6000805b8351811015613afa5782600160a060020a03168482815181101515613ad057fe5b90602001906020020151600160a060020a03161415613af25760019150613aff565b600101613aaf565b600091505b5092915050565b604080517f70a0823100000000000000000000000000000000000000000000000000000000815230600482015290516000918291600160a060020a038616916370a0823191602480830192602092919082900301818787803b158015613b6b57600080fd5b505af1158015613b7f573d6000803e3d6000fd5b505050506040513d6020811015613b9557600080fd5b50519150828210156121d957613bbc613bad85611518565b8385039063ffffffff6129a116565b90506121d98482612bc8565b600080600080613bdf613bd961119f565b87613d7f565b613be7610cff565b7ffefcc139ed357999ed60c6a013947328d52e7d9751e93fd0274a2bfae5cbcb126000908152600260209081527ff215aff72f0a1a7d74fcd807336e100b80bbb56cdfb43843ade07ecf211a979f54604080517fa9059cbb000000000000000000000000000000000000000000000000000000008152600160a060020a039283166004820152602481018b905290519497509087169363a9059cbb93604480840194938390030190829087803b158015613ca057600080fd5b505af1158015613cb4573d6000803e3d6000fd5b505050506040513d6020811015613cca57600080fd5b5051604080517fa9059cbb000000000000000000000000000000000000000000000000000000008152600160a060020a038a81166004830152888a03602483015291519294509085169163a9059cbb916044808201926020929091908290030181600087803b158015613d3c57600080fd5b505af1158015613d50573d6000803e3d6000fd5b505050506040513d6020811015613d6657600080fd5b50519050818015613d745750805b979650505050505050565b613d8c81610bc38461149d565b6000808460405160200180807f746f74616c457865637574656450657244617900000000000000000000000000815250601301828152602001915050604051602081830303815290604052604051808280519060200190808383602083106128c95780518252601f1990920191602091820191016128aa565b3031610cfb828261414e565b604080517f70a0823100000000000000000000000000000000000000000000000000000000815230600482015290518391600091600160a060020a038416916370a0823191602480830192602092919082900301818787803b158015613e7657600080fd5b505af1158015613e8a573d6000803e3d6000fd5b505050506040513d6020811015613ea057600080fd5b505190506121d9600160a060020a038516848363ffffffff6141af16565b7f55b3774520b5993024893d303890baa4e84b1244a43c60034d1ced2d3cf2b04b600090815260209081527ff7d5eefab3776d7f0450bd0193564bcb4f832ce313ff2836c450fc63a4b944198290556040805183815290517f52264b89e0fceafb26e79fd49ef8a366eb6297483bf4035b027f0c99a7ad512e929181900390910190a150565b6000613f4e611076565b604080517fb460af9400000000000000000000000000000000000000000000000000000000815260048101859052306024820181905260448201529051600160a060020a03929092169163b460af94916064808201926020929091908290030181600087803b158015613fc057600080fd5b505af1158015613fd4573d6000803e3d6000fd5b505050506040513d6020811015613fea57600080fd5b505114610cfb576040805160e560020a62461bcd02815260206004820152601260248201527f4661696c656420746f2077697468647261770000000000000000000000000000604482015290519081900360640190fd5b606890565b6060600080828185151561408f5760408051808201909152600181527f300000000000000000000000000000000000000000000000000000000000000060208201529450614145565b8593505b83156140aa57600190920191600a84049350614093565b826040519080825280601f01601f1916602001820160405280156140d8578160200160208202803883390190505b5091505060001982015b85156141415781516000198201916030600a89060160f81b91849190811061410657fe5b9060200101907effffffffffffffffffffffffffffffffffffffffffffffffffffffffffffff1916908160001a905350600a860495506140e2565b8194505b50505050919050565b604051600160a060020a0383169082156108fc029083906000818181858888f193505050501515610cfb578082614183614241565b600160a060020a039091168152604051908190036020019082f080158015610bde573d6000803e3d6000fd5b82600160a060020a031663a9059cbb83836040518363ffffffff1660e01b81526004018083600160a060020a0316600160a060020a0316815260200182815260200192505050600060405180830381600087803b15801561420f57600080fd5b505af1158015614223573d6000803e3d6000fd5b505050503d156117355760206000803e600051151561173557600080fd5b604051602180614251833901905600608060405260405160208060218339810160405251600160a060020a038116ff00a165627a7a72305820b4e73232364bab6e2fafa795a40ed4dc718a3ffda70bbed51e2f6b633876698a0029",
    "linkReferences": {}
  },
  "methodIdentifiers": {
    "claimTokens(address,address)": "69ffa08a",
    "daiToken()": "be22f546",
    "dailyLimit()": "67eeba0c",
    "decimalShift()": "dae5f0fd",
    "deployedAtBlock()": "9a454b99",
    "disableInterest(address)": "f50dace6",
    "erc20token()": "1dcea427",
    "executeSignatures(bytes,bytes)": "3f7658fd",
    "executeSignaturesGSN(bytes,bytes,uint256)": "1e86b291",
    "executionDailyLimit()": "43b37dd3",
    "executionMaxPerTx()": "8aa1949a",
    "gasPrice()": "fe173b97",
    "getBridgeInterfacesVersion()": "9cb7595a",
    "getBridgeMode()": "437764df",
    "getCurrentDay()": "3e6968b6",
    "getTrustedForwarder()": "ce1b815f",
    "initialize(address,address,uint256,uint256,uint256[3],uint256[2],address,int256,address)": "6da8b996",
    "initializeInterest(address,uint256,uint256,address)": "cd0fc033",
    "interestAmount(address)": "c779c1c3",
    "interestReceiver(address)": "a83bb236",
    "invest(address)": "03f9c793",
    "investDai()": "74948c52",
    "investedAmount(address)": "cff77444",
    "isInitialized()": "392e53cd",
    "isInterestEnabled(address)": "d2ef8660",
    "isTrustedForwarder(address)": "572b6c05",
    "maxAvailablePerTx()": "95e54a17",
    "maxPerTx()": "f968adbe",
    "minCashThreshold(address)": "5726ff30",
    "minInterestPaid(address)": "4774f563",
    "minPerTx()": "df25f3f0",
    "owner()": "8da5cb5b",
    "payInterest(address)": "d007c644",
    "refillBridge()": "0fd6d528",
    "relayTokens(address,uint256)": "01e4f53a",
    "relayedMessages(bytes32)": "21d800ec",
    "requiredBlockConfirmations()": "3f0a9f65",
    "requiredSignatures()": "8d068043",
    "sDaiToken()": "3853b7a1",
    "setDailyLimit(uint256)": "b20d30a9",
    "setExecutionDailyLimit(uint256)": "3dd95d1b",
    "setExecutionMaxPerTx(uint256)": "f20151e1",
    "setGasPrice(uint256)": "bf1fe420",
    "setInterestReceiver(address,address)": "904377ec",
    "setMaxPerTx(uint256)": "c6f6f216",
    "setMinCashThreshold(address,uint256)": "a4b4b233",
    "setMinInterestPaid(address,uint256)": "a36b85fd",
    "setMinPerTx(uint256)": "a2a6ca27",
    "setPayMaster(address)": "84fe8ab2",
    "setRequiredBlockConfirmations(uint256)": "acf5c689",
    "setTrustedForwarder(address)": "da742228",
    "totalExecutedPerDay(uint256)": "4fb3fef7",
    "totalSpentPerDay(uint256)": "2bd0bb05",
    "transferOwnership(address)": "f2fde38b",
    "validatorContract()": "99439089",
    "versionRecipient()": "486ff0cd",
    "withinExecutionLimit(uint256)": "879ce676",
    "withinLimit(uint256)": "ea9f4968"
  },
  "id": 60
}