{
  "abi": [
    {
      "constant": true,
      "inputs": [],
      "name": "mediator",
      "outputs": [
        {
          "name": "",
          "type": "address"
        }
      ],
      "payable": false,
      "stateMutability": "view",
      "type": "function"
    },
    {
      "constant": false,
      "inputs": [
        {
          "name": "",
          "type": "address"
        },
        {
          "name": "_value",
          "type": "uint256"
        },
        {
          "name": "",
          "type": "bytes"
        }
      ],
      "name": "onTokenTransfer",
      "outputs": [
        {
          "name": "",
          "type": "bool"
        }
      ],
      "payable": false,
      "stateMutability": "nonpayable",
      "type": "function"
    },
    {
      "constant": true,
      "inputs": [],
      "name": "token",
      "outputs": [
        {
          "name": "",
          "type": "address"
        }
      ],
      "payable": false,
      "stateMutability": "view",
      "type": "function"
    },
    {
      "inputs": [
        {
          "name": "_mediator",
          "type": "address"
        },
        {
          "name": "_token",
          "type": "address"
        }
      ],
      "payable": false,
      "stateMutability": "nonpayable",
      "type": "constructor"
    }
  ],
  "bytecode": {
    "object": "0x608060405234801561001057600080fd5b5060405160408061026883398101604052805160209091015160008054600160a060020a03938416600160a060020a03199182161790915560018054939092169216919091179055610201806100676000396000f30060806040526004361061003a5760003560e01c63ffffffff1680636d0501f61461003f578063a4c0ed361461007d578063fc0c546a146100cf575b600080fd5b34801561004b57600080fd5b506100546100e4565b6040805173ffffffffffffffffffffffffffffffffffffffff9092168252519081900360200190f35b34801561008957600080fd5b506100bb6004803573ffffffffffffffffffffffffffffffffffffffff16906024803591604435918201910135610100565b604080519115158252519081900360200190f35b3480156100db57600080fd5b506100546101b9565b60005473ffffffffffffffffffffffffffffffffffffffff1681565b60015460008054604080517fa9059cbb00000000000000000000000000000000000000000000000000000000815273ffffffffffffffffffffffffffffffffffffffff92831660048201526024810188905290519293919091169163a9059cbb9160448082019260209290919082900301818787803b15801561018257600080fd5b505af1158015610196573d6000803e3d6000fd5b505050506040513d60208110156101ac57600080fd5b5060019695505050505050565b60015473ffffffffffffffffffffffffffffffffffffffff16815600a165627a7a72305820db963e2013afccb6d455380ded8dede12e37401b61451ac42bef9585bfc569a50029",
    "linkReferences": {}
  },
  "methodIdentifiers": {
    "mediator()": "6d0501f6",
    "onTokenTransfer(address,uint256,bytes)": "a4c0ed36",
    "token()": "fc0c546a"
  },
  "id": 49
}