{
  "abi": [
    {
      "constant": false,
      "inputs": [
        {
          "name": "_receiver",
          "type": "address"
        },
        {
          "name": "_value",
          "type": "uint256"
        }
      ],
      "name": "relayTokens",
      "outputs": [],
      "payable": false,
      "stateMutability": "nonpayable",
      "type": "function"
    },
    {
      "constant": false,
      "inputs": [
        {
          "name": "_messageId",
          "type": "bytes32"
        }
      ],
      "name": "fixFailedMessage",
      "outputs": [],
      "payable": false,
      "stateMutability": "nonpayable",
      "type": "function"
    },
    {
      "constant": false,
      "inputs": [
        {
          "name": "_bridgeContract",
          "type": "address"
        }
      ],
      "name": "setBridgeContract",
      "outputs": [],
      "payable": false,
      "stateMutability": "nonpayable",
      "type": "function"
    },
    {
      "constant": true,
      "inputs": [],
      "name": "erc677token",
      "outputs": [
        {
          "name": "",
          "type": "address"
        }
      ],
      "payable": false,
      "stateMutability": "view",
      "type": "function"
    },
    {
      "constant": true,
      "inputs": [
        {
          "name": "_day",
          "type": "uint256"
        }
      ],
      "name": "totalSpentPerDay",
      "outputs": [
        {
          "name": "",
          "type": "uint256"
        }
      ],
      "payable": false,
      "stateMutability": "view",
      "type": "function"
    },
    {
      "constant": true,
      "inputs": [],
      "name": "isInitialized",
      "outputs": [
        {
          "name": "",
          "type": "bool"
        }
      ],
      "payable": false,
      "stateMutability": "view",
      "type": "function"
    },
    {
      "constant": false,
      "inputs": [
        {
          "name": "_dailyLimit",
          "type": "uint256"
        }
      ],
      "name": "setExecutionDailyLimit",
      "outputs": [],
      "payable": false,
      "stateMutability": "nonpayable",
      "type": "function"
    },
    {
      "constant": true,
      "inputs": [],
      "name": "getCurrentDay",
      "outputs": [
        {
          "name": "",
          "type": "uint256"
        }
      ],
      "payable": false,
      "stateMutability": "view",
      "type": "function"
    },
    {
      "constant": true,
      "inputs": [],
      "name": "getBridgeMode",
      "outputs": [
        {
          "name": "_data",
          "type": "bytes4"
        }
      ],
      "payable": false,
      "stateMutability": "pure",
      "type": "function"
    },
    {
      "constant": true,
      "inputs": [],
      "name": "executionDailyLimit",
      "outputs": [
        {
          "name": "",
          "type": "uint256"
        }
      ],
      "payable": false,
      "stateMutability": "view",
      "type": "function"
    },
    {
      "constant": true,
      "inputs": [],
      "name": "mediatorBalance",
      "outputs": [
        {
          "name": "",
          "type": "uint256"
        }
      ],
      "payable": false,
      "stateMutability": "view",
      "type": "function"
    },
    {
      "constant": true,
      "inputs": [
        {
          "name": "_day",
          "type": "uint256"
        }
      ],
      "name": "totalExecutedPerDay",
      "outputs": [
        {
          "name": "",
          "type": "uint256"
        }
      ],
      "payable": false,
      "stateMutability": "view",
      "type": "function"
    },
    {
      "constant": false,
      "inputs": [
        {
          "name": "_receiver",
          "type": "address"
        }
      ],
      "name": "fixMediatorBalance",
      "outputs": [],
      "payable": false,
      "stateMutability": "nonpayable",
      "type": "function"
    },
    {
      "constant": true,
      "inputs": [
        {
          "name": "_messageId",
          "type": "bytes32"
        }
      ],
      "name": "messageFixed",
      "outputs": [
        {
          "name": "",
          "type": "bool"
        }
      ],
      "payable": false,
      "stateMutability": "view",
      "type": "function"
    },
    {
      "constant": true,
      "inputs": [],
      "name": "dailyLimit",
      "outputs": [
        {
          "name": "",
          "type": "uint256"
        }
      ],
      "payable": false,
      "stateMutability": "view",
      "type": "function"
    },
    {
      "constant": false,
      "inputs": [
        {
          "name": "_token",
          "type": "address"
        },
        {
          "name": "_to",
          "type": "address"
        }
      ],
      "name": "claimTokens",
      "outputs": [],
      "payable": false,
      "stateMutability": "nonpayable",
      "type": "function"
    },
    {
      "constant": false,
      "inputs": [
        {
          "name": "_mediatorContract",
          "type": "address"
        }
      ],
      "name": "setMediatorContractOnOtherSide",
      "outputs": [],
      "payable": false,
      "stateMutability": "nonpayable",
      "type": "function"
    },
    {
      "constant": true,
      "inputs": [],
      "name": "mediatorContractOnOtherSide",
      "outputs": [
        {
          "name": "",
          "type": "address"
        }
      ],
      "payable": false,
      "stateMutability": "view",
      "type": "function"
    },
    {
      "constant": true,
      "inputs": [
        {
          "name": "_amount",
          "type": "uint256"
        }
      ],
      "name": "withinExecutionLimit",
      "outputs": [
        {
          "name": "",
          "type": "bool"
        }
      ],
      "payable": false,
      "stateMutability": "view",
      "type": "function"
    },
    {
      "constant": true,
      "inputs": [],
      "name": "executionMaxPerTx",
      "outputs": [
        {
          "name": "",
          "type": "uint256"
        }
      ],
      "payable": false,
      "stateMutability": "view",
      "type": "function"
    },
    {
      "constant": false,
      "inputs": [
        {
          "name": "_recipient",
          "type": "address"
        },
        {
          "name": "_value",
          "type": "uint256"
        }
      ],
      "name": "handleBridgedTokens",
      "outputs": [],
      "payable": false,
      "stateMutability": "nonpayable",
      "type": "function"
    },
    {
      "constant": true,
      "inputs": [],
      "name": "owner",
      "outputs": [
        {
          "name": "",
          "type": "address"
        }
      ],
      "payable": false,
      "stateMutability": "view",
      "type": "function"
    },
    {
      "constant": true,
      "inputs": [],
      "name": "maxAvailablePerTx",
      "outputs": [
        {
          "name": "",
          "type": "uint256"
        }
      ],
      "payable": false,
      "stateMutability": "view",
      "type": "function"
    },
    {
      "constant": false,
      "inputs": [
        {
          "name": "_messageId",
          "type": "bytes32"
        }
      ],
      "name": "requestFailedMessageFix",
      "outputs": [],
      "payable": false,
      "stateMutability": "nonpayable",
      "type": "function"
    },
    {
      "constant": true,
      "inputs": [],
      "name": "getBridgeInterfacesVersion",
      "outputs": [
        {
          "name": "major",
          "type": "uint64"
        },
        {
          "name": "minor",
          "type": "uint64"
        },
        {
          "name": "patch",
          "type": "uint64"
        }
      ],
      "payable": false,
      "stateMutability": "pure",
      "type": "function"
    },
    {
      "constant": true,
      "inputs": [],
      "name": "outOfLimitAmount",
      "outputs": [
        {
          "name": "",
          "type": "uint256"
        }
      ],
      "payable": false,
      "stateMutability": "view",
      "type": "function"
    },
    {
      "constant": false,
      "inputs": [
        {
          "name": "_minPerTx",
          "type": "uint256"
        }
      ],
      "name": "setMinPerTx",
      "outputs": [],
      "payable": false,
      "stateMutability": "nonpayable",
      "type": "function"
    },
    {
      "constant": false,
      "inputs": [
        {
          "name": "_from",
          "type": "address"
        },
        {
          "name": "_value",
          "type": "uint256"
        },
        {
          "name": "_data",
          "type": "bytes"
        }
      ],
      "name": "onTokenTransfer",
      "outputs": [
        {
          "name": "",
          "type": "bool"
        }
      ],
      "payable": false,
      "stateMutability": "nonpayable",
      "type": "function"
    },
    {
      "constant": false,
      "inputs": [
        {
          "name": "messageId",
          "type": "bytes32"
        },
        {
          "name": "unlockOnOtherSide",
          "type": "bool"
        },
        {
          "name": "valueToUnlock",
          "type": "uint256"
        }
      ],
      "name": "fixAssetsAboveLimits",
      "outputs": [],
      "payable": false,
      "stateMutability": "nonpayable",
      "type": "function"
    },
    {
      "constant": false,
      "inputs": [
        {
          "name": "_dailyLimit",
          "type": "uint256"
        }
      ],
      "name": "setDailyLimit",
      "outputs": [],
      "payable": false,
      "stateMutability": "nonpayable",
      "type": "function"
    },
    {
      "constant": true,
      "inputs": [],
      "name": "requestGasLimit",
      "outputs": [
        {
          "name": "",
          "type": "uint256"
        }
      ],
      "payable": false,
      "stateMutability": "view",
      "type": "function"
    },
    {
      "constant": false,
      "inputs": [
        {
          "name": "_bridgeContract",
          "type": "address"
        },
        {
          "name": "_mediatorContract",
          "type": "address"
        },
        {
          "name": "_erc677token",
          "type": "address"
        },
        {
          "name": "_dailyLimitMaxPerTxMinPerTxArray",
          "type": "uint256[3]"
        },
        {
          "name": "_executionDailyLimitExecutionMaxPerTxArray",
          "type": "uint256[2]"
        },
        {
          "name": "_requestGasLimit",
          "type": "uint256"
        },
        {
          "name": "_decimalShift",
          "type": "int256"
        },
        {
          "name": "_owner",
          "type": "address"
        }
      ],
      "name": "initialize",
      "outputs": [
        {
          "name": "",
          "type": "bool"
        }
      ],
      "payable": false,
      "stateMutability": "nonpayable",
      "type": "function"
    },
    {
      "constant": false,
      "inputs": [
        {
          "name": "_maxPerTx",
          "type": "uint256"
        }
      ],
      "name": "setMaxPerTx",
      "outputs": [],
      "payable": false,
      "stateMutability": "nonpayable",
      "type": "function"
    },
    {
      "constant": true,
      "inputs": [],
      "name": "bridgeContract",
      "outputs": [
        {
          "name": "",
          "type": "address"
        }
      ],
      "payable": false,
      "stateMutability": "view",
      "type": "function"
    },
    {
      "constant": true,
      "inputs": [],
      "name": "decimalShift",
      "outputs": [
        {
          "name": "",
          "type": "int256"
        }
      ],
      "payable": false,
      "stateMutability": "view",
      "type": "function"
    },
    {
      "constant": true,
      "inputs": [],
      "name": "minPerTx",
      "outputs": [
        {
          "name": "",
          "type": "uint256"
        }
      ],
      "payable": false,
      "stateMutability": "view",
      "type": "function"
    },
    {
      "constant": true,
      "inputs": [
        {
          "name": "_amount",
          "type": "uint256"
        }
      ],
      "name": "withinLimit",
      "outputs": [
        {
          "name": "",
          "type": "bool"
        }
      ],
      "payable": false,
      "stateMutability": "view",
      "type": "function"
    },
    {
      "constant": false,
      "inputs": [
        {
          "name": "_maxPerTx",
          "type": "uint256"
        }
      ],
      "name": "setExecutionMaxPerTx",
      "outputs": [],
      "payable": false,
      "stateMutability": "nonpayable",
      "type": "function"
    },
    {
      "constant": false,
      "inputs": [
        {
          "name": "newOwner",
          "type": "address"
        }
      ],
      "name": "transferOwnership",
      "outputs": [],
      "payable": false,
      "stateMutability": "nonpayable",
      "type": "function"
    },
    {
      "constant": false,
      "inputs": [
        {
          "name": "_requestGasLimit",
          "type": "uint256"
        }
      ],
      "name": "setRequestGasLimit",
      "outputs": [],
      "payable": false,
      "stateMutability": "nonpayable",
      "type": "function"
    },
    {
      "constant": true,
      "inputs": [],
      "name": "maxPerTx",
      "outputs": [
        {
          "name": "",
          "type": "uint256"
        }
      ],
      "payable": false,
      "stateMutability": "view",
      "type": "function"
    },
    {
      "anonymous": false,
      "inputs": [
        {
          "indexed": true,
          "name": "messageId",
          "type": "bytes32"
        },
        {
          "indexed": false,
          "name": "recipient",
          "type": "address"
        },
        {
          "indexed": false,
          "name": "value",
          "type": "uint256"
        }
      ],
      "name": "FailedMessageFixed",
      "type": "event"
    },
    {
      "anonymous": false,
      "inputs": [
        {
          "indexed": true,
          "name": "sender",
          "type": "address"
        },
        {
          "indexed": false,
          "name": "value",
          "type": "uint256"
        },
        {
          "indexed": true,
          "name": "messageId",
          "type": "bytes32"
        }
      ],
      "name": "TokensBridgingInitiated",
      "type": "event"
    },
    {
      "anonymous": false,
      "inputs": [
        {
          "indexed": true,
          "name": "recipient",
          "type": "address"
        },
        {
          "indexed": false,
          "name": "value",
          "type": "uint256"
        },
        {
          "indexed": true,
          "name": "messageId",
          "type": "bytes32"
        }
      ],
      "name": "TokensBridged",
      "type": "event"
    },
    {
      "anonymous": false,
      "inputs": [
        {
          "indexed": false,
          "name": "newLimit",
          "type": "uint256"
        }
      ],
      "name": "DailyLimitChanged",
      "type": "event"
    },
    {
      "anonymous": false,
      "inputs": [
        {
          "indexed": false,
          "name": "newLimit",
          "type": "uint256"
        }
      ],
      "name": "ExecutionDailyLimitChanged",
      "type": "event"
    },
    {
      "anonymous": false,
      "inputs": [
        {
          "indexed": false,
          "name": "previousOwner",
          "type": "address"
        },
        {
          "indexed": false,
          "name": "newOwner",
          "type": "address"
        }
      ],
      "name": "OwnershipTransferred",
      "type": "event"
    },
    {
      "anonymous": false,
      "inputs": [
        {
          "indexed": false,
          "name": "recipient",
          "type": "address"
        },
        {
          "indexed": false,
          "name": "value",
          "type": "uint256"
        },
        {
          "indexed": true,
          "name": "messageId",
          "type": "bytes32"
        }
      ],
      "name": "MediatorAmountLimitExceeded",
      "type": "event"
    },
    {
      "anonymous": false,
      "inputs": [
        {
          "indexed": false,
          "name": "recipient",
          "type": "address"
        },
        {
          "indexed": false,
          "name": "value",
          "type": "uint256"
        },
        {
          "indexed": true,
          "name": "transactionHash",
          "type": "bytes32"
        },
        {
          "indexed": false,
          "name": "messageId",
          "type": "bytes32"
        }
      ],
      "name": "AmountLimitExceeded",
      "type": "event"
    },
    {
      "anonymous": false,
      "inputs": [
        {
          "indexed": true,
          "name": "messageId",
          "type": "bytes32"
        },
        {
          "indexed": false,
          "name": "value",
          "type": "uint256"
        },
        {
          "indexed": false,
          "name": "remaining",
          "type": "uint256"
        }
      ],
      "name": "AssetAboveLimitsFixed",
      "type": "event"
    }
  ],
  "bytecode": {
    "object": "0x608060405234801561001057600080fd5b50613496806100206000396000f3006080604052600436106101dc5760003560e01c63ffffffff16806301e4f53a146101e15780630950d515146102075780630b26cf661461021f57806318d8f9c9146102405780632bd0bb0514610271578063392e53cd1461029b5780633dd95d1b146102c45780633e6968b6146102dc578063437764df146102f157806343b37dd31461033b5780634b94f815146103505780634fb3fef71461036557806358bf7c791461037d578063593399821461039e57806367eeba0c146103b657806369ffa08a146103cb5780636e5d6bea146103f2578063871c076014610413578063879ce676146104285780638aa1949a146104405780638b6c0354146104555780638da5cb5b1461047957806395e54a171461048e5780639a4a4395146104a35780639cb7595a146104bb578063a0189345146104fc578063a2a6ca2714610511578063a4c0ed3614610529578063a7444c0d1461055a578063b20d30a91461057a578063be3b625b14610592578063c0b0d022146105a7578063c6f6f2161461063c578063cd59658314610654578063dae5f0fd14610669578063df25f3f01461067e578063ea9f496814610693578063f20151e1146106ab578063f2fde38b146106c3578063f3b83791146106e4578063f968adbe146106fc575b600080fd5b3480156101ed57600080fd5b50610205600160a060020a0360043516602435610711565b005b34801561021357600080fd5b506102056004356107c7565b34801561022b57600080fd5b50610205600160a060020a0360043516610896565b34801561024c57600080fd5b506102556108be565b60408051600160a060020a039092168252519081900360200190f35b34801561027d57600080fd5b506102896004356108cd565b60408051918252519081900360200190f35b3480156102a757600080fd5b506102b061098a565b604080519115158252519081900360200190f35b3480156102d057600080fd5b506102056004356109db565b3480156102e857600080fd5b50610289610a9b565b3480156102fd57600080fd5b50610306610aa4565b604080517fffffffff000000000000000000000000000000000000000000000000000000009092168252519081900360200190f35b34801561034757600080fd5b50610289610ac8565b34801561035c57600080fd5b50610289610b16565b34801561037157600080fd5b50610289600435610b63565b34801561038957600080fd5b50610205600160a060020a0360043516610bde565b3480156103aa57600080fd5b506102b0600435610d7c565b3480156103c257600080fd5b50610289610e45565b3480156103d757600080fd5b50610205600160a060020a0360043581169060243516610e93565b3480156103fe57600080fd5b50610205600160a060020a0360043516610f3c565b34801561041f57600080fd5b50610255610f61565b34801561043457600080fd5b506102b0600435610fb8565b34801561044c57600080fd5b50610289611002565b34801561046157600080fd5b50610205600160a060020a0360043516602435611050565b34801561048557600080fd5b506102556110d0565b34801561049a57600080fd5b50610289611127565b3480156104af57600080fd5b50610205600435611181565b3480156104c757600080fd5b506104d06114c6565b6040805167ffffffffffffffff9485168152928416602084015292168183015290519081900360600190f35b34801561050857600080fd5b506102896114d1565b34801561051d57600080fd5b5061020560043561151f565b34801561053557600080fd5b506102b060048035600160a060020a03169060248035916044359182019101356115bb565b34801561056657600080fd5b506102056004356024351515604435611658565b34801561058657600080fd5b506102056004356117b0565b34801561059e57600080fd5b50610289611870565b3480156105b357600080fd5b506040805160608181019092526102b091600160a060020a03600480358216936024358316936044359093169236929160c49160649060039083908390808284375050604080518082018252949796958181019594509250600291508390839080828437509396505083359450505060208201359160400135600160a060020a031690506118be565b34801561064857600080fd5b50610205600435611a87565b34801561066057600080fd5b50610255611b1f565b34801561067557600080fd5b50610289611b76565b34801561068a57600080fd5b50610289611bc4565b34801561069f57600080fd5b506102b0600435611c12565b3480156106b757600080fd5b50610205600435611c5d565b3480156106cf57600080fd5b50610205600160a060020a0360043516611cd9565b3480156106f057600080fd5b50610205600435611cfe565b34801561070857600080fd5b50610289611d23565b600061071b611d71565b1561072557600080fd5b61072d6108be565b905061073882611c12565b151561074357600080fd5b61075461074e610a9b565b83611d96565b61075e6001611e5f565b610778600160a060020a038216338463ffffffff611e8316565b6107826000611e5f565b6107c2813384866040516020018082600160a060020a0316600160a060020a031660601b8152601401915050604051602081830303815290604052611f26565b505050565b6000806107d2611b1f565b600160a060020a031633146107e657600080fd5b6107ee610f61565b600160a060020a03166107ff611f5d565b600160a060020a03161461081257600080fd5b61081b83610d7c565b1561082557600080fd5b61082e83611fd2565b9150610839836120a1565b905061084483612124565b61084e82826121f6565b60408051600160a060020a038416815260208101839052815185927f06297b0797e3363e96e454edd4ab62862051bf559a7a431ce09415306771d133928290030190a2505050565b61089e6110d0565b600160a060020a031633146108b257600080fd5b6108bb81612228565b50565b60006108c86122b3565b905090565b60008060008360405160200180807f746f74616c5370656e74506572446179000000000000000000000000000000008152506010018281526020019150506040516020818303038152906040526040518082805190602001908083835b602083106109495780518252601f19909201916020918201910161092a565b51815160209384036101000a600019018019909216911617905260408051929094018290039091208652850195909552929092016000205495945050505050565b7f0a6f646cd611241d8073675e00d1a1ff700fbf1b53fcf473de56d1e6e4b714ba60005260046020527f078d888f9b66f3f8bfa10909e31f1e16240db73449f0500afdbbe3a70da457cc5460ff1690565b6109e36110d0565b600160a060020a031633146109f757600080fd5b6109ff611002565b811180610a0a575080155b1515610a1557600080fd5b7f21dbcab260e413c20dc13c28b7db95e2b423d1135f42bb8b7d5214a92270d237600090815260209081527fadd938dbd083a16bae12238cd914fca0afc7a30edb55b1cd5c7f1823f1b0e4218290556040805183815290517f9bebf928b90863f24cc31f726a3a7545efd409f1dcf552301b1ee3710da70d3b929181900390910190a150565b62015180420490565b7f76595b560000000000000000000000000000000000000000000000000000000090565b7f21dbcab260e413c20dc13c28b7db95e2b423d1135f42bb8b7d5214a92270d23760009081526020527fadd938dbd083a16bae12238cd914fca0afc7a30edb55b1cd5c7f1823f1b0e4215490565b7f3db340e280667ee926fa8c51e8f9fcf88a0ff221a66d84d63b4778127d97d13960009081526020527ef98556deae64bbaa11436ee534ae029e85ed112aff9b71330af4c2d320eac95490565b60008060008360405160200180807f746f74616c457865637574656450657244617900000000000000000000000000815250601301828152602001915050604051602081830303815290604052604051808280519060200190808383602083106109495780518252601f19909201916020918201910161092a565b60008060008030600160a060020a0316636fde82026040518163ffffffff1660e01b8152600401602060405180830381600087803b158015610c1f57600080fd5b505af1158015610c33573d6000803e3d6000fd5b505050506040513d6020811015610c4957600080fd5b5051600160a060020a03163314610c5f57600080fd5b84600160a060020a0381161515610c7557600080fd5b610c7d6122b3565b600160a060020a03166370a08231306040518263ffffffff1660e01b81526004018082600160a060020a0316600160a060020a03168152602001915050602060405180830381600087803b158015610cd457600080fd5b505af1158015610ce8573d6000803e3d6000fd5b505050506040513d6020811015610cfe57600080fd5b50519450610d0a610b16565b9350838511610d1857600080fd5b8385039250610d25611127565b915060008211610d3457600080fd5b81831115610d40578192505b610d51610d4b610a9b565b84611d96565b610d69610d64858563ffffffff61230a16565b61231d565b610d74868785612369565b505050505050565b6000600460008360405160200180807f6d65737361676546697865640000000000000000000000000000000000000000815250600c0182600019166000191681526020019150506040516020818303038152906040526040518082805190602001908083835b60208310610e015780518252601f199092019160209182019101610de2565b51815160209384036101000a600019018019909216911617905260408051929094018290039091208652850195909552929092016000205460ff1695945050505050565b7f4a6a899679f26b73530d8cf1001e83b6f7702e04b6fdb98f3c62dc7e47e041a560009081526020527f1ab29a5cca988aee50edccdd61c5bcaa7ad4b29a03b7ee50f298ceccfe14cc4e5490565b30600160a060020a0316636fde82026040518163ffffffff1660e01b8152600401602060405180830381600087803b158015610ece57600080fd5b505af1158015610ee2573d6000803e3d6000fd5b505050506040513d6020811015610ef857600080fd5b5051600160a060020a03163314610f0e57600080fd5b610f166122b3565b600160a060020a0383811691161415610f2e57600080fd5b610f38828261254d565b5050565b610f446110d0565b600160a060020a03163314610f5857600080fd5b6108bb8161258b565b7f98aa806e31e94a687a31c65769cb99670064dd7f5a87526da075c5fb4eab988060005260026020527f0c1206883be66049a02d4937078367c00b3d71dd1a9465df969363c6ddeac96d54600160a060020a031690565b600080610fdb83610fcf610fca610a9b565b610b63565b9063ffffffff61230a16565b905080610fe6610ac8565b10158015610ffb5750610ff7611002565b8311155b9392505050565b7fc0ed44c192c86d1cc1ba51340b032c2766b4a2b0041031de13c46dd7104888d560009081526020527ff8e983ee86e5e377e9e34c9131b266382c3f04113d20de077f9e12663c7a646b5490565b611058611b1f565b600160a060020a0316331461106c57600080fd5b611074610f61565b600160a060020a0316611085611f5d565b600160a060020a03161461109857600080fd5b6110a181610fb8565b156110c6576110b76110b1610a9b565b82612602565b6110c18282612688565b610f38565b610f388282612702565b7f02016836a56b71f0d02689e69e326f4f4c1b9057164ef592671cf0d37c8040c060005260026020527fb7802e97e87ef2842a6cce7da7ffaeaedaa2f61a6a7870b23d9d01fc9b73712e54600160a060020a031690565b6000806000806000611137611d23565b9350611141610e45565b925061115361114e610a9b565b6108cd565b9150818311611163576000611167565b8183035b90508084106111765780611178565b835b94505050505090565b6000606061118d611b1f565b600160a060020a031663cb08a10c846040518263ffffffff1660e01b8152600401808260001916600019168152602001915050602060405180830381600087803b1580156111da57600080fd5b505af11580156111ee573d6000803e3d6000fd5b505050506040513d602081101561120457600080fd5b50511561121057600080fd5b30611219611b1f565b600160a060020a0316633f9a8e7e856040518263ffffffff1660e01b8152600401808260001916600019168152602001915050602060405180830381600087803b15801561126657600080fd5b505af115801561127a573d6000803e3d6000fd5b505050506040513d602081101561129057600080fd5b5051600160a060020a0316146112a557600080fd5b6112ad610f61565b600160a060020a03166112be611b1f565b600160a060020a0316634a610b04856040518263ffffffff1660e01b8152600401808260001916600019168152602001915050602060405180830381600087803b15801561130b57600080fd5b505af115801561131f573d6000803e3d6000fd5b505050506040513d602081101561133557600080fd5b5051600160a060020a03161461134a57600080fd5b50506040805160248082018490528251808303909101815260449091019091526020810180517bffffffffffffffffffffffffffffffffffffffffffffffffffffffff167f0950d51500000000000000000000000000000000000000000000000000000000908117909152906113be611b1f565b600160a060020a031663dc8601b36113d4610f61565b836113dd611870565b6040518463ffffffff1660e01b81526004018084600160a060020a0316600160a060020a0316815260200180602001838152602001828103825284818151815260200191508051906020019080838360005b8381101561144757818101518382015260200161142f565b50505050905090810190601f1680156114745780820380516001836020036101000a031916815260200191505b50945050505050602060405180830381600087803b15801561149557600080fd5b505af11580156114a9573d6000803e3d6000fd5b505050506040513d60208110156114bf57600080fd5b5050505050565b600160046000909192565b7f145286dc85799b6fb9fe322391ba2d95683077b2adf34dd576dedc437e537ba760009081526020527fba10c7a68bf463c41368d64adcf7df23c0de931ea3b09f061e2dfec302fef95f5490565b6115276110d0565b600160a060020a0316331461153b57600080fd5b600081118015611551575061154e610e45565b81105b80156115635750611560611d23565b81105b151561156e57600080fd5b7fbbb088c505d18e049d114c7c91f11724e69c55ad6c5397e2b929e68b41fa05d160009081526020527f8df5c48c6b6e11d97548adc824ba0c99103ec09830fa5d53a179984085e6eaa055565b6000806115c66108be565b905033600160a060020a038216146115dd57600080fd5b6115e5611d71565b1515611610576115f485611c12565b15156115ff57600080fd5b61161061160a610a9b565b86611d96565b61164c81878787878080601f01602080910402602001604051908101604052809392919081815260200183838082843750611f26945050505050565b50600195945050505050565b600080600030600160a060020a0316636fde82026040518163ffffffff1660e01b8152600401602060405180830381600087803b15801561169857600080fd5b505af11580156116ac573d6000803e3d6000fd5b505050506040513d60208110156116c257600080fd5b5051600160a060020a031633146116d857600080fd5b6116e1866127a3565b9093509150600160a060020a038316158015906116fe5750600082115b801561170a5750838210155b151561171557600080fd5b611735611730856117246114d1565b9063ffffffff61292a16565b61293c565b611745828563ffffffff61292a16565b90506117518187612989565b6040805185815260208101839052815188927f5bcec6564fe8d2cbb4e4eb8237510ceb6b291a5c2ee2e429948d25e9c924c1fa928290030190a28415610d7457611799611d23565b8411156117a557600080fd5b610d74838486612369565b6117b86110d0565b600160a060020a031633146117cc57600080fd5b6117d4611d23565b8111806117df575080155b15156117ea57600080fd5b7f4a6a899679f26b73530d8cf1001e83b6f7702e04b6fdb98f3c62dc7e47e041a5600090815260209081527f1ab29a5cca988aee50edccdd61c5bcaa7ad4b29a03b7ee50f298ceccfe14cc4e8290556040805183815290517fad4123ae17c414d9c6d2fec478b402e6b01856cc250fd01fbfd252fda0089d3c929181900390910190a150565b7f2dfd6c9f781bb6bbb5369c114e949b69ebb440ef3d4dd6b2836225eb1dc3a2be60009081526020527f2de0d2cdc19d356cb53b5984f91bfd3b31fe0c678a0d190a6db39274bb34753f5490565b60408051600481526024810182526020810180517bffffffffffffffffffffffffffffffffffffffffffffffffffffffff167f6fde8202000000000000000000000000000000000000000000000000000000001781529151815160009330939291829190808383895b8381101561193f578181015183820152602001611927565b50505050905090810190601f16801561196c5780820380516001836020036101000a031916815260200191505b509150506000604051808303816000865af191505015806119fb575030600160a060020a0316636fde82026040518163ffffffff1660e01b8152600401602060405180830381600087803b1580156119c357600080fd5b505af11580156119d7573d6000803e3d6000fd5b505050506040513d60208110156119ed57600080fd5b5051600160a060020a031633145b80611a0557503330145b1515611a1057600080fd5b611a1861098a565b15611a2257600080fd5b611a2b89612228565b611a348861258b565b611a3d87612a0b565b611a4686612a96565b611a4f85612bf3565b611a5884612cc8565b611a6183612d29565b611a6a82612d92565b611a72612e69565b611a7a61098a565b9998505050505050505050565b611a8f6110d0565b600160a060020a03163314611aa357600080fd5b801580611ac75750611ab3611bc4565b81118015611ac75750611ac4610e45565b81105b1515611ad257600080fd5b7f0f8803acad17c63ee38bf2de71e1888bc7a079a6f73658e274b08018bea4e29c60009081526020527f9de0f81379b4d8e60fe509315d071b56e7b732abaf193e74e0d15808b0951d0955565b7f811bbb11e8899da471f0e69a3ed55090fc90215227fc5fb1cb0d6e962ea7b74f60005260026020527fb4ed64697d3ef8518241966f7c6f28b0d72f20f51198717d198d2d55076c593d54600160a060020a031690565b7f1e8ecaafaddea96ed9ac6d2642dcdfe1bebe58a930b1085842d8fc122b371ee560009081526020527fd5c78dd9468716ca9bb96be25d56436811b20aab3523a9904b12deef1cab239d5490565b7fbbb088c505d18e049d114c7c91f11724e69c55ad6c5397e2b929e68b41fa05d160009081526020527f8df5c48c6b6e11d97548adc824ba0c99103ec09830fa5d53a179984085e6eaa05490565b600080611c2483610fcf61114e610a9b565b905080611c2f610e45565b10158015611c445750611c40611d23565b8311155b8015610ffb5750611c53611bc4565b9092101592915050565b611c656110d0565b600160a060020a03163314611c7957600080fd5b611c81610ac8565b8110611c8c57600080fd5b7fc0ed44c192c86d1cc1ba51340b032c2766b4a2b0041031de13c46dd7104888d560009081526020527ff8e983ee86e5e377e9e34c9131b266382c3f04113d20de077f9e12663c7a646b55565b611ce16110d0565b600160a060020a03163314611cf557600080fd5b6108bb81612d92565b611d066110d0565b600160a060020a03163314611d1a57600080fd5b6108bb81612cc8565b7f0f8803acad17c63ee38bf2de71e1888bc7a079a6f73658e274b08018bea4e29c60009081526020527f9de0f81379b4d8e60fe509315d071b56e7b732abaf193e74e0d15808b0951d095490565b7f6168652c307c1e813ca11cfb3a601f1cf3b22452021a5052d8b05f1f1f8a3e925490565b611da381610fcf846108cd565b6000808460405160200180807f746f74616c5370656e74506572446179000000000000000000000000000000008152506010018281526020019150506040516020818303038152906040526040518082805190602001908083835b60208310611e1d5780518252601f199092019160209182019101611dfe565b51815160209384036101000a60001901801990921691161790526040805192909401829003909120865285019590955292909201600020939093555050505050565b7f6168652c307c1e813ca11cfb3a601f1cf3b22452021a5052d8b05f1f1f8a3e9255565b604080517f23b872dd000000000000000000000000000000000000000000000000000000008152600160a060020a038481166004830152306024830152604482018490529151918516916323b872dd9160648082019260009290919082900301818387803b158015611ef457600080fd5b505af1158015611f08573d6000803e3d6000fd5b505050503d156107c25760206000803e60005115156107c257600080fd5b611f2e611d71565b1515611f5757611f43610d6483610fcf610b16565b611f5783611f518584612ec0565b84612369565b50505050565b6000611f67611b1f565b600160a060020a031663d67bdd256040518163ffffffff1660e01b8152600401602060405180830381600087803b158015611fa157600080fd5b505af1158015611fb5573d6000803e3d6000fd5b505050506040513d6020811015611fcb57600080fd5b5051905090565b6000600260008360405160200180807f6d657373616765526563697069656e740000000000000000000000000000000081525060100182600019166000191681526020019150506040516020818303038152906040526040518082805190602001908083835b602083106120575780518252601f199092019160209182019101612038565b51815160209384036101000a6000190180199092169116179052604080519290940182900390912086528501959095529290920160002054600160a060020a031695945050505050565b60008060008360405160200180807f6d65737361676556616c75650000000000000000000000000000000000000000815250600c018260001916600019168152602001915050604051602081830303815290604052604051808280519060200190808383602083106109495780518252601f19909201916020918201910161092a565b6001600460008360405160200180807f6d65737361676546697865640000000000000000000000000000000000000000815250600c0182600019166000191681526020019150506040516020818303038152906040526040518082805190602001908083835b602083106121a95780518252601f19909201916020918201910161218a565b51815160209384036101000a60001901801990921691161790526040805192909401829003909120865285019590955292909201600020805460ff19169415159490941790935550505050565b612205610d6482611724610b16565b610f3882826122126108be565b600160a060020a0316919063ffffffff612f1a16565b61223181612f7a565b151561223c57600080fd5b7f811bbb11e8899da471f0e69a3ed55090fc90215227fc5fb1cb0d6e962ea7b74f60005260026020527fb4ed64697d3ef8518241966f7c6f28b0d72f20f51198717d198d2d55076c593d805473ffffffffffffffffffffffffffffffffffffffff1916600160a060020a0392909216919091179055565b7fa8b0ade3e2b734f043ce298aca4cc8d19d74270223f34531d0988b7d00cba21d60005260026020527f603cd9dcbfa185d5c37504f4c8b3f16117ed744fba48d08b7aad44a162af1c9354600160a060020a031690565b8181018281101561231757fe5b92915050565b7f3db340e280667ee926fa8c51e8f9fcf88a0ff221a66d84d63b4778127d97d13960009081526020527ef98556deae64bbaa11436ee534ae029e85ed112aff9b71330af4c2d320eac955565b60408051600160a060020a038416602482015260448082018490528251808303909101815260649091019091526020810180517bffffffffffffffffffffffffffffffffffffffffffffffffffffffff167f8b6c0354000000000000000000000000000000000000000000000000000000009081179091529060006123ec611b1f565b600160a060020a031663dc8601b3612402610f61565b8461240b611870565b6040518463ffffffff1660e01b81526004018084600160a060020a0316600160a060020a0316815260200180602001838152602001828103825284818151815260200191508051906020019080838360005b8381101561247557818101518382015260200161245d565b50505050905090810190601f1680156124a25780820380516001836020036101000a031916815260200191505b50945050505050602060405180830381600087803b1580156124c357600080fd5b505af11580156124d7573d6000803e3d6000fd5b505050506040513d60208110156124ed57600080fd5b505190506124fb8185612f82565b6125058187613004565b6040805185815290518291600160a060020a038916917f3a5557a7cf72d28e8da836aeff2de822440d01a036e571c12c4c48611a0a41799181900360200190a3505050505050565b80600160a060020a038116151561256357600080fd5b600160a060020a03831615156125815761257c826130f2565b6107c2565b6107c283836130fe565b7f98aa806e31e94a687a31c65769cb99670064dd7f5a87526da075c5fb4eab988060005260026020527f0c1206883be66049a02d4937078367c00b3d71dd1a9465df969363c6ddeac96d805473ffffffffffffffffffffffffffffffffffffffff1916600160a060020a0392909216919091179055565b61260f81610fcf84610b63565b6000808460405160200180807f746f74616c45786563757465645065724461790000000000000000000000000081525060130182815260200191505060405160208183030381529060405260405180828051906020019080838360208310611e1d5780518252601f199092019160209182019101611dfe565b600080612694836131ab565b915061269e6131c1565b90506126af610d6483611724610b16565b6126bc84836122126108be565b6040805183815290518291600160a060020a038716917f2f9a6098d4503a127779ba975f5f6b04f842362b1809f346989e9abc0b4dedb69181900360200190a350505050565b600080600061270f6131c1565b925061271a836127a3565b9092509050600160a060020a038216158015612734575080155b151561273f57600080fd5b61274e61173085610fcf6114d1565b612759858585613205565b60408051600160a060020a038716815260208101869052815185927f3344bbb992063ed4b833dabd5d5e55fc18df085bb96654e83aafbfe22e4116ff928290030190a25050505050565b600080600260008460405160200180807f74784f75744f664c696d6974526563697069656e74000000000000000000000081525060150182600019166000191681526020019150506040516020818303038152906040526040518082805190602001908083835b602083106128295780518252601f19909201916020918201910161280a565b51815160209384036101000a600019018019909216911617905260408051929094018290039091208652858101969096525092830160009081205484517f74784f75744f664c696d697456616c75650000000000000000000000000000008188015260318082018b9052865180830390910181526051909101958690528051600160a060020a0390921698509195869592945091925082918401908083835b602083106128e75780518252601f1990920191602091820191016128c8565b51815160209384036101000a6000190180199092169116179052604080519290940182900390912086528501959095529290920160002054949694955050505050565b60008282111561293657fe5b50900390565b7f145286dc85799b6fb9fe322391ba2d95683077b2adf34dd576dedc437e537ba760009081526020527fba10c7a68bf463c41368d64adcf7df23c0de931ea3b09f061e2dfec302fef95f55565b816000808360405160200180807f74784f75744f664c696d697456616c7565000000000000000000000000000000815250601101826000191660001916815260200191505060405160208183030381529060405260405180828051906020019080838360208310611e1d5780518252601f199092019160209182019101611dfe565b612a1481612f7a565b1515612a1f57600080fd5b7fa8b0ade3e2b734f043ce298aca4cc8d19d74270223f34531d0988b7d00cba21d60005260026020527f603cd9dcbfa185d5c37504f4c8b3f16117ed744fba48d08b7aad44a162af1c93805473ffffffffffffffffffffffffffffffffffffffff1916600160a060020a0392909216919091179055565b60408101516000108015612ab1575060408101516020820151115b8015612ac1575060208101518151115b1515612acc57600080fd5b80517f4a6a899679f26b73530d8cf1001e83b6f7702e04b6fdb98f3c62dc7e47e041a5600090815260208181527f1ab29a5cca988aee50edccdd61c5bcaa7ad4b29a03b7ee50f298ceccfe14cc4e92909255908201517f0f8803acad17c63ee38bf2de71e1888bc7a079a6f73658e274b08018bea4e29c82527f9de0f81379b4d8e60fe509315d071b56e7b732abaf193e74e0d15808b0951d095560408201517fbbb088c505d18e049d114c7c91f11724e69c55ad6c5397e2b929e68b41fa05d182527f8df5c48c6b6e11d97548adc824ba0c99103ec09830fa5d53a179984085e6eaa0557fad4123ae17c414d9c6d2fec478b402e6b01856cc250fd01fbfd252fda0089d3c9082905b60200201516040518082815260200191505060405180910390a150565b8051602082015110612c0457600080fd5b80517f21dbcab260e413c20dc13c28b7db95e2b423d1135f42bb8b7d5214a92270d237600090815260208181527fadd938dbd083a16bae12238cd914fca0afc7a30edb55b1cd5c7f1823f1b0e42192909255908201517fc0ed44c192c86d1cc1ba51340b032c2766b4a2b0041031de13c46dd7104888d582527ff8e983ee86e5e377e9e34c9131b266382c3f04113d20de077f9e12663c7a646b557f9bebf928b90863f24cc31f726a3a7545efd409f1dcf552301b1ee3710da70d3b908290612bd6565b612cd06132fb565b811115612cdc57600080fd5b7f2dfd6c9f781bb6bbb5369c114e949b69ebb440ef3d4dd6b2836225eb1dc3a2be60009081526020527f2de0d2cdc19d356cb53b5984f91bfd3b31fe0c678a0d190a6db39274bb34753f55565b604c1981138015612d3a5750604d81125b1515612d4557600080fd5b7f1e8ecaafaddea96ed9ac6d2642dcdfe1bebe58a930b1085842d8fc122b371ee560009081526020527fd5c78dd9468716ca9bb96be25d56436811b20aab3523a9904b12deef1cab239d55565b600160a060020a0381161515612da757600080fd5b7f8be0079c531659141344cd1fd0a4f28419497f9722a3daafe3b4186f6b6457e0612dd06110d0565b60408051600160a060020a03928316815291841660208301528051918290030190a17f02016836a56b71f0d02689e69e326f4f4c1b9057164ef592671cf0d37c8040c060005260026020527fb7802e97e87ef2842a6cce7da7ffaeaedaa2f61a6a7870b23d9d01fc9b73712e805473ffffffffffffffffffffffffffffffffffffffff1916600160a060020a0392909216919091179055565b7f0a6f646cd611241d8073675e00d1a1ff700fbf1b53fcf473de56d1e6e4b714ba60005260046020527f078d888f9b66f3f8bfa10909e31f1e16240db73449f0500afdbbe3a70da457cc805460ff19166001179055565b8051829060001015612317578151601414612eda57600080fd5b612ee38261333f565b9050600160a060020a0381161515612efa57600080fd5b612f02613346565b600160a060020a038281169116141561231757600080fd5b82600160a060020a031663a9059cbb83836040518363ffffffff1660e01b81526004018083600160a060020a0316600160a060020a0316815260200182815260200192505050600060405180830381600087803b158015611ef457600080fd5b6000903b1190565b806000808460405160200180807f6d65737361676556616c75650000000000000000000000000000000000000000815250600c01826000191660001916815260200191505060405160208183030381529060405260405180828051906020019080838360208310611e1d5780518252601f199092019160209182019101611dfe565b80600260008460405160200180807f6d657373616765526563697069656e740000000000000000000000000000000081525060100182600019166000191681526020019150506040516020818303038152906040526040518082805190602001908083835b602083106130885780518252601f199092019160209182019101613069565b51815160209384036101000a60001901801990921691161790526040805192909401829003909120865285019590955292909201600020805473ffffffffffffffffffffffffffffffffffffffff1916600160a060020a0395909516949094179093555050505050565b3031610f388282613350565b604080517f70a0823100000000000000000000000000000000000000000000000000000000815230600482015290518391600091600160a060020a038416916370a0823191602480830192602092919082900301818787803b15801561316357600080fd5b505af1158015613177573d6000803e3d6000fd5b505050506040513d602081101561318d57600080fd5b50519050611f57600160a060020a038516848363ffffffff612f1a16565b6000612317826131b9611b76565b6000036133b1565b60006131cb611b1f565b600160a060020a031663669f618b6040518163ffffffff1660e01b8152600401602060405180830381600087803b158015611fa157600080fd5b82600260008360405160200180807f74784f75744f664c696d6974526563697069656e74000000000000000000000081525060150182600019166000191681526020019150506040516020818303038152906040526040518082805190602001908083835b602083106132895780518252601f19909201916020918201910161326a565b51815160209384036101000a60001901801990921691161790526040805192909401829003909120865285019590955292909201600020805473ffffffffffffffffffffffffffffffffffffffff1916600160a060020a039590951694909417909355506107c2915083905082612989565b6000613305611b1f565b600160a060020a031663e5789d036040518163ffffffff1660e01b8152600401602060405180830381600087803b158015611fa157600080fd5b6014015190565b60006108c8610f61565b604051600160a060020a0383169082156108fc029083906000818181858888f193505050501515610f3857808261338561343a565b600160a060020a039091168152604051908190036020019082f0801580156114bf573d6000803e3d6000fd5b60008115156133c1575081612317565b60008213156133e5576133de83600a84900a63ffffffff6133fc16565b9050612317565b610ffb836000849003600a0a63ffffffff61342516565b600082151561340d57506000612317565b5081810281838281151561341d57fe5b041461231757fe5b6000818381151561343257fe5b049392505050565b60405160218061344a833901905600608060405260405160208060218339810160405251600160a060020a038116ff00a165627a7a7230582013896c6e8778fa17efaecbd0d5dd5e5a362c198c42f5a26951599b7d589302510029",
    "linkReferences": {}
  },
  "methodIdentifiers": {
    "bridgeContract()": "cd596583",
    "claimTokens(address,address)": "69ffa08a",
    "dailyLimit()": "67eeba0c",
    "decimalShift()": "dae5f0fd",
    "erc677token()": "18d8f9c9",
    "executionDailyLimit()": "43b37dd3",
    "executionMaxPerTx()": "8aa1949a",
    "fixAssetsAboveLimits(bytes32,bool,uint256)": "a7444c0d",
    "fixFailedMessage(bytes32)": "0950d515",
    "fixMediatorBalance(address)": "58bf7c79",
    "getBridgeInterfacesVersion()": "9cb7595a",
    "getBridgeMode()": "437764df",
    "getCurrentDay()": "3e6968b6",
    "handleBridgedTokens(address,uint256)": "8b6c0354",
    "initialize(address,address,address,uint256[3],uint256[2],uint256,int256,address)": "c0b0d022",
    "isInitialized()": "392e53cd",
    "maxAvailablePerTx()": "95e54a17",
    "maxPerTx()": "f968adbe",
    "mediatorBalance()": "4b94f815",
    "mediatorContractOnOtherSide()": "871c0760",
    "messageFixed(bytes32)": "59339982",
    "minPerTx()": "df25f3f0",
    "onTokenTransfer(address,uint256,bytes)": "a4c0ed36",
    "outOfLimitAmount()": "a0189345",
    "owner()": "8da5cb5b",
    "relayTokens(address,uint256)": "01e4f53a",
    "requestFailedMessageFix(bytes32)": "9a4a4395",
    "requestGasLimit()": "be3b625b",
    "setBridgeContract(address)": "0b26cf66",
    "setDailyLimit(uint256)": "b20d30a9",
    "setExecutionDailyLimit(uint256)": "3dd95d1b",
    "setExecutionMaxPerTx(uint256)": "f20151e1",
    "setMaxPerTx(uint256)": "c6f6f216",
    "setMediatorContractOnOtherSide(address)": "6e5d6bea",
    "setMinPerTx(uint256)": "a2a6ca27",
    "setRequestGasLimit(uint256)": "f3b83791",
    "totalExecutedPerDay(uint256)": "4fb3fef7",
    "totalSpentPerDay(uint256)": "2bd0bb05",
    "transferOwnership(address)": "f2fde38b",
    "withinExecutionLimit(uint256)": "879ce676",
    "withinLimit(uint256)": "ea9f4968"
  },
  "id": 110
}