{
  "abi": [
    {
      "constant": true,
      "inputs": [
        {
          "name": "_txHash",
          "type": "bytes32"
        }
      ],
      "name": "relayedMessages",
      "outputs": [
        {
          "name": "",
          "type": "bool"
        }
      ],
      "payable": false,
      "stateMutability": "view",
      "type": "function"
    }
  ],
  "bytecode": {
    "object": "0x608060405234801561001057600080fd5b5061014a806100206000396000f3006080604052600436106100245760003560e01c63ffffffff16806321d800ec14610029575b600080fd5b34801561003557600080fd5b50610041600435610055565b604080519115158252519081900360200190f35b6000600460008360405160200180807f72656c617965644d657373616765730000000000000000000000000000000000815250600f0182600019166000191681526020019150506040516020818303038152906040526040518082805190602001908083835b602083106100da5780518252601f1990920191602091820191016100bb565b51815160209384036101000a600019018019909216911617905260408051929094018290039091208652850195909552929092016000205460ff16959450505050505600a165627a7a72305820010a35f4c55ca321d5e00a71eaa135304881e4d1fc8ef1cf9b28ed880c553cf60029",
    "linkReferences": {}
  },
  "methodIdentifiers": {
    "relayedMessages(bytes32)": "21d800ec"
  },
  "id": 21
}