{
  "abi": [
    {
      "constant": false,
      "inputs": [
        {
          "name": "_bridgeContract",
          "type": "address"
        }
      ],
      "name": "setBridgeContract",
      "outputs": [],
      "payable": false,
      "stateMutability": "nonpayable",
      "type": "function"
    },
    {
      "constant": false,
      "inputs": [
        {
          "name": "_mediatorContract",
          "type": "address"
        }
      ],
      "name": "setMediatorContractOnOtherSide",
      "outputs": [],
      "payable": false,
      "stateMutability": "nonpayable",
      "type": "function"
    },
    {
      "constant": true,
      "inputs": [],
      "name": "mediatorContractOnOtherSide",
      "outputs": [
        {
          "name": "",
          "type": "address"
        }
      ],
      "payable": false,
      "stateMutability": "view",
      "type": "function"
    },
    {
      "constant": true,
      "inputs": [],
      "name": "owner",
      "outputs": [
        {
          "name": "",
          "type": "address"
        }
      ],
      "payable": false,
      "stateMutability": "view",
      "type": "function"
    },
    {
      "constant": true,
      "inputs": [],
      "name": "requestGasLimit",
      "outputs": [
        {
          "name": "",
          "type": "uint256"
        }
      ],
      "payable": false,
      "stateMutability": "view",
      "type": "function"
    },
    {
      "constant": true,
      "inputs": [],
      "name": "bridgeContract",
      "outputs": [
        {
          "name": "",
          "type": "address"
        }
      ],
      "payable": false,
      "stateMutability": "view",
      "type": "function"
    },
    {
      "constant": false,
      "inputs": [
        {
          "name": "newOwner",
          "type": "address"
        }
      ],
      "name": "transferOwnership",
      "outputs": [],
      "payable": false,
      "stateMutability": "nonpayable",
      "type": "function"
    },
    {
      "constant": false,
      "inputs": [
        {
          "name": "_requestGasLimit",
          "type": "uint256"
        }
      ],
      "name": "setRequestGasLimit",
      "outputs": [],
      "payable": false,
      "stateMutability": "nonpayable",
      "type": "function"
    },
    {
      "anonymous": false,
      "inputs": [
        {
          "indexed": false,
          "name": "previousOwner",
          "type": "address"
        },
        {
          "indexed": false,
          "name": "newOwner",
          "type": "address"
        }
      ],
      "name": "OwnershipTransferred",
      "type": "event"
    }
  ],
  "bytecode": {
    "object": "0x608060405234801561001057600080fd5b50610642806100206000396000f3006080604052600436106100715760003560e01c63ffffffff1680630b26cf66146100765780636e5d6bea14610099578063871c0760146100ba5780638da5cb5b146100eb578063be3b625b14610100578063cd59658314610127578063f2fde38b1461013c578063f3b837911461015d575b600080fd5b34801561008257600080fd5b50610097600160a060020a0360043516610175565b005b3480156100a557600080fd5b50610097600160a060020a036004351661019d565b3480156100c657600080fd5b506100cf6101c2565b60408051600160a060020a039092168252519081900360200190f35b3480156100f757600080fd5b506100cf610219565b34801561010c57600080fd5b50610115610270565b60408051918252519081900360200190f35b34801561013357600080fd5b506100cf6102be565b34801561014857600080fd5b50610097600160a060020a0360043516610315565b34801561016957600080fd5b5061009760043561033a565b61017d610219565b600160a060020a0316331461019157600080fd5b61019a8161035f565b50565b6101a5610219565b600160a060020a031633146101b957600080fd5b61019a816103ea565b7f98aa806e31e94a687a31c65769cb99670064dd7f5a87526da075c5fb4eab988060005260026020527f0c1206883be66049a02d4937078367c00b3d71dd1a9465df969363c6ddeac96d54600160a060020a031690565b7f02016836a56b71f0d02689e69e326f4f4c1b9057164ef592671cf0d37c8040c060005260026020527fb7802e97e87ef2842a6cce7da7ffaeaedaa2f61a6a7870b23d9d01fc9b73712e54600160a060020a031690565b7f2dfd6c9f781bb6bbb5369c114e949b69ebb440ef3d4dd6b2836225eb1dc3a2be60009081526020527f2de0d2cdc19d356cb53b5984f91bfd3b31fe0c678a0d190a6db39274bb34753f5490565b7f811bbb11e8899da471f0e69a3ed55090fc90215227fc5fb1cb0d6e962ea7b74f60005260026020527fb4ed64697d3ef8518241966f7c6f28b0d72f20f51198717d198d2d55076c593d54600160a060020a031690565b61031d610219565b600160a060020a0316331461033157600080fd5b61019a81610461565b610342610219565b600160a060020a0316331461035657600080fd5b61019a81610538565b61036881610599565b151561037357600080fd5b7f811bbb11e8899da471f0e69a3ed55090fc90215227fc5fb1cb0d6e962ea7b74f60005260026020527fb4ed64697d3ef8518241966f7c6f28b0d72f20f51198717d198d2d55076c593d805473ffffffffffffffffffffffffffffffffffffffff1916600160a060020a0392909216919091179055565b7f98aa806e31e94a687a31c65769cb99670064dd7f5a87526da075c5fb4eab988060005260026020527f0c1206883be66049a02d4937078367c00b3d71dd1a9465df969363c6ddeac96d805473ffffffffffffffffffffffffffffffffffffffff1916600160a060020a0392909216919091179055565b600160a060020a038116151561047657600080fd5b7f8be0079c531659141344cd1fd0a4f28419497f9722a3daafe3b4186f6b6457e061049f610219565b60408051600160a060020a03928316815291841660208301528051918290030190a17f02016836a56b71f0d02689e69e326f4f4c1b9057164ef592671cf0d37c8040c060005260026020527fb7802e97e87ef2842a6cce7da7ffaeaedaa2f61a6a7870b23d9d01fc9b73712e805473ffffffffffffffffffffffffffffffffffffffff1916600160a060020a0392909216919091179055565b6105406105a1565b81111561054c57600080fd5b7f2dfd6c9f781bb6bbb5369c114e949b69ebb440ef3d4dd6b2836225eb1dc3a2be60009081526020527f2de0d2cdc19d356cb53b5984f91bfd3b31fe0c678a0d190a6db39274bb34753f55565b6000903b1190565b60006105ab6102be565b600160a060020a031663e5789d036040518163ffffffff1660e01b8152600401602060405180830381600087803b1580156105e557600080fd5b505af11580156105f9573d6000803e3d6000fd5b505050506040513d602081101561060f57600080fd5b50519050905600a165627a7a723058208d3ea60be9a8ce7cc522218f2e9dbbe3cc361f0db5eed0137613705808659b8f0029",
    "linkReferences": {}
  },
  "methodIdentifiers": {
    "bridgeContract()": "cd596583",
    "mediatorContractOnOtherSide()": "871c0760",
    "owner()": "8da5cb5b",
    "requestGasLimit()": "be3b625b",
    "setBridgeContract(address)": "0b26cf66",
    "setMediatorContractOnOtherSide(address)": "6e5d6bea",
    "setRequestGasLimit(uint256)": "f3b83791",
    "transferOwnership(address)": "f2fde38b"
  },
  "id": 72
}