{
  "abi": [
    {
      "constant": true,
      "inputs": [
        {
          "name": "_messageId",
          "type": "bytes32"
        }
      ],
      "name": "messageFixed",
      "outputs": [
        {
          "name": "",
          "type": "bool"
        }
      ],
      "payable": false,
      "stateMutability": "view",
      "type": "function"
    }
  ],
  "bytecode": {
    "object": "0x608060405234801561001057600080fd5b5061014a806100206000396000f3006080604052600436106100245760003560e01c63ffffffff1680635933998214610029575b600080fd5b34801561003557600080fd5b50610041600435610055565b604080519115158252519081900360200190f35b6000600460008360405160200180807f6d65737361676546697865640000000000000000000000000000000000000000815250600c0182600019166000191681526020019150506040516020818303038152906040526040518082805190602001908083835b602083106100da5780518252601f1990920191602091820191016100bb565b51815160209384036101000a600019018019909216911617905260408051929094018290039091208652850195909552929092016000205460ff16959450505050505600a165627a7a7230582007f0c983262af9c9a48fdf165b2f674859d58b83b3e6bbdbe8f0309305e784e90029",
    "linkReferences": {}
  },
  "methodIdentifiers": {
    "messageFixed(bytes32)": "59339982"
  },
  "id": 103
}