{
  "abi": [
    {
      "constant": true,
      "inputs": [],
      "name": "bridgesAllowedLength",
      "outputs": [
        {
          "name": "",
          "type": "uint256"
        }
      ],
      "payable": false,
      "stateMutability": "view",
      "type": "function"
    }
  ],
  "bytecode": {
    "object": "0x6080604052348015600f57600080fd5b50607c8061001e6000396000f30060806040526004361060225760003560e01c63ffffffff16806310f2ee7c146027575b600080fd5b348015603257600080fd5b506039604b565b60408051918252519081900360200190f35b6003905600a165627a7a72305820b85e4bb2c70c4c3381f5ddda02dc09c632a90144ed95a225b48a2623c9c63b600029",
    "linkReferences": {}
  },
  "methodIdentifiers": {
    "bridgesAllowedLength()": "10f2ee7c"
  },
  "id": 56
}