{
  "abi": [
    {
      "constant": false,
      "inputs": [
        {
          "name": "_receiver",
          "type": "address"
        },
        {
          "name": "_value",
          "type": "uint256"
        }
      ],
      "name": "relayTokens",
      "outputs": [],
      "payable": false,
      "stateMutability": "nonpayable",
      "type": "function"
    },
    {
      "constant": false,
      "inputs": [
        {
          "name": "_messageId",
          "type": "bytes32"
        }
      ],
      "name": "fixFailedMessage",
      "outputs": [],
      "payable": false,
      "stateMutability": "nonpayable",
      "type": "function"
    },
    {
      "constant": false,
      "inputs": [
        {
          "name": "_bridgeContract",
          "type": "address"
        }
      ],
      "name": "setBridgeContract",
      "outputs": [],
      "payable": false,
      "stateMutability": "nonpayable",
      "type": "function"
    },
    {
      "constant": true,
      "inputs": [],
      "name": "erc677token",
      "outputs": [
        {
          "name": "",
          "type": "address"
        }
      ],
      "payable": false,
      "stateMutability": "view",
      "type": "function"
    },
    {
      "constant": true,
      "inputs": [
        {
          "name": "_day",
          "type": "uint256"
        }
      ],
      "name": "totalSpentPerDay",
      "outputs": [
        {
          "name": "",
          "type": "uint256"
        }
      ],
      "payable": false,
      "stateMutability": "view",
      "type": "function"
    },
    {
      "constant": true,
      "inputs": [],
      "name": "isInitialized",
      "outputs": [
        {
          "name": "",
          "type": "bool"
        }
      ],
      "payable": false,
      "stateMutability": "view",
      "type": "function"
    },
    {
      "constant": false,
      "inputs": [
        {
          "name": "_dailyLimit",
          "type": "uint256"
        }
      ],
      "name": "setExecutionDailyLimit",
      "outputs": [],
      "payable": false,
      "stateMutability": "nonpayable",
      "type": "function"
    },
    {
      "constant": true,
      "inputs": [],
      "name": "getCurrentDay",
      "outputs": [
        {
          "name": "",
          "type": "uint256"
        }
      ],
      "payable": false,
      "stateMutability": "view",
      "type": "function"
    },
    {
      "constant": true,
      "inputs": [],
      "name": "getBridgeMode",
      "outputs": [
        {
          "name": "_data",
          "type": "bytes4"
        }
      ],
      "payable": false,
      "stateMutability": "pure",
      "type": "function"
    },
    {
      "constant": true,
      "inputs": [],
      "name": "executionDailyLimit",
      "outputs": [
        {
          "name": "",
          "type": "uint256"
        }
      ],
      "payable": false,
      "stateMutability": "view",
      "type": "function"
    },
    {
      "constant": true,
      "inputs": [
        {
          "name": "_day",
          "type": "uint256"
        }
      ],
      "name": "totalExecutedPerDay",
      "outputs": [
        {
          "name": "",
          "type": "uint256"
        }
      ],
      "payable": false,
      "stateMutability": "view",
      "type": "function"
    },
    {
      "constant": true,
      "inputs": [
        {
          "name": "_messageId",
          "type": "bytes32"
        }
      ],
      "name": "messageFixed",
      "outputs": [
        {
          "name": "",
          "type": "bool"
        }
      ],
      "payable": false,
      "stateMutability": "view",
      "type": "function"
    },
    {
      "constant": true,
      "inputs": [],
      "name": "dailyLimit",
      "outputs": [
        {
          "name": "",
          "type": "uint256"
        }
      ],
      "payable": false,
      "stateMutability": "view",
      "type": "function"
    },
    {
      "constant": false,
      "inputs": [
        {
          "name": "_token",
          "type": "address"
        },
        {
          "name": "_to",
          "type": "address"
        }
      ],
      "name": "claimTokens",
      "outputs": [],
      "payable": false,
      "stateMutability": "nonpayable",
      "type": "function"
    },
    {
      "constant": false,
      "inputs": [
        {
          "name": "_mediatorContract",
          "type": "address"
        }
      ],
      "name": "setMediatorContractOnOtherSide",
      "outputs": [],
      "payable": false,
      "stateMutability": "nonpayable",
      "type": "function"
    },
    {
      "constant": true,
      "inputs": [],
      "name": "mediatorContractOnOtherSide",
      "outputs": [
        {
          "name": "",
          "type": "address"
        }
      ],
      "payable": false,
      "stateMutability": "view",
      "type": "function"
    },
    {
      "constant": true,
      "inputs": [
        {
          "name": "_amount",
          "type": "uint256"
        }
      ],
      "name": "withinExecutionLimit",
      "outputs": [
        {
          "name": "",
          "type": "bool"
        }
      ],
      "payable": false,
      "stateMutability": "view",
      "type": "function"
    },
    {
      "constant": true,
      "inputs": [],
      "name": "executionMaxPerTx",
      "outputs": [
        {
          "name": "",
          "type": "uint256"
        }
      ],
      "payable": false,
      "stateMutability": "view",
      "type": "function"
    },
    {
      "constant": false,
      "inputs": [
        {
          "name": "_recipient",
          "type": "address"
        },
        {
          "name": "_value",
          "type": "uint256"
        }
      ],
      "name": "handleBridgedTokens",
      "outputs": [],
      "payable": false,
      "stateMutability": "nonpayable",
      "type": "function"
    },
    {
      "constant": true,
      "inputs": [],
      "name": "owner",
      "outputs": [
        {
          "name": "",
          "type": "address"
        }
      ],
      "payable": false,
      "stateMutability": "view",
      "type": "function"
    },
    {
      "constant": true,
      "inputs": [],
      "name": "maxAvailablePerTx",
      "outputs": [
        {
          "name": "",
          "type": "uint256"
        }
      ],
      "payable": false,
      "stateMutability": "view",
      "type": "function"
    },
    {
      "constant": false,
      "inputs": [
        {
          "name": "_messageId",
          "type": "bytes32"
        }
      ],
      "name": "requestFailedMessageFix",
      "outputs": [],
      "payable": false,
      "stateMutability": "nonpayable",
      "type": "function"
    },
    {
      "constant": true,
      "inputs": [],
      "name": "getBridgeInterfacesVersion",
      "outputs": [
        {
          "name": "major",
          "type": "uint64"
        },
        {
          "name": "minor",
          "type": "uint64"
        },
        {
          "name": "patch",
          "type": "uint64"
        }
      ],
      "payable": false,
      "stateMutability": "pure",
      "type": "function"
    },
    {
      "constant": true,
      "inputs": [],
      "name": "outOfLimitAmount",
      "outputs": [
        {
          "name": "",
          "type": "uint256"
        }
      ],
      "payable": false,
      "stateMutability": "view",
      "type": "function"
    },
    {
      "constant": false,
      "inputs": [
        {
          "name": "_minPerTx",
          "type": "uint256"
        }
      ],
      "name": "setMinPerTx",
      "outputs": [],
      "payable": false,
      "stateMutability": "nonpayable",
      "type": "function"
    },
    {
      "constant": false,
      "inputs": [
        {
          "name": "_from",
          "type": "address"
        },
        {
          "name": "_value",
          "type": "uint256"
        },
        {
          "name": "_data",
          "type": "bytes"
        }
      ],
      "name": "onTokenTransfer",
      "outputs": [
        {
          "name": "",
          "type": "bool"
        }
      ],
      "payable": false,
      "stateMutability": "nonpayable",
      "type": "function"
    },
    {
      "constant": false,
      "inputs": [
        {
          "name": "messageId",
          "type": "bytes32"
        },
        {
          "name": "unlockOnOtherSide",
          "type": "bool"
        },
        {
          "name": "valueToUnlock",
          "type": "uint256"
        }
      ],
      "name": "fixAssetsAboveLimits",
      "outputs": [],
      "payable": false,
      "stateMutability": "nonpayable",
      "type": "function"
    },
    {
      "constant": false,
      "inputs": [
        {
          "name": "_dailyLimit",
          "type": "uint256"
        }
      ],
      "name": "setDailyLimit",
      "outputs": [],
      "payable": false,
      "stateMutability": "nonpayable",
      "type": "function"
    },
    {
      "constant": true,
      "inputs": [],
      "name": "requestGasLimit",
      "outputs": [
        {
          "name": "",
          "type": "uint256"
        }
      ],
      "payable": false,
      "stateMutability": "view",
      "type": "function"
    },
    {
      "constant": false,
      "inputs": [
        {
          "name": "_bridgeContract",
          "type": "address"
        },
        {
          "name": "_mediatorContract",
          "type": "address"
        },
        {
          "name": "_erc677token",
          "type": "address"
        },
        {
          "name": "_dailyLimitMaxPerTxMinPerTxArray",
          "type": "uint256[3]"
        },
        {
          "name": "_executionDailyLimitExecutionMaxPerTxArray",
          "type": "uint256[2]"
        },
        {
          "name": "_requestGasLimit",
          "type": "uint256"
        },
        {
          "name": "_decimalShift",
          "type": "int256"
        },
        {
          "name": "_owner",
          "type": "address"
        }
      ],
      "name": "initialize",
      "outputs": [
        {
          "name": "",
          "type": "bool"
        }
      ],
      "payable": false,
      "stateMutability": "nonpayable",
      "type": "function"
    },
    {
      "constant": false,
      "inputs": [
        {
          "name": "_maxPerTx",
          "type": "uint256"
        }
      ],
      "name": "setMaxPerTx",
      "outputs": [],
      "payable": false,
      "stateMutability": "nonpayable",
      "type": "function"
    },
    {
      "constant": true,
      "inputs": [],
      "name": "bridgeContract",
      "outputs": [
        {
          "name": "",
          "type": "address"
        }
      ],
      "payable": false,
      "stateMutability": "view",
      "type": "function"
    },
    {
      "constant": true,
      "inputs": [],
      "name": "decimalShift",
      "outputs": [
        {
          "name": "",
          "type": "int256"
        }
      ],
      "payable": false,
      "stateMutability": "view",
      "type": "function"
    },
    {
      "constant": true,
      "inputs": [],
      "name": "minPerTx",
      "outputs": [
        {
          "name": "",
          "type": "uint256"
        }
      ],
      "payable": false,
      "stateMutability": "view",
      "type": "function"
    },
    {
      "constant": true,
      "inputs": [
        {
          "name": "_amount",
          "type": "uint256"
        }
      ],
      "name": "withinLimit",
      "outputs": [
        {
          "name": "",
          "type": "bool"
        }
      ],
      "payable": false,
      "stateMutability": "view",
      "type": "function"
    },
    {
      "constant": false,
      "inputs": [
        {
          "name": "_maxPerTx",
          "type": "uint256"
        }
      ],
      "name": "setExecutionMaxPerTx",
      "outputs": [],
      "payable": false,
      "stateMutability": "nonpayable",
      "type": "function"
    },
    {
      "constant": false,
      "inputs": [
        {
          "name": "newOwner",
          "type": "address"
        }
      ],
      "name": "transferOwnership",
      "outputs": [],
      "payable": false,
      "stateMutability": "nonpayable",
      "type": "function"
    },
    {
      "constant": false,
      "inputs": [
        {
          "name": "_requestGasLimit",
          "type": "uint256"
        }
      ],
      "name": "setRequestGasLimit",
      "outputs": [],
      "payable": false,
      "stateMutability": "nonpayable",
      "type": "function"
    },
    {
      "constant": true,
      "inputs": [],
      "name": "maxPerTx",
      "outputs": [
        {
          "name": "",
          "type": "uint256"
        }
      ],
      "payable": false,
      "stateMutability": "view",
      "type": "function"
    },
    {
      "anonymous": false,
      "inputs": [
        {
          "indexed": true,
          "name": "messageId",
          "type": "bytes32"
        },
        {
          "indexed": false,
          "name": "recipient",
          "type": "address"
        },
        {
          "indexed": false,
          "name": "value",
          "type": "uint256"
        }
      ],
      "name": "FailedMessageFixed",
      "type": "event"
    },
    {
      "anonymous": false,
      "inputs": [
        {
          "indexed": true,
          "name": "sender",
          "type": "address"
        },
        {
          "indexed": false,
          "name": "value",
          "type": "uint256"
        },
        {
          "indexed": true,
          "name": "messageId",
          "type": "bytes32"
        }
      ],
      "name": "TokensBridgingInitiated",
      "type": "event"
    },
    {
      "anonymous": false,
      "inputs": [
        {
          "indexed": true,
          "name": "recipient",
          "type": "address"
        },
        {
          "indexed": false,
          "name": "value",
          "type": "uint256"
        },
        {
          "indexed": true,
          "name": "messageId",
          "type": "bytes32"
        }
      ],
      "name": "TokensBridged",
      "type": "event"
    },
    {
      "anonymous": false,
      "inputs": [
        {
          "indexed": false,
          "name": "newLimit",
          "type": "uint256"
        }
      ],
      "name": "DailyLimitChanged",
      "type": "event"
    },
    {
      "anonymous": false,
      "inputs": [
        {
          "indexed": false,
          "name": "newLimit",
          "type": "uint256"
        }
      ],
      "name": "ExecutionDailyLimitChanged",
      "type": "event"
    },
    {
      "anonymous": false,
      "inputs": [
        {
          "indexed": false,
          "name": "previousOwner",
          "type": "address"
        },
        {
          "indexed": false,
          "name": "newOwner",
          "type": "address"
        }
      ],
      "name": "OwnershipTransferred",
      "type": "event"
    },
    {
      "anonymous": false,
      "inputs": [
        {
          "indexed": false,
          "name": "recipient",
          "type": "address"
        },
        {
          "indexed": false,
          "name": "value",
          "type": "uint256"
        },
        {
          "indexed": true,
          "name": "messageId",
          "type": "bytes32"
        }
      ],
      "name": "MediatorAmountLimitExceeded",
      "type": "event"
    },
    {
      "anonymous": false,
      "inputs": [
        {
          "indexed": false,
          "name": "recipient",
          "type": "address"
        },
        {
          "indexed": false,
          "name": "value",
          "type": "uint256"
        },
        {
          "indexed": true,
          "name": "transactionHash",
          "type": "bytes32"
        },
        {
          "indexed": false,
          "name": "messageId",
          "type": "bytes32"
        }
      ],
      "name": "AmountLimitExceeded",
      "type": "event"
    },
    {
      "anonymous": false,
      "inputs": [
        {
          "indexed": true,
          "name": "messageId",
          "type": "bytes32"
        },
        {
          "indexed": false,
          "name": "value",
          "type": "uint256"
        },
        {
          "indexed": false,
          "name": "remaining",
          "type": "uint256"
        }
      ],
      "name": "AssetAboveLimitsFixed",
      "type": "event"
    }
  ],
  "bytecode": {
    "object": "0x608060405234801561001057600080fd5b50613335806100206000396000f3006080604052600436106101c65760003560e01c63ffffffff16806301e4f53a146101cb5780630950d515146101f15780630b26cf661461020957806318d8f9c91461022a5780632bd0bb051461025b578063392e53cd146102855780633dd95d1b146102ae5780633e6968b6146102c6578063437764df146102db57806343b37dd3146103255780634fb3fef71461033a578063593399821461035257806367eeba0c1461036a57806369ffa08a1461037f5780636e5d6bea146103a6578063871c0760146103c7578063879ce676146103dc5780638aa1949a146103f45780638b6c0354146104095780638da5cb5b1461042d57806395e54a17146104425780639a4a4395146104575780639cb7595a1461046f578063a0189345146104b0578063a2a6ca27146104c5578063a4c0ed36146104dd578063a7444c0d1461050e578063b20d30a91461052e578063be3b625b14610546578063c0b0d0221461055b578063c6f6f216146105f0578063cd59658314610608578063dae5f0fd1461061d578063df25f3f014610632578063ea9f496814610647578063f20151e11461065f578063f2fde38b14610677578063f3b8379114610698578063f968adbe146106b0575b600080fd5b3480156101d757600080fd5b506101ef600160a060020a03600435166024356106c5565b005b3480156101fd57600080fd5b506101ef600435610805565b34801561021557600080fd5b506101ef600160a060020a03600435166108d4565b34801561023657600080fd5b5061023f6108fc565b60408051600160a060020a039092168252519081900360200190f35b34801561026757600080fd5b5061027360043561090b565b60408051918252519081900360200190f35b34801561029157600080fd5b5061029a6109c8565b604080519115158252519081900360200190f35b3480156102ba57600080fd5b506101ef600435610a19565b3480156102d257600080fd5b50610273610ad9565b3480156102e757600080fd5b506102f0610ae2565b604080517fffffffff000000000000000000000000000000000000000000000000000000009092168252519081900360200190f35b34801561033157600080fd5b50610273610b06565b34801561034657600080fd5b50610273600435610b54565b34801561035e57600080fd5b5061029a600435610bcf565b34801561037657600080fd5b50610273610c98565b34801561038b57600080fd5b506101ef600160a060020a0360043581169060243516610ce6565b3480156103b257600080fd5b506101ef600160a060020a0360043516610d6f565b3480156103d357600080fd5b5061023f610d94565b3480156103e857600080fd5b5061029a600435610deb565b34801561040057600080fd5b50610273610e35565b34801561041557600080fd5b506101ef600160a060020a0360043516602435610e83565b34801561043957600080fd5b5061023f610f03565b34801561044e57600080fd5b50610273610f5a565b34801561046357600080fd5b506101ef600435610fb4565b34801561047b57600080fd5b506104846112f9565b6040805167ffffffffffffffff9485168152928416602084015292168183015290519081900360600190f35b3480156104bc57600080fd5b50610273611304565b3480156104d157600080fd5b506101ef600435611352565b3480156104e957600080fd5b5061029a60048035600160a060020a03169060248035916044359182019101356113ee565b34801561051a57600080fd5b506101ef600435602435151560443561148b565b34801561053a57600080fd5b506101ef6004356115eb565b34801561055257600080fd5b506102736116ab565b34801561056757600080fd5b5060408051606081810190925261029a91600160a060020a03600480358216936024358316936044359093169236929160c49160649060039083908390808284375050604080518082018252949796958181019594509250600291508390839080828437509396505083359450505060208201359160400135600160a060020a031690506116f9565b3480156105fc57600080fd5b506101ef6004356118c2565b34801561061457600080fd5b5061023f61195a565b34801561062957600080fd5b506102736119b1565b34801561063e57600080fd5b506102736119ff565b34801561065357600080fd5b5061029a600435611a4d565b34801561066b57600080fd5b506101ef600435611a98565b34801561068357600080fd5b506101ef600160a060020a0360043516611b14565b3480156106a457600080fd5b506101ef600435611b39565b3480156106bc57600080fd5b50610273611b5e565b6000806106d0611bac565b156106da57600080fd5b6106e26108fc565b91503090506106f083611a4d565b15156106fb57600080fd5b61070c610706610ad9565b84611bd1565b6107166001611c9a565b604080517f23b872dd000000000000000000000000000000000000000000000000000000008152336004820152600160a060020a038381166024830152604482018690529151918416916323b872dd916064808201926020929091908290030181600087803b15801561078857600080fd5b505af115801561079c573d6000803e3d6000fd5b505050506040513d60208110156107b257600080fd5b506107bf90506000611c9a565b6107ff823385876040516020018082600160a060020a0316600160a060020a031660601b8152601401915050604051602081830303815290604052611cbe565b50505050565b60008061081061195a565b600160a060020a0316331461082457600080fd5b61082c610d94565b600160a060020a031661083d611d3e565b600160a060020a03161461085057600080fd5b61085983610bcf565b1561086357600080fd5b61086c83611db3565b915061087783611e82565b905061088283611f05565b61088c8282611fd7565b60408051600160a060020a038416815260208101839052815185927f06297b0797e3363e96e454edd4ab62862051bf559a7a431ce09415306771d133928290030190a2505050565b6108dc610f03565b600160a060020a031633146108f057600080fd5b6108f981612068565b50565b60006109066120f3565b905090565b60008060008360405160200180807f746f74616c5370656e74506572446179000000000000000000000000000000008152506010018281526020019150506040516020818303038152906040526040518082805190602001908083835b602083106109875780518252601f199092019160209182019101610968565b51815160209384036101000a600019018019909216911617905260408051929094018290039091208652850195909552929092016000205495945050505050565b7f0a6f646cd611241d8073675e00d1a1ff700fbf1b53fcf473de56d1e6e4b714ba60005260046020527f078d888f9b66f3f8bfa10909e31f1e16240db73449f0500afdbbe3a70da457cc5460ff1690565b610a21610f03565b600160a060020a03163314610a3557600080fd5b610a3d610e35565b811180610a48575080155b1515610a5357600080fd5b7f21dbcab260e413c20dc13c28b7db95e2b423d1135f42bb8b7d5214a92270d237600090815260209081527fadd938dbd083a16bae12238cd914fca0afc7a30edb55b1cd5c7f1823f1b0e4218290556040805183815290517f9bebf928b90863f24cc31f726a3a7545efd409f1dcf552301b1ee3710da70d3b929181900390910190a150565b62015180420490565b7f76595b560000000000000000000000000000000000000000000000000000000090565b7f21dbcab260e413c20dc13c28b7db95e2b423d1135f42bb8b7d5214a92270d23760009081526020527fadd938dbd083a16bae12238cd914fca0afc7a30edb55b1cd5c7f1823f1b0e4215490565b60008060008360405160200180807f746f74616c457865637574656450657244617900000000000000000000000000815250601301828152602001915050604051602081830303815290604052604051808280519060200190808383602083106109875780518252601f199092019160209182019101610968565b6000600460008360405160200180807f6d65737361676546697865640000000000000000000000000000000000000000815250600c0182600019166000191681526020019150506040516020818303038152906040526040518082805190602001908083835b60208310610c545780518252601f199092019160209182019101610c35565b51815160209384036101000a600019018019909216911617905260408051929094018290039091208652850195909552929092016000205460ff1695945050505050565b7f4a6a899679f26b73530d8cf1001e83b6f7702e04b6fdb98f3c62dc7e47e041a560009081526020527f1ab29a5cca988aee50edccdd61c5bcaa7ad4b29a03b7ee50f298ceccfe14cc4e5490565b30600160a060020a0316636fde82026040518163ffffffff1660e01b8152600401602060405180830381600087803b158015610d2157600080fd5b505af1158015610d35573d6000803e3d6000fd5b505050506040513d6020811015610d4b57600080fd5b5051600160a060020a03163314610d6157600080fd5b610d6b828261214a565b5050565b610d77610f03565b600160a060020a03163314610d8b57600080fd5b6108f98161218d565b7f98aa806e31e94a687a31c65769cb99670064dd7f5a87526da075c5fb4eab988060005260026020527f0c1206883be66049a02d4937078367c00b3d71dd1a9465df969363c6ddeac96d54600160a060020a031690565b600080610e0e83610e02610dfd610ad9565b610b54565b9063ffffffff61220416565b905080610e19610b06565b10158015610e2e5750610e2a610e35565b8311155b9392505050565b7fc0ed44c192c86d1cc1ba51340b032c2766b4a2b0041031de13c46dd7104888d560009081526020527ff8e983ee86e5e377e9e34c9131b266382c3f04113d20de077f9e12663c7a646b5490565b610e8b61195a565b600160a060020a03163314610e9f57600080fd5b610ea7610d94565b600160a060020a0316610eb8611d3e565b600160a060020a031614610ecb57600080fd5b610ed481610deb565b15610ef957610eea610ee4610ad9565b82612217565b610ef4828261229d565b610d6b565b610d6b828261238e565b7f02016836a56b71f0d02689e69e326f4f4c1b9057164ef592671cf0d37c8040c060005260026020527fb7802e97e87ef2842a6cce7da7ffaeaedaa2f61a6a7870b23d9d01fc9b73712e54600160a060020a031690565b6000806000806000610f6a611b5e565b9350610f74610c98565b9250610f86610f81610ad9565b61090b565b9150818311610f96576000610f9a565b8183035b9050808410610fa95780610fab565b835b94505050505090565b60006060610fc061195a565b600160a060020a031663cb08a10c846040518263ffffffff1660e01b8152600401808260001916600019168152602001915050602060405180830381600087803b15801561100d57600080fd5b505af1158015611021573d6000803e3d6000fd5b505050506040513d602081101561103757600080fd5b50511561104357600080fd5b3061104c61195a565b600160a060020a0316633f9a8e7e856040518263ffffffff1660e01b8152600401808260001916600019168152602001915050602060405180830381600087803b15801561109957600080fd5b505af11580156110ad573d6000803e3d6000fd5b505050506040513d60208110156110c357600080fd5b5051600160a060020a0316146110d857600080fd5b6110e0610d94565b600160a060020a03166110f161195a565b600160a060020a0316634a610b04856040518263ffffffff1660e01b8152600401808260001916600019168152602001915050602060405180830381600087803b15801561113e57600080fd5b505af1158015611152573d6000803e3d6000fd5b505050506040513d602081101561116857600080fd5b5051600160a060020a03161461117d57600080fd5b50506040805160248082018490528251808303909101815260449091019091526020810180517bffffffffffffffffffffffffffffffffffffffffffffffffffffffff167f0950d51500000000000000000000000000000000000000000000000000000000908117909152906111f161195a565b600160a060020a031663dc8601b3611207610d94565b836112106116ab565b6040518463ffffffff1660e01b81526004018084600160a060020a0316600160a060020a0316815260200180602001838152602001828103825284818151815260200191508051906020019080838360005b8381101561127a578181015183820152602001611262565b50505050905090810190601f1680156112a75780820380516001836020036101000a031916815260200191505b50945050505050602060405180830381600087803b1580156112c857600080fd5b505af11580156112dc573d6000803e3d6000fd5b505050506040513d60208110156112f257600080fd5b5050505050565b600160046000909192565b7f145286dc85799b6fb9fe322391ba2d95683077b2adf34dd576dedc437e537ba760009081526020527fba10c7a68bf463c41368d64adcf7df23c0de931ea3b09f061e2dfec302fef95f5490565b61135a610f03565b600160a060020a0316331461136e57600080fd5b6000811180156113845750611381610c98565b81105b80156113965750611393611b5e565b81105b15156113a157600080fd5b7fbbb088c505d18e049d114c7c91f11724e69c55ad6c5397e2b929e68b41fa05d160009081526020527f8df5c48c6b6e11d97548adc824ba0c99103ec09830fa5d53a179984085e6eaa055565b6000806113f96108fc565b905033600160a060020a0382161461141057600080fd5b611418611bac565b15156114435761142785611a4d565b151561143257600080fd5b61144361143d610ad9565b86611bd1565b61147f81878787878080601f01602080910402602001604051908101604052809392919081815260200183838082843750611cbe945050505050565b50600195945050505050565b600080600030600160a060020a0316636fde82026040518163ffffffff1660e01b8152600401602060405180830381600087803b1580156114cb57600080fd5b505af11580156114df573d6000803e3d6000fd5b505050506040513d60208110156114f557600080fd5b5051600160a060020a0316331461150b57600080fd5b6115148661242f565b9093509150600160a060020a038316158015906115315750600082115b801561153d5750838210155b151561154857600080fd5b61156861156385611557611304565b9063ffffffff6125b616565b6125c8565b611578828563ffffffff6125b616565b90506115848187612615565b6040805185815260208101839052815188927f5bcec6564fe8d2cbb4e4eb8237510ceb6b291a5c2ee2e429948d25e9c924c1fa928290030190a284156115e3576115cc611b5e565b8411156115d857600080fd5b6115e3838486612697565b505050505050565b6115f3610f03565b600160a060020a0316331461160757600080fd5b61160f611b5e565b81118061161a575080155b151561162557600080fd5b7f4a6a899679f26b73530d8cf1001e83b6f7702e04b6fdb98f3c62dc7e47e041a5600090815260209081527f1ab29a5cca988aee50edccdd61c5bcaa7ad4b29a03b7ee50f298ceccfe14cc4e8290556040805183815290517fad4123ae17c414d9c6d2fec478b402e6b01856cc250fd01fbfd252fda0089d3c929181900390910190a150565b7f2dfd6c9f781bb6bbb5369c114e949b69ebb440ef3d4dd6b2836225eb1dc3a2be60009081526020527f2de0d2cdc19d356cb53b5984f91bfd3b31fe0c678a0d190a6db39274bb34753f5490565b60408051600481526024810182526020810180517bffffffffffffffffffffffffffffffffffffffffffffffffffffffff167f6fde8202000000000000000000000000000000000000000000000000000000001781529151815160009330939291829190808383895b8381101561177a578181015183820152602001611762565b50505050905090810190601f1680156117a75780820380516001836020036101000a031916815260200191505b509150506000604051808303816000865af19150501580611836575030600160a060020a0316636fde82026040518163ffffffff1660e01b8152600401602060405180830381600087803b1580156117fe57600080fd5b505af1158015611812573d6000803e3d6000fd5b505050506040513d602081101561182857600080fd5b5051600160a060020a031633145b8061184057503330145b151561184b57600080fd5b6118536109c8565b1561185d57600080fd5b61186689612068565b61186f8861218d565b6118788761287b565b61188186612906565b61188a85612a63565b61189384612b38565b61189c83612b99565b6118a582612c02565b6118ad612cd9565b6118b56109c8565b9998505050505050505050565b6118ca610f03565b600160a060020a031633146118de57600080fd5b80158061190257506118ee6119ff565b8111801561190257506118ff610c98565b81105b151561190d57600080fd5b7f0f8803acad17c63ee38bf2de71e1888bc7a079a6f73658e274b08018bea4e29c60009081526020527f9de0f81379b4d8e60fe509315d071b56e7b732abaf193e74e0d15808b0951d0955565b7f811bbb11e8899da471f0e69a3ed55090fc90215227fc5fb1cb0d6e962ea7b74f60005260026020527fb4ed64697d3ef8518241966f7c6f28b0d72f20f51198717d198d2d55076c593d54600160a060020a031690565b7f1e8ecaafaddea96ed9ac6d2642dcdfe1bebe58a930b1085842d8fc122b371ee560009081526020527fd5c78dd9468716ca9bb96be25d56436811b20aab3523a9904b12deef1cab239d5490565b7fbbb088c505d18e049d114c7c91f11724e69c55ad6c5397e2b929e68b41fa05d160009081526020527f8df5c48c6b6e11d97548adc824ba0c99103ec09830fa5d53a179984085e6eaa05490565b600080611a5f83610e02610f81610ad9565b905080611a6a610c98565b10158015611a7f5750611a7b611b5e565b8311155b8015610e2e5750611a8e6119ff565b9092101592915050565b611aa0610f03565b600160a060020a03163314611ab457600080fd5b611abc610b06565b8110611ac757600080fd5b7fc0ed44c192c86d1cc1ba51340b032c2766b4a2b0041031de13c46dd7104888d560009081526020527ff8e983ee86e5e377e9e34c9131b266382c3f04113d20de077f9e12663c7a646b55565b611b1c610f03565b600160a060020a03163314611b3057600080fd5b6108f981612c02565b611b41610f03565b600160a060020a03163314611b5557600080fd5b6108f981612b38565b7f0f8803acad17c63ee38bf2de71e1888bc7a079a6f73658e274b08018bea4e29c60009081526020527f9de0f81379b4d8e60fe509315d071b56e7b732abaf193e74e0d15808b0951d095490565b7f6168652c307c1e813ca11cfb3a601f1cf3b22452021a5052d8b05f1f1f8a3e925490565b611bde81610e028461090b565b6000808460405160200180807f746f74616c5370656e74506572446179000000000000000000000000000000008152506010018281526020019150506040516020818303038152906040526040518082805190602001908083835b60208310611c585780518252601f199092019160209182019101611c39565b51815160209384036101000a60001901801990921691161790526040805192909401829003909120865285019590955292909201600020939093555050505050565b7f6168652c307c1e813ca11cfb3a601f1cf3b22452021a5052d8b05f1f1f8a3e9255565b611cc6611bac565b15156107ff5783600160a060020a03166342966c68836040518263ffffffff1660e01b815260040180828152602001915050600060405180830381600087803b158015611d1257600080fd5b505af1158015611d26573d6000803e3d6000fd5b505050506107ff83611d388584612d30565b84612697565b6000611d4861195a565b600160a060020a031663d67bdd256040518163ffffffff1660e01b8152600401602060405180830381600087803b158015611d8257600080fd5b505af1158015611d96573d6000803e3d6000fd5b505050506040513d6020811015611dac57600080fd5b5051905090565b6000600260008360405160200180807f6d657373616765526563697069656e740000000000000000000000000000000081525060100182600019166000191681526020019150506040516020818303038152906040526040518082805190602001908083835b60208310611e385780518252601f199092019160209182019101611e19565b51815160209384036101000a6000190180199092169116179052604080519290940182900390912086528501959095529290920160002054600160a060020a031695945050505050565b60008060008360405160200180807f6d65737361676556616c75650000000000000000000000000000000000000000815250600c018260001916600019168152602001915050604051602081830303815290604052604051808280519060200190808383602083106109875780518252601f199092019160209182019101610968565b6001600460008360405160200180807f6d65737361676546697865640000000000000000000000000000000000000000815250600c0182600019166000191681526020019150506040516020818303038152906040526040518082805190602001908083835b60208310611f8a5780518252601f199092019160209182019101611f6b565b51815160209384036101000a60001901801990921691161790526040805192909401829003909120865285019590955292909201600020805460ff19169415159490941790935550505050565b611fdf6108fc565b600160a060020a03166340c10f1983836040518363ffffffff1660e01b81526004018083600160a060020a0316600160a060020a0316815260200182815260200192505050602060405180830381600087803b15801561203e57600080fd5b505af1158015612052573d6000803e3d6000fd5b505050506040513d60208110156107ff57600080fd5b61207181612d8a565b151561207c57600080fd5b7f811bbb11e8899da471f0e69a3ed55090fc90215227fc5fb1cb0d6e962ea7b74f60005260026020527fb4ed64697d3ef8518241966f7c6f28b0d72f20f51198717d198d2d55076c593d805473ffffffffffffffffffffffffffffffffffffffff1916600160a060020a0392909216919091179055565b7fa8b0ade3e2b734f043ce298aca4cc8d19d74270223f34531d0988b7d00cba21d60005260026020527f603cd9dcbfa185d5c37504f4c8b3f16117ed744fba48d08b7aad44a162af1c9354600160a060020a031690565b80600160a060020a038116151561216057600080fd5b600160a060020a038316151561217e5761217982612d92565b612188565b6121888383612d9e565b505050565b7f98aa806e31e94a687a31c65769cb99670064dd7f5a87526da075c5fb4eab988060005260026020527f0c1206883be66049a02d4937078367c00b3d71dd1a9465df969363c6ddeac96d805473ffffffffffffffffffffffffffffffffffffffff1916600160a060020a0392909216919091179055565b8181018281101561221157fe5b92915050565b61222481610e0284610b54565b6000808460405160200180807f746f74616c45786563757465645065724461790000000000000000000000000081525060130182815260200191505060405160208183030381529060405260405180828051906020019080838360208310611c585780518252601f199092019160209182019101611c39565b6000806122a983612e4b565b91506122b3612e5e565b90506122bd6108fc565b600160a060020a03166340c10f1985846040518363ffffffff1660e01b81526004018083600160a060020a0316600160a060020a0316815260200182815260200192505050602060405180830381600087803b15801561231c57600080fd5b505af1158015612330573d6000803e3d6000fd5b505050506040513d602081101561234657600080fd5b50506040805183815290518291600160a060020a038716917f2f9a6098d4503a127779ba975f5f6b04f842362b1809f346989e9abc0b4dedb69181900360200190a350505050565b600080600061239b612e5e565b92506123a68361242f565b9092509050600160a060020a0382161580156123c0575080155b15156123cb57600080fd5b6123da61156385610e02611304565b6123e5858585612ea2565b60408051600160a060020a038716815260208101869052815185927f3344bbb992063ed4b833dabd5d5e55fc18df085bb96654e83aafbfe22e4116ff928290030190a25050505050565b600080600260008460405160200180807f74784f75744f664c696d6974526563697069656e74000000000000000000000081525060150182600019166000191681526020019150506040516020818303038152906040526040518082805190602001908083835b602083106124b55780518252601f199092019160209182019101612496565b51815160209384036101000a600019018019909216911617905260408051929094018290039091208652858101969096525092830160009081205484517f74784f75744f664c696d697456616c75650000000000000000000000000000008188015260318082018b9052865180830390910181526051909101958690528051600160a060020a0390921698509195869592945091925082918401908083835b602083106125735780518252601f199092019160209182019101612554565b51815160209384036101000a6000190180199092169116179052604080519290940182900390912086528501959095529290920160002054949694955050505050565b6000828211156125c257fe5b50900390565b7f145286dc85799b6fb9fe322391ba2d95683077b2adf34dd576dedc437e537ba760009081526020527fba10c7a68bf463c41368d64adcf7df23c0de931ea3b09f061e2dfec302fef95f55565b816000808360405160200180807f74784f75744f664c696d697456616c7565000000000000000000000000000000815250601101826000191660001916815260200191505060405160208183030381529060405260405180828051906020019080838360208310611c585780518252601f199092019160209182019101611c39565b60408051600160a060020a038416602482015260448082018490528251808303909101815260649091019091526020810180517bffffffffffffffffffffffffffffffffffffffffffffffffffffffff167f8b6c03540000000000000000000000000000000000000000000000000000000090811790915290600061271a61195a565b600160a060020a031663dc8601b3612730610d94565b846127396116ab565b6040518463ffffffff1660e01b81526004018084600160a060020a0316600160a060020a0316815260200180602001838152602001828103825284818151815260200191508051906020019080838360005b838110156127a357818101518382015260200161278b565b50505050905090810190601f1680156127d05780820380516001836020036101000a031916815260200191505b50945050505050602060405180830381600087803b1580156127f157600080fd5b505af1158015612805573d6000803e3d6000fd5b505050506040513d602081101561281b57600080fd5b505190506128298185612f98565b612833818761301a565b6040805185815290518291600160a060020a038916917f3a5557a7cf72d28e8da836aeff2de822440d01a036e571c12c4c48611a0a41799181900360200190a3505050505050565b61288481612d8a565b151561288f57600080fd5b7fa8b0ade3e2b734f043ce298aca4cc8d19d74270223f34531d0988b7d00cba21d60005260026020527f603cd9dcbfa185d5c37504f4c8b3f16117ed744fba48d08b7aad44a162af1c93805473ffffffffffffffffffffffffffffffffffffffff1916600160a060020a0392909216919091179055565b60408101516000108015612921575060408101516020820151115b8015612931575060208101518151115b151561293c57600080fd5b80517f4a6a899679f26b73530d8cf1001e83b6f7702e04b6fdb98f3c62dc7e47e041a5600090815260208181527f1ab29a5cca988aee50edccdd61c5bcaa7ad4b29a03b7ee50f298ceccfe14cc4e92909255908201517f0f8803acad17c63ee38bf2de71e1888bc7a079a6f73658e274b08018bea4e29c82527f9de0f81379b4d8e60fe509315d071b56e7b732abaf193e74e0d15808b0951d095560408201517fbbb088c505d18e049d114c7c91f11724e69c55ad6c5397e2b929e68b41fa05d182527f8df5c48c6b6e11d97548adc824ba0c99103ec09830fa5d53a179984085e6eaa0557fad4123ae17c414d9c6d2fec478b402e6b01856cc250fd01fbfd252fda0089d3c9082905b60200201516040518082815260200191505060405180910390a150565b8051602082015110612a7457600080fd5b80517f21dbcab260e413c20dc13c28b7db95e2b423d1135f42bb8b7d5214a92270d237600090815260208181527fadd938dbd083a16bae12238cd914fca0afc7a30edb55b1cd5c7f1823f1b0e42192909255908201517fc0ed44c192c86d1cc1ba51340b032c2766b4a2b0041031de13c46dd7104888d582527ff8e983ee86e5e377e9e34c9131b266382c3f04113d20de077f9e12663c7a646b557f9bebf928b90863f24cc31f726a3a7545efd409f1dcf552301b1ee3710da70d3b908290612a46565b612b40613108565b811115612b4c57600080fd5b7f2dfd6c9f781bb6bbb5369c114e949b69ebb440ef3d4dd6b2836225eb1dc3a2be60009081526020527f2de0d2cdc19d356cb53b5984f91bfd3b31fe0c678a0d190a6db39274bb34753f55565b604c1981138015612baa5750604d81125b1515612bb557600080fd5b7f1e8ecaafaddea96ed9ac6d2642dcdfe1bebe58a930b1085842d8fc122b371ee560009081526020527fd5c78dd9468716ca9bb96be25d56436811b20aab3523a9904b12deef1cab239d55565b600160a060020a0381161515612c1757600080fd5b7f8be0079c531659141344cd1fd0a4f28419497f9722a3daafe3b4186f6b6457e0612c40610f03565b60408051600160a060020a03928316815291841660208301528051918290030190a17f02016836a56b71f0d02689e69e326f4f4c1b9057164ef592671cf0d37c8040c060005260026020527fb7802e97e87ef2842a6cce7da7ffaeaedaa2f61a6a7870b23d9d01fc9b73712e805473ffffffffffffffffffffffffffffffffffffffff1916600160a060020a0392909216919091179055565b7f0a6f646cd611241d8073675e00d1a1ff700fbf1b53fcf473de56d1e6e4b714ba60005260046020527f078d888f9b66f3f8bfa10909e31f1e16240db73449f0500afdbbe3a70da457cc805460ff19166001179055565b8051829060001015612211578151601414612d4a57600080fd5b612d538261314c565b9050600160a060020a0381161515612d6a57600080fd5b612d72613153565b600160a060020a038281169116141561221157600080fd5b6000903b1190565b3031610d6b828261315d565b604080517f70a0823100000000000000000000000000000000000000000000000000000000815230600482015290518391600091600160a060020a038416916370a0823191602480830192602092919082900301818787803b158015612e0357600080fd5b505af1158015612e17573d6000803e3d6000fd5b505050506040513d6020811015612e2d57600080fd5b505190506107ff600160a060020a038516848363ffffffff6131be16565b600061221182612e596119b1565b613250565b6000612e6861195a565b600160a060020a031663669f618b6040518163ffffffff1660e01b8152600401602060405180830381600087803b158015611d8257600080fd5b82600260008360405160200180807f74784f75744f664c696d6974526563697069656e74000000000000000000000081525060150182600019166000191681526020019150506040516020818303038152906040526040518082805190602001908083835b60208310612f265780518252601f199092019160209182019101612f07565b51815160209384036101000a60001901801990921691161790526040805192909401829003909120865285019590955292909201600020805473ffffffffffffffffffffffffffffffffffffffff1916600160a060020a03959095169490941790935550612188915083905082612615565b806000808460405160200180807f6d65737361676556616c75650000000000000000000000000000000000000000815250600c01826000191660001916815260200191505060405160208183030381529060405260405180828051906020019080838360208310611c585780518252601f199092019160209182019101611c39565b80600260008460405160200180807f6d657373616765526563697069656e740000000000000000000000000000000081525060100182600019166000191681526020019150506040516020818303038152906040526040518082805190602001908083835b6020831061309e5780518252601f19909201916020918201910161307f565b51815160209384036101000a60001901801990921691161790526040805192909401829003909120865285019590955292909201600020805473ffffffffffffffffffffffffffffffffffffffff1916600160a060020a0395909516949094179093555050505050565b600061311261195a565b600160a060020a031663e5789d036040518163ffffffff1660e01b8152600401602060405180830381600087803b158015611d8257600080fd5b6014015190565b6000610906610d94565b604051600160a060020a0383169082156108fc029083906000818181858888f193505050501515610d6b5780826131926132d9565b600160a060020a039091168152604051908190036020019082f0801580156112f2573d6000803e3d6000fd5b82600160a060020a031663a9059cbb83836040518363ffffffff1660e01b81526004018083600160a060020a0316600160a060020a0316815260200182815260200192505050600060405180830381600087803b15801561321e57600080fd5b505af1158015613232573d6000803e3d6000fd5b505050503d156121885760206000803e600051151561218857600080fd5b6000811515613260575081612211565b60008213156132845761327d83600a84900a63ffffffff61329b16565b9050612211565b610e2e836000849003600a0a63ffffffff6132c416565b60008215156132ac57506000612211565b508181028183828115156132bc57fe5b041461221157fe5b600081838115156132d157fe5b049392505050565b6040516021806132e9833901905600608060405260405160208060218339810160405251600160a060020a038116ff00a165627a7a723058208fecc243cef49d53fe1672dd3b9f05ce397aa67a45781a94a325b2f31c0c5ee30029",
    "linkReferences": {}
  },
  "methodIdentifiers": {
    "bridgeContract()": "cd596583",
    "claimTokens(address,address)": "69ffa08a",
    "dailyLimit()": "67eeba0c",
    "decimalShift()": "dae5f0fd",
    "erc677token()": "18d8f9c9",
    "executionDailyLimit()": "43b37dd3",
    "executionMaxPerTx()": "8aa1949a",
    "fixAssetsAboveLimits(bytes32,bool,uint256)": "a7444c0d",
    "fixFailedMessage(bytes32)": "0950d515",
    "getBridgeInterfacesVersion()": "9cb7595a",
    "getBridgeMode()": "437764df",
    "getCurrentDay()": "3e6968b6",
    "handleBridgedTokens(address,uint256)": "8b6c0354",
    "initialize(address,address,address,uint256[3],uint256[2],uint256,int256,address)": "c0b0d022",
    "isInitialized()": "392e53cd",
    "maxAvailablePerTx()": "95e54a17",
    "maxPerTx()": "f968adbe",
    "mediatorContractOnOtherSide()": "871c0760",
    "messageFixed(bytes32)": "59339982",
    "minPerTx()": "df25f3f0",
    "onTokenTransfer(address,uint256,bytes)": "a4c0ed36",
    "outOfLimitAmount()": "a0189345",
    "owner()": "8da5cb5b",
    "relayTokens(address,uint256)": "01e4f53a",
    "requestFailedMessageFix(bytes32)": "9a4a4395",
    "requestGasLimit()": "be3b625b",
    "setBridgeContract(address)": "0b26cf66",
    "setDailyLimit(uint256)": "b20d30a9",
    "setExecutionDailyLimit(uint256)": "3dd95d1b",
    "setExecutionMaxPerTx(uint256)": "f20151e1",
    "setMaxPerTx(uint256)": "c6f6f216",
    "setMediatorContractOnOtherSide(address)": "6e5d6bea",
    "setMinPerTx(uint256)": "a2a6ca27",
    "setRequestGasLimit(uint256)": "f3b83791",
    "totalExecutedPerDay(uint256)": "4fb3fef7",
    "totalSpentPerDay(uint256)": "2bd0bb05",
    "transferOwnership(address)": "f2fde38b",
    "withinExecutionLimit(uint256)": "879ce676",
    "withinLimit(uint256)": "ea9f4968"
  },
  "id": 111
}