{
  "abi": [
    {
      "constant": true,
      "inputs": [],
      "name": "transactionHash",
      "outputs": [
        {
          "name": "",
          "type": "bytes32"
        }
      ],
      "payable": false,
      "stateMutability": "view",
      "type": "function"
    },
    {
      "constant": true,
      "inputs": [],
      "name": "sourceChainId",
      "outputs": [
        {
          "name": "",
          "type": "uint256"
        }
      ],
      "payable": false,
      "stateMutability": "view",
      "type": "function"
    },
    {
      "constant": true,
      "inputs": [
        {
          "name": "_txHash",
          "type": "bytes32"
        }
      ],
      "name": "relayedMessages",
      "outputs": [
        {
          "name": "",
          "type": "bool"
        }
      ],
      "payable": false,
      "stateMutability": "view",
      "type": "function"
    },
    {
      "constant": false,
      "inputs": [
        {
          "name": "_data",
          "type": "bytes"
        },
        {
          "name": "_signatures",
          "type": "bytes"
        }
      ],
      "name": "safeExecuteSignaturesWithAutoGasLimit",
      "outputs": [],
      "payable": false,
      "stateMutability": "nonpayable",
      "type": "function"
    },
    {
      "constant": false,
      "inputs": [
        {
          "name": "_sourceChainId",
          "type": "uint256"
        },
        {
          "name": "_destinationChainId",
          "type": "uint256"
        },
        {
          "name": "_validatorContract",
          "type": "address"
        },
        {
          "name": "_maxGasPerTx",
          "type": "uint256"
        },
        {
          "name": "_gasPrice",
          "type": "uint256"
        },
        {
          "name": "_requiredBlockConfirmations",
          "type": "uint256"
        },
        {
          "name": "_owner",
          "type": "address"
        }
      ],
      "name": "initialize",
      "outputs": [
        {
          "name": "",
          "type": "bool"
        }
      ],
      "payable": false,
      "stateMutability": "nonpayable",
      "type": "function"
    },
    {
      "constant": true,
      "inputs": [],
      "name": "isInitialized",
      "outputs": [
        {
          "name": "",
          "type": "bool"
        }
      ],
      "payable": false,
      "stateMutability": "view",
      "type": "function"
    },
    {
      "constant": true,
      "inputs": [],
      "name": "requiredBlockConfirmations",
      "outputs": [
        {
          "name": "",
          "type": "uint256"
        }
      ],
      "payable": false,
      "stateMutability": "view",
      "type": "function"
    },
    {
      "constant": false,
      "inputs": [
        {
          "name": "_data",
          "type": "bytes"
        },
        {
          "name": "_signatures",
          "type": "bytes"
        }
      ],
      "name": "executeSignatures",
      "outputs": [],
      "payable": false,
      "stateMutability": "nonpayable",
      "type": "function"
    },
    {
      "constant": true,
      "inputs": [
        {
          "name": "_messageId",
          "type": "bytes32"
        }
      ],
      "name": "failedMessageReceiver",
      "outputs": [
        {
          "name": "",
          "type": "address"
        }
      ],
      "payable": false,
      "stateMutability": "view",
      "type": "function"
    },
    {
      "constant": true,
      "inputs": [],
      "name": "getBridgeMode",
      "outputs": [
        {
          "name": "_data",
          "type": "bytes4"
        }
      ],
      "payable": false,
      "stateMutability": "pure",
      "type": "function"
    },
    {
      "constant": false,
      "inputs": [
        {
          "name": "_sourceChainId",
          "type": "uint256"
        },
        {
          "name": "_destinationChainId",
          "type": "uint256"
        }
      ],
      "name": "setChainIds",
      "outputs": [],
      "payable": false,
      "stateMutability": "nonpayable",
      "type": "function"
    },
    {
      "constant": true,
      "inputs": [
        {
          "name": "_messageId",
          "type": "bytes32"
        }
      ],
      "name": "failedMessageSender",
      "outputs": [
        {
          "name": "",
          "type": "address"
        }
      ],
      "payable": false,
      "stateMutability": "view",
      "type": "function"
    },
    {
      "constant": true,
      "inputs": [],
      "name": "allowReentrantRequests",
      "outputs": [
        {
          "name": "",
          "type": "bool"
        }
      ],
      "payable": false,
      "stateMutability": "view",
      "type": "function"
    },
    {
      "constant": true,
      "inputs": [],
      "name": "messageId",
      "outputs": [
        {
          "name": "id",
          "type": "bytes32"
        }
      ],
      "payable": false,
      "stateMutability": "view",
      "type": "function"
    },
    {
      "constant": false,
      "inputs": [
        {
          "name": "_token",
          "type": "address"
        },
        {
          "name": "_to",
          "type": "address"
        }
      ],
      "name": "claimTokens",
      "outputs": [],
      "payable": false,
      "stateMutability": "nonpayable",
      "type": "function"
    },
    {
      "constant": false,
      "inputs": [
        {
          "name": "_maxGasPerTx",
          "type": "uint256"
        }
      ],
      "name": "setMaxGasPerTx",
      "outputs": [],
      "payable": false,
      "stateMutability": "nonpayable",
      "type": "function"
    },
    {
      "constant": true,
      "inputs": [],
      "name": "requiredSignatures",
      "outputs": [
        {
          "name": "",
          "type": "uint256"
        }
      ],
      "payable": false,
      "stateMutability": "view",
      "type": "function"
    },
    {
      "constant": true,
      "inputs": [],
      "name": "owner",
      "outputs": [
        {
          "name": "",
          "type": "address"
        }
      ],
      "payable": false,
      "stateMutability": "view",
      "type": "function"
    },
    {
      "constant": true,
      "inputs": [],
      "name": "validatorContract",
      "outputs": [
        {
          "name": "",
          "type": "address"
        }
      ],
      "payable": false,
      "stateMutability": "view",
      "type": "function"
    },
    {
      "constant": true,
      "inputs": [],
      "name": "deployedAtBlock",
      "outputs": [
        {
          "name": "",
          "type": "uint256"
        }
      ],
      "payable": false,
      "stateMutability": "view",
      "type": "function"
    },
    {
      "constant": true,
      "inputs": [],
      "name": "getBridgeInterfacesVersion",
      "outputs": [
        {
          "name": "major",
          "type": "uint64"
        },
        {
          "name": "minor",
          "type": "uint64"
        },
        {
          "name": "patch",
          "type": "uint64"
        }
      ],
      "payable": false,
      "stateMutability": "pure",
      "type": "function"
    },
    {
      "constant": true,
      "inputs": [],
      "name": "messageSourceChainId",
      "outputs": [
        {
          "name": "id",
          "type": "uint256"
        }
      ],
      "payable": false,
      "stateMutability": "view",
      "type": "function"
    },
    {
      "constant": false,
      "inputs": [
        {
          "name": "_blockConfirmations",
          "type": "uint256"
        }
      ],
      "name": "setRequiredBlockConfirmations",
      "outputs": [],
      "payable": false,
      "stateMutability": "nonpayable",
      "type": "function"
    },
    {
      "constant": true,
      "inputs": [],
      "name": "destinationChainId",
      "outputs": [
        {
          "name": "",
          "type": "uint256"
        }
      ],
      "payable": false,
      "stateMutability": "view",
      "type": "function"
    },
    {
      "constant": false,
      "inputs": [
        {
          "name": "_gasPrice",
          "type": "uint256"
        }
      ],
      "name": "setGasPrice",
      "outputs": [],
      "payable": false,
      "stateMutability": "nonpayable",
      "type": "function"
    },
    {
      "constant": false,
      "inputs": [
        {
          "name": "_enable",
          "type": "bool"
        }
      ],
      "name": "setAllowReentrantRequests",
      "outputs": [],
      "payable": false,
      "stateMutability": "nonpayable",
      "type": "function"
    },
    {
      "constant": true,
      "inputs": [
        {
          "name": "_messageId",
          "type": "bytes32"
        }
      ],
      "name": "messageCallStatus",
      "outputs": [
        {
          "name": "",
          "type": "bool"
        }
      ],
      "payable": false,
      "stateMutability": "view",
      "type": "function"
    },
    {
      "constant": true,
      "inputs": [],
      "name": "messageSender",
      "outputs": [
        {
          "name": "sender",
          "type": "address"
        }
      ],
      "payable": false,
      "stateMutability": "view",
      "type": "function"
    },
    {
      "constant": true,
      "inputs": [],
      "name": "decimalShift",
      "outputs": [
        {
          "name": "",
          "type": "int256"
        }
      ],
      "payable": false,
      "stateMutability": "view",
      "type": "function"
    },
    {
      "constant": false,
      "inputs": [
        {
          "name": "_contract",
          "type": "address"
        },
        {
          "name": "_data",
          "type": "bytes"
        },
        {
          "name": "_gas",
          "type": "uint256"
        }
      ],
      "name": "requireToPassMessage",
      "outputs": [
        {
          "name": "",
          "type": "bytes32"
        }
      ],
      "payable": false,
      "stateMutability": "nonpayable",
      "type": "function"
    },
    {
      "constant": true,
      "inputs": [
        {
          "name": "_messageId",
          "type": "bytes32"
        }
      ],
      "name": "failedMessageDataHash",
      "outputs": [
        {
          "name": "",
          "type": "bytes32"
        }
      ],
      "payable": false,
      "stateMutability": "view",
      "type": "function"
    },
    {
      "constant": true,
      "inputs": [],
      "name": "maxGasPerTx",
      "outputs": [
        {
          "name": "",
          "type": "uint256"
        }
      ],
      "payable": false,
      "stateMutability": "view",
      "type": "function"
    },
    {
      "constant": false,
      "inputs": [
        {
          "name": "_data",
          "type": "bytes"
        },
        {
          "name": "_signatures",
          "type": "bytes"
        },
        {
          "name": "_gas",
          "type": "uint32"
        }
      ],
      "name": "safeExecuteSignaturesWithGasLimit",
      "outputs": [],
      "payable": false,
      "stateMutability": "nonpayable",
      "type": "function"
    },
    {
      "constant": false,
      "inputs": [
        {
          "name": "_data",
          "type": "bytes"
        },
        {
          "name": "_signatures",
          "type": "bytes"
        }
      ],
      "name": "safeExecuteSignatures",
      "outputs": [],
      "payable": false,
      "stateMutability": "nonpayable",
      "type": "function"
    },
    {
      "constant": false,
      "inputs": [
        {
          "name": "newOwner",
          "type": "address"
        }
      ],
      "name": "transferOwnership",
      "outputs": [],
      "payable": false,
      "stateMutability": "nonpayable",
      "type": "function"
    },
    {
      "constant": true,
      "inputs": [],
      "name": "gasPrice",
      "outputs": [
        {
          "name": "",
          "type": "uint256"
        }
      ],
      "payable": false,
      "stateMutability": "view",
      "type": "function"
    },
    {
      "anonymous": false,
      "inputs": [
        {
          "indexed": true,
          "name": "messageId",
          "type": "bytes32"
        },
        {
          "indexed": false,
          "name": "encodedData",
          "type": "bytes"
        }
      ],
      "name": "UserRequestForAffirmation",
      "type": "event"
    },
    {
      "anonymous": false,
      "inputs": [
        {
          "indexed": true,
          "name": "sender",
          "type": "address"
        },
        {
          "indexed": true,
          "name": "executor",
          "type": "address"
        },
        {
          "indexed": true,
          "name": "messageId",
          "type": "bytes32"
        },
        {
          "indexed": false,
          "name": "status",
          "type": "bool"
        }
      ],
      "name": "RelayedMessage",
      "type": "event"
    },
    {
      "anonymous": false,
      "inputs": [
        {
          "indexed": false,
          "name": "gasPrice",
          "type": "uint256"
        }
      ],
      "name": "GasPriceChanged",
      "type": "event"
    },
    {
      "anonymous": false,
      "inputs": [
        {
          "indexed": false,
          "name": "requiredBlockConfirmations",
          "type": "uint256"
        }
      ],
      "name": "RequiredBlockConfirmationChanged",
      "type": "event"
    },
    {
      "anonymous": false,
      "inputs": [
        {
          "indexed": false,
          "name": "previousOwner",
          "type": "address"
        },
        {
          "indexed": false,
          "name": "newOwner",
          "type": "address"
        }
      ],
      "name": "OwnershipTransferred",
      "type": "event"
    }
  ],
  "bytecode": {
    "object": "0x608060405234801561001057600080fd5b50612e7e806100206000396000f3006080604052600436106101a55760003560e01c63ffffffff1680630ac1c313146101aa5780631544298e146101d157806321d800ec146101e657806323caab491461021257806325fbf4ee14610240578063392e53cd146102795780633f0a9f651461028e5780633f7658fd146102a35780633f9a8e7e1461033a578063437764df1461036e578063467ad35a146103b55780634a610b04146103d05780634d4cb7a2146103e8578063669f618b146103fd57806369ffa08a146104125780637bac29c7146104395780638d068043146104515780638da5cb5b14610466578063994390891461047b5780639a454b99146104905780639cb7595a146104a55780639e307dff146104e6578063acf5c689146104fb578063b075061114610513578063bf1fe42014610528578063c2231ad214610540578063cb08a10c1461055a578063d67bdd2514610572578063dae5f0fd14610587578063dc8601b31461059c578063e37c328914610605578063e5789d031461061d578063e6d562a114610632578063eaa820d7146106d1578063f2fde38b146106fd578063fe173b971461071e575b600080fd5b3480156101b657600080fd5b506101bf610733565b60408051918252519081900360200190f35b3480156101dd57600080fd5b506101bf610742565b3480156101f257600080fd5b506101fe600435610790565b604080519115158252519081900360200190f35b34801561021e57600080fd5b5061023e6024600480358281019290820135918135918201910135610859565b005b34801561024c57600080fd5b506101fe600435602435600160a060020a03604435811690606435906084359060a4359060c435166108cc565b34801561028557600080fd5b506101fe610b3d565b34801561029a57600080fd5b506101bf610b8e565b3480156102af57600080fd5b506040805160206004803580820135601f810184900484028501840190955284845261023e94369492936024939284019190819084018382808284375050604080516020601f89358b018035918201839004830284018301909452808352979a999881019791965091820194509250829150840183828082843750949750610bdc9650505050505050565b34801561034657600080fd5b50610352600435610c2c565b60408051600160a060020a039092168252519081900360200190f35b34801561037a57600080fd5b50610383610cfb565b604080517bffffffffffffffffffffffffffffffffffffffffffffffffffffffff199092168252519081900360200190f35b3480156103c157600080fd5b5061023e600435602435610d1f565b3480156103dc57600080fd5b50610352600435610d49565b3480156103f457600080fd5b506101fe610dcd565b34801561040957600080fd5b506101bf610e1e565b34801561041e57600080fd5b5061023e600160a060020a0360043581169060243516610e43565b34801561044557600080fd5b5061023e600435610ec8565b34801561045d57600080fd5b506101bf610f31565b34801561047257600080fd5b50610352610fa6565b34801561048757600080fd5b50610352610ffd565b34801561049c57600080fd5b506101bf611054565b3480156104b157600080fd5b506104ba6110a2565b6040805167ffffffffffffffff9485168152928416602084015292168183015290519081900360600190f35b3480156104f257600080fd5b506101bf6110ad565b34801561050757600080fd5b5061023e6004356110d2565b34801561051f57600080fd5b506101bf6110fa565b34801561053457600080fd5b5061023e600435611148565b34801561054c57600080fd5b5061023e600435151561116d565b34801561056657600080fd5b506101fe6004356111e4565b34801561057e57600080fd5b50610352611268565b34801561059357600080fd5b506101bf61128d565b3480156105a857600080fd5b5060408051602060046024803582810135601f81018590048502860185019096528585526101bf958335600160a060020a031695369560449491939091019190819084018382808284375094975050933594506112db9350505050565b34801561061157600080fd5b506101bf6004356112f2565b34801561062957600080fd5b506101bf6113bb565b34801561063e57600080fd5b506040805160206004803580820135601f810184900484028501840190955284845261023e94369492936024939284019190819084018382808284375050604080516020601f89358b018035918201839004830284018301909452808352979a9998810197919650918201945092508291508401838280828437509497505050923563ffffffff16935061140992505050565b3480156106dd57600080fd5b5061023e602460048035828101929082013591813591820191013561144f565b34801561070957600080fd5b5061023e600160a060020a03600435166114b6565b34801561072a57600080fd5b506101bf6114db565b600061073d610e1e565b905090565b7f67d6f42a1ed69c62022f2d160ddc6f2f0acd37ad1db0c24f4702d7d3343a4add60009081526020527ff6c66672b1a9fe5622677597b0da8fd180a2c85696efbcf7fe4b1e0f4f0f61085490565b6000600460008360405160200180807f72656c617965644d657373616765730000000000000000000000000000000000815250600f0182600019166000191681526020019150506040516020818303038152906040526040518082805190602001908083835b602083106108155780518252601f1990920191602091820191016107f6565b51815160209384036101000a600019018019909216911617905260408051929094018290039091208652850195909552929092016000205460ff1695945050505050565b6108c684848080601f0160208091040260200160405190810160405280939291908181526020018383808284375050604080516020601f8a01819004810282018101909252888152945088935087925082915084018382808284375063ffffffff94506114099350505050565b50505050565b60408051600481526024810182526020810180517bffffffffffffffffffffffffffffffffffffffffffffffffffffffff167f6fde8202000000000000000000000000000000000000000000000000000000001781529151815160009330939291829190808383895b8381101561094d578181015183820152602001610935565b50505050905090810190601f16801561097a5780820380516001836020036101000a031916815260200191505b509150506000604051808303816000865af19150501580610a09575030600160a060020a0316636fde82026040518163ffffffff1660e01b8152600401602060405180830381600087803b1580156109d157600080fd5b505af11580156109e5573d6000803e3d6000fd5b505050506040513d60208110156109fb57600080fd5b5051600160a060020a031633145b80610a1357503330145b1515610a1e57600080fd5b610a26610b3d565b15610a3057600080fd5b610a3986611529565b1515610a4457600080fd5b610a4e8888611531565b7fab54f3fbbe62c59b7876a9bf9bd5e0c22dbae93f4d8ee0438f7ce62b198eb0e0805473ffffffffffffffffffffffffffffffffffffffff1916600160a060020a03881617905560006020819052437fe66bef0282a446f9848e2903380099bb6e431483ee78778868f33b4a154c818b557f2670ecc91ec356e32067fd27b36614132d727b84a1e03e08f412a4f2cf07597490527f3d7fe2ee9790702383ef0118b516833ef2542132d3ca4ac6c77f62f1230fa610859055610b0f84611680565b610b1883611696565b610b2182611729565b610b29611800565b610b31610b3d565b98975050505050505050565b7f0a6f646cd611241d8073675e00d1a1ff700fbf1b53fcf473de56d1e6e4b714ba60005260046020527f078d888f9b66f3f8bfa10909e31f1e16240db73449f0500afdbbe3a70da457cc5460ff1690565b7f916daedf6915000ff68ced2f0b6773fe6f2582237f92c3c95bb4d7940723007160009081526020527fd2ea0feb732edb0ffe32efd33a6b9d24d46b16eb34a4d07ce256537b6f131e425490565b6000806000806000610bec612e07565b6060610bf88989611857565b610c018961187f565b959c50939a509198509650945092509050610c218787878787878761195f565b505050505050505050565b6000600260008360405160200180807f6661696c65644d6573736167655265636569766572000000000000000000000081525060150182600019166000191681526020019150506040516020818303038152906040526040518082805190602001908083835b60208310610cb15780518252601f199092019160209182019101610c92565b51815160209384036101000a6000190180199092169116179052604080519290940182900390912086528501959095529290920160002054600160a060020a031695945050505050565b7f2544fbb90000000000000000000000000000000000000000000000000000000090565b610d27610fa6565b600160a060020a03163314610d3b57600080fd5b610d458282611531565b5050565b6000600260008360405160200180807f6661696c65644d65737361676553656e64657200000000000000000000000000815250601301826000191660001916815260200191505060405160208183030381529060405260405180828051906020019080838360208310610cb15780518252601f199092019160209182019101610c92565b7fffa3a5a0e192028fc343362a39c5688e5a60819a4dc5ab3ee70c25bc25b78dd660005260046020527f265a43ea29ede07170a30cb6d77d0ab5810eee752b72432f7be348bde74aa08f5460ff1690565b7fe34bb2103dc34f2c144cc216c132d6ffb55dac57575c22e089161bbe650833045490565b30600160a060020a0316636fde82026040518163ffffffff1660e01b8152600401602060405180830381600087803b158015610e7e57600080fd5b505af1158015610e92573d6000803e3d6000fd5b505050506040513d6020811015610ea857600080fd5b5051600160a060020a03163314610ebe57600080fd5b610d4582826119cf565b610ed0610fa6565b600160a060020a03163314610ee457600080fd5b7f2670ecc91ec356e32067fd27b36614132d727b84a1e03e08f412a4f2cf07597460009081526020527f3d7fe2ee9790702383ef0118b516833ef2542132d3ca4ac6c77f62f1230fa61055565b6000610f3b610ffd565b600160a060020a0316638d0680436040518163ffffffff1660e01b8152600401602060405180830381600087803b158015610f7557600080fd5b505af1158015610f89573d6000803e3d6000fd5b505050506040513d6020811015610f9f57600080fd5b5051905090565b7f02016836a56b71f0d02689e69e326f4f4c1b9057164ef592671cf0d37c8040c060005260026020527fb7802e97e87ef2842a6cce7da7ffaeaedaa2f61a6a7870b23d9d01fc9b73712e54600160a060020a031690565b7f5a74bb7e202fb8e4bf311841c7d64ec19df195fee77d7e7ae749b27921b6ddfe60005260026020527fab54f3fbbe62c59b7876a9bf9bd5e0c22dbae93f4d8ee0438f7ce62b198eb0e054600160a060020a031690565b7fb120ceec05576ad0c710bc6e85f1768535e27554458f05dcbb5c65b8c7a749b060009081526020527fe66bef0282a446f9848e2903380099bb6e431483ee78778868f33b4a154c818b5490565b600660026000909192565b7f7f0fcd9e49860f055dd0c1682d635d309ecb5e3011654c716d9eb59a7ddec7d25490565b6110da610fa6565b600160a060020a031633146110ee57600080fd5b6110f781611696565b50565b7fbbd454018e72a3f6c02bbd785bacc49e46292744f3f6761276723823aa33232060009081526020527f242329173dfc316001df0a0c3d5a8f58a7ffb1a8b7d99c268303b9a741bacdf95490565b611150610fa6565b600160a060020a0316331461116457600080fd5b6110f781611680565b611175610fa6565b600160a060020a0316331461118957600080fd5b7fffa3a5a0e192028fc343362a39c5688e5a60819a4dc5ab3ee70c25bc25b78dd660005260046020527f265a43ea29ede07170a30cb6d77d0ab5810eee752b72432f7be348bde74aa08f805460ff1916911515919091179055565b6000600460008360405160200180807f6d65737361676543616c6c5374617475730000000000000000000000000000008152506011018260001916600019168152602001915050604051602081830303815290604052604051808280519060200190808383602083106108155780518252601f1990920191602091820191016107f6565b7f7b58b2a669d8e0992eae9eaef641092c0f686fd31070e7236865557fa1571b5b5490565b7f1e8ecaafaddea96ed9ac6d2642dcdfe1bebe58a930b1085842d8fc122b371ee560009081526020527fd5c78dd9468716ca9bb96be25d56436811b20aab3523a9904b12deef1cab239d5490565b60006112ea8484846000611a12565b949350505050565b60008060008360405160200180807f6661696c65644d6573736167654461746148617368000000000000000000000081525060150182600019166000191681526020019150506040516020818303038152906040526040518082805190602001908083835b602083106113765780518252601f199092019160209182019101611357565b51815160209384036101000a60001901801990921691161790526040805192909401829003909120865285019590955292909201600090812054901b95945050505050565b7f2670ecc91ec356e32067fd27b36614132d727b84a1e03e08f412a4f2cf07597460009081526020527f3d7fe2ee9790702383ef0118b516833ef2542132d3ca4ac6c77f62f1230fa6105490565b600080600080611417612e07565b60606114238989611857565b61142c8961187f565b959b50939950919750909550909350909150610c2190508686868a87878761195f565b6108c684848080601f0160208091040260200160405190810160405280939291908181526020018383808284375050604080516020601f8a018190048102820181019092528881529450889350879250829150840183828082843750610bdc945050505050565b6114be610fa6565b600160a060020a031633146114d257600080fd5b6110f781611729565b7f55b3774520b5993024893d303890baa4e84b1244a43c60034d1ced2d3cf2b04b60009081526020527ff7d5eefab3776d7f0450bd0193564bcb4f832ce313ff2836c450fc63a4b944195490565b6000903b1190565b6000806000806000861180156115475750600085115b151561155257600080fd5b8585141561155f57600080fd5b506000925082915060ff905060015b831580611579575082155b156115c0578315801561158d575085828716145b15611596578093505b821580156115a5575084828616145b156115ae578092505b60089190911b60ff179060010161156e565b5050600060208190527ff6c66672b1a9fe5622677597b0da8fd180a2c85696efbcf7fe4b1e0f4f0f6108949094557f2f30286a16f86ee067618e1a246990e40c07b7749418a6dd3133f9cfb7e814cc919091557f242329173dfc316001df0a0c3d5a8f58a7ffb1a8b7d99c268303b9a741bacdf9919091557ffb792ae4ad11102b93f26a51b3749c2b3667f8b561566a4806d49896928115949091527f7b62b32ff48350e85ce95b571fde6f8b1096bc44a26db769ad6d0b3a26bf1c6d55565b6000811161168d57600080fd5b6110f781611b98565b600081116116a357600080fd5b7f916daedf6915000ff68ced2f0b6773fe6f2582237f92c3c95bb4d79407230071600090815260209081527fd2ea0feb732edb0ffe32efd33a6b9d24d46b16eb34a4d07ce256537b6f131e428290556040805183815290517f4fb76205cd57c896b21511d2114137d8e901b4ccd659e1a0f97d6306795264fb929181900390910190a150565b600160a060020a038116151561173e57600080fd5b7f8be0079c531659141344cd1fd0a4f28419497f9722a3daafe3b4186f6b6457e0611767610fa6565b60408051600160a060020a03928316815291841660208301528051918290030190a17f02016836a56b71f0d02689e69e326f4f4c1b9057164ef592671cf0d37c8040c060005260026020527fb7802e97e87ef2842a6cce7da7ffaeaedaa2f61a6a7870b23d9d01fc9b73712e805473ffffffffffffffffffffffffffffffffffffffff1916600160a060020a0392909216919091179055565b7f0a6f646cd611241d8073675e00d1a1ff700fbf1b53fcf473de56d1e6e4b714ba60005260046020527f078d888f9b66f3f8bfa10909e31f1e16240db73449f0500afdbbe3a70da457cc805460ff19166001179055565b6000611861610e1e565b1461186b57600080fd5b610d458282611878610ffd565b6001611c1e565b600080600080600061188f612e07565b6060600080604f915060208a01519850600160a060020a0360348b015116975060548a01518060601c975063ffffffff8160401c16965080601a1a95508060181a6001808260031b1b03818501945080858e01511687528260191a91506001808360031b1b039050818501945080858e0151166020880152848d51039350505050806040519080825280601f01601f19166020018201604052801561193e578160200160208202803883390190505b50925060248201915080826004350160208501375050919395979092949650565b61196887611ea2565b151561197357600080fd5b602082015161198190611ee8565b151561198c57600080fd5b61199587610790565b1561199f57600080fd5b6119aa876001611efa565b6119c686868963ffffffff881687876000602002015187611fcc565b50505050505050565b80600160a060020a03811615156119e557600080fd5b600160a060020a0383161515611a03576119fe82612023565b611a0d565b611a0d838361202f565b505050565b6000808060608082611a22610e1e565b1480611a315750611a31610dcd565b1515611a3c57600080fd5b60648710158015611a545750611a506113bb565b8711155b1515611a5f57600080fd5b63ffffffff60048901511693508363a9059cbb14158015611a8457508363095ea7b314155b8015611a945750836323b872dd14155b8015611aa4575083634000aea014155b8015611ab457508363cae9ca5114155b1515611abf57600080fd5b611aca8988886120dc565b9250925081886040516020018083805190602001908083835b60208310611b025780518252601f199092019160209182019101611ae3565b51815160209384036101000a600019018019909216911617905285519190930192850191508083835b60208310611b4a5780518252601f199092019160209182019101611b2b565b6001836020036101000a038019825116818451168082178552505050505050905001925050506040516020818303038152906040529050611b8b8382612192565b5090979650505050505050565b7f55b3774520b5993024893d303890baa4e84b1244a43c60034d1ced2d3cf2b04b600090815260209081527ff7d5eefab3776d7f0450bd0193564bcb4f832ce313ff2836c450fc63a4b944198290556040805183815290517f52264b89e0fceafb26e79fd49ef8a366eb6297483bf4035b027f0c99a7ad512e929181900390910190a150565b6000806000606060008060008060008060008b80611c405750611c408f61222f565b1515611c4b57600080fd5b8c600160a060020a0316638d0680436040518163ffffffff1660e01b8152600401602060405180830381600087803b158015611c8657600080fd5b505af1158015611c9a573d6000803e3d6000fd5b505050506040513d6020811015611cb057600080fd5b505160018f0151909b5060ff1699508a8a1015611ccc57600080fd5b611cd68f8d612243565b98508a604051908082528060200260200182016040528015611d02578160200160208202803883390190505b509750600096505b8a871015611e9157866020028a6021010192508960200283019150866002018e01519550828e01519450818e01519350600189878787604051600081526020016040526040518085600019166000191681526020018460ff1660ff1681526020018360001916600019168152602001826000191660001916815260200194505050505060206040516020810390808403906000865af1158015611db1573d6000803e3d6000fd5b5050506020604051035190508c600160a060020a031663facd743b826040518263ffffffff1660e01b81526004018082600160a060020a0316600160a060020a03168152602001915050602060405180830381600087803b158015611e1557600080fd5b505af1158015611e29573d6000803e3d6000fd5b505050506040513d6020811015611e3f57600080fd5b50511515611e4c57600080fd5b611e56888261245d565b15611e6057600080fd5b808888815181101515611e6f57fe5b600160a060020a03909216602092830290910190910152600190960195611d0a565b505050505050505050505050505050565b7bffffffffffffffffffffffffffffffffffffffffffffffffffffffff1981167e0500000000000000000000000000000000000000000000000000000000000014919050565b6000611ef2610742565b909114919050565b80600460008460405160200180807f72656c617965644d657373616765730000000000000000000000000000000000815250600f0182600019166000191681526020019150506040516020818303038152906040526040518082805190602001908083835b60208310611f7e5780518252601f199092019160209182019101611f5f565b51815160209384036101000a60001901801990921691161790526040805192909401829003909120865285019590955292909201600020805460ff1916941515949094179093555050505050565b6000611fdc888884888a886124b8565b9050611fe886826125ae565b80151561200d57611ff98683612631565b6120038688612743565b61200d8689612831565b612019888888846128b4565b5050505050505050565b3031610d458282612902565b604080517f70a0823100000000000000000000000000000000000000000000000000000000815230600482015290518391600091600160a060020a038416916370a0823191602480830192602092919082900301818787803b15801561209457600080fd5b505af11580156120a8573d6000803e3d6000fd5b505050506040513d60208110156120be57600080fd5b505190506108c6600160a060020a038516848363ffffffff61296a16565b600060606000806000806120ee610742565b93506120f86129fc565b92506121026110fa565b915061210c612a4a565b905061211784612a98565b95508083604f01016040519080825280601f01601f19166020018201604052801561214c578160200160208202803883390190505b50945084518501828152848282035287604f87015281604e87015283604d87015288604c8701528960488701523360348701528660208701525050505050935093915050565b604080516020808252835181830152835185937f482515ce3d9494a37ce83f18b72b363449458435fafdd7a53ddea7460fe01b589386939092839283019185019080838360005b838110156121f15781810151838201526020016121d9565b50505050905090810190601f16801561221e5780820380516001836020036101000a031916815260200191505b509250505060405180910390a25050565b6000612239612b92565b8251149050919050565b60408051808201909152601a81527f19457468657265756d205369676e6564204d6573736167653a0a0000000000006020820152600090606083156123e9578161228d8651612b97565b866040516020018084805190602001908083835b602083106122c05780518252601f1990920191602091820191016122a1565b51815160209384036101000a600019018019909216911617905286519190930192860191508083835b602083106123085780518252601f1990920191602091820191016122e9565b51815160209384036101000a600019018019909216911617905285519190930192850191508083835b602083106123505780518252601f199092019160209182019101612331565b6001836020036101000a03801982511681845116808217855250505050505090500193505050506040516020818303038152906040526040518082805190602001908083835b602083106123b55780518252601f199092019160209182019101612396565b6001836020036101000a03801982511681845116808217855250505050505090500191505060405180910390209250612455565b6040805190810160405280600381526020017f31303400000000000000000000000000000000000000000000000000000000008152509050818186604051602001808480519060200190808383602083106122c05780518252601f1990920191602091820191016122a1565b505092915050565b6000805b83518110156124ac5782600160a060020a0316848281518110151561248257fe5b90602001906020020151600160a060020a031614156124a457600191506124b1565b600101612461565b600091505b5092915050565b6000806124c488612c9f565b6124cd84612cc3565b6124d683612ce7565b8463ffffffff14806124f657508460405a603f028115156124f357fe5b04115b151561250157600080fd5b86600160a060020a0316858760405180828051906020019080838360005b8381101561253757818101518382015260200161251f565b50505050905090810190601f1680156125645780820380516001836020036101000a031916815260200191505b5091505060006040518083038160008787f192505050905061258581612d0b565b61258f6000612c9f565b6125996000612cc3565b6125a36000612ce7565b979650505050505050565b80600460008460405160200180807f6d65737361676543616c6c537461747573000000000000000000000000000000815250601101826000191660001916815260200191505060405160208183030381529060405260405180828051906020019080838360208310611f7e5780518252601f199092019160209182019101611f5f565b806040518082805190602001908083835b602083106126615780518252601f199092019160209182019101612642565b51815160209384036101000a6000190180199092169116179052604080519290940182900382207f6661696c65644d657373616765446174614861736800000000000000000000008383015260358084018a9052855180850390910181526055909301948590528251600091821c9750909550859492935082918401908083835b602083106127015780518252601f1990920191602091820191016126e2565b51815160209384036101000a60001901801990921691161790526040805192909401829003909120865285019590955292909201600020939093555050505050565b80600260008460405160200180807f6661696c65644d6573736167655265636569766572000000000000000000000081525060150182600019166000191681526020019150506040516020818303038152906040526040518082805190602001908083835b602083106127c75780518252601f1990920191602091820191016127a8565b51815160209384036101000a60001901801990921691161790526040805192909401829003909120865285019590955292909201600020805473ffffffffffffffffffffffffffffffffffffffff1916600160a060020a0395909516949094179093555050505050565b80600260008460405160200180807f6661696c65644d65737361676553656e646572000000000000000000000000008152506013018260001916600019168152602001915050604051602081830303815290604052604051808280519060200190808383602083106127c75780518252601f1990920191602091820191016127a8565b60408051821515815290518391600160a060020a0380871692908816917f27333edb8bdcd40a0ae944fb121b5e2d62ea782683946654a0f5e607a908d578919081900360200190a450505050565b604051600160a060020a0383169082156108fc029083906000818181858888f193505050501515610d45578082612937612e22565b600160a060020a039091168152604051908190036020019082f080158015612963573d6000803e3d6000fd5b5050505050565b82600160a060020a031663a9059cbb83836040518363ffffffff1660e01b81526004018083600160a060020a0316600160a060020a0316815260200182815260200192505050600060405180830381600087803b1580156129ca57600080fd5b505af11580156129de573d6000803e3d6000fd5b505050503d15611a0d5760206000803e6000511515611a0d57600080fd5b7fe504ae1fd6471eea80f18b8532a61a9bb91fba4f5b837f80a1cfb6752350af4460009081526020527f2f30286a16f86ee067618e1a246990e40c07b7749418a6dd3133f9cfb7e814cc5490565b7ffb792ae4ad11102b93f26a51b3749c2b3667f8b561566a4806d498969281159460009081526020527f7b62b32ff48350e85ce95b571fde6f8b1096bc44a26db769ad6d0b3a26bf1c6d5490565b6000806000612aa5612d62565b9150612ab382600101612db0565b6040805160208082018790523060601b8284015282516034818403018152605490920192839052815191929182918401908083835b60208310612b075780518252601f199092019160209182019101612ae8565b5181516000196020949094036101000a93909301928316921916919091179052604051920182900390912067ffffffffffffffff861660001b7bffffffffffffffffffffffffffffffffffffffff00000000000000009091169081177e0500000000000000000000000000000000000000000000000000000000000017965093505050505050919050565b606890565b60606000808281851515612be05760408051808201909152600181527f300000000000000000000000000000000000000000000000000000000000000060208201529450612c96565b8593505b8315612bfb57600190920191600a84049350612be4565b826040519080825280601f01601f191660200182016040528015612c29578160200160208202803883390190505b5091505060001982015b8515612c925781516000198201916030600a89060160f81b918491908110612c5757fe5b9060200101907effffffffffffffffffffffffffffffffffffffffffffffffffffffffffffff1916908160001a905350600a86049550612c33565b8194505b50505050919050565b7f7b58b2a669d8e0992eae9eaef641092c0f686fd31070e7236865557fa1571b5b55565b7fe34bb2103dc34f2c144cc216c132d6ffb55dac57575c22e089161bbe6508330455565b7f7f0fcd9e49860f055dd0c1682d635d309ecb5e3011654c716d9eb59a7ddec7d255565b8080612d5757506000357bffffffffffffffffffffffffffffffffffffffffffffffffffffffff19167f3f7658fd00000000000000000000000000000000000000000000000000000000145b15156110f757600080fd5b7f7ab1577440dd7bedf920cb6de2f9fc6bf7ba98c78c85a3fa1f8311aac95e175960009081526020527fa9b0f75b23e377b9b22d27feaca5d8a12329c0049ebce1dc695b905f3aa4cd005490565b7f7ab1577440dd7bedf920cb6de2f9fc6bf7ba98c78c85a3fa1f8311aac95e1759600090815260205267ffffffffffffffff167fa9b0f75b23e377b9b22d27feaca5d8a12329c0049ebce1dc695b905f3aa4cd0055565b60408051808201825290600290829080388339509192915050565b604051602180612e32833901905600608060405260405160208060218339810160405251600160a060020a038116ff00a165627a7a723058202e1ba86a9c79120c71e80d4c45d13e2d66c31afa71e451c064a6052a3f424d420029",
    "linkReferences": {}
  },
  "methodIdentifiers": {
    "allowReentrantRequests()": "4d4cb7a2",
    "claimTokens(address,address)": "69ffa08a",
    "decimalShift()": "dae5f0fd",
    "deployedAtBlock()": "9a454b99",
    "destinationChainId()": "b0750611",
    "executeSignatures(bytes,bytes)": "3f7658fd",
    "failedMessageDataHash(bytes32)": "e37c3289",
    "failedMessageReceiver(bytes32)": "3f9a8e7e",
    "failedMessageSender(bytes32)": "4a610b04",
    "gasPrice()": "fe173b97",
    "getBridgeInterfacesVersion()": "9cb7595a",
    "getBridgeMode()": "437764df",
    "initialize(uint256,uint256,address,uint256,uint256,uint256,address)": "25fbf4ee",
    "isInitialized()": "392e53cd",
    "maxGasPerTx()": "e5789d03",
    "messageCallStatus(bytes32)": "cb08a10c",
    "messageId()": "669f618b",
    "messageSender()": "d67bdd25",
    "messageSourceChainId()": "9e307dff",
    "owner()": "8da5cb5b",
    "relayedMessages(bytes32)": "21d800ec",
    "requireToPassMessage(address,bytes,uint256)": "dc8601b3",
    "requiredBlockConfirmations()": "3f0a9f65",
    "requiredSignatures()": "8d068043",
    "safeExecuteSignatures(bytes,bytes)": "eaa820d7",
    "safeExecuteSignaturesWithAutoGasLimit(bytes,bytes)": "23caab49",
    "safeExecuteSignaturesWithGasLimit(bytes,bytes,uint32)": "e6d562a1",
    "setAllowReentrantRequests(bool)": "c2231ad2",
    "setChainIds(uint256,uint256)": "467ad35a",
    "setGasPrice(uint256)": "bf1fe420",
    "setMaxGasPerTx(uint256)": "7bac29c7",
    "setRequiredBlockConfirmations(uint256)": "acf5c689",
    "sourceChainId()": "1544298e",
    "transactionHash()": "0ac1c313",
    "transferOwnership(address)": "f2fde38b",
    "validatorContract()": "99439089"
  },
  "id": 116
}