{
  "abi": [
    {
      "constant": true,
      "inputs": [],
      "name": "validatorCount",
      "outputs": [
        {
          "name": "",
          "type": "uint256"
        }
      ],
      "payable": false,
      "stateMutability": "view",
      "type": "function"
    },
    {
      "constant": true,
      "inputs": [],
      "name": "getBridgeValidatorsInterfacesVersion",
      "outputs": [
        {
          "name": "major",
          "type": "uint64"
        },
        {
          "name": "minor",
          "type": "uint64"
        },
        {
          "name": "patch",
          "type": "uint64"
        }
      ],
      "payable": false,
      "stateMutability": "pure",
      "type": "function"
    },
    {
      "constant": true,
      "inputs": [],
      "name": "isInitialized",
      "outputs": [
        {
          "name": "",
          "type": "bool"
        }
      ],
      "payable": false,
      "stateMutability": "view",
      "type": "function"
    },
    {
      "constant": false,
      "inputs": [
        {
          "name": "_validator",
          "type": "address"
        }
      ],
      "name": "removeValidator",
      "outputs": [],
      "payable": false,
      "stateMutability": "nonpayable",
      "type": "function"
    },
    {
      "constant": true,
      "inputs": [],
      "name": "validatorList",
      "outputs": [
        {
          "name": "",
          "type": "address[]"
        }
      ],
      "payable": false,
      "stateMutability": "view",
      "type": "function"
    },
    {
      "constant": false,
      "inputs": [
        {
          "name": "_validator",
          "type": "address"
        },
        {
          "name": "_reward",
          "type": "address"
        }
      ],
      "name": "addRewardableValidator",
      "outputs": [],
      "payable": false,
      "stateMutability": "nonpayable",
      "type": "function"
    },
    {
      "constant": false,
      "inputs": [
        {
          "name": "_requiredSignatures",
          "type": "uint256"
        }
      ],
      "name": "setRequiredSignatures",
      "outputs": [],
      "payable": false,
      "stateMutability": "nonpayable",
      "type": "function"
    },
    {
      "constant": true,
      "inputs": [
        {
          "name": "_validator",
          "type": "address"
        }
      ],
      "name": "getValidatorRewardAddress",
      "outputs": [
        {
          "name": "",
          "type": "address"
        }
      ],
      "payable": false,
      "stateMutability": "view",
      "type": "function"
    },
    {
      "constant": true,
      "inputs": [],
      "name": "requiredSignatures",
      "outputs": [
        {
          "name": "",
          "type": "uint256"
        }
      ],
      "payable": false,
      "stateMutability": "view",
      "type": "function"
    },
    {
      "constant": true,
      "inputs": [
        {
          "name": "_address",
          "type": "address"
        }
      ],
      "name": "getNextValidator",
      "outputs": [
        {
          "name": "",
          "type": "address"
        }
      ],
      "payable": false,
      "stateMutability": "view",
      "type": "function"
    },
    {
      "constant": true,
      "inputs": [],
      "name": "owner",
      "outputs": [
        {
          "name": "",
          "type": "address"
        }
      ],
      "payable": false,
      "stateMutability": "view",
      "type": "function"
    },
    {
      "constant": true,
      "inputs": [
        {
          "name": "_validator",
          "type": "address"
        }
      ],
      "name": "isValidatorDuty",
      "outputs": [
        {
          "name": "",
          "type": "bool"
        }
      ],
      "payable": false,
      "stateMutability": "view",
      "type": "function"
    },
    {
      "constant": true,
      "inputs": [],
      "name": "deployedAtBlock",
      "outputs": [
        {
          "name": "",
          "type": "uint256"
        }
      ],
      "payable": false,
      "stateMutability": "view",
      "type": "function"
    },
    {
      "constant": false,
      "inputs": [
        {
          "name": "_requiredSignatures",
          "type": "uint256"
        },
        {
          "name": "_initialValidators",
          "type": "address[]"
        },
        {
          "name": "_initialRewards",
          "type": "address[]"
        },
        {
          "name": "_owner",
          "type": "address"
        }
      ],
      "name": "initialize",
      "outputs": [
        {
          "name": "",
          "type": "bool"
        }
      ],
      "payable": false,
      "stateMutability": "nonpayable",
      "type": "function"
    },
    {
      "constant": true,
      "inputs": [],
      "name": "F_ADDR",
      "outputs": [
        {
          "name": "",
          "type": "address"
        }
      ],
      "payable": false,
      "stateMutability": "view",
      "type": "function"
    },
    {
      "constant": false,
      "inputs": [
        {
          "name": "newOwner",
          "type": "address"
        }
      ],
      "name": "transferOwnership",
      "outputs": [],
      "payable": false,
      "stateMutability": "nonpayable",
      "type": "function"
    },
    {
      "constant": true,
      "inputs": [
        {
          "name": "_validator",
          "type": "address"
        }
      ],
      "name": "isValidator",
      "outputs": [
        {
          "name": "",
          "type": "bool"
        }
      ],
      "payable": false,
      "stateMutability": "view",
      "type": "function"
    },
    {
      "anonymous": false,
      "inputs": [
        {
          "indexed": true,
          "name": "validator",
          "type": "address"
        }
      ],
      "name": "ValidatorAdded",
      "type": "event"
    },
    {
      "anonymous": false,
      "inputs": [
        {
          "indexed": true,
          "name": "validator",
          "type": "address"
        }
      ],
      "name": "ValidatorRemoved",
      "type": "event"
    },
    {
      "anonymous": false,
      "inputs": [
        {
          "indexed": false,
          "name": "requiredSignatures",
          "type": "uint256"
        }
      ],
      "name": "RequiredSignaturesChanged",
      "type": "event"
    },
    {
      "anonymous": false,
      "inputs": [
        {
          "indexed": false,
          "name": "previousOwner",
          "type": "address"
        },
        {
          "indexed": false,
          "name": "newOwner",
          "type": "address"
        }
      ],
      "name": "OwnershipTransferred",
      "type": "event"
    }
  ],
  "bytecode": {
    "object": "0x608060405234801561001057600080fd5b50611510806100206000396000f3006080604052600436106100d45760003560e01c63ffffffff1680630f43a677146100d95780632bda4eee14610100578063392e53cd1461014157806340a141ff1461016a5780635890ef791461018d5780637739ab29146101f25780637d2b9cc01461021957806381b91174146102315780638d0680431461026e5780638d37052c146102835780638da5cb5b146102a45780638e4ec60a146102b95780639a454b99146102da578063c4c4c7b3146102ef578063c794c7691461032b578063f2fde38b14610340578063facd743b14610361575b600080fd5b3480156100e557600080fd5b506100ee610382565b60408051918252519081900360200190f35b34801561010c57600080fd5b506101156103d0565b6040805167ffffffffffffffff9485168152928416602084015292168183015290519081900360600190f35b34801561014d57600080fd5b506101566103db565b604080519115158252519081900360200190f35b34801561017657600080fd5b5061018b600160a060020a036004351661042c565b005b34801561019957600080fd5b506101a26104c7565b60408051602080825283518183015283519192839290830191858101910280838360005b838110156101de5781810151838201526020016101c6565b505050509050019250505060405180910390f35b3480156101fe57600080fd5b5061018b600160a060020a0360043581169060243516610595565b34801561022557600080fd5b5061018b600435610611565b34801561023d57600080fd5b50610252600160a060020a03600435166106d3565b60408051600160a060020a039092168252519081900360200190f35b34801561027a57600080fd5b506100ee6107af565b34801561028f57600080fd5b50610252600160a060020a03600435166107fd565b3480156102b057600080fd5b5061025261088e565b3480156102c557600080fd5b50610156600160a060020a03600435166108e5565b3480156102e657600080fd5b506100ee61098d565b3480156102fb57600080fd5b50610156600480359060248035808201929081013591604435908101910135600160a060020a03606435166109db565b34801561033757600080fd5b50610252610e79565b34801561034c57600080fd5b5061018b600160a060020a0360043516610e84565b34801561036d57600080fd5b50610156600160a060020a0360043516610eac565b7f8656d603d9f985c3483946a92789d52202f49736384ba131cb92f62c4c1aa08260009081526020527f95d17efd9f452ee83a125e41a6180e225f2e2ff7d47d2c1f6cd9b2e14a207ba15490565b600260036000909192565b7f0a6f646cd611241d8073675e00d1a1ff700fbf1b53fcf473de56d1e6e4b714ba60005260046020527f078d888f9b66f3f8bfa10909e31f1e16240db73449f0500afdbbe3a70da457cc5460ff1690565b61043461088e565b600160a060020a0316331461044857600080fd5b61045181610edf565b6104906040805190810160405280601181526020017f76616c696461746f72735265776172647300000000000000000000000000000081525082611009565b604051600160a060020a038216907fe1434e25d6611e0db941968fdc97811c982ac1602e951637d206f5fdda9dd8f190600090a250565b6060806000806104d5610382565b6040519080825280602002602001820160405280156104fe578160200160208202803883390190505b50925060009150610515600160a060020a036107fd565b9050600160a060020a038116151561052c57600080fd5b600160a060020a038181161461058d5780838381518110151561054b57fe5b600160a060020a0390921660209283029091019091015261056b816107fd565b6001909201919050600160a060020a038116151561058857600080fd5b61052c565b509092915050565b61059d61088e565b600160a060020a031633146105b157600080fd5b600160a060020a03811615156105c657600080fd5b6105cf8261110e565b6105d982826111b1565b604051600160a060020a038316907fe366c1c0452ed8eec96861e9e54141ebff23c9ec89fe27b996b45f5ec388498790600090a25050565b61061961088e565b600160a060020a0316331461062d57600080fd5b80610636610382565b101561064157600080fd5b80151561064d57600080fd5b7fd18ea17c351d6834a0e568067fb71804d2a588d5e26d60f792b1c724b1bd53b1600090815260209081527f8a247e09a5673bd4d93a4e76d8fb9553523aa0d77f51f3d576e7421f5295b9bc8290556040805183815290517f10dbc913050d3180c3b99f7da91fd514af7cbc9c1bb59a0da5d2bc38f0cf395a929181900390910190a150565b6000600260008360405160200180807f76616c696461746f72735265776172647300000000000000000000000000000081525060110182600160a060020a0316600160a060020a031660601b81526014019150506040516020818303038152906040526040518082805190602001908083835b602083106107655780518252601f199092019160209182019101610746565b51815160209384036101000a6000190180199092169116179052604080519290940182900390912086528501959095529290920160002054600160a060020a031695945050505050565b7fd18ea17c351d6834a0e568067fb71804d2a588d5e26d60f792b1c724b1bd53b160009081526020527f8a247e09a5673bd4d93a4e76d8fb9553523aa0d77f51f3d576e7421f5295b9bc5490565b6000600260008360405160200180807f76616c696461746f72734c697374000000000000000000000000000000000000815250600e0182600160a060020a0316600160a060020a031660601b8152601401915050604051602081830303815290604052604051808280519060200190808383602083106107655780518252601f199092019160209182019101610746565b7f02016836a56b71f0d02689e69e326f4f4c1b9057164ef592671cf0d37c8040c060005260026020527fb7802e97e87ef2842a6cce7da7ffaeaedaa2f61a6a7870b23d9d01fc9b73712e54600160a060020a031690565b600080806108f9600160a060020a036107fd565b9050600160a060020a038116151561091057600080fd5b600160a060020a03818116146109815783600160a060020a031681600160a060020a031614156109565781610943610382565b4381151561094d57fe5b06149250610986565b61095f816107fd565b6001909201919050600160a060020a038116151561097c57600080fd5b610910565b600092505b5050919050565b7fb120ceec05576ad0c710bc6e85f1768535e27554458f05dcbb5c65b8c7a749b060009081526020527fe66bef0282a446f9848e2903380099bb6e431483ee78778868f33b4a154c818b5490565b60408051600481526024810182526020810180517bffffffffffffffffffffffffffffffffffffffffffffffffffffffff167f6fde8202000000000000000000000000000000000000000000000000000000001781529151815160009384933093909290918291808383895b83811015610a5f578181015183820152602001610a47565b50505050905090810190601f168015610a8c5780820380516001836020036101000a031916815260200191505b509150506000604051808303816000865af19150501580610b1b575030600160a060020a0316636fde82026040518163ffffffff1660e01b8152600401602060405180830381600087803b158015610ae357600080fd5b505af1158015610af7573d6000803e3d6000fd5b505050506040513d6020811015610b0d57600080fd5b5051600160a060020a031633145b80610b2557503330145b1515610b3057600080fd5b610b386103db565b15610b4257600080fd5b610b4b836112ac565b871515610b5757600080fd5b87861015610b6457600080fd5b858414610b7057600080fd5b5060005b85811015610db0576000878783818110610b8a57fe5b90506020020135600160a060020a0316600160a060020a031614158015610bdc5750600160a060020a03878783818110610bc057fe5b90506020020135600160a060020a0316600160a060020a031614155b1515610be757600080fd5b6000858583818110610bf557fe5b90506020020135600160a060020a0316600160a060020a031614151515610c1b57600080fd5b610c3f878783818110610c2a57fe5b90506020020135600160a060020a0316610eac565b15610c4957600080fd5b801515610cb657610c7c600160a060020a03888884818110610c6757fe5b90506020020135600160a060020a0316611383565b6001861415610cb157610cb1878783818110610c9457fe5b90506020020135600160a060020a0316600160a060020a03611383565b610d15565b6000198601811415610d0257610cf387876000198401818110610cd557fe5b90506020020135600160a060020a03168888848181101515610c6757fe5b610cb1878783818110610c9457fe5b610d1587876000198401818110610cd557fe5b610d57878783818110610d2457fe5b90506020020135600160a060020a03168686848181101515610d4257fe5b90506020020135600160a060020a03166111b1565b868682818110610d6357fe5b90506020020135600160a060020a0316600160a060020a03167fe366c1c0452ed8eec96861e9e54141ebff23c9ec89fe27b996b45f5ec388498760405160405180910390a2600101610b74565b610db986611413565b600060208190527f8a247e09a5673bd4d93a4e76d8fb9553523aa0d77f51f3d576e7421f5295b9bc8990557fb120ceec05576ad0c710bc6e85f1768535e27554458f05dcbb5c65b8c7a749b09052437fe66bef0282a446f9848e2903380099bb6e431483ee78778868f33b4a154c818b55610e3261146e565b6040805189815290517f10dbc913050d3180c3b99f7da91fd514af7cbc9c1bb59a0da5d2bc38f0cf395a9181900360200190a1610e6d6103db565b98975050505050505050565b600160a060020a0381565b610e8c61088e565b600160a060020a03163314610ea057600080fd5b610ea9816112ac565b50565b6000600160a060020a0382811614801590610ed957506000610ecd836107fd565b600160a060020a031614155b92915050565b6000806000610eec6107af565b610ef4610382565b11610efe57600080fd5b610f0784610eac565b1515610f1257600080fd5b610f1b846107fd565b9250600160a060020a039150610f30826107fd565b9050600160a060020a0381161515610f4757600080fd5b600160a060020a0381811690851614610f9957809150610f66826107fd565b9050600160a060020a0380821614801590610f895750600160a060020a03811615155b1515610f9457600080fd5b610f47565b610fa38284611383565b610fe26040805190810160405280600e81526020017f76616c696461746f72734c69737400000000000000000000000000000000000081525085611009565b611003610ffe6001610ff2610382565b9063ffffffff6114c516565b611413565b50505050565b6002600083836040516020018083805190602001908083835b602083106110415780518252601f199092019160209182019101611022565b51815160209384036101000a6000190180199092169116179052600160a060020a039590951660601b92019182525060408051808303600b190181526014909201908190528151919450928392508401908083835b602083106110b55780518252601f199092019160209182019101611096565b51815160209384036101000a60001901801990921691161790526040805192909401829003909120865285019590955292909201600020805473ffffffffffffffffffffffffffffffffffffffff191690555050505050565b6000600160a060020a038216158015906111315750600160a060020a0382811614155b151561113c57600080fd5b61114582610eac565b1561114f57600080fd5b61115f600160a060020a036107fd565b9050600160a060020a038116151561117657600080fd5b6111808282611383565b611191600160a060020a0383611383565b6111ad610ffe60016111a1610382565b9063ffffffff6114d716565b5050565b80600260008460405160200180807f76616c696461746f72735265776172647300000000000000000000000000000081525060110182600160a060020a0316600160a060020a031660601b81526014019150506040516020818303038152906040526040518082805190602001908083835b602083106112425780518252601f199092019160209182019101611223565b51815160209384036101000a60001901801990921691161790526040805192909401829003909120865285019590955292909201600020805473ffffffffffffffffffffffffffffffffffffffff1916600160a060020a0395909516949094179093555050505050565b600160a060020a03811615156112c157600080fd5b7f8be0079c531659141344cd1fd0a4f28419497f9722a3daafe3b4186f6b6457e06112ea61088e565b60408051600160a060020a03928316815291841660208301528051918290030190a17f02016836a56b71f0d02689e69e326f4f4c1b9057164ef592671cf0d37c8040c060005260026020527fb7802e97e87ef2842a6cce7da7ffaeaedaa2f61a6a7870b23d9d01fc9b73712e805473ffffffffffffffffffffffffffffffffffffffff1916600160a060020a0392909216919091179055565b80600260008460405160200180807f76616c696461746f72734c697374000000000000000000000000000000000000815250600e0182600160a060020a0316600160a060020a031660601b8152601401915050604051602081830303815290604052604051808280519060200190808383602083106112425780518252601f199092019160209182019101611223565b603281111561142157600080fd5b7f8656d603d9f985c3483946a92789d52202f49736384ba131cb92f62c4c1aa08260009081526020527f95d17efd9f452ee83a125e41a6180e225f2e2ff7d47d2c1f6cd9b2e14a207ba155565b7f0a6f646cd611241d8073675e00d1a1ff700fbf1b53fcf473de56d1e6e4b714ba60005260046020527f078d888f9b66f3f8bfa10909e31f1e16240db73449f0500afdbbe3a70da457cc805460ff19166001179055565b6000828211156114d157fe5b50900390565b81810182811015610ed957fe00a165627a7a723058206231e200f2f713bd706515ac045b5520c54b222234fc947d2c77a7346c17eb720029",
    "linkReferences": {}
  },
  "methodIdentifiers": {
    "F_ADDR()": "c794c769",
    "addRewardableValidator(address,address)": "7739ab29",
    "deployedAtBlock()": "9a454b99",
    "getBridgeValidatorsInterfacesVersion()": "2bda4eee",
    "getNextValidator(address)": "8d37052c",
    "getValidatorRewardAddress(address)": "81b91174",
    "initialize(uint256,address[],address[],address)": "c4c4c7b3",
    "isInitialized()": "392e53cd",
    "isValidator(address)": "facd743b",
    "isValidatorDuty(address)": "8e4ec60a",
    "owner()": "8da5cb5b",
    "removeValidator(address)": "40a141ff",
    "requiredSignatures()": "8d068043",
    "setRequiredSignatures(uint256)": "7d2b9cc0",
    "transferOwnership(address)": "f2fde38b",
    "validatorCount()": "0f43a677",
    "validatorList()": "5890ef79"
  },
  "id": 100
}