{
  "abi": [
    {
      "constant": true,
      "inputs": [],
      "name": "mintingFinished",
      "outputs": [
        {
          "name": "",
          "type": "bool"
        }
      ],
      "payable": false,
      "stateMutability": "view",
      "type": "function"
    },
    {
      "constant": true,
      "inputs": [],
      "name": "name",
      "outputs": [
        {
          "name": "",
          "type": "string"
        }
      ],
      "payable": false,
      "stateMutability": "view",
      "type": "function"
    },
    {
      "constant": false,
      "inputs": [
        {
          "name": "_spender",
          "type": "address"
        },
        {
          "name": "_value",
          "type": "uint256"
        }
      ],
      "name": "approve",
      "outputs": [
        {
          "name": "",
          "type": "bool"
        }
      ],
      "payable": false,
      "stateMutability": "nonpayable",
      "type": "function"
    },
    {
      "constant": false,
      "inputs": [
        {
          "name": "_bridgeContract",
          "type": "address"
        }
      ],
      "name": "setBridgeContract",
      "outputs": [],
      "payable": false,
      "stateMutability": "nonpayable",
      "type": "function"
    },
    {
      "constant": true,
      "inputs": [],
      "name": "totalSupply",
      "outputs": [
        {
          "name": "",
          "type": "uint256"
        }
      ],
      "payable": false,
      "stateMutability": "view",
      "type": "function"
    },
    {
      "constant": false,
      "inputs": [
        {
          "name": "_from",
          "type": "address"
        },
        {
          "name": "_to",
          "type": "address"
        },
        {
          "name": "_value",
          "type": "uint256"
        }
      ],
      "name": "transferFrom",
      "outputs": [
        {
          "name": "",
          "type": "bool"
        }
      ],
      "payable": false,
      "stateMutability": "nonpayable",
      "type": "function"
    },
    {
      "constant": true,
      "inputs": [],
      "name": "decimals",
      "outputs": [
        {
          "name": "",
          "type": "uint8"
        }
      ],
      "payable": false,
      "stateMutability": "view",
      "type": "function"
    },
    {
      "constant": false,
      "inputs": [
        {
          "name": "spender",
          "type": "address"
        },
        {
          "name": "addedValue",
          "type": "uint256"
        }
      ],
      "name": "increaseAllowance",
      "outputs": [
        {
          "name": "",
          "type": "bool"
        }
      ],
      "payable": false,
      "stateMutability": "nonpayable",
      "type": "function"
    },
    {
      "constant": false,
      "inputs": [
        {
          "name": "_to",
          "type": "address"
        },
        {
          "name": "_value",
          "type": "uint256"
        },
        {
          "name": "_data",
          "type": "bytes"
        }
      ],
      "name": "transferAndCall",
      "outputs": [
        {
          "name": "",
          "type": "bool"
        }
      ],
      "payable": false,
      "stateMutability": "nonpayable",
      "type": "function"
    },
    {
      "constant": false,
      "inputs": [
        {
          "name": "_to",
          "type": "address"
        },
        {
          "name": "_amount",
          "type": "uint256"
        }
      ],
      "name": "mint",
      "outputs": [
        {
          "name": "",
          "type": "bool"
        }
      ],
      "payable": false,
      "stateMutability": "nonpayable",
      "type": "function"
    },
    {
      "constant": false,
      "inputs": [
        {
          "name": "_value",
          "type": "uint256"
        }
      ],
      "name": "burn",
      "outputs": [],
      "payable": false,
      "stateMutability": "nonpayable",
      "type": "function"
    },
    {
      "constant": false,
      "inputs": [
        {
          "name": "_spender",
          "type": "address"
        },
        {
          "name": "_subtractedValue",
          "type": "uint256"
        }
      ],
      "name": "decreaseApproval",
      "outputs": [
        {
          "name": "",
          "type": "bool"
        }
      ],
      "payable": false,
      "stateMutability": "nonpayable",
      "type": "function"
    },
    {
      "constant": false,
      "inputs": [
        {
          "name": "_token",
          "type": "address"
        },
        {
          "name": "_to",
          "type": "address"
        }
      ],
      "name": "claimTokens",
      "outputs": [],
      "payable": false,
      "stateMutability": "nonpayable",
      "type": "function"
    },
    {
      "constant": true,
      "inputs": [
        {
          "name": "_owner",
          "type": "address"
        }
      ],
      "name": "balanceOf",
      "outputs": [
        {
          "name": "",
          "type": "uint256"
        }
      ],
      "payable": false,
      "stateMutability": "view",
      "type": "function"
    },
    {
      "constant": false,
      "inputs": [],
      "name": "renounceOwnership",
      "outputs": [],
      "payable": false,
      "stateMutability": "nonpayable",
      "type": "function"
    },
    {
      "constant": true,
      "inputs": [
        {
          "name": "_address",
          "type": "address"
        }
      ],
      "name": "isBridge",
      "outputs": [
        {
          "name": "",
          "type": "bool"
        }
      ],
      "payable": false,
      "stateMutability": "view",
      "type": "function"
    },
    {
      "constant": false,
      "inputs": [],
      "name": "finishMinting",
      "outputs": [
        {
          "name": "",
          "type": "bool"
        }
      ],
      "payable": false,
      "stateMutability": "nonpayable",
      "type": "function"
    },
    {
      "constant": true,
      "inputs": [],
      "name": "getTokenInterfacesVersion",
      "outputs": [
        {
          "name": "major",
          "type": "uint64"
        },
        {
          "name": "minor",
          "type": "uint64"
        },
        {
          "name": "patch",
          "type": "uint64"
        }
      ],
      "payable": false,
      "stateMutability": "pure",
      "type": "function"
    },
    {
      "constant": true,
      "inputs": [],
      "name": "owner",
      "outputs": [
        {
          "name": "",
          "type": "address"
        }
      ],
      "payable": false,
      "stateMutability": "view",
      "type": "function"
    },
    {
      "constant": true,
      "inputs": [],
      "name": "symbol",
      "outputs": [
        {
          "name": "",
          "type": "string"
        }
      ],
      "payable": false,
      "stateMutability": "view",
      "type": "function"
    },
    {
      "constant": false,
      "inputs": [
        {
          "name": "spender",
          "type": "address"
        },
        {
          "name": "subtractedValue",
          "type": "uint256"
        }
      ],
      "name": "decreaseAllowance",
      "outputs": [
        {
          "name": "",
          "type": "bool"
        }
      ],
      "payable": false,
      "stateMutability": "nonpayable",
      "type": "function"
    },
    {
      "constant": false,
      "inputs": [
        {
          "name": "_to",
          "type": "address"
        },
        {
          "name": "_value",
          "type": "uint256"
        }
      ],
      "name": "transfer",
      "outputs": [
        {
          "name": "",
          "type": "bool"
        }
      ],
      "payable": false,
      "stateMutability": "nonpayable",
      "type": "function"
    },
    {
      "constant": true,
      "inputs": [],
      "name": "bridgeContract",
      "outputs": [
        {
          "name": "",
          "type": "address"
        }
      ],
      "payable": false,
      "stateMutability": "view",
      "type": "function"
    },
    {
      "constant": false,
      "inputs": [
        {
          "name": "_spender",
          "type": "address"
        },
        {
          "name": "_addedValue",
          "type": "uint256"
        }
      ],
      "name": "increaseApproval",
      "outputs": [
        {
          "name": "",
          "type": "bool"
        }
      ],
      "payable": false,
      "stateMutability": "nonpayable",
      "type": "function"
    },
    {
      "constant": true,
      "inputs": [
        {
          "name": "_owner",
          "type": "address"
        },
        {
          "name": "_spender",
          "type": "address"
        }
      ],
      "name": "allowance",
      "outputs": [
        {
          "name": "",
          "type": "uint256"
        }
      ],
      "payable": false,
      "stateMutability": "view",
      "type": "function"
    },
    {
      "constant": false,
      "inputs": [
        {
          "name": "_newOwner",
          "type": "address"
        }
      ],
      "name": "transferOwnership",
      "outputs": [],
      "payable": false,
      "stateMutability": "nonpayable",
      "type": "function"
    },
    {
      "inputs": [
        {
          "name": "_name",
          "type": "string"
        },
        {
          "name": "_symbol",
          "type": "string"
        },
        {
          "name": "_decimals",
          "type": "uint8"
        }
      ],
      "payable": false,
      "stateMutability": "nonpayable",
      "type": "constructor"
    },
    {
      "anonymous": false,
      "inputs": [
        {
          "indexed": true,
          "name": "to",
          "type": "address"
        },
        {
          "indexed": false,
          "name": "amount",
          "type": "uint256"
        }
      ],
      "name": "Mint",
      "type": "event"
    },
    {
      "anonymous": false,
      "inputs": [],
      "name": "MintFinished",
      "type": "event"
    },
    {
      "anonymous": false,
      "inputs": [
        {
          "indexed": true,
          "name": "previousOwner",
          "type": "address"
        }
      ],
      "name": "OwnershipRenounced",
      "type": "event"
    },
    {
      "anonymous": false,
      "inputs": [
        {
          "indexed": true,
          "name": "previousOwner",
          "type": "address"
        },
        {
          "indexed": true,
          "name": "newOwner",
          "type": "address"
        }
      ],
      "name": "OwnershipTransferred",
      "type": "event"
    },
    {
      "anonymous": false,
      "inputs": [
        {
          "indexed": true,
          "name": "burner",
          "type": "address"
        },
        {
          "indexed": false,
          "name": "value",
          "type": "uint256"
        }
      ],
      "name": "Burn",
      "type": "event"
    },
    {
      "anonymous": false,
      "inputs": [
        {
          "indexed": true,
          "name": "from",
          "type": "address"
        },
        {
          "indexed": true,
          "name": "to",
          "type": "address"
        },
        {
          "indexed": false,
          "name": "value",
          "type": "uint256"
        },
        {
          "indexed": false,
          "name": "data",
          "type": "bytes"
        }
      ],
      "name": "Transfer",
      "type": "event"
    },
    {
      "anonymous": false,
      "inputs": [
        {
          "indexed": true,
          "name": "owner",
          "type": "address"
        },
        {
          "indexed": true,
          "name": "spender",
          "type": "address"
        },
        {
          "indexed": false,
          "name": "value",
          "type": "uint256"
        }
      ],
      "name": "Approval",
      "type": "event"
    },
    {
      "anonymous": false,
      "inputs": [
        {
          "indexed": true,
          "name": "from",
          "type": "address"
        },
        {
          "indexed": true,
          "name": "to",
          "type": "address"
        },
        {
          "indexed": false,
          "name": "value",
          "type": "uint256"
        }
      ],
      "name": "Transfer",
      "type": "event"
    }
  ],
  "bytecode": {
    "object": "0x60806040526006805460a060020a60ff02191690553480156200002157600080fd5b506040516200159a3803806200159a8339810160409081528151602080840151928401519184018051909493909301928491849184916200006891600091860190620000b2565b5081516200007e906001906020850190620000b2565b506002805460ff90921660ff19909216919091179055505060068054600160a060020a031916331790555062000157915050565b828054600181600116156101000203166002900490600052602060002090601f016020900481019282601f10620000f557805160ff191683800117855562000125565b8280016001018555821562000125579182015b828111156200012557825182559160200191906001019062000108565b506200013392915062000137565b5090565b6200015491905b808211156200013357600081556001016200013e565b90565b61143380620001676000396000f3006080604052600436106101375760003560e01c63ffffffff16806305d2035b1461013c57806306fdde0314610165578063095ea7b3146101ef5780630b26cf661461021357806318160ddd1461023657806323b872dd1461025d578063313ce5671461028757806339509351146102b25780634000aea0146102d657806340c10f191461030757806342966c681461032b578063661884631461034357806369ffa08a1461036757806370a082311461038e578063715018a6146103af578063726600ce146103c45780637d64bcb4146103e5578063859ba28c146103fa5780638da5cb5b1461043b57806395d89b411461046c578063a457c2d714610481578063a9059cbb146104a5578063cd596583146104c9578063d73dd623146104de578063dd62ed3e14610502578063f2fde38b14610529575b600080fd5b34801561014857600080fd5b5061015161054a565b604080519115158252519081900360200190f35b34801561017157600080fd5b5061017a61056b565b6040805160208082528351818301528351919283929083019185019080838360005b838110156101b457818101518382015260200161019c565b50505050905090810190601f1680156101e15780820380516001836020036101000a031916815260200191505b509250505060405180910390f35b3480156101fb57600080fd5b50610151600160a060020a03600435166024356105f9565b34801561021f57600080fd5b50610234600160a060020a036004351661065f565b005b34801561024257600080fd5b5061024b6106b9565b60408051918252519081900360200190f35b34801561026957600080fd5b50610151600160a060020a03600435811690602435166044356106bf565b34801561029357600080fd5b5061029c6106ec565b6040805160ff9092168252519081900360200190f35b3480156102be57600080fd5b50610151600160a060020a03600435166024356106f5565b3480156102e257600080fd5b5061015160048035600160a060020a0316906024803591604435918201910135610708565b34801561031357600080fd5b50610151600160a060020a0360043516602435610819565b34801561033757600080fd5b50610234600435610924565b34801561034f57600080fd5b50610151600160a060020a0360043516602435610931565b34801561037357600080fd5b50610234600160a060020a0360043581169060243516610a20565b34801561039a57600080fd5b5061024b600160a060020a0360043516610a45565b3480156103bb57600080fd5b50610234610a60565b3480156103d057600080fd5b50610151600160a060020a0360043516610a77565b3480156103f157600080fd5b50610151610a8b565b34801561040657600080fd5b5061040f610a92565b6040805167ffffffffffffffff9485168152928416602084015292168183015290519081900360600190f35b34801561044757600080fd5b50610450610a9d565b60408051600160a060020a039092168252519081900360200190f35b34801561047857600080fd5b5061017a610aac565b34801561048d57600080fd5b50610151600160a060020a0360043516602435610b06565b3480156104b157600080fd5b50610151600160a060020a0360043516602435610b12565b3480156104d557600080fd5b50610450610b3d565b3480156104ea57600080fd5b50610151600160a060020a0360043516602435610b4c565b34801561050e57600080fd5b5061024b600160a060020a0360043581169060243516610be5565b34801561053557600080fd5b50610234600160a060020a0360043516610c10565b60065474010000000000000000000000000000000000000000900460ff1681565b6000805460408051602060026001851615610100026000190190941693909304601f810184900484028201840190925281815292918301828280156105f15780601f106105c6576101008083540402835291602001916105f1565b820191906000526020600020905b8154815290600101906020018083116105d457829003601f168201915b505050505081565b336000818152600560209081526040808320600160a060020a038716808552908352818420869055815186815291519394909390927f8c5be1e5ebec7d5bd14f71427d1e84f3dd0314c0f7b2291e5b200ac8c7c3b925928290030190a350600192915050565b600654600160a060020a0316331461067657600080fd5b61067f81610c30565b151561068a57600080fd5b6007805473ffffffffffffffffffffffffffffffffffffffff1916600160a060020a0392909216919091179055565b60045490565b60006106cc848484610c38565b15156106d757600080fd5b6106e2848484610d9d565b5060019392505050565b60025460ff1681565b60006107018383610b4c565b9392505050565b600084600160a060020a0381161580159061072c5750600160a060020a0381163014155b151561073757600080fd5b6107418686610dd9565b151561074c57600080fd5b85600160a060020a031633600160a060020a03167fe19260aff97b920c7df27010903aeb9c8d2be5d310a2c67824cf3f15396e4c16878787604051808481526020018060200182810382528484828181526020019250808284376040519201829003965090945050505050a36107c186610c30565b1561080d5761080233878787878080601f01602080910402602001604051908101604052809392919081815260200183838082843750610de5945050505050565b151561080d57600080fd5b50600195945050505050565b600654600090600160a060020a0316331461083357600080fd5b60065474010000000000000000000000000000000000000000900460ff161561085b57600080fd5b60045461086e908363ffffffff610f5f16565b600455600160a060020a03831660009081526003602052604090205461089a908363ffffffff610f5f16565b600160a060020a038416600081815260036020908152604091829020939093558051858152905191927f0f6798a560793a54c3bcfe86a93cde1e73087d944c0ea20544137d412139688592918290030190a2604080518381529051600160a060020a038516916000916000805160206113e88339815191529181900360200190a350600192915050565b61092e3382610f72565b50565b336000908152600560209081526040808320600160a060020a038616845290915281205480831061098557336000908152600560209081526040808320600160a060020a03881684529091528120556109ba565b610995818463ffffffff61106116565b336000908152600560209081526040808320600160a060020a03891684529091529020555b336000818152600560209081526040808320600160a060020a0389168085529083529281902054815190815290519293927f8c5be1e5ebec7d5bd14f71427d1e84f3dd0314c0f7b2291e5b200ac8c7c3b925929181900390910190a35060019392505050565b600654600160a060020a03163314610a3757600080fd5b610a418282611073565b5050565b600160a060020a031660009081526003602052604090205490565b600654600160a060020a0316331461013757600080fd5b600754600160a060020a0390811691161490565b6000806000fd5b600260056000909192565b600654600160a060020a031681565b60018054604080516020600284861615610100026000190190941693909304601f810184900484028201840190925281815292918301828280156105f15780601f106105c6576101008083540402835291602001916105f1565b60006107018383610931565b6000610b1e8383610dd9565b1515610b2957600080fd5b610b34338484610d9d565b50600192915050565b600754600160a060020a031690565b336000908152600560209081526040808320600160a060020a0386168452909152812054610b80908363ffffffff610f5f16565b336000818152600560209081526040808320600160a060020a0389168085529083529281902085905580519485525191937f8c5be1e5ebec7d5bd14f71427d1e84f3dd0314c0f7b2291e5b200ac8c7c3b925929081900390910190a350600192915050565b600160a060020a03918216600090815260056020908152604080832093909416825291909152205490565b600654600160a060020a03163314610c2757600080fd5b61092e816110b1565b6000903b1190565b600160a060020a038316600090815260036020526040812054821115610c5d57600080fd5b600160a060020a0384166000908152600560209081526040808320338452909152902054821115610c8d57600080fd5b600160a060020a0383161515610ca257600080fd5b600160a060020a038416600090815260036020526040902054610ccb908363ffffffff61106116565b600160a060020a038086166000908152600360205260408082209390935590851681522054610d00908363ffffffff610f5f16565b600160a060020a038085166000908152600360209081526040808320949094559187168152600582528281203382529091522054610d44908363ffffffff61106116565b600160a060020a03808616600081815260056020908152604080832033845282529182902094909455805186815290519287169391926000805160206113e8833981519152929181900390910190a35060019392505050565b610da682610a77565b15610dd457604080516000815260208101909152610dc990849084908490610de5565b1515610dd457600080fd5b505050565b6000610701838361112f565b600083600160a060020a031663a4c0ed3660e01b8685856040516024018084600160a060020a0316600160a060020a0316815260200183815260200180602001828103825283818151815260200191508051906020019080838360005b83811015610e5a578181015183820152602001610e42565b50505050905090810190601f168015610e875780820380516001836020036101000a031916815260200191505b5060408051601f198184030181529181526020820180517bffffffffffffffffffffffffffffffffffffffffffffffffffffffff167fffffffff00000000000000000000000000000000000000000000000000000000909916989098178852518151919790965086955093509150819050838360005b83811015610f15578181015183820152602001610efd565b50505050905090810190601f168015610f425780820380516001836020036101000a031916815260200191505b509150506000604051808303816000865af1979650505050505050565b81810182811015610f6c57fe5b92915050565b600160a060020a038216600090815260036020526040902054811115610f9757600080fd5b600160a060020a038216600090815260036020526040902054610fc0908263ffffffff61106116565b600160a060020a038316600090815260036020526040902055600454610fec908263ffffffff61106116565b600455604080518281529051600160a060020a038416917fcc16f5dbb4873280815c1ee09dbd06736cffcc184412cf7a71a0fdb75d397ca5919081900360200190a2604080518281529051600091600160a060020a038516916000805160206113e88339815191529181900360200190a35050565b60008282111561106d57fe5b50900390565b80600160a060020a038116151561108957600080fd5b600160a060020a03831615156110a7576110a2826111fe565b610dd4565b610dd4838361120a565b600160a060020a03811615156110c657600080fd5b600654604051600160a060020a038084169216907f8be0079c531659141344cd1fd0a4f28419497f9722a3daafe3b4186f6b6457e090600090a36006805473ffffffffffffffffffffffffffffffffffffffff1916600160a060020a0392909216919091179055565b3360009081526003602052604081205482111561114b57600080fd5b600160a060020a038316151561116057600080fd5b33600090815260036020526040902054611180908363ffffffff61106116565b3360009081526003602052604080822092909255600160a060020a038516815220546111b2908363ffffffff610f5f16565b600160a060020a0384166000818152600360209081526040918290209390935580518581529051919233926000805160206113e88339815191529281900390910190a350600192915050565b3031610a4182826112bd565b604080517f70a0823100000000000000000000000000000000000000000000000000000000815230600482015290518391600091600160a060020a038416916370a0823191602480830192602092919082900301818787803b15801561126f57600080fd5b505af1158015611283573d6000803e3d6000fd5b505050506040513d602081101561129957600080fd5b505190506112b7600160a060020a038516848363ffffffff61132516565b50505050565b604051600160a060020a0383169082156108fc029083906000818181858888f193505050501515610a415780826112f26113b7565b600160a060020a039091168152604051908190036020019082f08015801561131e573d6000803e3d6000fd5b5050505050565b82600160a060020a031663a9059cbb83836040518363ffffffff1660e01b81526004018083600160a060020a0316600160a060020a0316815260200182815260200192505050600060405180830381600087803b15801561138557600080fd5b505af1158015611399573d6000803e3d6000fd5b505050503d15610dd45760206000803e6000511515610dd457600080fd5b6040516021806113c7833901905600608060405260405160208060218339810160405251600160a060020a038116ff00ddf252ad1be2c89b69c2b068fc378daa952ba7f163c4a11628f55a4df523b3efa165627a7a72305820e1eb5ffa0c33aecb069b046807bac9f5283d6f0863c387201d69b2809ac8a9d60029",
    "linkReferences": {}
  },
  "methodIdentifiers": {
    "allowance(address,address)": "dd62ed3e",
    "approve(address,uint256)": "095ea7b3",
    "balanceOf(address)": "70a08231",
    "bridgeContract()": "cd596583",
    "burn(uint256)": "42966c68",
    "claimTokens(address,address)": "69ffa08a",
    "decimals()": "313ce567",
    "decreaseAllowance(address,uint256)": "a457c2d7",
    "decreaseApproval(address,uint256)": "66188463",
    "finishMinting()": "7d64bcb4",
    "getTokenInterfacesVersion()": "859ba28c",
    "increaseAllowance(address,uint256)": "39509351",
    "increaseApproval(address,uint256)": "d73dd623",
    "isBridge(address)": "726600ce",
    "mint(address,uint256)": "40c10f19",
    "mintingFinished()": "05d2035b",
    "name()": "06fdde03",
    "owner()": "8da5cb5b",
    "renounceOwnership()": "715018a6",
    "setBridgeContract(address)": "0b26cf66",
    "symbol()": "95d89b41",
    "totalSupply()": "18160ddd",
    "transfer(address,uint256)": "a9059cbb",
    "transferAndCall(address,uint256,bytes)": "4000aea0",
    "transferFrom(address,address,uint256)": "23b872dd",
    "transferOwnership(address)": "f2fde38b"
  },
  "id": 0
}