{
  "abi": [
    {
      "constant": false,
      "inputs": [
        {
          "components": [
            {
              "components": [
                {
                  "name": "from",
                  "type": "address"
                },
                {
                  "name": "to",
                  "type": "address"
                },
                {
                  "name": "value",
                  "type": "uint256"
                },
                {
                  "name": "gas",
                  "type": "uint256"
                },
                {
                  "name": "nonce",
                  "type": "uint256"
                },
                {
                  "name": "data",
                  "type": "bytes"
                },
                {
                  "name": "validUntil",
                  "type": "uint256"
                }
              ],
              "name": "request",
              "type": "tuple"
            },
            {
              "components": [
                {
                  "name": "gasPrice",
                  "type": "uint256"
                },
                {
                  "name": "pctRelayFee",
                  "type": "uint256"
                },
                {
                  "name": "baseRelayFee",
                  "type": "uint256"
                },
                {
                  "name": "relayWorker",
                  "type": "address"
                },
                {
                  "name": "paymaster",
                  "type": "address"
                },
                {
                  "name": "forwarder",
                  "type": "address"
                },
                {
                  "name": "paymasterData",
                  "type": "bytes"
                },
                {
                  "name": "clientId",
                  "type": "uint256"
                }
              ],
              "name": "relayData",
              "type": "tuple"
            }
          ],
          "name": "relayRequest",
          "type": "tuple"
        },
        {
          "name": "signature",
          "type": "bytes"
        },
        {
          "name": "approvalData",
          "type": "bytes"
        },
        {
          "name": "maxPossibleGas",
          "type": "uint256"
        }
      ],
      "name": "preRelayedCall",
      "outputs": [
        {
          "name": "context",
          "type": "bytes"
        },
        {
          "name": "revertOnRecipientRevert",
          "type": "bool"
        }
      ],
      "payable": false,
      "stateMutability": "nonpayable",
      "type": "function"
    },
    {
      "constant": false,
      "inputs": [
        {
          "name": "t",
          "type": "address"
        }
      ],
      "name": "setToken",
      "outputs": [],
      "payable": false,
      "stateMutability": "nonpayable",
      "type": "function"
    },
    {
      "constant": true,
      "inputs": [],
      "name": "getRelayHubDeposit",
      "outputs": [
        {
          "name": "",
          "type": "uint256"
        }
      ],
      "payable": false,
      "stateMutability": "view",
      "type": "function"
    },
    {
      "constant": false,
      "inputs": [
        {
          "name": "amount",
          "type": "uint256"
        },
        {
          "name": "target",
          "type": "address"
        }
      ],
      "name": "withdrawRelayHubDepositTo",
      "outputs": [],
      "payable": false,
      "stateMutability": "nonpayable",
      "type": "function"
    },
    {
      "constant": true,
      "inputs": [],
      "name": "CALLDATA_SIZE_LIMIT",
      "outputs": [
        {
          "name": "",
          "type": "uint256"
        }
      ],
      "payable": false,
      "stateMutability": "view",
      "type": "function"
    },
    {
      "constant": false,
      "inputs": [
        {
          "name": "_token",
          "type": "address"
        },
        {
          "name": "_to",
          "type": "address"
        }
      ],
      "name": "claimTokens",
      "outputs": [],
      "payable": false,
      "stateMutability": "nonpayable",
      "type": "function"
    },
    {
      "constant": false,
      "inputs": [
        {
          "name": "gasUsage",
          "type": "uint256"
        }
      ],
      "name": "setPostGasUsage",
      "outputs": [],
      "payable": false,
      "stateMutability": "nonpayable",
      "type": "function"
    },
    {
      "constant": true,
      "inputs": [],
      "name": "getHubAddr",
      "outputs": [
        {
          "name": "",
          "type": "address"
        }
      ],
      "payable": false,
      "stateMutability": "view",
      "type": "function"
    },
    {
      "constant": false,
      "inputs": [
        {
          "name": "context",
          "type": "bytes"
        },
        {
          "name": "success",
          "type": "bool"
        },
        {
          "name": "gasUseWithoutPost",
          "type": "uint256"
        },
        {
          "components": [
            {
              "name": "gasPrice",
              "type": "uint256"
            },
            {
              "name": "pctRelayFee",
              "type": "uint256"
            },
            {
              "name": "baseRelayFee",
              "type": "uint256"
            },
            {
              "name": "relayWorker",
              "type": "address"
            },
            {
              "name": "paymaster",
              "type": "address"
            },
            {
              "name": "forwarder",
              "type": "address"
            },
            {
              "name": "paymasterData",
              "type": "bytes"
            },
            {
              "name": "clientId",
              "type": "uint256"
            }
          ],
          "name": "relayData",
          "type": "tuple"
        }
      ],
      "name": "postRelayedCall",
      "outputs": [],
      "payable": false,
      "stateMutability": "nonpayable",
      "type": "function"
    },
    {
      "constant": false,
      "inputs": [
        {
          "name": "hub",
          "type": "address"
        }
      ],
      "name": "setRelayHub",
      "outputs": [],
      "payable": false,
      "stateMutability": "nonpayable",
      "type": "function"
    },
    {
      "constant": true,
      "inputs": [],
      "name": "trustedForwarder",
      "outputs": [
        {
          "name": "",
          "type": "address"
        }
      ],
      "payable": false,
      "stateMutability": "view",
      "type": "function"
    },
    {
      "constant": false,
      "inputs": [
        {
          "name": "sizeLimit",
          "type": "uint256"
        }
      ],
      "name": "setCalldataSizeLimit",
      "outputs": [],
      "payable": false,
      "stateMutability": "nonpayable",
      "type": "function"
    },
    {
      "constant": true,
      "inputs": [],
      "name": "postGasUsage",
      "outputs": [
        {
          "name": "",
          "type": "uint256"
        }
      ],
      "payable": false,
      "stateMutability": "view",
      "type": "function"
    },
    {
      "constant": true,
      "inputs": [],
      "name": "owner",
      "outputs": [
        {
          "name": "",
          "type": "address"
        }
      ],
      "payable": false,
      "stateMutability": "view",
      "type": "function"
    },
    {
      "constant": false,
      "inputs": [
        {
          "name": "b",
          "type": "address"
        }
      ],
      "name": "setBridge",
      "outputs": [],
      "payable": false,
      "stateMutability": "nonpayable",
      "type": "function"
    },
    {
      "constant": true,
      "inputs": [],
      "name": "versionPaymaster",
      "outputs": [
        {
          "name": "",
          "type": "string"
        }
      ],
      "payable": false,
      "stateMutability": "view",
      "type": "function"
    },
    {
      "constant": true,
      "inputs": [
        {
          "components": [
            {
              "components": [
                {
                  "name": "from",
                  "type": "address"
                },
                {
                  "name": "to",
                  "type": "address"
                },
                {
                  "name": "value",
                  "type": "uint256"
                },
                {
                  "name": "gas",
                  "type": "uint256"
                },
                {
                  "name": "nonce",
                  "type": "uint256"
                },
                {
                  "name": "data",
                  "type": "bytes"
                },
                {
                  "name": "validUntil",
                  "type": "uint256"
                }
              ],
              "name": "request",
              "type": "tuple"
            },
            {
              "components": [
                {
                  "name": "gasPrice",
                  "type": "uint256"
                },
                {
                  "name": "pctRelayFee",
                  "type": "uint256"
                },
                {
                  "name": "baseRelayFee",
                  "type": "uint256"
                },
                {
                  "name": "relayWorker",
                  "type": "address"
                },
                {
                  "name": "paymaster",
                  "type": "address"
                },
                {
                  "name": "forwarder",
                  "type": "address"
                },
                {
                  "name": "paymasterData",
                  "type": "bytes"
                },
                {
                  "name": "clientId",
                  "type": "uint256"
                }
              ],
              "name": "relayData",
              "type": "tuple"
            }
          ],
          "name": "relayRequest",
          "type": "tuple"
        }
      ],
      "name": "_verifyForwarder",
      "outputs": [],
      "payable": false,
      "stateMutability": "view",
      "type": "function"
    },
    {
      "constant": true,
      "inputs": [],
      "name": "getGasAndDataLimits",
      "outputs": [
        {
          "components": [
            {
              "name": "acceptanceBudget",
              "type": "uint256"
            },
            {
              "name": "preRelayedCallGasLimit",
              "type": "uint256"
            },
            {
              "name": "postRelayedCallGasLimit",
              "type": "uint256"
            },
            {
              "name": "calldataSizeLimit",
              "type": "uint256"
            }
          ],
          "name": "limits",
          "type": "tuple"
        }
      ],
      "payable": false,
      "stateMutability": "view",
      "type": "function"
    },
    {
      "constant": true,
      "inputs": [],
      "name": "calldataSizeLimit",
      "outputs": [
        {
          "name": "",
          "type": "uint256"
        }
      ],
      "payable": false,
      "stateMutability": "view",
      "type": "function"
    },
    {
      "constant": true,
      "inputs": [],
      "name": "FORWARDER_HUB_OVERHEAD",
      "outputs": [
        {
          "name": "",
          "type": "uint256"
        }
      ],
      "payable": false,
      "stateMutability": "view",
      "type": "function"
    },
    {
      "constant": true,
      "inputs": [],
      "name": "POST_RELAYED_CALL_GAS_LIMIT",
      "outputs": [
        {
          "name": "",
          "type": "uint256"
        }
      ],
      "payable": false,
      "stateMutability": "view",
      "type": "function"
    },
    {
      "constant": false,
      "inputs": [
        {
          "name": "r",
          "type": "address"
        }
      ],
      "name": "setRouter",
      "outputs": [],
      "payable": false,
      "stateMutability": "nonpayable",
      "type": "function"
    },
    {
      "constant": false,
      "inputs": [],
      "name": "deposit",
      "outputs": [],
      "payable": true,
      "stateMutability": "payable",
      "type": "function"
    },
    {
      "constant": false,
      "inputs": [
        {
          "name": "forwarder",
          "type": "address"
        }
      ],
      "name": "setTrustedForwarder",
      "outputs": [],
      "payable": false,
      "stateMutability": "nonpayable",
      "type": "function"
    },
    {
      "constant": true,
      "inputs": [],
      "name": "PAYMASTER_ACCEPTANCE_BUDGET",
      "outputs": [
        {
          "name": "",
          "type": "uint256"
        }
      ],
      "payable": false,
      "stateMutability": "view",
      "type": "function"
    },
    {
      "constant": false,
      "inputs": [
        {
          "name": "newOwner",
          "type": "address"
        }
      ],
      "name": "transferOwnership",
      "outputs": [],
      "payable": false,
      "stateMutability": "nonpayable",
      "type": "function"
    },
    {
      "constant": true,
      "inputs": [],
      "name": "PRE_RELAYED_CALL_GAS_LIMIT",
      "outputs": [
        {
          "name": "",
          "type": "uint256"
        }
      ],
      "payable": false,
      "stateMutability": "view",
      "type": "function"
    },
    {
      "inputs": [
        {
          "name": "_relayHub",
          "type": "address"
        },
        {
          "name": "_forwarder",
          "type": "address"
        },
        {
          "name": "_token",
          "type": "address"
        },
        {
          "name": "_router",
          "type": "address"
        },
        {
          "name": "_bridge",
          "type": "address"
        }
      ],
      "payable": false,
      "stateMutability": "nonpayable",
      "type": "constructor"
    },
    {
      "payable": true,
      "stateMutability": "payable",
      "type": "fallback"
    },
    {
      "anonymous": false,
      "inputs": [
        {
          "indexed": false,
          "name": "previousOwner",
          "type": "address"
        },
        {
          "indexed": false,
          "name": "newOwner",
          "type": "address"
        }
      ],
      "name": "OwnershipTransferred",
      "type": "event"
    }
  ],
  "bytecode": {
    "object": "0x6002608081815260e060405290816020016020820280388339505081516200002f92600b9250602001906200035f565b50620493e0600c55612904600d553480156200004a57600080fd5b5060405160a0806200261c83398101806040526200006c91908101906200042e565b6200007d33620001f360201b60201c565b6200008e856200029b60201b60201c565b6200009f84620002e260201b60201c565b60088054600160a060020a03808616600160a060020a0319928316179283905560098054868316908416179055600a8054858316931692909217909155600b805492909116916000908110620000f157fe5b60009182526020808320919091018054600160a060020a031916600160a060020a03948516179055600954604080517fad5c46480000000000000000000000000000000000000000000000000000000081529051919094169363ad5c46489360048083019493928390030190829087803b1580156200016f57600080fd5b505af115801562000184573d6000803e3d6000fd5b505050506040513d601f19601f82011682018060405250620001aa919081019062000405565b600b80546001908110620001ba57fe5b9060005260206000200160006101000a815481600160a060020a030219169083600160a060020a031602179055505050505050620004ea565b600160a060020a03811615156200020957600080fd5b7f8be0079c531659141344cd1fd0a4f28419497f9722a3daafe3b4186f6b6457e06200023a6200032960201b60201c565b826040516200024b929190620004bf565b60405180910390a1600080516020620025fc8339815191526000526002602052600080516020620025dc8339815191528054600160a060020a031916600160a060020a0392909216919091179055565b620002ab6200032960201b60201c565b600160a060020a03163314620002c057600080fd5b60068054600160a060020a031916600160a060020a0392909216919091179055565b620002f26200032960201b60201c565b600160a060020a031633146200030757600080fd5b60078054600160a060020a031916600160a060020a0392909216919091179055565b600080516020620025fc8339815191526000526002602052600080516020620025dc83398151915254600160a060020a03165b90565b828054828255906000526020600020908101928215620003b7579160200282015b82811115620003b75782518254600160a060020a031916600160a060020a0390911617825560209092019160019091019062000380565b50620003c5929150620003c9565b5090565b6200035c91905b80821115620003c5578054600160a060020a0319168155600101620003d0565b6000620003fe8251620004de565b9392505050565b6000602082840312156200041857600080fd5b6000620004268484620003f0565b949350505050565b600080600080600060a086880312156200044757600080fd5b6000620004558888620003f0565b95505060206200046888828901620003f0565b94505060406200047b88828901620003f0565b93505060606200048e88828901620003f0565b9250506080620004a188828901620003f0565b9150509295509295909350565b620004b981620004de565b82525050565b60408101620004cf8285620004ae565b620003fe6020830184620004ae565b600160a060020a031690565b6120e280620004fa6000396000f3006080604052600436106101415760003560e01c63ffffffff168062be5dd4146101f6578063144fa6d71461022d5780632afe31c11461024f5780632d14c4b7146102715780635c5e3db11461029157806369ffa08a146102a65780636d7c3e2b146102c657806374e861d6146102e657806376fa01c3146103085780637bb05264146103285780637da0a877146103485780638978193d1461035d5780638b583e941461037d5780638da5cb5b146103925780638dd14802146103a7578063921276ea146103c7578063a5dcd07b146103e9578063b039a88f14610409578063b1a195781461042b578063b90b41cf14610440578063bbdaa3c914610455578063c0d786551461046a578063d0e30db01461048a578063da74222814610492578063df463a66146104b2578063f2fde38b146104c7578063f9c002f7146104e7575b600654600160a060020a031615156101775760405160e560020a62461bcd02815260040161016e90611e4f565b60405180910390fd5b6006546040517faa67c919000000000000000000000000000000000000000000000000000000008152600160a060020a039091169063aa67c9199034906101c2903090600401611dc5565b6000604051808303818588803b1580156101db57600080fd5b505af11580156101ef573d6000803e3d6000fd5b5050505050005b34801561020257600080fd5b50610216610211366004611975565b6104fc565b604051610224929190611e10565b60405180910390f35b34801561023957600080fd5b5061024d6102483660046117df565b610823565b005b34801561025b57600080fd5b5061026461086e565b6040516102249190611eed565b34801561027d57600080fd5b5061024d61028c366004611a4d565b61090f565b34801561029d57600080fd5b506102646109aa565b3480156102b257600080fd5b5061024d6102c1366004611805565b6109b0565b3480156102d257600080fd5b5061024d6102e1366004611a11565b6109da565b3480156102f257600080fd5b506102fb6109fb565b6040516102249190611dc5565b34801561031457600080fd5b5061024d610323366004611892565b610a0a565b34801561033457600080fd5b5061024d610343366004611922565b610d34565b34801561035457600080fd5b506102fb610d7f565b34801561036957600080fd5b5061024d610378366004611a11565b610d8e565b34801561038957600080fd5b50610264610daf565b34801561039e57600080fd5b506102fb610db5565b3480156103b357600080fd5b5061024d6103c23660046117df565b610e0c565b3480156103d357600080fd5b506103dc610e57565b6040516102249190611e3e565b3480156103f557600080fd5b5061024d610404366004611940565b610eb6565b34801561041557600080fd5b5061041e610efb565b6040516102249190611edf565b34801561043757600080fd5b50610264610f32565b34801561044c57600080fd5b50610264610f38565b34801561046157600080fd5b50610264610f3e565b34801561047657600080fd5b5061024d610485366004611922565b610f45565b61024d610f90565b34801561049e57600080fd5b5061024d6104ad3660046117df565b61103c565b3480156104be57600080fd5b50610264611087565b3480156104d357600080fd5b5061024d6104e23660046117df565b61108e565b3480156104f357600080fd5b506102646110b3565b6060600060606000806000806000806105136109fb565b600160a060020a0316331461053d5760405160e560020a62461bcd02815260040161016e90611eaf565b6105468d610eb6565b8c5160a0810151602080820151920151600a54919950919750600160a060020a0390811691161461058c5760405160e560020a62461bcd02815260040161016e90611e8f565b7fffffffff0000000000000000000000000000000000000000000000000000000086167f1e86b29100000000000000000000000000000000000000000000000000000000146105f05760405160e560020a62461bcd02815260040161016e90611ebf565b6105fb8760446110ba565b6009546040517fd06ca61f00000000000000000000000000000000000000000000000000000000815260009290921c9650600160a060020a03169063d06ca61f9061064d908890600b90600401611f09565b600060405180830381600087803b15801561066757600080fd5b505af115801561067b573d6000803e3d6000fd5b505050506040513d6000823e601f3d908101601f191682016040526106a3919081019061183f565b805160019081106106b057fe5b6020908102909101810151600654918f01516040517f8e53548b000000000000000000000000000000000000000000000000000000008152919650600160a060020a0390921691638e53548b9161070b918e91600401611f29565b602060405180830381600087803b15801561072557600080fd5b505af1158015610739573d6000803e3d6000fd5b505050506040513d601f19601f8201168201806040525061075d9190810190611a2f565b9250828410156107825760405160e560020a62461bcd02815260040161016e90611ecf565b61078d8760046110ba565b60001c915061079f87601884016110ba565b8d515160009190911c9150600160a060020a038083169116146107d75760405160e560020a62461bcd02815260040161016e90611e5f565b505099515160408051600160a060020a0390921660601b602083015260348201989098526054808201939093528751808203909301835260740190965298600198509650505050505050565b61082b610db5565b600160a060020a0316331461083f57600080fd5b6008805473ffffffffffffffffffffffffffffffffffffffff1916600160a060020a0392909216919091179055565b6006546040517f70a08231000000000000000000000000000000000000000000000000000000008152600091600160a060020a0316906370a08231906108b8903090600401611dc5565b602060405180830381600087803b1580156108d257600080fd5b505af11580156108e6573d6000803e3d6000fd5b505050506040513d601f19601f8201168201806040525061090a9190810190611a2f565b905090565b610917610db5565b600160a060020a0316331461092b57600080fd5b6006546040517ef714ce000000000000000000000000000000000000000000000000000000008152600160a060020a039091169062f714ce906109749085908590600401611efb565b600060405180830381600087803b15801561098e57600080fd5b505af11580156109a2573d6000803e3d6000fd5b505050505050565b61290481565b6109b8610db5565b600160a060020a031633146109cc57600080fd5b6109d682826110ee565b5050565b6109e2610db5565b600160a060020a031633146109f657600080fd5b600c55565b600654600160a060020a031690565b6000806000806000610a1a6109fb565b600160a060020a03163314610a445760405160e560020a62461bcd02815260040161016e90611eaf565b602089015160348a015160548b0151600654600c5460609490941c98509196509450600160a060020a031690638e53548b90610a82908a0187611131565b886040518363ffffffff1660e01b8152600401610aa0929190611f29565b602060405180830381600087803b158015610aba57600080fd5b505af1158015610ace573d6000803e3d6000fd5b505050506040513d601f19601f82011682018060405250610af29190810190611a2f565b6008546009546040517f095ea7b3000000000000000000000000000000000000000000000000000000008152929450600160a060020a039182169263095ea7b392610b439216908790600401611df5565b602060405180830381600087803b158015610b5d57600080fd5b505af1158015610b71573d6000803e3d6000fd5b505050506040513d601f19601f82011682018060405250610b959190810190611874565b1515610bb65760405160e560020a62461bcd02815260040161016e90611e7f565b6009546040517f4a25d94a000000000000000000000000000000000000000000000000000000008152600160a060020a0390911690634a25d94a90610c089085908790600b9030904290600401611f49565b600060405180830381600087803b158015610c2257600080fd5b505af1158015610c36573d6000803e3d6000fd5b505050506040513d6000823e601f3d908101601f19168201604052610c5e919081019061183f565b80516000908110610c6b57fe5b90602001906020020151905082811015610d29576008546040517fa9059cbb000000000000000000000000000000000000000000000000000000008152600160a060020a039091169063a9059cbb90610ccc90889085880390600401611df5565b602060405180830381600087803b158015610ce657600080fd5b505af1158015610cfa573d6000803e3d6000fd5b505050506040513d601f19601f82011682018060405250610d1e9190810190611874565b1515610d2957600080fd5b505050505050505050565b610d3c610db5565b600160a060020a03163314610d5057600080fd5b6006805473ffffffffffffffffffffffffffffffffffffffff1916600160a060020a0392909216919091179055565b600754600160a060020a031690565b610d96610db5565b600160a060020a03163314610daa57600080fd5b600d55565b600c5481565b7f02016836a56b71f0d02689e69e326f4f4c1b9057164ef592671cf0d37c8040c060005260026020527fb7802e97e87ef2842a6cce7da7ffaeaedaa2f61a6a7870b23d9d01fc9b73712e54600160a060020a031690565b610e14610db5565b600160a060020a03163314610e2857600080fd5b600a805473ffffffffffffffffffffffffffffffffffffffff1916600160a060020a0392909216919091179055565b60408051606081018252602781527f322e322e302b6f70656e67736e2e627269646765746f6b656e67736e2e69706160208201527f796d6173746572000000000000000000000000000000000000000000000000009181019190915290565b602081015160a00151600754600160a060020a03908116911614610eef5760405160e560020a62461bcd02815260040161016e90611e6f565b610ef88161114b565b50565b610f0361147f565b5060408051608081018252620249f08152620186a06020820152600c5491810191909152600d54606082015290565b600d5481565b61c35081565b6201adb081565b610f4d610db5565b600160a060020a03163314610f6157600080fd5b6009805473ffffffffffffffffffffffffffffffffffffffff1916600160a060020a0392909216919091179055565b600654600160a060020a03161515610fbd5760405160e560020a62461bcd02815260040161016e90611e4f565b6006546040517faa67c919000000000000000000000000000000000000000000000000000000008152600160a060020a039091169063aa67c919903490611008903090600401611dc5565b6000604051808303818588803b15801561102157600080fd5b505af1158015611035573d6000803e3d6000fd5b5050505050565b611044610db5565b600160a060020a0316331461105857600080fd5b6007805473ffffffffffffffffffffffffffffffffffffffff1916600160a060020a0392909216919091179055565b620249f081565b611096610db5565b600160a060020a031633146110aa57600080fd5b610ef8816111fc565b620186a081565b6000816020018351101515156110e55760405160e560020a62461bcd02815260040161016e90611e9f565b50016020015190565b80600160a060020a038116151561110457600080fd5b600160a060020a03831615156111225761111d826112c8565b61112c565b61112c83836112d4565b505050565b60008183106111405781611142565b825b90505b92915050565b80516020908101519082015160a001516040517f572b6c05000000000000000000000000000000000000000000000000000000008152600160a060020a039092169163572b6c059161119f91600401611dc5565b602060405180830381600087803b1580156111b957600080fd5b505af11580156111cd573d6000803e3d6000fd5b505050506040513d601f19601f820116820180604052506111f19190810190611874565b1515610ef857600080fd5b600160a060020a038116151561121157600080fd5b7f8be0079c531659141344cd1fd0a4f28419497f9722a3daafe3b4186f6b6457e061123a610db5565b82604051611249929190611dd3565b60405180910390a17f02016836a56b71f0d02689e69e326f4f4c1b9057164ef592671cf0d37c8040c060005260026020527fb7802e97e87ef2842a6cce7da7ffaeaedaa2f61a6a7870b23d9d01fc9b73712e805473ffffffffffffffffffffffffffffffffffffffff1916600160a060020a0392909216919091179055565b30316109d68282611392565b6040517f70a082310000000000000000000000000000000000000000000000000000000081528290600090600160a060020a038316906370a082319061131e903090600401611e30565b602060405180830381600087803b15801561133857600080fd5b505af115801561134c573d6000803e3d6000fd5b505050506040513d601f19601f820116820180604052506113709190810190611a2f565b905061138c600160a060020a038516848363ffffffff6113ec16565b50505050565b604051600160a060020a0383169082156108fc029083906000818181858888f1935050505015156109d65780826113c76114a8565b6113d19190611dc5565b6040518091039082f080158015611035573d6000803e3d6000fd5b6040517fa9059cbb000000000000000000000000000000000000000000000000000000008152600160a060020a0384169063a9059cbb906114339085908590600401611df5565b600060405180830381600087803b15801561144d57600080fd5b505af1158015611461573d6000803e3d6000fd5b505050503d1561112c5760206000803e600051151561112c57600080fd5b608060405190810160405280600081526020016000815260200160008152602001600081525090565b60405160218061208883390190565b60006111428235612026565b6000601f820183136114d457600080fd5b81516114e76114e282611fc3565b611f9c565b9150818183526020840193506020810190508385602084028201111561150c57600080fd5b60005b83811015611538578161152288826117d3565b845250602092830192919091019060010161150f565b5050505092915050565b60006111428235612032565b60006111428251612032565b6000601f8201831361156b57600080fd5b81356115796114e282611fe4565b9150808252602083016020830185838301111561159557600080fd5b6115a0838284612045565b50505092915050565b6000611142823561203a565b600060e082840312156115c757600080fd5b6115d160e0611f9c565b905060006115df84846114b7565b82525060206115f0848483016114b7565b6020830152506040611604848285016117c7565b6040830152506060611618848285016117c7565b606083015250608061162c848285016117c7565b60808301525060a082013567ffffffffffffffff81111561164c57600080fd5b6116588482850161155a565b60a08301525060c061166c848285016117c7565b60c08301525092915050565b6000610100828403121561168b57600080fd5b611696610100611f9c565b905060006116a484846117c7565b82525060206116b5848483016117c7565b60208301525060406116c9848285016117c7565b60408301525060606116dd848285016114b7565b60608301525060806116f1848285016114b7565b60808301525060a0611705848285016114b7565b60a08301525060c082013567ffffffffffffffff81111561172557600080fd5b6117318482850161155a565b60c08301525060e0611745848285016117c7565b60e08301525092915050565b60006040828403121561176357600080fd5b61176d6040611f9c565b9050813567ffffffffffffffff81111561178657600080fd5b611792848285016115b5565b825250602082013567ffffffffffffffff8111156117af57600080fd5b6117bb84828501611678565b60208301525092915050565b60006111428235612037565b60006111428251612037565b6000602082840312156117f157600080fd5b60006117fd84846114b7565b949350505050565b6000806040838503121561181857600080fd5b600061182485856114b7565b9250506020611835858286016114b7565b9150509250929050565b60006020828403121561185157600080fd5b815167ffffffffffffffff81111561186857600080fd5b6117fd848285016114c3565b60006020828403121561188657600080fd5b60006117fd848461154e565b600080600080608085870312156118a857600080fd5b843567ffffffffffffffff8111156118bf57600080fd5b6118cb8782880161155a565b94505060206118dc87828801611542565b93505060406118ed878288016117c7565b925050606085013567ffffffffffffffff81111561190a57600080fd5b61191687828801611678565b91505092959194509250565b60006020828403121561193457600080fd5b60006117fd84846115a9565b60006020828403121561195257600080fd5b813567ffffffffffffffff81111561196957600080fd5b6117fd84828501611751565b6000806000806080858703121561198b57600080fd5b843567ffffffffffffffff8111156119a257600080fd5b6119ae87828801611751565b945050602085013567ffffffffffffffff8111156119cb57600080fd5b6119d78782880161155a565b935050604085013567ffffffffffffffff8111156119f457600080fd5b611a008782880161155a565b9250506060611916878288016117c7565b600060208284031215611a2357600080fd5b60006117fd84846117c7565b600060208284031215611a4157600080fd5b60006117fd84846117d3565b60008060408385031215611a6057600080fd5b600061182485856117c7565b611a7581612026565b82525050565b6000611a8682612018565b808452602084019350611a988361200c565b60005b82811015611ac857611aae868354611a6c565b611ab782612020565b602096909601959150600101611a9b565b5093949350505050565b611a7581612032565b6000611ae68261201c565b808452611afa816020860160208601612051565b611b038161207d565b9093016020019392505050565b611a758161203a565b601981527f72656c6179206875622061646472657373206e6f742073657400000000000000602082015260400190565b601f81527f73656e64657220646f6573206e6f74206d6174636820726563697069656e7400602082015260400190565b601881527f466f72776172646572206973206e6f7420747275737465640000000000000000602082015260400190565b600e81527f617070726f7665206661696c6564000000000000000000000000000000000000602082015260400190565b601981527f61636365707473206f6e6c79206272696467652063616c6c7300000000000000602082015260400190565b600e81527f6461746120746f6f2073686f7274000000000000000000000000000000000000602082015260400190565b601e81527f63616e206f6e6c792062652063616c6c65642062792052656c61794875620000602082015260400190565b601281527f6e6f7420616c6c6f776564207461726765740000000000000000000000000000602082015260400190565b601f81527f746f6b656e73206665652063616e277420636f76657220657870656e73657300602082015260400190565b80516080830190611cda8482611dbc565b506020820151611ced6020850182611dbc565b506040820151611d006040850182611dbc565b50606082015161138c6060850182611dbc565b8051600090610100840190611d288582611dbc565b506020830151611d3b6020860182611dbc565b506040830151611d4e6040860182611dbc565b506060830151611d616060860182611a6c565b506080830151611d746080860182611a6c565b5060a0830151611d8760a0860182611a6c565b5060c083015184820360c0860152611d9f8282611adb565b91505060e0830151611db460e0860182611dbc565b509392505050565b611a7581612037565b602081016111458284611a6c565b60408101611de18285611a6c565b611dee6020830184611a6c565b9392505050565b60408101611e038285611a6c565b611dee6020830184611dbc565b60408082528101611e218185611adb565b9050611dee6020830184611ad2565b602081016111458284611b10565b602080825281016111428184611adb565b6020808252810161114581611b19565b6020808252810161114581611b49565b6020808252810161114581611b79565b6020808252810161114581611ba9565b6020808252810161114581611bd9565b6020808252810161114581611c09565b6020808252810161114581611c39565b6020808252810161114581611c69565b6020808252810161114581611c99565b608081016111458284611cc9565b602081016111458284611dbc565b60408101611de18285611dbc565b60408101611f178285611dbc565b81810360208301526117fd8184611a7b565b60408101611f378285611dbc565b81810360208301526117fd8184611d13565b60a08101611f578288611dbc565b611f646020830187611dbc565b8181036040830152611f768186611a7b565b9050611f856060830185611a6c565b611f926080830184611dbc565b9695505050505050565b60405181810167ffffffffffffffff81118282101715611fbb57600080fd5b604052919050565b600067ffffffffffffffff821115611fda57600080fd5b5060209081020190565b600067ffffffffffffffff821115611ffb57600080fd5b506020601f91909101601f19160190565b60009081526020902090565b5490565b5190565b60010190565b600160a060020a031690565b151590565b90565b600061114582612026565b82818337506000910152565b60005b8381101561206c578181015183820152602001612054565b8381111561138c5750506000910152565b601f01601f1916905600608060405260405160208060218339810160405251600160a060020a038116ff00a265627a7a723058207b871c520df5edb09f786e6950b8e574494be467136bb1e0ca803535a5ea97526c6578706572696d656e74616cf50037b7802e97e87ef2842a6cce7da7ffaeaedaa2f61a6a7870b23d9d01fc9b73712e02016836a56b71f0d02689e69e326f4f4c1b9057164ef592671cf0d37c8040c0",
    "linkReferences": {}
  },
  "methodIdentifiers": {
    "CALLDATA_SIZE_LIMIT()": "5c5e3db1",
    "FORWARDER_HUB_OVERHEAD()": "b90b41cf",
    "PAYMASTER_ACCEPTANCE_BUDGET()": "df463a66",
    "POST_RELAYED_CALL_GAS_LIMIT()": "bbdaa3c9",
    "PRE_RELAYED_CALL_GAS_LIMIT()": "f9c002f7",
    "_verifyForwarder(((address,address,uint256,uint256,uint256,bytes,uint256),(uint256,uint256,uint256,address,address,address,bytes,uint256)))": "a5dcd07b",
    "calldataSizeLimit()": "b1a19578",
    "claimTokens(address,address)": "69ffa08a",
    "deposit()": "d0e30db0",
    "getGasAndDataLimits()": "b039a88f",
    "getHubAddr()": "74e861d6",
    "getRelayHubDeposit()": "2afe31c1",
    "owner()": "8da5cb5b",
    "postGasUsage()": "8b583e94",
    "postRelayedCall(bytes,bool,uint256,(uint256,uint256,uint256,address,address,address,bytes,uint256))": "76fa01c3",
    "preRelayedCall(((address,address,uint256,uint256,uint256,bytes,uint256),(uint256,uint256,uint256,address,address,address,bytes,uint256)),bytes,bytes,uint256)": "00be5dd4",
    "setBridge(address)": "8dd14802",
    "setCalldataSizeLimit(uint256)": "8978193d",
    "setPostGasUsage(uint256)": "6d7c3e2b",
    "setRelayHub(address)": "7bb05264",
    "setRouter(address)": "c0d78655",
    "setToken(address)": "144fa6d7",
    "setTrustedForwarder(address)": "da742228",
    "transferOwnership(address)": "f2fde38b",
    "trustedForwarder()": "7da0a877",
    "versionPaymaster()": "921276ea",
    "withdrawRelayHubDepositTo(uint256,address)": "2d14c4b7"
  },
  "id": 15
}