{
  "abi": [
    {
      "constant": false,
      "inputs": [
        {
          "name": "_fee",
          "type": "uint256"
        }
      ],
      "name": "distributeFeeFromAffirmation",
      "outputs": [],
      "payable": false,
      "stateMutability": "nonpayable",
      "type": "function"
    },
    {
      "constant": false,
      "inputs": [
        {
          "name": "_fee",
          "type": "uint256"
        }
      ],
      "name": "setForeignFee",
      "outputs": [],
      "payable": false,
      "stateMutability": "nonpayable",
      "type": "function"
    },
    {
      "constant": false,
      "inputs": [
        {
          "name": "_fee",
          "type": "uint256"
        }
      ],
      "name": "setHomeFee",
      "outputs": [],
      "payable": false,
      "stateMutability": "nonpayable",
      "type": "function"
    },
    {
      "constant": false,
      "inputs": [
        {
          "name": "_fee",
          "type": "uint256"
        }
      ],
      "name": "distributeFeeFromSignatures",
      "outputs": [],
      "payable": false,
      "stateMutability": "nonpayable",
      "type": "function"
    },
    {
      "constant": true,
      "inputs": [],
      "name": "REWARD_FOR_TRANSFERRING_FROM_FOREIGN",
      "outputs": [
        {
          "name": "",
          "type": "bytes32"
        }
      ],
      "payable": false,
      "stateMutability": "view",
      "type": "function"
    },
    {
      "constant": true,
      "inputs": [],
      "name": "REWARD_FOR_TRANSFERRING_FROM_HOME",
      "outputs": [
        {
          "name": "",
          "type": "bytes32"
        }
      ],
      "payable": false,
      "stateMutability": "view",
      "type": "function"
    },
    {
      "constant": true,
      "inputs": [
        {
          "name": "_value",
          "type": "uint256"
        }
      ],
      "name": "getAmountToBurn",
      "outputs": [
        {
          "name": "",
          "type": "uint256"
        }
      ],
      "payable": false,
      "stateMutability": "view",
      "type": "function"
    },
    {
      "constant": true,
      "inputs": [],
      "name": "getHomeFee",
      "outputs": [
        {
          "name": "",
          "type": "uint256"
        }
      ],
      "payable": false,
      "stateMutability": "view",
      "type": "function"
    },
    {
      "constant": true,
      "inputs": [
        {
          "name": "_value",
          "type": "uint256"
        },
        {
          "name": "_recover",
          "type": "bool"
        },
        {
          "name": "_feeType",
          "type": "bytes32"
        }
      ],
      "name": "calculateFee",
      "outputs": [
        {
          "name": "",
          "type": "uint256"
        }
      ],
      "payable": false,
      "stateMutability": "view",
      "type": "function"
    },
    {
      "constant": true,
      "inputs": [],
      "name": "getFeeManagerMode",
      "outputs": [
        {
          "name": "",
          "type": "bytes4"
        }
      ],
      "payable": false,
      "stateMutability": "pure",
      "type": "function"
    },
    {
      "constant": true,
      "inputs": [],
      "name": "getForeignFee",
      "outputs": [
        {
          "name": "",
          "type": "uint256"
        }
      ],
      "payable": false,
      "stateMutability": "view",
      "type": "function"
    },
    {
      "anonymous": false,
      "inputs": [
        {
          "indexed": false,
          "name": "fee",
          "type": "uint256"
        }
      ],
      "name": "HomeFeeUpdated",
      "type": "event"
    },
    {
      "anonymous": false,
      "inputs": [
        {
          "indexed": false,
          "name": "fee",
          "type": "uint256"
        }
      ],
      "name": "ForeignFeeUpdated",
      "type": "event"
    }
  ],
  "bytecode": {
    "object": "0x608060405234801561001057600080fd5b50610bb0806100206000396000f3006080604052600436106100925760003560e01c63ffffffff168063054d46ec14610097578063286c4066146100b157806334a9e148146100c957806359d78464146100e15780637587f576146100f9578063767e15c114610120578063916850e91461013557806394da17cd1461014d5780639862f26f14610162578063f2ba956114610182578063ffd66196146101cc575b600080fd5b3480156100a357600080fd5b506100af6004356101e1565b005b3480156100bd57600080fd5b506100af60043561020e565b3480156100d557600080fd5b506100af6004356102aa565b3480156100ed57600080fd5b506100af600435610346565b34801561010557600080fd5b5061010e610370565b60408051918252519081900360200190f35b34801561012c57600080fd5b5061010e610394565b34801561014157600080fd5b5061010e6004356103b8565b34801561015957600080fd5b5061010e6103ff565b34801561016e57600080fd5b5061010e600435602435151560443561044d565b34801561018e57600080fd5b50610197610554565b604080517fffffffff000000000000000000000000000000000000000000000000000000009092168252519081900360200190f35b3480156101d857600080fd5b5061010e610578565b61020b817fb14796d751eb4f2570065a479f9e526eabeb2077c564c8a1c5ea559883ea2fab6105c6565b50565b80670de0b6b3a7640000811061022357600080fd5b7f68c305f6c823f4d2fa4140f9cf28d32a1faccf9b8081ff1c2de11cf32c733efc600090815260209081527ffc8184861980b909b08b1c0a3bc8f07d63e2a591b0ee38baf91ff70732f793a48390556040805184815290517fa1bb1f345e2d0374ec182de8bb6e574798f6b4b3e89046d75c479d7d5620c216929181900390910190a15050565b80670de0b6b3a764000081106102bf57600080fd5b7fc3781f3cec62d28f56efe98358f59c2105504b194242dbcb2cc0806850c306e7600090815260209081527f1d18a249ebed58dc38c0390af3a90c7c1c247e1be783f19d84a8f7c82cd2a4ba8390556040805184815290517f64afb51b44460415972849f8c01723cf624c005cbadf1024a2d8568694b73ac1929181900390910190a15050565b61020b817f2a11db67c480122765825a7e4bc5428e8b7b9eca0d4e62b91aac194f99edd0d76105c6565b7fb14796d751eb4f2570065a479f9e526eabeb2077c564c8a1c5ea559883ea2fab81565b7f2a11db67c480122765825a7e4bc5428e8b7b9eca0d4e62b91aac194f99edd0d781565b6000806103e683827f89d93e5e92f7e37e490c25f0e50f7f4aad7cc94b308a566553280967be38bcf161044d565b90506103f8838263ffffffff6108d716565b9392505050565b7fc3781f3cec62d28f56efe98358f59c2105504b194242dbcb2cc0806850c306e760009081526020527f1d18a249ebed58dc38c0390af3a90c7c1c247e1be783f19d84a8f7c82cd2a4ba5490565b600080827f89d93e5e92f7e37e490c25f0e50f7f4aad7cc94b308a566553280967be38bcf181148061049e57507fdeb7f3adca07d6d1f708c1774389db532a2b2f18fd05a62b957e4089f4696ed581145b15156104a957600080fd5b7f89d93e5e92f7e37e490c25f0e50f7f4aad7cc94b308a566553280967be38bcf184146104dd576104d8610578565b6104e5565b6104e56103ff565b915084151561051d57610516670de0b6b3a764000061050a888563ffffffff6108ee16565b9063ffffffff61091716565b925061054b565b610548610538670de0b6b3a76400008463ffffffff6108d716565b61050a888563ffffffff6108ee16565b92505b50509392505050565b7fd7de965f0000000000000000000000000000000000000000000000000000000090565b7f68c305f6c823f4d2fa4140f9cf28d32a1faccf9b8081ff1c2de11cf32c733efc60009081526020527ffc8184861980b909b08b1c0a3bc8f07d63e2a591b0ee38baf91ff70732f793a45490565b6000806000806000806000806000806105dd61092c565b9950600160a060020a03985089600160a060020a0316630f43a6776040518163ffffffff1660e01b8152600401602060405180830381600087803b15801561062457600080fd5b505af1158015610638573d6000803e3d6000fd5b505050506040513d602081101561064e57600080fd5b505197506106628c8963ffffffff61091716565b9650610684610677888a63ffffffff6108ee16565b8d9063ffffffff6108d716565b9450600085111561069b5761069888610983565b95505b89600160a060020a0316638d37052c8a6040518263ffffffff1660e01b81526004018082600160a060020a0316600160a060020a03168152602001915050602060405180830381600087803b1580156106f357600080fd5b505af1158015610707573d6000803e3d6000fd5b505050506040513d602081101561071d57600080fd5b50519350600160a060020a03808516908a16148015906107455750600160a060020a03841615155b151561075057600080fd5b600092505b600160a060020a03848116908a16146108c95786915060008511801561077a57508286145b156107925761078f828663ffffffff6109ab16565b91505b89600160a060020a03166381b91174856040518263ffffffff1660e01b81526004018082600160a060020a0316600160a060020a03168152602001915050602060405180830381600087803b1580156107ea57600080fd5b505af11580156107fe573d6000803e3d6000fd5b505050506040513d602081101561081457600080fd5b5051905061082381838d6109b8565b89600160a060020a0316638d37052c856040518263ffffffff1660e01b81526004018082600160a060020a0316600160a060020a03168152602001915050602060405180830381600087803b15801561087b57600080fd5b505af115801561088f573d6000803e3d6000fd5b505050506040513d60208110156108a557600080fd5b50519350600160a060020a03841615156108be57600080fd5b826001019250610755565b505050505050505050505050565b6000828211156108e357fe5b508082035b92915050565b60008215156108ff575060006108e8565b5081810281838281151561090f57fe5b04146108e857fe5b6000818381151561092457fe5b049392505050565b7f5a74bb7e202fb8e4bf311841c7d64ec19df195fee77d7e7ae749b27921b6ddfe60005260026020527fab54f3fbbe62c59b7876a9bf9bd5e0c22dbae93f4d8ee0438f7ce62b198eb0e054600160a060020a031690565b60008161099743600163ffffffff6108d716565b4060001c8115156109a457fe5b0692915050565b818101828110156108e857fe5b7fb14796d751eb4f2570065a479f9e526eabeb2077c564c8a1c5ea559883ea2fab8114156109ef576109ea83836109fe565b6109f9565b6109f98383610a87565b505050565b6000610a08610a95565b905080600160a060020a031663aa9fa27483856040518363ffffffff1660e01b81526004018083815260200182600160a060020a0316600160a060020a0316815260200192505050600060405180830381600087803b158015610a6a57600080fd5b505af1158015610a7e573d6000803e3d6000fd5b50505050505050565b610a918282610aec565b5050565b7f20ae0b8a761b32f3124efb075f427dd6ca669e88ae7747fec9fd1ad688699f3260005260026020527fd76793c705b076d97d490f0c1e5a620caae2c4973213dc37ef69a1be2a5ec07054600160a060020a031690565b604051600160a060020a0383169082156108fc029083906000818181858888f193505050501515610a91578082610b21610b54565b600160a060020a039091168152604051908190036020019082f080158015610b4d573d6000803e3d6000fd5b5050505050565b604051602180610b64833901905600608060405260405160208060218339810160405251600160a060020a038116ff00a165627a7a7230582074db70aa1cbbc22a9f5391138ea277f5ecbb9c768f12047085ef4da769d50bdc0029",
    "linkReferences": {}
  },
  "methodIdentifiers": {
    "REWARD_FOR_TRANSFERRING_FROM_FOREIGN()": "7587f576",
    "REWARD_FOR_TRANSFERRING_FROM_HOME()": "767e15c1",
    "calculateFee(uint256,bool,bytes32)": "9862f26f",
    "distributeFeeFromAffirmation(uint256)": "054d46ec",
    "distributeFeeFromSignatures(uint256)": "59d78464",
    "getAmountToBurn(uint256)": "916850e9",
    "getFeeManagerMode()": "f2ba9561",
    "getForeignFee()": "ffd66196",
    "getHomeFee()": "94da17cd",
    "setForeignFee(uint256)": "286c4066",
    "setHomeFee(uint256)": "34a9e148"
  },
  "id": 123
}