{
  "abi": [
    {
      "constant": true,
      "inputs": [],
      "name": "wethToken",
      "outputs": [
        {
          "name": "",
          "type": "address"
        }
      ],
      "payable": false,
      "stateMutability": "view",
      "type": "function"
    },
    {
      "constant": true,
      "inputs": [],
      "name": "uniswapRouterV2",
      "outputs": [
        {
          "name": "",
          "type": "address"
        }
      ],
      "payable": false,
      "stateMutability": "view",
      "type": "function"
    },
    {
      "constant": true,
      "inputs": [],
      "name": "minReceivedFraction",
      "outputs": [
        {
          "name": "",
          "type": "uint256"
        }
      ],
      "payable": false,
      "stateMutability": "view",
      "type": "function"
    },
    {
      "constant": true,
      "inputs": [],
      "name": "compToken",
      "outputs": [
        {
          "name": "",
          "type": "address"
        }
      ],
      "payable": false,
      "stateMutability": "view",
      "type": "function"
    },
    {
      "constant": false,
      "inputs": [
        {
          "name": "_token",
          "type": "address"
        },
        {
          "name": "_to",
          "type": "address"
        }
      ],
      "name": "claimTokens",
      "outputs": [],
      "payable": false,
      "stateMutability": "nonpayable",
      "type": "function"
    },
    {
      "constant": false,
      "inputs": [],
      "name": "renounceOwnership",
      "outputs": [],
      "payable": false,
      "stateMutability": "nonpayable",
      "type": "function"
    },
    {
      "constant": false,
      "inputs": [
        {
          "name": "_token",
          "type": "address"
        }
      ],
      "name": "onInterestReceived",
      "outputs": [],
      "payable": false,
      "stateMutability": "nonpayable",
      "type": "function"
    },
    {
      "constant": true,
      "inputs": [],
      "name": "owner",
      "outputs": [
        {
          "name": "",
          "type": "address"
        }
      ],
      "payable": false,
      "stateMutability": "view",
      "type": "function"
    },
    {
      "constant": true,
      "inputs": [],
      "name": "daiToken",
      "outputs": [
        {
          "name": "",
          "type": "address"
        }
      ],
      "payable": false,
      "stateMutability": "view",
      "type": "function"
    },
    {
      "constant": false,
      "inputs": [
        {
          "name": "_minFraction",
          "type": "uint256"
        }
      ],
      "name": "setMinFractionReceived",
      "outputs": [],
      "payable": false,
      "stateMutability": "nonpayable",
      "type": "function"
    },
    {
      "constant": false,
      "inputs": [
        {
          "name": "_newOwner",
          "type": "address"
        }
      ],
      "name": "transferOwnership",
      "outputs": [],
      "payable": false,
      "stateMutability": "nonpayable",
      "type": "function"
    },
    {
      "payable": true,
      "stateMutability": "payable",
      "type": "fallback"
    },
    {
      "anonymous": false,
      "inputs": [
        {
          "indexed": true,
          "name": "previousOwner",
          "type": "address"
        }
      ],
      "name": "OwnershipRenounced",
      "type": "event"
    },
    {
      "anonymous": false,
      "inputs": [
        {
          "indexed": true,
          "name": "previousOwner",
          "type": "address"
        },
        {
          "indexed": true,
          "name": "newOwner",
          "type": "address"
        }
      ],
      "name": "OwnershipTransferred",
      "type": "event"
    }
  ],
  "bytecode": {
    "object": "0x60806040819052600060018190558054600160a060020a031916331781557f095ea7b3000000000000000000000000000000000000000000000000000000008252737a250d5630b4cf539739df2c5dacb4c659f2488d60845260001960a452736b175474e89094c44da98b954eedeac495271d0f9163095ea7b39160c491602091604490829087803b15801561009457600080fd5b505af11580156100a8573d6000803e3d6000fd5b505050506040513d60208110156100be57600080fd5b5050604080517f095ea7b3000000000000000000000000000000000000000000000000000000008152737a250d5630b4cf539739df2c5dacb4c659f2488d60048201526000196024820152905173c00e94cb662c3520282e6f5717214004a7f268889163095ea7b39160448083019260209291908290030181600087803b15801561014857600080fd5b505af115801561015c573d6000803e3d6000fd5b505050506040513d602081101561017257600080fd5b50506109f1806101836000396000f3006080604052600436106100925760003560e01c63ffffffff1680634b57b0be14610094578063596fa9e3146100c55780635adc334e146100da5780636605dfa71461010157806369ffa08a14610116578063715018a61461013d57806381e3f276146101525780638da5cb5b14610173578063be22f54614610188578063e3e323f61461019d578063f2fde38b146101b5575b005b3480156100a057600080fd5b506100a96101d6565b60408051600160a060020a039092168252519081900360200190f35b3480156100d157600080fd5b506100a96101ee565b3480156100e657600080fd5b506100ef610206565b60408051918252519081900360200190f35b34801561010d57600080fd5b506100a961020c565b34801561012257600080fd5b50610092600160a060020a0360043581169060243516610224565b34801561014957600080fd5b50610092610249565b34801561015e57600080fd5b50610092600160a060020a03600435166102b5565b34801561017f57600080fd5b506100a96106a2565b34801561019457600080fd5b506100a96106b1565b3480156101a957600080fd5b506100926004356106c9565b3480156101c157600080fd5b50610092600160a060020a03600435166106f9565b73c02aaa39b223fe8d0a0e5c4f27ead9083c756cc281565b737a250d5630b4cf539739df2c5dacb4c659f2488d81565b60015481565b73c00e94cb662c3520282e6f5717214004a7f2688881565b600054600160a060020a0316331461023b57600080fd5b610245828261071c565b5050565b600054600160a060020a0316331461026057600080fd5b60008054604051600160a060020a03909116917ff8df31144d9c2f0f6b59d69b8b98abd5459d07f2742c4df920b25aae33c6482091a26000805473ffffffffffffffffffffffffffffffffffffffff19169055565b60408051600280825260608281019093526000918291816020016020820280388339019050509250838360008151811015156102ed57fe5b600160a060020a03909216602092830290910190910152825173c02aaa39b223fe8d0a0e5c4f27ead9083c756cc2908490600190811061032957fe5b600160a060020a039283166020918202909201810191909152604080517f70a082310000000000000000000000000000000000000000000000000000000081523060048201529051928716926370a08231926024808401939192918290030181600087803b15801561039a57600080fd5b505af11580156103ae573d6000803e3d6000fd5b505050506040513d60208110156103c457600080fd5b5051604080517fd06ca61f000000000000000000000000000000000000000000000000000000008152670de0b6b3a764000060048201818152602483019384528751604484015287519496506ec097ce7bc90715b34b9f100000000094737a250d5630b4cf539739df2c5dacb4c659f2488d9463d06ca61f948a93926064909101906020858101910280838360005b8381101561046b578181015183820152602001610453565b505050509050019350505050600060405180830381600087803b15801561049157600080fd5b505af11580156104a5573d6000803e3d6000fd5b505050506040513d6000823e601f3d908101601f1916820160405260208110156104ce57600080fd5b8101908080516401000000008111156104e657600080fd5b820160208101848111156104f957600080fd5b815185602082028301116401000000008211171561051657600080fd5b50508051909350600192508210905061052b57fe5b9060200190602002015183600154020281151561054457fe5b049050737a250d5630b4cf539739df2c5dacb4c659f2488d600160a060020a03166318cbafe583838630426040518663ffffffff1660e01b8152600401808681526020018581526020018060200184600160a060020a0316600160a060020a03168152602001838152602001828103825285818151815260200191508051906020019060200280838360005b838110156105e85781810151838201526020016105d0565b505050509050019650505050505050600060405180830381600087803b15801561061157600080fd5b505af1158015610625573d6000803e3d6000fd5b505050506040513d6000823e601f3d908101601f19168201604052602081101561064e57600080fd5b81019080805164010000000081111561066657600080fd5b8201602081018481111561067957600080fd5b815185602082028301116401000000008211171561069657600080fd5b50505050505050505050565b600054600160a060020a031681565b736b175474e89094c44da98b954eedeac495271d0f81565b600054600160a060020a031633146106e057600080fd5b670de0b6b3a764000081106106f457600080fd5b600155565b600054600160a060020a0316331461071057600080fd5b6107198161075f565b50565b80600160a060020a038116151561073257600080fd5b600160a060020a03831615156107505761074b826107dc565b61075a565b61075a83836107e8565b505050565b600160a060020a038116151561077457600080fd5b60008054604051600160a060020a03808516939216917f8be0079c531659141344cd1fd0a4f28419497f9722a3daafe3b4186f6b6457e091a36000805473ffffffffffffffffffffffffffffffffffffffff1916600160a060020a0392909216919091179055565b3031610245828261089b565b604080517f70a0823100000000000000000000000000000000000000000000000000000000815230600482015290518391600091600160a060020a038416916370a0823191602480830192602092919082900301818787803b15801561084d57600080fd5b505af1158015610861573d6000803e3d6000fd5b505050506040513d602081101561087757600080fd5b50519050610895600160a060020a038516848363ffffffff61090316565b50505050565b604051600160a060020a0383169082156108fc029083906000818181858888f1935050505015156102455780826108d0610995565b600160a060020a039091168152604051908190036020019082f0801580156108fc573d6000803e3d6000fd5b5050505050565b82600160a060020a031663a9059cbb83836040518363ffffffff1660e01b81526004018083600160a060020a0316600160a060020a0316815260200182815260200192505050600060405180830381600087803b15801561096357600080fd5b505af1158015610977573d6000803e3d6000fd5b505050503d1561075a5760206000803e600051151561075a57600080fd5b6040516021806109a5833901905600608060405260405160208060218339810160405251600160a060020a038116ff00a165627a7a7230582074b7e7f38801f6cac8958ad4d51d510fe32c46aab8b76704a18773384d5d523a0029",
    "linkReferences": {}
  },
  "methodIdentifiers": {
    "claimTokens(address,address)": "69ffa08a",
    "compToken()": "6605dfa7",
    "daiToken()": "be22f546",
    "minReceivedFraction()": "5adc334e",
    "onInterestReceived(address)": "81e3f276",
    "owner()": "8da5cb5b",
    "renounceOwnership()": "715018a6",
    "setMinFractionReceived(uint256)": "e3e323f6",
    "transferOwnership(address)": "f2fde38b",
    "uniswapRouterV2()": "596fa9e3",
    "wethToken()": "4b57b0be"
  },
  "id": 93
}