{
  "abi": [
    {
      "constant": true,
      "inputs": [],
      "name": "transactionHash",
      "outputs": [
        {
          "name": "",
          "type": "bytes32"
        }
      ],
      "payable": false,
      "stateMutability": "view",
      "type": "function"
    },
    {
      "constant": true,
      "inputs": [
        {
          "name": "_message",
          "type": "bytes32"
        }
      ],
      "name": "numMessagesSigned",
      "outputs": [
        {
          "name": "",
          "type": "uint256"
        }
      ],
      "payable": false,
      "stateMutability": "view",
      "type": "function"
    },
    {
      "constant": false,
      "inputs": [
        {
          "name": "_messageId",
          "type": "bytes32"
        },
        {
          "name": "_status",
          "type": "bool"
        },
        {
          "name": "_result",
          "type": "bytes"
        }
      ],
      "name": "confirmInformation",
      "outputs": [],
      "payable": false,
      "stateMutability": "nonpayable",
      "type": "function"
    },
    {
      "constant": true,
      "inputs": [],
      "name": "sourceChainId",
      "outputs": [
        {
          "name": "",
          "type": "uint256"
        }
      ],
      "payable": false,
      "stateMutability": "view",
      "type": "function"
    },
    {
      "constant": true,
      "inputs": [
        {
          "name": "_hash",
          "type": "bytes32"
        },
        {
          "name": "_index",
          "type": "uint256"
        }
      ],
      "name": "signature",
      "outputs": [
        {
          "name": "",
          "type": "bytes"
        }
      ],
      "payable": false,
      "stateMutability": "view",
      "type": "function"
    },
    {
      "constant": false,
      "inputs": [
        {
          "name": "_sourceChainId",
          "type": "uint256"
        },
        {
          "name": "_destinationChainId",
          "type": "uint256"
        },
        {
          "name": "_validatorContract",
          "type": "address"
        },
        {
          "name": "_maxGasPerTx",
          "type": "uint256"
        },
        {
          "name": "_gasPrice",
          "type": "uint256"
        },
        {
          "name": "_requiredBlockConfirmations",
          "type": "uint256"
        },
        {
          "name": "_owner",
          "type": "address"
        }
      ],
      "name": "initialize",
      "outputs": [
        {
          "name": "",
          "type": "bool"
        }
      ],
      "payable": false,
      "stateMutability": "nonpayable",
      "type": "function"
    },
    {
      "constant": true,
      "inputs": [],
      "name": "isInitialized",
      "outputs": [
        {
          "name": "",
          "type": "bool"
        }
      ],
      "payable": false,
      "stateMutability": "view",
      "type": "function"
    },
    {
      "constant": true,
      "inputs": [],
      "name": "requiredBlockConfirmations",
      "outputs": [
        {
          "name": "",
          "type": "uint256"
        }
      ],
      "payable": false,
      "stateMutability": "view",
      "type": "function"
    },
    {
      "constant": true,
      "inputs": [
        {
          "name": "_messageId",
          "type": "bytes32"
        }
      ],
      "name": "failedMessageReceiver",
      "outputs": [
        {
          "name": "",
          "type": "address"
        }
      ],
      "payable": false,
      "stateMutability": "view",
      "type": "function"
    },
    {
      "constant": true,
      "inputs": [],
      "name": "getBridgeMode",
      "outputs": [
        {
          "name": "_data",
          "type": "bytes4"
        }
      ],
      "payable": false,
      "stateMutability": "pure",
      "type": "function"
    },
    {
      "constant": false,
      "inputs": [
        {
          "name": "_sourceChainId",
          "type": "uint256"
        },
        {
          "name": "_destinationChainId",
          "type": "uint256"
        }
      ],
      "name": "setChainIds",
      "outputs": [],
      "payable": false,
      "stateMutability": "nonpayable",
      "type": "function"
    },
    {
      "constant": true,
      "inputs": [
        {
          "name": "_hash",
          "type": "bytes32"
        }
      ],
      "name": "message",
      "outputs": [
        {
          "name": "",
          "type": "bytes"
        }
      ],
      "payable": false,
      "stateMutability": "view",
      "type": "function"
    },
    {
      "constant": true,
      "inputs": [
        {
          "name": "_messageId",
          "type": "bytes32"
        }
      ],
      "name": "failedMessageSender",
      "outputs": [
        {
          "name": "",
          "type": "address"
        }
      ],
      "payable": false,
      "stateMutability": "view",
      "type": "function"
    },
    {
      "constant": true,
      "inputs": [],
      "name": "allowReentrantRequests",
      "outputs": [
        {
          "name": "",
          "type": "bool"
        }
      ],
      "payable": false,
      "stateMutability": "view",
      "type": "function"
    },
    {
      "constant": false,
      "inputs": [
        {
          "name": "_requestSelector",
          "type": "bytes32"
        },
        {
          "name": "_data",
          "type": "bytes"
        }
      ],
      "name": "requireToGetInformation",
      "outputs": [
        {
          "name": "",
          "type": "bytes32"
        }
      ],
      "payable": false,
      "stateMutability": "nonpayable",
      "type": "function"
    },
    {
      "constant": false,
      "inputs": [
        {
          "name": "signature",
          "type": "bytes"
        },
        {
          "name": "message",
          "type": "bytes"
        }
      ],
      "name": "submitSignature",
      "outputs": [],
      "payable": false,
      "stateMutability": "nonpayable",
      "type": "function"
    },
    {
      "constant": true,
      "inputs": [],
      "name": "messageId",
      "outputs": [
        {
          "name": "id",
          "type": "bytes32"
        }
      ],
      "payable": false,
      "stateMutability": "view",
      "type": "function"
    },
    {
      "constant": false,
      "inputs": [
        {
          "name": "_token",
          "type": "address"
        },
        {
          "name": "_to",
          "type": "address"
        }
      ],
      "name": "claimTokens",
      "outputs": [],
      "payable": false,
      "stateMutability": "nonpayable",
      "type": "function"
    },
    {
      "constant": true,
      "inputs": [
        {
          "name": "_hash",
          "type": "bytes32"
        }
      ],
      "name": "numAffirmationsSigned",
      "outputs": [
        {
          "name": "",
          "type": "uint256"
        }
      ],
      "payable": false,
      "stateMutability": "view",
      "type": "function"
    },
    {
      "constant": true,
      "inputs": [
        {
          "name": "_hash",
          "type": "bytes32"
        }
      ],
      "name": "affirmationsSigned",
      "outputs": [
        {
          "name": "",
          "type": "bool"
        }
      ],
      "payable": false,
      "stateMutability": "view",
      "type": "function"
    },
    {
      "constant": false,
      "inputs": [
        {
          "name": "_maxGasPerTx",
          "type": "uint256"
        }
      ],
      "name": "setMaxGasPerTx",
      "outputs": [],
      "payable": false,
      "stateMutability": "nonpayable",
      "type": "function"
    },
    {
      "constant": true,
      "inputs": [],
      "name": "requiredSignatures",
      "outputs": [
        {
          "name": "",
          "type": "uint256"
        }
      ],
      "payable": false,
      "stateMutability": "view",
      "type": "function"
    },
    {
      "constant": true,
      "inputs": [],
      "name": "owner",
      "outputs": [
        {
          "name": "",
          "type": "address"
        }
      ],
      "payable": false,
      "stateMutability": "view",
      "type": "function"
    },
    {
      "constant": true,
      "inputs": [
        {
          "name": "_message",
          "type": "bytes32"
        }
      ],
      "name": "messagesSigned",
      "outputs": [
        {
          "name": "",
          "type": "bool"
        }
      ],
      "payable": false,
      "stateMutability": "view",
      "type": "function"
    },
    {
      "constant": false,
      "inputs": [
        {
          "name": "_contract",
          "type": "address"
        },
        {
          "name": "_data",
          "type": "bytes"
        },
        {
          "name": "_gas",
          "type": "uint256"
        }
      ],
      "name": "requireToConfirmMessage",
      "outputs": [
        {
          "name": "",
          "type": "bytes32"
        }
      ],
      "payable": false,
      "stateMutability": "nonpayable",
      "type": "function"
    },
    {
      "constant": true,
      "inputs": [],
      "name": "validatorContract",
      "outputs": [
        {
          "name": "",
          "type": "address"
        }
      ],
      "payable": false,
      "stateMutability": "view",
      "type": "function"
    },
    {
      "constant": true,
      "inputs": [],
      "name": "deployedAtBlock",
      "outputs": [
        {
          "name": "",
          "type": "uint256"
        }
      ],
      "payable": false,
      "stateMutability": "view",
      "type": "function"
    },
    {
      "constant": true,
      "inputs": [],
      "name": "getBridgeInterfacesVersion",
      "outputs": [
        {
          "name": "major",
          "type": "uint64"
        },
        {
          "name": "minor",
          "type": "uint64"
        },
        {
          "name": "patch",
          "type": "uint64"
        }
      ],
      "payable": false,
      "stateMutability": "pure",
      "type": "function"
    },
    {
      "constant": true,
      "inputs": [],
      "name": "messageSourceChainId",
      "outputs": [
        {
          "name": "id",
          "type": "uint256"
        }
      ],
      "payable": false,
      "stateMutability": "view",
      "type": "function"
    },
    {
      "constant": false,
      "inputs": [
        {
          "name": "_blockConfirmations",
          "type": "uint256"
        }
      ],
      "name": "setRequiredBlockConfirmations",
      "outputs": [],
      "payable": false,
      "stateMutability": "nonpayable",
      "type": "function"
    },
    {
      "constant": true,
      "inputs": [],
      "name": "destinationChainId",
      "outputs": [
        {
          "name": "",
          "type": "uint256"
        }
      ],
      "payable": false,
      "stateMutability": "view",
      "type": "function"
    },
    {
      "constant": false,
      "inputs": [
        {
          "name": "_gasPrice",
          "type": "uint256"
        }
      ],
      "name": "setGasPrice",
      "outputs": [],
      "payable": false,
      "stateMutability": "nonpayable",
      "type": "function"
    },
    {
      "constant": false,
      "inputs": [
        {
          "name": "_enable",
          "type": "bool"
        }
      ],
      "name": "setAllowReentrantRequests",
      "outputs": [],
      "payable": false,
      "stateMutability": "nonpayable",
      "type": "function"
    },
    {
      "constant": false,
      "inputs": [
        {
          "name": "_requestSelector",
          "type": "bytes32"
        },
        {
          "name": "_enable",
          "type": "bool"
        }
      ],
      "name": "enableAsyncRequestSelector",
      "outputs": [],
      "payable": false,
      "stateMutability": "nonpayable",
      "type": "function"
    },
    {
      "constant": true,
      "inputs": [
        {
          "name": "_messageId",
          "type": "bytes32"
        }
      ],
      "name": "messageCallStatus",
      "outputs": [
        {
          "name": "",
          "type": "bool"
        }
      ],
      "payable": false,
      "stateMutability": "view",
      "type": "function"
    },
    {
      "constant": true,
      "inputs": [],
      "name": "messageSender",
      "outputs": [
        {
          "name": "sender",
          "type": "address"
        }
      ],
      "payable": false,
      "stateMutability": "view",
      "type": "function"
    },
    {
      "constant": true,
      "inputs": [],
      "name": "decimalShift",
      "outputs": [
        {
          "name": "",
          "type": "int256"
        }
      ],
      "payable": false,
      "stateMutability": "view",
      "type": "function"
    },
    {
      "constant": false,
      "inputs": [
        {
          "name": "_contract",
          "type": "address"
        },
        {
          "name": "_data",
          "type": "bytes"
        },
        {
          "name": "_gas",
          "type": "uint256"
        }
      ],
      "name": "requireToPassMessage",
      "outputs": [
        {
          "name": "",
          "type": "bytes32"
        }
      ],
      "payable": false,
      "stateMutability": "nonpayable",
      "type": "function"
    },
    {
      "constant": true,
      "inputs": [
        {
          "name": "_messageId",
          "type": "bytes32"
        }
      ],
      "name": "failedMessageDataHash",
      "outputs": [
        {
          "name": "",
          "type": "bytes32"
        }
      ],
      "payable": false,
      "stateMutability": "view",
      "type": "function"
    },
    {
      "constant": true,
      "inputs": [],
      "name": "maxGasPerTx",
      "outputs": [
        {
          "name": "",
          "type": "uint256"
        }
      ],
      "payable": false,
      "stateMutability": "view",
      "type": "function"
    },
    {
      "constant": false,
      "inputs": [
        {
          "name": "message",
          "type": "bytes"
        }
      ],
      "name": "executeAffirmation",
      "outputs": [],
      "payable": false,
      "stateMutability": "nonpayable",
      "type": "function"
    },
    {
      "constant": false,
      "inputs": [
        {
          "name": "newOwner",
          "type": "address"
        }
      ],
      "name": "transferOwnership",
      "outputs": [],
      "payable": false,
      "stateMutability": "nonpayable",
      "type": "function"
    },
    {
      "constant": true,
      "inputs": [
        {
          "name": "_requestSelector",
          "type": "bytes32"
        }
      ],
      "name": "isAsyncRequestSelectorEnabled",
      "outputs": [
        {
          "name": "",
          "type": "bool"
        }
      ],
      "payable": false,
      "stateMutability": "view",
      "type": "function"
    },
    {
      "constant": true,
      "inputs": [],
      "name": "gasPrice",
      "outputs": [
        {
          "name": "",
          "type": "uint256"
        }
      ],
      "payable": false,
      "stateMutability": "view",
      "type": "function"
    },
    {
      "constant": true,
      "inputs": [
        {
          "name": "_number",
          "type": "uint256"
        }
      ],
      "name": "isAlreadyProcessed",
      "outputs": [
        {
          "name": "",
          "type": "bool"
        }
      ],
      "payable": false,
      "stateMutability": "pure",
      "type": "function"
    },
    {
      "anonymous": false,
      "inputs": [
        {
          "indexed": true,
          "name": "messageId",
          "type": "bytes32"
        },
        {
          "indexed": false,
          "name": "encodedData",
          "type": "bytes"
        }
      ],
      "name": "UserRequestForSignature",
      "type": "event"
    },
    {
      "anonymous": false,
      "inputs": [
        {
          "indexed": true,
          "name": "sender",
          "type": "address"
        },
        {
          "indexed": true,
          "name": "executor",
          "type": "address"
        },
        {
          "indexed": true,
          "name": "messageId",
          "type": "bytes32"
        },
        {
          "indexed": false,
          "name": "status",
          "type": "bool"
        }
      ],
      "name": "AffirmationCompleted",
      "type": "event"
    },
    {
      "anonymous": false,
      "inputs": [
        {
          "indexed": true,
          "name": "messageId",
          "type": "bytes32"
        },
        {
          "indexed": true,
          "name": "requestSelector",
          "type": "bytes32"
        },
        {
          "indexed": true,
          "name": "sender",
          "type": "address"
        },
        {
          "indexed": false,
          "name": "data",
          "type": "bytes"
        }
      ],
      "name": "UserRequestForInformation",
      "type": "event"
    },
    {
      "anonymous": false,
      "inputs": [
        {
          "indexed": true,
          "name": "signer",
          "type": "address"
        },
        {
          "indexed": true,
          "name": "messageId",
          "type": "bytes32"
        }
      ],
      "name": "SignedForInformation",
      "type": "event"
    },
    {
      "anonymous": false,
      "inputs": [
        {
          "indexed": true,
          "name": "messageId",
          "type": "bytes32"
        },
        {
          "indexed": false,
          "name": "status",
          "type": "bool"
        },
        {
          "indexed": false,
          "name": "callbackStatus",
          "type": "bool"
        }
      ],
      "name": "InformationRetrieved",
      "type": "event"
    },
    {
      "anonymous": false,
      "inputs": [
        {
          "indexed": true,
          "name": "requestSelector",
          "type": "bytes32"
        },
        {
          "indexed": false,
          "name": "enable",
          "type": "bool"
        }
      ],
      "name": "EnabledAsyncRequestSelector",
      "type": "event"
    },
    {
      "anonymous": false,
      "inputs": [
        {
          "indexed": true,
          "name": "signer",
          "type": "address"
        },
        {
          "indexed": false,
          "name": "messageHash",
          "type": "bytes32"
        }
      ],
      "name": "SignedForUserRequest",
      "type": "event"
    },
    {
      "anonymous": false,
      "inputs": [
        {
          "indexed": true,
          "name": "signer",
          "type": "address"
        },
        {
          "indexed": false,
          "name": "messageHash",
          "type": "bytes32"
        }
      ],
      "name": "SignedForAffirmation",
      "type": "event"
    },
    {
      "anonymous": false,
      "inputs": [
        {
          "indexed": false,
          "name": "authorityResponsibleForRelay",
          "type": "address"
        },
        {
          "indexed": false,
          "name": "messageHash",
          "type": "bytes32"
        },
        {
          "indexed": false,
          "name": "NumberOfCollectedSignatures",
          "type": "uint256"
        }
      ],
      "name": "CollectedSignatures",
      "type": "event"
    },
    {
      "anonymous": false,
      "inputs": [
        {
          "indexed": false,
          "name": "gasPrice",
          "type": "uint256"
        }
      ],
      "name": "GasPriceChanged",
      "type": "event"
    },
    {
      "anonymous": false,
      "inputs": [
        {
          "indexed": false,
          "name": "requiredBlockConfirmations",
          "type": "uint256"
        }
      ],
      "name": "RequiredBlockConfirmationChanged",
      "type": "event"
    },
    {
      "anonymous": false,
      "inputs": [
        {
          "indexed": false,
          "name": "previousOwner",
          "type": "address"
        },
        {
          "indexed": false,
          "name": "newOwner",
          "type": "address"
        }
      ],
      "name": "OwnershipTransferred",
      "type": "event"
    }
  ],
  "bytecode": {
    "object": "0x608060405234801561001057600080fd5b5061434d806100206000396000f3006080604052600436106102085760003560e01c63ffffffff1680630ac1c3131461020d5780630cbf0601146102345780630f08d4d01461024c5780631544298e146102785780631812d9961461028d57806325fbf4ee1461031d578063392e53cd1461036a5780633f0a9f651461037f5780633f9a8e7e14610394578063437764df146103c8578063467ad35a1461040f578063490a32c61461042a5780634a610b04146104425780634d4cb7a21461045a578063525ea9371461046f578063630cea8e14610493578063669f618b146104bf57806369ffa08a146104d45780636ae1a976146104fb5780637698da24146105135780637bac29c71461052b5780638d068043146105435780638da5cb5b146105585780638f4b4b981461056d57806394643f711461058557806399439089146105ee5780639a454b99146106035780639cb7595a146106185780639e307dff14610659578063acf5c6891461066e578063b075061114610686578063bf1fe4201461069b578063c2231ad2146106b3578063c29b1e8a146106cd578063cb08a10c146106ea578063d67bdd2514610702578063dae5f0fd14610717578063dc8601b31461072c578063e37c328914610795578063e5789d03146107ad578063e7a2c01f146107c2578063f2fde38b146107e2578063fb67e77914610803578063fe173b971461081b578063ffd19e8c14610830575b600080fd5b34801561021957600080fd5b50610222610848565b60408051918252519081900360200190f35b34801561024057600080fd5b50610222600435610858565b34801561025857600080fd5b5061027660048035906024803515159160443591820191013561091d565b005b34801561028457600080fd5b50610222610d3f565b34801561029957600080fd5b506102a8600435602435610d8d565b6040805160208082528351818301528351919283929083019185019080838360005b838110156102e25781810151838201526020016102ca565b50505050905090810190601f16801561030f5780820380516001836020036101000a031916815260200191505b509250505060405180910390f35b34801561032957600080fd5b50610356600435602435600160a060020a03604435811690606435906084359060a4359060c43516610f6a565b604080519115158252519081900360200190f35b34801561037657600080fd5b506103566111db565b34801561038b57600080fd5b5061022261122c565b3480156103a057600080fd5b506103ac60043561127a565b60408051600160a060020a039092168252519081900360200190f35b3480156103d457600080fd5b506103dd611349565b604080517bffffffffffffffffffffffffffffffffffffffffffffffffffffffff199092168252519081900360200190f35b34801561041b57600080fd5b5061027660043560243561136d565b34801561043657600080fd5b506102a8600435611397565b34801561044e57600080fd5b506103ac6004356113a8565b34801561046657600080fd5b5061035661142c565b34801561047b57600080fd5b5061022260048035906024803590810191013561147d565b34801561049f57600080fd5b506102766024600480358281019290820135918135918201910135611545565b3480156104cb57600080fd5b50610222611962565b3480156104e057600080fd5b50610276600160a060020a0360043581169060243516611987565b34801561050757600080fd5b50610222600435611a0c565b34801561051f57600080fd5b50610356600435611a8f565b34801561053757600080fd5b50610276600435611b58565b34801561054f57600080fd5b50610222611bc1565b34801561056457600080fd5b506103ac611c36565b34801561057957600080fd5b50610356600435611c8d565b34801561059157600080fd5b5060408051602060046024803582810135601f8101859004850286018501909652858552610222958335600160a060020a03169536956044949193909101919081908401838280828437509497505093359450611d119350505050565b3480156105fa57600080fd5b506103ac611d28565b34801561060f57600080fd5b50610222611d7f565b34801561062457600080fd5b5061062d611dcd565b6040805167ffffffffffffffff9485168152928416602084015292168183015290519081900360600190f35b34801561066557600080fd5b50610222611dd8565b34801561067a57600080fd5b50610276600435611dfd565b34801561069257600080fd5b50610222611e25565b3480156106a757600080fd5b50610276600435611e73565b3480156106bf57600080fd5b506102766004351515611e98565b3480156106d957600080fd5b506102766004356024351515611f0f565b3480156106f657600080fd5b50610356600435612033565b34801561070e57600080fd5b506103ac6120b7565b34801561072357600080fd5b506102226120dc565b34801561073857600080fd5b5060408051602060046024803582810135601f8101859004850286018501909652858552610222958335600160a060020a0316953695604494919390910191908190840183828082843750949750509335945061212a9350505050565b3480156107a157600080fd5b50610222600435612139565b3480156107b957600080fd5b50610222612202565b3480156107ce57600080fd5b506102766004803560248101910135612250565b3480156107ee57600080fd5b50610276600160a060020a03600435166124c8565b34801561080f57600080fd5b506103566004356124ed565b34801561082757600080fd5b50610222612571565b34801561083c57600080fd5b506103566004356125bf565b6000610852611962565b90505b90565b60008060008360405160200180807f6e756d4d657373616765735369676e656400000000000000000000000000000081525060110182600019166000191681526020019150506040516020818303038152906040526040518082805190602001908083835b602083106108dc5780518252601f1990920191602091820191016108bd565b51815160209384036101000a600019018019909216911617905260408051929094018290039091208652850195909552929092016000205495945050505050565b6000806000806060600080610930611d28565b600160a060020a031663facd743b336040518263ffffffff1660e01b81526004018082600160a060020a0316600160a060020a03168152602001915050602060405180830381600087803b15801561098757600080fd5b505af115801561099b573d6000803e3d6000fd5b505050506040513d60208110156109b157600080fd5b505115156109be57600080fd5b8a8a8a8a604051602001808560001916600019168152602001841515151560f81b815260010183838082843782019150509450505050506040516020818303038152906040526040518082805190602001908083835b60208310610a335780518252601f199092019160209182019101610a14565b51815160209384036101000a6000190180199092169116179052604080519290940182900382203360601b838301526034808401829052855180850390910181526054909301948590528251909d509195509293508392850191508083835b60208310610ab15780518252601f199092019160209182019101610a92565b6001836020036101000a03801982511681845116808217855250505050505090500191505060405180910390209550610ae986611a8f565b15610af357600080fd5b610afe8660016125e7565b610b0787611a0c565b9450610b12856125bf565b15610b1c57600080fd5b846001019450610b2c87866126b9565b6040518b9033907fa8430f88dd0556970a712fd927c7d52ff7ed1256e9c8ee3aa291cd3d6eb8205f90600090a3610b61611bc1565b8510610d3257610b7987610b748761277e565b6126b9565b610b828b6127a3565b604051602481018d81528c15156044830152606060648301908152608483018c90529296507ff534de5b00000000000000000000000000000000000000000000000000000000928e928e928e928e9260a401848480828437820191505095505050505050604051602081830303815290604052907bffffffffffffffffffffffffffffffffffffffffffffffffffffffff19166020820180517bffffffffffffffffffffffffffffffffffffffffffffffffffffffff83818316178352505050509250610c4d612202565b91508160405a603f02811515610c5f57fe5b0411610c6a57600080fd5b83600160a060020a0316828460405180828051906020019080838360005b83811015610ca0578181015183820152602001610c88565b50505050905090810190601f168015610ccd5780820380516001836020036101000a031916815260200191505b5091505060006040518083038160008787f19250505090508a600019167f11c068ae71d815e1839c207016edea79bf33158bd1f50d34e79b0c5aaf52367b8b836040518083151515158152602001821515151581526020019250505060405180910390a25b5050505050505050505050565b7f67d6f42a1ed69c62022f2d160ddc6f2f0acd37ad1db0c24f4702d7d3343a4add60009081526020527ff6c66672b1a9fe5622677597b0da8fd180a2c85696efbcf7fe4b1e0f4f0f61085490565b604080516020808201859052818301849052825180830384018152606092830193849052805192936000939192909182918401908083835b60208310610de45780518252601f199092019160209182019101610dc5565b51815160209384036101000a6000190180199092169116179052604080519290940182900382207f7369676e6174757265730000000000000000000000000000000000000000000083830152602a80840182905285518085039091018152604a9093019485905282519097506003965060009550919392508291908401908083835b60208310610e855780518252601f199092019160209182019101610e66565b6001836020036101000a0380198251168184511680821785525050505050509050019150506040518091039020600019166000191681526020019081526020016000208054600181600116156101000203166002900480601f016020809104026020016040519081016040528092919081815260200182805460018160011615610100020316600290048015610f5c5780601f10610f3157610100808354040283529160200191610f5c565b820191906000526020600020905b815481529060010190602001808311610f3f57829003601f168201915b505050505091505092915050565b60408051600481526024810182526020810180517bffffffffffffffffffffffffffffffffffffffffffffffffffffffff167f6fde8202000000000000000000000000000000000000000000000000000000001781529151815160009330939291829190808383895b83811015610feb578181015183820152602001610fd3565b50505050905090810190601f1680156110185780820380516001836020036101000a031916815260200191505b509150506000604051808303816000865af191505015806110a7575030600160a060020a0316636fde82026040518163ffffffff1660e01b8152600401602060405180830381600087803b15801561106f57600080fd5b505af1158015611083573d6000803e3d6000fd5b505050506040513d602081101561109957600080fd5b5051600160a060020a031633145b806110b157503330145b15156110bc57600080fd5b6110c46111db565b156110ce57600080fd5b6110d7866128aa565b15156110e257600080fd5b6110ec88886128b2565b7fab54f3fbbe62c59b7876a9bf9bd5e0c22dbae93f4d8ee0438f7ce62b198eb0e0805473ffffffffffffffffffffffffffffffffffffffff1916600160a060020a03881617905560006020819052437fe66bef0282a446f9848e2903380099bb6e431483ee78778868f33b4a154c818b557f2670ecc91ec356e32067fd27b36614132d727b84a1e03e08f412a4f2cf07597490527f3d7fe2ee9790702383ef0118b516833ef2542132d3ca4ac6c77f62f1230fa6108590556111ad84612a01565b6111b683612a87565b6111bf82612b1a565b6111c7612bf1565b6111cf6111db565b98975050505050505050565b7f0a6f646cd611241d8073675e00d1a1ff700fbf1b53fcf473de56d1e6e4b714ba60005260046020527f078d888f9b66f3f8bfa10909e31f1e16240db73449f0500afdbbe3a70da457cc5460ff1690565b7f916daedf6915000ff68ced2f0b6773fe6f2582237f92c3c95bb4d7940723007160009081526020527fd2ea0feb732edb0ffe32efd33a6b9d24d46b16eb34a4d07ce256537b6f131e425490565b6000600260008360405160200180807f6661696c65644d6573736167655265636569766572000000000000000000000081525060150182600019166000191681526020019150506040516020818303038152906040526040518082805190602001908083835b602083106112ff5780518252601f1990920191602091820191016112e0565b51815160209384036101000a6000190180199092169116179052604080519290940182900390912086528501959095529290920160002054600160a060020a031695945050505050565b7f2544fbb90000000000000000000000000000000000000000000000000000000090565b611375611c36565b600160a060020a0316331461138957600080fd5b61139382826128b2565b5050565b60606113a282612c48565b92915050565b6000600260008360405160200180807f6661696c65644d65737361676553656e646572000000000000000000000000008152506013018260001916600019168152602001915050604051602081830303815290604052604051808280519060200190808383602083106112ff5780518252601f1990920191602091820191016112e0565b7fffa3a5a0e192028fc343362a39c5688e5a60819a4dc5ab3ee70c25bc25b78dd660005260046020527f265a43ea29ede07170a30cb6d77d0ab5810eee752b72432f7be348bde74aa08f5460ff1690565b60008080611489611962565b1480611498575061149861142c565b15156114a357600080fd5b6114ac336128aa565b15156114b757600080fd5b6114c0856124ed565b15156114cb57600080fd5b6114db6114d6610d3f565b612db0565b90506114e78133612eaa565b60408051602080825281018590523391879184917f72220b25ff596f7113b4015af206e306c4964f58f99f01d3f439dd35575f998f9189918991908190810184848082843760405192018290039550909350505050a4949350505050565b6000806000806000611555611d28565b600160a060020a031663facd743b336040518263ffffffff1660e01b81526004018082600160a060020a0316600160a060020a03168152602001915050602060405180830381600087803b1580156115ac57600080fd5b505af11580156115c0573d6000803e3d6000fd5b505050506040513d60208110156115d657600080fd5b505115156115e357600080fd5b61164d89898080601f0160208091040260200160405190810160405280939291908181526020018383808284375050604080516020601f8f018190048102820181019092528d815294508d93508c925082915084018382808284375060019450612f989350505050565b600160a060020a0316331461166157600080fd5b8686604051602001808383808284378201915050925050506040516020818303038152906040526040518082805190602001908083835b602083106116b75780518252601f199092019160209182019101611698565b51815160209384036101000a6000190180199092169116179052604080519290940182900382203360601b838301526034808401829052855180850390910181526054909301948590528251909b509195509293508392850191508083835b602083106117355780518252601f199092019160209182019101611716565b6001836020036101000a0380198251168184511680821785525050505050509050019150506040518091039020935061176d85610858565b9250611778836125bf565b1561178257600080fd5b6001928301928311156117a75761179884611c8d565b156117a257600080fd5b6117e1565b6117e18588888080601f01602080910402602001604051908101604052809392919081815260200183838082843750613094945050505050565b6117ec84600161316b565b846117fe84600163ffffffff6131ee16565b604080516020808201949094528082019290925280518083038201815260609092019081905281519192909182918401908083835b602083106118525780518252601f199092019160209182019101611833565b51815160209384036101000a600019018019909216911617905260408051929094018290038220601f8f018290048202830182019094528d82529296506118b39450869350918d91508c908190840183828082843750613200945050505050565b6118bd8584613283565b60408051868152905133917fbf06885f40778f5ccfb64497d3f92ce568ddaedb7e2fb4487f72690418cf8e4c919081900360200190a26118fb611bc1565b905080831061195757611916856119118561277e565b613283565b604080513381526020810187905280820183905290517f415557404d88a0c0b8e3b16967cafffc511213fd9c465c16832ee17ed57d72379181900360600190a15b505050505050505050565b7fe34bb2103dc34f2c144cc216c132d6ffb55dac57575c22e089161bbe650833045490565b30600160a060020a0316636fde82026040518163ffffffff1660e01b8152600401602060405180830381600087803b1580156119c257600080fd5b505af11580156119d6573d6000803e3d6000fd5b505050506040513d60208110156119ec57600080fd5b5051600160a060020a03163314611a0257600080fd5b6113938282613305565b60008060008360405160200180807f6e756d41666669726d6174696f6e735369676e656400000000000000000000008152506015018260001916600019168152602001915050604051602081830303815290604052604051808280519060200190808383602083106108dc5780518252601f1990920191602091820191016108bd565b6000600460008360405160200180807f61666669726d6174696f6e735369676e6564000000000000000000000000000081525060120182600019166000191681526020019150506040516020818303038152906040526040518082805190602001908083835b60208310611b145780518252601f199092019160209182019101611af5565b51815160209384036101000a600019018019909216911617905260408051929094018290039091208652850195909552929092016000205460ff1695945050505050565b611b60611c36565b600160a060020a03163314611b7457600080fd5b7f2670ecc91ec356e32067fd27b36614132d727b84a1e03e08f412a4f2cf07597460009081526020527f3d7fe2ee9790702383ef0118b516833ef2542132d3ca4ac6c77f62f1230fa61055565b6000611bcb611d28565b600160a060020a0316638d0680436040518163ffffffff1660e01b8152600401602060405180830381600087803b158015611c0557600080fd5b505af1158015611c19573d6000803e3d6000fd5b505050506040513d6020811015611c2f57600080fd5b5051905090565b7f02016836a56b71f0d02689e69e326f4f4c1b9057164ef592671cf0d37c8040c060005260026020527fb7802e97e87ef2842a6cce7da7ffaeaedaa2f61a6a7870b23d9d01fc9b73712e54600160a060020a031690565b6000600460008360405160200180807f6d657373616765735369676e6564000000000000000000000000000000000000815250600e01826000191660001916815260200191505060405160208183030381529060405260405180828051906020019080838360208310611b145780518252601f199092019160209182019101611af5565b6000611d208484846080613343565b949350505050565b7f5a74bb7e202fb8e4bf311841c7d64ec19df195fee77d7e7ae749b27921b6ddfe60005260026020527fab54f3fbbe62c59b7876a9bf9bd5e0c22dbae93f4d8ee0438f7ce62b198eb0e054600160a060020a031690565b7fb120ceec05576ad0c710bc6e85f1768535e27554458f05dcbb5c65b8c7a749b060009081526020527fe66bef0282a446f9848e2903380099bb6e431483ee78778868f33b4a154c818b5490565b600660026000909192565b7f7f0fcd9e49860f055dd0c1682d635d309ecb5e3011654c716d9eb59a7ddec7d25490565b611e05611c36565b600160a060020a03163314611e1957600080fd5b611e2281612a87565b50565b7fbbd454018e72a3f6c02bbd785bacc49e46292744f3f6761276723823aa33232060009081526020527f242329173dfc316001df0a0c3d5a8f58a7ffb1a8b7d99c268303b9a741bacdf95490565b611e7b611c36565b600160a060020a03163314611e8f57600080fd5b611e2281612a01565b611ea0611c36565b600160a060020a03163314611eb457600080fd5b7fffa3a5a0e192028fc343362a39c5688e5a60819a4dc5ab3ee70c25bc25b78dd660005260046020527f265a43ea29ede07170a30cb6d77d0ab5810eee752b72432f7be348bde74aa08f805460ff1916911515919091179055565b611f17611c36565b600160a060020a03163314611f2b57600080fd5b80600460008460405160200180807f656e61626c655265717565737453656c6563746f72000000000000000000000081525060150182600019166000191681526020019150506040516020818303038152906040526040518082805190602001908083835b60208310611faf5780518252601f199092019160209182019101611f90565b51815160209384036101000a6000190180199092169116179052604080519290940182900390912086528581019690965250928301600020805460ff191695151595909517909455508051841515815290518593507f0c6e335700063e42c344f1ce5a16fdc748318fa807af05984827f33946d93c4e929181900390910190a25050565b6000600460008360405160200180807f6d65737361676543616c6c537461747573000000000000000000000000000000815250601101826000191660001916815260200191505060405160208183030381529060405260405180828051906020019080838360208310611b145780518252601f199092019160209182019101611af5565b7f7b58b2a669d8e0992eae9eaef641092c0f686fd31070e7236865557fa1571b5b5490565b7f1e8ecaafaddea96ed9ac6d2642dcdfe1bebe58a930b1085842d8fc122b371ee560009081526020527fd5c78dd9468716ca9bb96be25d56436811b20aab3523a9904b12deef1cab239d5490565b6000611d208484846000613343565b60008060008360405160200180807f6661696c65644d6573736167654461746148617368000000000000000000000081525060150182600019166000191681526020019150506040516020818303038152906040526040518082805190602001908083835b602083106121bd5780518252601f19909201916020918201910161219e565b51815160209384036101000a60001901801990921691161790526040805192909401829003909120865285019590955292909201600090812054901b95945050505050565b7f2670ecc91ec356e32067fd27b36614132d727b84a1e03e08f412a4f2cf07597460009081526020527f3d7fe2ee9790702383ef0118b516833ef2542132d3ca4ac6c77f62f1230fa6105490565b600080600061225d611d28565b600160a060020a031663facd743b336040518263ffffffff1660e01b81526004018082600160a060020a0316600160a060020a03168152602001915050602060405180830381600087803b1580156122b457600080fd5b505af11580156122c8573d6000803e3d6000fd5b505050506040513d60208110156122de57600080fd5b505115156122eb57600080fd5b8484604051602001808383808284378201915050925050506040516020818303038152906040526040518082805190602001908083835b602083106123415780518252601f199092019160209182019101612322565b51815160209384036101000a6000190180199092169116179052604080519290940182900382203360601b8383015260348084018290528551808503909101815260549093019485905282519099509195509293508392850191508083835b602083106123bf5780518252601f1990920191602091820191016123a0565b6001836020036101000a038019825116818451168082178552505050505050905001915050604051809103902091506123f782611a8f565b1561240157600080fd5b61240c8260016125e7565b61241583611a0c565b9050612420816125bf565b1561242a57600080fd5b60010161243783826126b9565b60408051848152905133917f5df9cc3eb93d8a9a481857a3b70a8ca966e6b80b25cf0ee2cce180ec5afa80a1919081900360200190a2612475611bc1565b81106124c15761248883610b748361277e565b6124c185858080601f016020809104026020016040519081016040528093929190818152602001838380828437506134c9945050505050565b5050505050565b6124d0611c36565b600160a060020a031633146124e457600080fd5b611e2281612b1a565b6000600460008360405160200180807f656e61626c655265717565737453656c6563746f720000000000000000000000815250601501826000191660001916815260200191505060405160208183030381529060405260405180828051906020019080838360208310611b145780518252601f199092019160209182019101611af5565b7f55b3774520b5993024893d303890baa4e84b1244a43c60034d1ced2d3cf2b04b60009081526020527ff7d5eefab3776d7f0450bd0193564bcb4f832ce313ff2836c450fc63a4b944195490565b7f80000000000000000000000000000000000000000000000000000000000000009081161490565b80600460008460405160200180807f61666669726d6174696f6e735369676e6564000000000000000000000000000081525060120182600019166000191681526020019150506040516020818303038152906040526040518082805190602001908083835b6020831061266b5780518252601f19909201916020918201910161264c565b51815160209384036101000a60001901801990921691161790526040805192909401829003909120865285019590955292909201600020805460ff1916941515949094179093555050505050565b806000808460405160200180807f6e756d41666669726d6174696f6e735369676e6564000000000000000000000081525060150182600019166000191681526020019150506040516020818303038152906040526040518082805190602001908083835b6020831061273c5780518252601f19909201916020918201910161271d565b51815160209384036101000a60001901801990921691161790526040805192909401829003909120865285019590955292909201600020939093555050505050565b7f80000000000000000000000000000000000000000000000000000000000000001790565b60008060008360405160200180807f6173796e6353656e646572000000000000000000000000000000000000000000815250600b0182600019166000191681526020019150506040516020818303038152906040526040518082805190602001908083835b602083106128275780518252601f199092019160209182019101612808565b51815160209384036101000a60001901801990921691161790526040805192909401829003909120600081815260029092529290205491955050600160a060020a03169250505080151561287a57600080fd5b600091825260026020526040909120805473ffffffffffffffffffffffffffffffffffffffff1916905592915050565b6000903b1190565b6000806000806000861180156128c85750600085115b15156128d357600080fd5b858514156128e057600080fd5b506000925082915060ff905060015b8315806128fa575082155b15612941578315801561290e575085828716145b15612917578093505b82158015612926575084828616145b1561292f578092505b60089190911b60ff17906001016128ef565b5050600060208190527ff6c66672b1a9fe5622677597b0da8fd180a2c85696efbcf7fe4b1e0f4f0f6108949094557f2f30286a16f86ee067618e1a246990e40c07b7749418a6dd3133f9cfb7e814cc919091557f242329173dfc316001df0a0c3d5a8f58a7ffb1a8b7d99c268303b9a741bacdf9919091557ffb792ae4ad11102b93f26a51b3749c2b3667f8b561566a4806d49896928115949091527f7b62b32ff48350e85ce95b571fde6f8b1096bc44a26db769ad6d0b3a26bf1c6d55565b7f55b3774520b5993024893d303890baa4e84b1244a43c60034d1ced2d3cf2b04b600090815260209081527ff7d5eefab3776d7f0450bd0193564bcb4f832ce313ff2836c450fc63a4b944198290556040805183815290517f52264b89e0fceafb26e79fd49ef8a366eb6297483bf4035b027f0c99a7ad512e929181900390910190a150565b60008111612a9457600080fd5b7f916daedf6915000ff68ced2f0b6773fe6f2582237f92c3c95bb4d79407230071600090815260209081527fd2ea0feb732edb0ffe32efd33a6b9d24d46b16eb34a4d07ce256537b6f131e428290556040805183815290517f4fb76205cd57c896b21511d2114137d8e901b4ccd659e1a0f97d6306795264fb929181900390910190a150565b600160a060020a0381161515612b2f57600080fd5b7f8be0079c531659141344cd1fd0a4f28419497f9722a3daafe3b4186f6b6457e0612b58611c36565b60408051600160a060020a03928316815291841660208301528051918290030190a17f02016836a56b71f0d02689e69e326f4f4c1b9057164ef592671cf0d37c8040c060005260026020527fb7802e97e87ef2842a6cce7da7ffaeaedaa2f61a6a7870b23d9d01fc9b73712e805473ffffffffffffffffffffffffffffffffffffffff1916600160a060020a0392909216919091179055565b7f0a6f646cd611241d8073675e00d1a1ff700fbf1b53fcf473de56d1e6e4b714ba60005260046020527f078d888f9b66f3f8bfa10909e31f1e16240db73449f0500afdbbe3a70da457cc805460ff19166001179055565b6060600360008360405160200180807f6d6573736167657300000000000000000000000000000000000000000000000081525060080182600019166000191681526020019150506040516020818303038152906040526040518082805190602001908083835b60208310612ccd5780518252601f199092019160209182019101612cae565b6001836020036101000a0380198251168184511680821785525050505050509050019150506040518091039020600019166000191681526020019081526020016000208054600181600116156101000203166002900480601f016020809104026020016040519081016040528092919081815260200182805460018160011615610100020316600290048015612da45780601f10612d7957610100808354040283529160200191612da4565b820191906000526020600020905b815481529060010190602001808311612d8757829003601f168201915b50505050509050919050565b6000806000612dbd613548565b9150612dcb82600101613596565b6040805160208082018790523060601b8284015282516034818403018152605490920192839052815191929182918401908083835b60208310612e1f5780518252601f199092019160209182019101612e00565b5181516000196020949094036101000a93909301928316921916919091179052604051920182900390912067ffffffffffffffff861660001b7bffffffffffffffffffffffffffffffffffffffff00000000000000009091169081177e0500000000000000000000000000000000000000000000000000000000000017965093505050505050919050565b80600260008460405160200180807f6173796e6353656e646572000000000000000000000000000000000000000000815250600b0182600019166000191681526020019150506040516020818303038152906040526040518082805190602001908083835b60208310612f2e5780518252601f199092019160209182019101612f0f565b51815160209384036101000a60001901801990921691161790526040805192909401829003909120865285019590955292909201600020805473ffffffffffffffffffffffffffffffffffffffff1916600160a060020a0395909516949094179093555050505050565b60008060008086516041141515612fae57600080fd5b505050602084015160408501516060860151601b60ff60f883901c161480612fdc57508060f81c60ff16601c145b1515612fe757600080fd5b7f7fffffffffffffffffffffffffffffff5d576e7357a4501ddfe92f46681b20a0600083901c111561301857600080fd5b600161302487876135ed565b60408051600080825260208083018085529490945260ff60f887901c16828401526060820188905260808201879052915160a08083019493601f198301938390039091019190865af115801561307e573d6000803e3d6000fd5b5050604051601f19015198975050505050505050565b80600360008460405160200180807f6d6573736167657300000000000000000000000000000000000000000000000081525060080182600019166000191681526020019150506040516020818303038152906040526040518082805190602001908083835b602083106131185780518252601f1990920191602091820191016130f9565b51815160001960209485036101000a0190811690199190911617905260408051949092018490039093208652858301969096525092909301600020845161316695919450920191905061423e565b505050565b80600460008460405160200180807f6d657373616765735369676e6564000000000000000000000000000000000000815250600e0182600019166000191681526020019150506040516020818303038152906040526040518082805190602001908083836020831061266b5780518252601f19909201916020918201910161264c565b6000828211156131fa57fe5b50900390565b80600360008460405160200180807f7369676e61747572657300000000000000000000000000000000000000000000815250600a018260001916600019168152602001915050604051602081830303815290604052604051808280519060200190808383602083106131185780518252601f1990920191602091820191016130f9565b806000808460405160200180807f6e756d4d657373616765735369676e656400000000000000000000000000000081525060110182600019166000191681526020019150506040516020818303038152906040526040518082805190602001908083836020831061273c5780518252601f19909201916020918201910161271d565b80600160a060020a038116151561331b57600080fd5b600160a060020a03831615156133395761333482613807565b613166565b6131668383613813565b6000808060608082613353611962565b1480613362575061336261142c565b151561336d57600080fd5b606487101580156133855750613381612202565b8711155b151561339057600080fd5b63ffffffff60048901511693508363a9059cbb141580156133b557508363095ea7b314155b80156133c55750836323b872dd14155b80156133d5575083634000aea014155b80156133e557508363cae9ca5114155b15156133f057600080fd5b6133fb8988886138c6565b9250925081886040516020018083805190602001908083835b602083106134335780518252601f199092019160209182019101613414565b51815160209384036101000a600019018019909216911617905285519190930192850191508083835b6020831061347b5780518252601f19909201916020918201910161345c565b6001836020036101000a0380198251168184511680821785525050505050509050019250505060405160208183030381529060405290506134bc838261397c565b5090979650505050505050565b60008060008060006134d96142bc565b60606134e488613a19565b959c50939a5091985096509450925090506134fe87613af9565b151561350957600080fd5b602082015161351790613b3f565b151561352257600080fd5b61353e86868963ffffffff881687876000602002015187613b51565b5050505050505050565b7f7ab1577440dd7bedf920cb6de2f9fc6bf7ba98c78c85a3fa1f8311aac95e175960009081526020527fa9b0f75b23e377b9b22d27feaca5d8a12329c0049ebce1dc695b905f3aa4cd005490565b7f7ab1577440dd7bedf920cb6de2f9fc6bf7ba98c78c85a3fa1f8311aac95e1759600090815260205267ffffffffffffffff167fa9b0f75b23e377b9b22d27feaca5d8a12329c0049ebce1dc695b905f3aa4cd0055565b60408051808201909152601a81527f19457468657265756d205369676e6564204d6573736167653a0a00000000000060208201526000906060831561379357816136378651613b9e565b866040516020018084805190602001908083835b6020831061366a5780518252601f19909201916020918201910161364b565b51815160209384036101000a600019018019909216911617905286519190930192860191508083835b602083106136b25780518252601f199092019160209182019101613693565b51815160209384036101000a600019018019909216911617905285519190930192850191508083835b602083106136fa5780518252601f1990920191602091820191016136db565b6001836020036101000a03801982511681845116808217855250505050505090500193505050506040516020818303038152906040526040518082805190602001908083835b6020831061375f5780518252601f199092019160209182019101613740565b6001836020036101000a038019825116818451168082178552505050505050905001915050604051809103902092506137ff565b6040805190810160405280600381526020017f313034000000000000000000000000000000000000000000000000000000000081525090508181866040516020018084805190602001908083836020831061366a5780518252601f19909201916020918201910161364b565b505092915050565b30316113938282613ca6565b604080517f70a0823100000000000000000000000000000000000000000000000000000000815230600482015290518391600091600160a060020a038416916370a0823191602480830192602092919082900301818787803b15801561387857600080fd5b505af115801561388c573d6000803e3d6000fd5b505050506040513d60208110156138a257600080fd5b505190506138c0600160a060020a038516848363ffffffff613d0716565b50505050565b600060606000806000806138d8610d3f565b93506138e2613d99565b92506138ec611e25565b91506138f6613de7565b905061390184612db0565b95508083604f01016040519080825280601f01601f191660200182016040528015613936578160200160208202803883390190505b50945084518501828152848282035287604f87015281604e87015283604d87015288604c8701528960488701523360348701528660208701525050505050935093915050565b604080516020808252835181830152835185937f520d2afde79cbd5db58755ac9480f81bc658e5c517fcae7365a3d832590b01839386939092839283019185019080838360005b838110156139db5781810151838201526020016139c3565b50505050905090810190601f168015613a085780820380516001836020036101000a031916815260200191505b509250505060405180910390a25050565b6000806000806000613a296142bc565b6060600080604f915060208a01519850600160a060020a0360348b015116975060548a01518060601c975063ffffffff8160401c16965080601a1a95508060181a6001808260031b1b03818501945080858e01511687528260191a91506001808360031b1b039050818501945080858e0151166020880152848d51039350505050806040519080825280601f01601f191660200182016040528015613ad8578160200160208202803883390190505b50925060248201915080826004350160208501375050919395979092949650565b7bffffffffffffffffffffffffffffffffffffffffffffffffffffffff1981167e0500000000000000000000000000000000000000000000000000000000000014919050565b6000613b49610d3f565b909114919050565b6000613b61888884888a88613e35565b9050613b6d8682613f2b565b801515613b9257613b7e8683613fae565b613b88868861407e565b613b928689614101565b61353e88888884614184565b60606000808281851515613be75760408051808201909152600181527f300000000000000000000000000000000000000000000000000000000000000060208201529450613c9d565b8593505b8315613c0257600190920191600a84049350613beb565b826040519080825280601f01601f191660200182016040528015613c30578160200160208202803883390190505b5091505060001982015b8515613c995781516000198201916030600a89060160f81b918491908110613c5e57fe5b9060200101907effffffffffffffffffffffffffffffffffffffffffffffffffffffffffffff1916908160001a905350600a86049550613c3a565b8194505b50505050919050565b604051600160a060020a0383169082156108fc029083906000818181858888f193505050501515611393578082613cdb6142d7565b600160a060020a039091168152604051908190036020019082f0801580156124c1573d6000803e3d6000fd5b82600160a060020a031663a9059cbb83836040518363ffffffff1660e01b81526004018083600160a060020a0316600160a060020a0316815260200182815260200192505050600060405180830381600087803b158015613d6757600080fd5b505af1158015613d7b573d6000803e3d6000fd5b505050503d156131665760206000803e600051151561316657600080fd5b7fe504ae1fd6471eea80f18b8532a61a9bb91fba4f5b837f80a1cfb6752350af4460009081526020527f2f30286a16f86ee067618e1a246990e40c07b7749418a6dd3133f9cfb7e814cc5490565b7ffb792ae4ad11102b93f26a51b3749c2b3667f8b561566a4806d498969281159460009081526020527f7b62b32ff48350e85ce95b571fde6f8b1096bc44a26db769ad6d0b3a26bf1c6d5490565b600080613e41886141d2565b613e4a846141f6565b613e538361421a565b8463ffffffff1480613e7357508460405a603f02811515613e7057fe5b04115b1515613e7e57600080fd5b86600160a060020a0316858760405180828051906020019080838360005b83811015613eb4578181015183820152602001613e9c565b50505050905090810190601f168015613ee15780820380516001836020036101000a031916815260200191505b5091505060006040518083038160008787f1925050509050613f0281611e22565b613f0c60006141d2565b613f1660006141f6565b613f20600061421a565b979650505050505050565b80600460008460405160200180807f6d65737361676543616c6c53746174757300000000000000000000000000000081525060110182600019166000191681526020019150506040516020818303038152906040526040518082805190602001908083836020831061266b5780518252601f19909201916020918201910161264c565b806040518082805190602001908083835b60208310613fde5780518252601f199092019160209182019101613fbf565b51815160001960209485036101000a01908116901991909116179052604080519490920184900384207f6661696c65644d657373616765446174614861736800000000000000000000008583015260358086018a9052835180870390910181526055909501928390528451600091821c97509095508594935082918401908083836020831061273c5780518252601f19909201916020918201910161271d565b80600260008460405160200180807f6661696c65644d65737361676552656365697665720000000000000000000000815250601501826000191660001916815260200191505060405160208183030381529060405260405180828051906020019080838360208310612f2e5780518252601f199092019160209182019101612f0f565b80600260008460405160200180807f6661696c65644d65737361676553656e64657200000000000000000000000000815250601301826000191660001916815260200191505060405160208183030381529060405260405180828051906020019080838360208310612f2e5780518252601f199092019160209182019101612f0f565b60408051821515815290518391600160a060020a0380871692908816917fe194ef610f9150a2db4110b3db5116fd623175dca3528d7ae7046a1042f84fe7919081900360200190a450505050565b7f7b58b2a669d8e0992eae9eaef641092c0f686fd31070e7236865557fa1571b5b55565b7fe34bb2103dc34f2c144cc216c132d6ffb55dac57575c22e089161bbe6508330455565b7f7f0fcd9e49860f055dd0c1682d635d309ecb5e3011654c716d9eb59a7ddec7d255565b828054600181600116156101000203166002900490600052602060002090601f016020900481019282601f1061427f57805160ff19168380011785556142ac565b828001600101855582156142ac579182015b828111156142ac578251825591602001919060010190614291565b506142b89291506142e6565b5090565b60408051808201825290600290829080388339509192915050565b60405160218061430183390190565b61085591905b808211156142b857600081556001016142ec5600608060405260405160208060218339810160405251600160a060020a038116ff00a165627a7a723058205390bd530162311af6d0bfe09883aa0aa0007c8032e8b9675f391cca4a6873180029",
    "linkReferences": {}
  },
  "methodIdentifiers": {
    "affirmationsSigned(bytes32)": "7698da24",
    "allowReentrantRequests()": "4d4cb7a2",
    "claimTokens(address,address)": "69ffa08a",
    "confirmInformation(bytes32,bool,bytes)": "0f08d4d0",
    "decimalShift()": "dae5f0fd",
    "deployedAtBlock()": "9a454b99",
    "destinationChainId()": "b0750611",
    "enableAsyncRequestSelector(bytes32,bool)": "c29b1e8a",
    "executeAffirmation(bytes)": "e7a2c01f",
    "failedMessageDataHash(bytes32)": "e37c3289",
    "failedMessageReceiver(bytes32)": "3f9a8e7e",
    "failedMessageSender(bytes32)": "4a610b04",
    "gasPrice()": "fe173b97",
    "getBridgeInterfacesVersion()": "9cb7595a",
    "getBridgeMode()": "437764df",
    "initialize(uint256,uint256,address,uint256,uint256,uint256,address)": "25fbf4ee",
    "isAlreadyProcessed(uint256)": "ffd19e8c",
    "isAsyncRequestSelectorEnabled(bytes32)": "fb67e779",
    "isInitialized()": "392e53cd",
    "maxGasPerTx()": "e5789d03",
    "message(bytes32)": "490a32c6",
    "messageCallStatus(bytes32)": "cb08a10c",
    "messageId()": "669f618b",
    "messageSender()": "d67bdd25",
    "messageSourceChainId()": "9e307dff",
    "messagesSigned(bytes32)": "8f4b4b98",
    "numAffirmationsSigned(bytes32)": "6ae1a976",
    "numMessagesSigned(bytes32)": "0cbf0601",
    "owner()": "8da5cb5b",
    "requireToConfirmMessage(address,bytes,uint256)": "94643f71",
    "requireToGetInformation(bytes32,bytes)": "525ea937",
    "requireToPassMessage(address,bytes,uint256)": "dc8601b3",
    "requiredBlockConfirmations()": "3f0a9f65",
    "requiredSignatures()": "8d068043",
    "setAllowReentrantRequests(bool)": "c2231ad2",
    "setChainIds(uint256,uint256)": "467ad35a",
    "setGasPrice(uint256)": "bf1fe420",
    "setMaxGasPerTx(uint256)": "7bac29c7",
    "setRequiredBlockConfirmations(uint256)": "acf5c689",
    "signature(bytes32,uint256)": "1812d996",
    "sourceChainId()": "1544298e",
    "submitSignature(bytes,bytes)": "630cea8e",
    "transactionHash()": "0ac1c313",
    "transferOwnership(address)": "f2fde38b",
    "validatorContract()": "99439089"
  },
  "id": 118
}