{
  "abi": [
    {
      "constant": true,
      "inputs": [],
      "name": "version",
      "outputs": [
        {
          "name": "",
          "type": "uint256"
        }
      ],
      "payable": false,
      "stateMutability": "view",
      "type": "function"
    },
    {
      "constant": true,
      "inputs": [],
      "name": "implementation",
      "outputs": [
        {
          "name": "",
          "type": "address"
        }
      ],
      "payable": false,
      "stateMutability": "view",
      "type": "function"
    }
  ],
  "bytecode": {
    "object": "0x608060405234801561001057600080fd5b5060de8061001f6000396000f300608060405260043610602c5760003560e01c63ffffffff16806354fd4d501460315780635c60da1b146055575b600080fd5b348015603c57600080fd5b5060436090565b60408051918252519081900360200190f35b348015606057600080fd5b5060676096565b6040805173ffffffffffffffffffffffffffffffffffffffff9092168252519081900360200190f35b60005490565b60015473ffffffffffffffffffffffffffffffffffffffff16905600a165627a7a723058201594bd52a1caeda4d38a52d90e2406979ff22973803961662abaf5bc22785a760029",
    "linkReferences": {}
  },
  "methodIdentifiers": {
    "implementation()": "5c60da1b",
    "version()": "54fd4d50"
  },
  "id": 67
}