{
  "abi": [
    {
      "constant": true,
      "inputs": [],
      "name": "totalSupply",
      "outputs": [
        {
          "name": "",
          "type": "uint256"
        }
      ],
      "payable": false,
      "stateMutability": "view",
      "type": "function"
    },
    {
      "constant": false,
      "inputs": [
        {
          "name": "_value",
          "type": "uint256"
        }
      ],
      "name": "burn",
      "outputs": [],
      "payable": false,
      "stateMutability": "nonpayable",
      "type": "function"
    },
    {
      "constant": true,
      "inputs": [
        {
          "name": "_owner",
          "type": "address"
        }
      ],
      "name": "balanceOf",
      "outputs": [
        {
          "name": "",
          "type": "uint256"
        }
      ],
      "payable": false,
      "stateMutability": "view",
      "type": "function"
    },
    {
      "constant": false,
      "inputs": [
        {
          "name": "_to",
          "type": "address"
        },
        {
          "name": "_value",
          "type": "uint256"
        }
      ],
      "name": "transfer",
      "outputs": [
        {
          "name": "",
          "type": "bool"
        }
      ],
      "payable": false,
      "stateMutability": "nonpayable",
      "type": "function"
    },
    {
      "anonymous": false,
      "inputs": [
        {
          "indexed": true,
          "name": "burner",
          "type": "address"
        },
        {
          "indexed": false,
          "name": "value",
          "type": "uint256"
        }
      ],
      "name": "Burn",
      "type": "event"
    },
    {
      "anonymous": false,
      "inputs": [
        {
          "indexed": true,
          "name": "from",
          "type": "address"
        },
        {
          "indexed": true,
          "name": "to",
          "type": "address"
        },
        {
          "indexed": false,
          "name": "value",
          "type": "uint256"
        }
      ],
      "name": "Transfer",
      "type": "event"
    }
  ],
  "bytecode": {
    "object": "0x608060405234801561001057600080fd5b50610343806100206000396000f3006080604052600436106100455760003560e01c63ffffffff16806318160ddd1461004a57806342966c681461007157806370a082311461008b578063a9059cbb146100ac575b600080fd5b34801561005657600080fd5b5061005f6100e4565b60408051918252519081900360200190f35b34801561007d57600080fd5b506100896004356100ea565b005b34801561009757600080fd5b5061005f600160a060020a03600435166100f7565b3480156100b857600080fd5b506100d0600160a060020a0360043516602435610112565b604080519115158252519081900360200190f35b60015490565b6100f433826101f1565b50565b600160a060020a031660009081526020819052604090205490565b3360009081526020819052604081205482111561012e57600080fd5b600160a060020a038316151561014357600080fd5b33600090815260208190526040902054610163908363ffffffff6102f216565b3360009081526020819052604080822092909255600160a060020a03851681522054610195908363ffffffff61030416565b600160a060020a038416600081815260208181526040918290209390935580518581529051919233927fddf252ad1be2c89b69c2b068fc378daa952ba7f163c4a11628f55a4df523b3ef9281900390910190a350600192915050565b600160a060020a03821660009081526020819052604090205481111561021657600080fd5b600160a060020a03821660009081526020819052604090205461023f908263ffffffff6102f216565b600160a060020a03831660009081526020819052604090205560015461026b908263ffffffff6102f216565b600155604080518281529051600160a060020a038416917fcc16f5dbb4873280815c1ee09dbd06736cffcc184412cf7a71a0fdb75d397ca5919081900360200190a2604080518281529051600091600160a060020a038516917fddf252ad1be2c89b69c2b068fc378daa952ba7f163c4a11628f55a4df523b3ef9181900360200190a35050565b6000828211156102fe57fe5b50900390565b8181018281101561031157fe5b929150505600a165627a7a72305820dc0c65c9d1778dabd74e301217b81b28e67643cb00d9c3b59f0469657030a0370029",
    "linkReferences": {}
  },
  "methodIdentifiers": {
    "balanceOf(address)": "70a08231",
    "burn(uint256)": "42966c68",
    "totalSupply()": "18160ddd",
    "transfer(address,uint256)": "a9059cbb"
  },
  "id": 135
}