{
  "abi": [
    {
      "constant": true,
      "inputs": [],
      "name": "wethToken",
      "outputs": [
        {
          "name": "",
          "type": "address"
        }
      ],
      "payable": false,
      "stateMutability": "view",
      "type": "function"
    },
    {
      "constant": true,
      "inputs": [],
      "name": "stakeToken",
      "outputs": [
        {
          "name": "",
          "type": "address"
        }
      ],
      "payable": false,
      "stateMutability": "view",
      "type": "function"
    },
    {
      "constant": true,
      "inputs": [],
      "name": "uniswapRouterV2",
      "outputs": [
        {
          "name": "",
          "type": "address"
        }
      ],
      "payable": false,
      "stateMutability": "view",
      "type": "function"
    },
    {
      "constant": true,
      "inputs": [],
      "name": "minReceivedFraction",
      "outputs": [
        {
          "name": "",
          "type": "uint256"
        }
      ],
      "payable": false,
      "stateMutability": "view",
      "type": "function"
    },
    {
      "constant": true,
      "inputs": [],
      "name": "compToken",
      "outputs": [
        {
          "name": "",
          "type": "address"
        }
      ],
      "payable": false,
      "stateMutability": "view",
      "type": "function"
    },
    {
      "constant": false,
      "inputs": [
        {
          "name": "_token",
          "type": "address"
        },
        {
          "name": "_to",
          "type": "address"
        }
      ],
      "name": "claimTokens",
      "outputs": [],
      "payable": false,
      "stateMutability": "nonpayable",
      "type": "function"
    },
    {
      "constant": true,
      "inputs": [],
      "name": "burnAddress",
      "outputs": [
        {
          "name": "",
          "type": "address"
        }
      ],
      "payable": false,
      "stateMutability": "view",
      "type": "function"
    },
    {
      "constant": false,
      "inputs": [],
      "name": "renounceOwnership",
      "outputs": [],
      "payable": false,
      "stateMutability": "nonpayable",
      "type": "function"
    },
    {
      "constant": false,
      "inputs": [
        {
          "name": "_token",
          "type": "address"
        }
      ],
      "name": "onInterestReceived",
      "outputs": [],
      "payable": false,
      "stateMutability": "nonpayable",
      "type": "function"
    },
    {
      "constant": true,
      "inputs": [],
      "name": "owner",
      "outputs": [
        {
          "name": "",
          "type": "address"
        }
      ],
      "payable": false,
      "stateMutability": "view",
      "type": "function"
    },
    {
      "constant": true,
      "inputs": [],
      "name": "daiToken",
      "outputs": [
        {
          "name": "",
          "type": "address"
        }
      ],
      "payable": false,
      "stateMutability": "view",
      "type": "function"
    },
    {
      "constant": false,
      "inputs": [
        {
          "name": "_minFraction",
          "type": "uint256"
        }
      ],
      "name": "setMinFractionReceived",
      "outputs": [],
      "payable": false,
      "stateMutability": "nonpayable",
      "type": "function"
    },
    {
      "constant": false,
      "inputs": [
        {
          "name": "_newOwner",
          "type": "address"
        }
      ],
      "name": "transferOwnership",
      "outputs": [],
      "payable": false,
      "stateMutability": "nonpayable",
      "type": "function"
    },
    {
      "anonymous": false,
      "inputs": [
        {
          "indexed": true,
          "name": "previousOwner",
          "type": "address"
        }
      ],
      "name": "OwnershipRenounced",
      "type": "event"
    },
    {
      "anonymous": false,
      "inputs": [
        {
          "indexed": true,
          "name": "previousOwner",
          "type": "address"
        },
        {
          "indexed": true,
          "name": "newOwner",
          "type": "address"
        }
      ],
      "name": "OwnershipTransferred",
      "type": "event"
    }
  ],
  "bytecode": {
    "object": "0x60806040819052600060018190558054600160a060020a031916331781557f095ea7b3000000000000000000000000000000000000000000000000000000008252737a250d5630b4cf539739df2c5dacb4c659f2488d60845260001960a452736b175474e89094c44da98b954eedeac495271d0f9163095ea7b39160c491602091604490829087803b15801561009457600080fd5b505af11580156100a8573d6000803e3d6000fd5b505050506040513d60208110156100be57600080fd5b5050604080517f095ea7b3000000000000000000000000000000000000000000000000000000008152737a250d5630b4cf539739df2c5dacb4c659f2488d60048201526000196024820152905173c00e94cb662c3520282e6f5717214004a7f268889163095ea7b39160448083019260209291908290030181600087803b15801561014857600080fd5b505af115801561015c573d6000803e3d6000fd5b505050506040513d602081101561017257600080fd5b5050610a91806101836000396000f3006080604052600436106100a85760003560e01c63ffffffff1680634b57b0be146100ad57806351ed6a30146100de578063596fa9e3146100f35780635adc334e146101085780636605dfa71461012f57806369ffa08a1461014457806370d5ae051461016d578063715018a61461018257806381e3f276146101975780638da5cb5b146101b8578063be22f546146101cd578063e3e323f6146101e2578063f2fde38b146101fa575b600080fd5b3480156100b957600080fd5b506100c261021b565b60408051600160a060020a039092168252519081900360200190f35b3480156100ea57600080fd5b506100c2610233565b3480156100ff57600080fd5b506100c261024b565b34801561011457600080fd5b5061011d610263565b60408051918252519081900360200190f35b34801561013b57600080fd5b506100c2610269565b34801561015057600080fd5b5061016b600160a060020a0360043581169060243516610281565b005b34801561017957600080fd5b506100c26102a6565b34801561018e57600080fd5b5061016b6102ac565b3480156101a357600080fd5b5061016b600160a060020a0360043516610318565b3480156101c457600080fd5b506100c2610742565b3480156101d957600080fd5b506100c2610751565b3480156101ee57600080fd5b5061016b600435610769565b34801561020657600080fd5b5061016b600160a060020a0360043516610799565b73c02aaa39b223fe8d0a0e5c4f27ead9083c756cc281565b730ae055097c6d159879521c384f1d2123d1f195e681565b737a250d5630b4cf539739df2c5dacb4c659f2488d81565b60015481565b73c00e94cb662c3520282e6f5717214004a7f2688881565b600054600160a060020a0316331461029857600080fd5b6102a282826107bc565b5050565b61dead81565b600054600160a060020a031633146102c357600080fd5b60008054604051600160a060020a03909116917ff8df31144d9c2f0f6b59d69b8b98abd5459d07f2742c4df920b25aae33c6482091a26000805473ffffffffffffffffffffffffffffffffffffffff19169055565b6040805160038082526080820190925260609160009182916020820185803883390190505092508383600081518110151561034f57fe5b600160a060020a03909216602092830290910190910152825173c02aaa39b223fe8d0a0e5c4f27ead9083c756cc2908490600190811061038b57fe5b600160a060020a039092166020928302909101909101528251730ae055097c6d159879521c384f1d2123d1f195e690849060029081106103c757fe5b600160a060020a039283166020918202909201810191909152604080517f70a082310000000000000000000000000000000000000000000000000000000081523060048201529051928716926370a08231926024808401939192918290030181600087803b15801561043857600080fd5b505af115801561044c573d6000803e3d6000fd5b505050506040513d602081101561046257600080fd5b5051604080517fd06ca61f000000000000000000000000000000000000000000000000000000008152670de0b6b3a764000060048201818152602483019384528751604484015287519496506ec097ce7bc90715b34b9f100000000094737a250d5630b4cf539739df2c5dacb4c659f2488d9463d06ca61f948a93926064909101906020858101910280838360005b838110156105095781810151838201526020016104f1565b505050509050019350505050600060405180830381600087803b15801561052f57600080fd5b505af1158015610543573d6000803e3d6000fd5b505050506040513d6000823e601f3d908101601f19168201604052602081101561056c57600080fd5b81019080805164010000000081111561058457600080fd5b8201602081018481111561059757600080fd5b81518560208202830111640100000000821117156105b457600080fd5b5050805190935060029250821090506105c957fe5b906020019060200201518360015402028115156105e257fe5b049050737a250d5630b4cf539739df2c5dacb4c659f2488d600160a060020a03166338ed173983838661dead426040518663ffffffff1660e01b8152600401808681526020018581526020018060200184600160a060020a0316600160a060020a03168152602001838152602001828103825285818151815260200191508051906020019060200280838360005b83811015610688578181015183820152602001610670565b505050509050019650505050505050600060405180830381600087803b1580156106b157600080fd5b505af11580156106c5573d6000803e3d6000fd5b505050506040513d6000823e601f3d908101601f1916820160405260208110156106ee57600080fd5b81019080805164010000000081111561070657600080fd5b8201602081018481111561071957600080fd5b815185602082028301116401000000008211171561073657600080fd5b50505050505050505050565b600054600160a060020a031681565b736b175474e89094c44da98b954eedeac495271d0f81565b600054600160a060020a0316331461078057600080fd5b670de0b6b3a7640000811061079457600080fd5b600155565b600054600160a060020a031633146107b057600080fd5b6107b9816107ff565b50565b80600160a060020a03811615156107d257600080fd5b600160a060020a03831615156107f0576107eb8261087c565b6107fa565b6107fa8383610888565b505050565b600160a060020a038116151561081457600080fd5b60008054604051600160a060020a03808516939216917f8be0079c531659141344cd1fd0a4f28419497f9722a3daafe3b4186f6b6457e091a36000805473ffffffffffffffffffffffffffffffffffffffff1916600160a060020a0392909216919091179055565b30316102a2828261093b565b604080517f70a0823100000000000000000000000000000000000000000000000000000000815230600482015290518391600091600160a060020a038416916370a0823191602480830192602092919082900301818787803b1580156108ed57600080fd5b505af1158015610901573d6000803e3d6000fd5b505050506040513d602081101561091757600080fd5b50519050610935600160a060020a038516848363ffffffff6109a316565b50505050565b604051600160a060020a0383169082156108fc029083906000818181858888f1935050505015156102a2578082610970610a35565b600160a060020a039091168152604051908190036020019082f08015801561099c573d6000803e3d6000fd5b5050505050565b82600160a060020a031663a9059cbb83836040518363ffffffff1660e01b81526004018083600160a060020a0316600160a060020a0316815260200182815260200192505050600060405180830381600087803b158015610a0357600080fd5b505af1158015610a17573d6000803e3d6000fd5b505050503d156107fa5760206000803e60005115156107fa57600080fd5b604051602180610a45833901905600608060405260405160208060218339810160405251600160a060020a038116ff00a165627a7a72305820b058e431b26fc23cb81d036cb50245f94971910cecd03e8346e55b99ebe75f730029",
    "linkReferences": {}
  },
  "methodIdentifiers": {
    "burnAddress()": "70d5ae05",
    "claimTokens(address,address)": "69ffa08a",
    "compToken()": "6605dfa7",
    "daiToken()": "be22f546",
    "minReceivedFraction()": "5adc334e",
    "onInterestReceived(address)": "81e3f276",
    "owner()": "8da5cb5b",
    "renounceOwnership()": "715018a6",
    "setMinFractionReceived(uint256)": "e3e323f6",
    "stakeToken()": "51ed6a30",
    "transferOwnership(address)": "f2fde38b",
    "uniswapRouterV2()": "596fa9e3",
    "wethToken()": "4b57b0be"
  },
  "id": 92
}