{
  "abi": [
    {
      "constant": true,
      "inputs": [],
      "name": "upgradeabilityOwner",
      "outputs": [
        {
          "name": "",
          "type": "address"
        }
      ],
      "payable": false,
      "stateMutability": "view",
      "type": "function"
    }
  ],
  "bytecode": {
    "object": "0x6080604052348015600f57600080fd5b5060aa8061001e6000396000f30060806040526004361060225760003560e01c63ffffffff1680636fde8202146027575b600080fd5b348015603257600080fd5b5060396062565b6040805173ffffffffffffffffffffffffffffffffffffffff9092168252519081900360200190f35b60005473ffffffffffffffffffffffffffffffffffffffff16905600a165627a7a723058206475e443632b20bc9fe1ca25f952ace4633676d353346eac8a28eda0003de9590029",
    "linkReferences": {}
  },
  "methodIdentifiers": {
    "upgradeabilityOwner()": "6fde8202"
  },
  "id": 65
}