{
  "abi": [
    {
      "constant": false,
      "inputs": [
        {
          "name": "amountOut",
          "type": "uint256"
        },
        {
          "name": "amountInMax",
          "type": "uint256"
        },
        {
          "name": "path",
          "type": "address[]"
        },
        {
          "name": "to",
          "type": "address"
        },
        {
          "name": "deadline",
          "type": "uint256"
        }
      ],
      "name": "swapTokensForExactETH",
      "outputs": [
        {
          "name": "amounts",
          "type": "uint256[]"
        }
      ],
      "payable": false,
      "stateMutability": "nonpayable",
      "type": "function"
    },
    {
      "constant": true,
      "inputs": [],
      "name": "WETH",
      "outputs": [
        {
          "name": "",
          "type": "address"
        }
      ],
      "payable": false,
      "stateMutability": "view",
      "type": "function"
    },
    {
      "constant": true,
      "inputs": [
        {
          "name": "amountIn",
          "type": "uint256"
        },
        {
          "name": "path",
          "type": "address[]"
        }
      ],
      "name": "getAmountsOut",
      "outputs": [
        {
          "name": "amounts",
          "type": "uint256[]"
        }
      ],
      "payable": false,
      "stateMutability": "pure",
      "type": "function"
    },
    {
      "payable": true,
      "stateMutability": "payable",
      "type": "fallback"
    }
  ],
  "bytecode": {
    "object": "0x608060405234801561001057600080fd5b50610302806100206000396000f30060806040526004361061003a5760003560e01c63ffffffff1680634a25d94a1461003c578063ad5c4648146100d0578063d06ca61f1461010e575b005b34801561004857600080fd5b506100806004803590602480359160443591820191013573ffffffffffffffffffffffffffffffffffffffff60643516608435610132565b60408051602080825283518183015283519192839290830191858101910280838360005b838110156100bc5781810151838201526020016100a4565b505050509050019250505060405180910390f35b3480156100dc57600080fd5b506100e5610274565b6040805173ffffffffffffffffffffffffffffffffffffffff9092168252519081900360200190f35b34801561011a57600080fd5b50610080600480359060248035908101910135610278565b606086606481028686600081811061014657fe5b604080517f23b872dd0000000000000000000000000000000000000000000000000000000081523360048201523060248201526044810186905290516020928302949094013573ffffffffffffffffffffffffffffffffffffffff16936323b872dd9350606480830193928290030181600087803b1580156101c757600080fd5b505af11580156101db573d6000803e3d6000fd5b505050506040513d60208110156101f157600080fd5b505060405133908390600081818185875af192505050151561021257600080fd5b60408051600280825260608201835290916020830190803883390190505092508083600081518110151561024257fe5b60209081029091010152825182908490600190811061025d57fe5b602090810290910101525090979650505050505050565b3090565b6040805160028082526060808301845292602083019080388339019050509050838160008151811015156102a857fe5b60209081029091010152606484048160018151811015156102c557fe5b6020908102909101015293925050505600a165627a7a72305820ebe4c79ac21bf7bf1fdc08df1dfc4d55593414c5407c3e5695ef01478119c6420029",
    "linkReferences": {}
  },
  "methodIdentifiers": {
    "WETH()": "ad5c4648",
    "getAmountsOut(uint256,address[])": "d06ca61f",
    "swapTokensForExactETH(uint256,uint256,address[],address,uint256)": "4a25d94a"
  },
  "id": 59
}