{
  "abi": [
    {
      "constant": true,
      "inputs": [],
      "name": "decimalShift",
      "outputs": [
        {
          "name": "",
          "type": "int256"
        }
      ],
      "payable": false,
      "stateMutability": "view",
      "type": "function"
    }
  ],
  "bytecode": {
    "object": "0x6080604052348015600f57600080fd5b5060c58061001e6000396000f30060806040526004361060225760003560e01c63ffffffff168063dae5f0fd146027575b600080fd5b348015603257600080fd5b506039604b565b60408051918252519081900360200190f35b7f1e8ecaafaddea96ed9ac6d2642dcdfe1bebe58a930b1085842d8fc122b371ee560009081526020527fd5c78dd9468716ca9bb96be25d56436811b20aab3523a9904b12deef1cab239d54905600a165627a7a723058206abe25b99131512a25d1feffa0da21f5bbcbef7b7f9dbcbdb627321efbb2fdc20029",
    "linkReferences": {}
  },
  "methodIdentifiers": {
    "decimalShift()": "dae5f0fd"
  },
  "id": 16
}