{
  "abi": [
    {
      "constant": true,
      "inputs": [],
      "name": "version",
      "outputs": [
        {
          "name": "",
          "type": "uint256"
        }
      ],
      "payable": false,
      "stateMutability": "view",
      "type": "function"
    },
    {
      "constant": true,
      "inputs": [],
      "name": "implementation",
      "outputs": [
        {
          "name": "",
          "type": "address"
        }
      ],
      "payable": false,
      "stateMutability": "view",
      "type": "function"
    },
    {
      "payable": true,
      "stateMutability": "payable",
      "type": "fallback"
    },
    {
      "anonymous": false,
      "inputs": [
        {
          "indexed": false,
          "name": "version",
          "type": "uint256"
        },
        {
          "indexed": true,
          "name": "implementation",
          "type": "address"
        }
      ],
      "name": "Upgraded",
      "type": "event"
    }
  ],
  "bytecode": {
    "object": "0x608060405234801561001057600080fd5b5061013a806100206000396000f30060806040526004361061002f5760003560e01c63ffffffff16806354fd4d50146100875780635c60da1b146100ae575b60006100396100ec565b905073ffffffffffffffffffffffffffffffffffffffff8116151561005d57600080fd5b60405136600082376000803683855af43d82016040523d6000833e808015610083573d83f35b3d83fd5b34801561009357600080fd5b5061009c610108565b60408051918252519081900360200190f35b3480156100ba57600080fd5b506100c36100ec565b6040805173ffffffffffffffffffffffffffffffffffffffff9092168252519081900360200190f35b60015473ffffffffffffffffffffffffffffffffffffffff1690565b600054905600a165627a7a72305820c9c3e92aed8680b49f93e281dd3039cb8e6573762a7a45c00a45e19e5fba3b280029",
    "linkReferences": {}
  },
  "methodIdentifiers": {
    "implementation()": "5c60da1b",
    "version()": "54fd4d50"
  },
  "id": 66
}